{
    "contractName": "supplyChainAgriculture",
    "abi": [
        {
            "inputs": [],
            "stateMutability": "nonpayable",
            "type": "constructor"
        },
        {
            "anonymous": false,
            "inputs": [
                {
                    "indexed": false,
                    "internalType": "address",
                    "name": "farmer",
                    "type": "address"
                },
                {
                    "indexed": false,
                    "internalType": "address",
                    "name": "seedCompany",
                    "type": "address"
                },
                {
                    "indexed": false,
                    "internalType": "string",
                    "name": "seedType",
                    "type": "string"
                },
                {
                    "indexed": false,
                    "internalType": "string",
                    "name": "variety",
                    "type": "string"
                },
                {
                    "indexed": false,
                    "internalType": "uint256",
                    "name": "quantity",
                    "type": "uint256"
                },
                {
                    "indexed": false,
                    "internalType": "uint256",
                    "name": "time",
                    "type": "uint256"
                }
            ],
            "name": "sellOfSeeds",
            "type": "event"
        },
        {
            "anonymous": false,
            "inputs": [
                {
                    "indexed": false,
                    "internalType": "address",
                    "name": "farmer",
                    "type": "address"
                },
                {
                    "indexed": false,
                    "internalType": "address",
                    "name": "Seedcompany",
                    "type": "address"
                },
                {
                    "indexed": false,
                    "internalType": "string",
                    "name": "seedType",
                    "type": "string"
                },
                {
                    "indexed": false,
                    "internalType": "string",
                    "name": "variety",
                    "type": "string"
                },
                {
                    "indexed": false,
                    "internalType": "uint256",
                    "name": "quantity",
                    "type": "uint256"
                },
                {
                    "indexed": false,
                    "internalType": "uint256",
                    "name": "Price",
                    "type": "uint256"
                },
                {
                    "indexed": false,
                    "internalType": "uint256",
                    "name": "time",
                    "type": "uint256"
                }
            ],
            "name": "transferComplete",
            "type": "event"
        },
        {
            "inputs": [
                {
                    "internalType": "string",
                    "name": "_hash",
                    "type": "string"
                }
            ],
            "name": "addFarmer",
            "outputs": [],
            "stateMutability": "nonpayable",
            "type": "function"
        },
        {
            "inputs": [
                {
                    "internalType": "string",
                    "name": "_name",
                    "type": "string"
                },
                {
                    "internalType": "string",
                    "name": "_hash",
                    "type": "string"
                }
            ],
            "name": "addSeedCompany",
            "outputs": [],
            "stateMutability": "nonpayable",
            "type": "function"
        },
        {
            "inputs": [
                {
                    "internalType": "address payable",
                    "name": "_seedCompany",
                    "type": "address"
                },
                {
                    "internalType": "string",
                    "name": "_seedType",
                    "type": "string"
                },
                {
                    "internalType": "string",
                    "name": "_variety",
                    "type": "string"
                },
                {
                    "internalType": "uint256",
                    "name": "_quantity",
                    "type": "uint256"
                }
            ],
            "name": "buySeeds",
            "outputs": [],
            "stateMutability": "payable",
            "type": "function"
        },
        {
            "inputs": [],
            "name": "createContract",
            "outputs": [],
            "stateMutability": "nonpayable",
            "type": "function"
        },
        {
            "inputs": [],
            "name": "getListOfFarmer",
            "outputs": [
                {
                    "components": [
                        {
                            "internalType": "address payable",
                            "name": "farmerAddress",
                            "type": "address"
                        },
                        {
                            "internalType": "string",
                            "name": "hash",
                            "type": "string"
                        }
                    ],
                    "internalType": "struct supplyChainAgriculture.Farmer[]",
                    "name": "",
                    "type": "tuple[]"
                },
                {
                    "internalType": "uint256",
                    "name": "",
                    "type": "uint256"
                }
            ],
            "stateMutability": "view",
            "type": "function"
        },
        {
            "inputs": [],
            "name": "getListOfseedCompany",
            "outputs": [
                {
                    "components": [
                        {
                            "internalType": "address payable",
                            "name": "companyAddress",
                            "type": "address"
                        },
                        {
                            "internalType": "string",
                            "name": "CompanyName",
                            "type": "string"
                        },
                        {
                            "internalType": "string",
                            "name": "hash",
                            "type": "string"
                        }
                    ],
                    "internalType": "struct supplyChainAgriculture.SeedCompany[]",
                    "name": "",
                    "type": "tuple[]"
                },
                {
                    "internalType": "uint256",
                    "name": "",
                    "type": "uint256"
                }
            ],
            "stateMutability": "view",
            "type": "function"
        },
        {
            "inputs": [
                {
                    "internalType": "address",
                    "name": "_farmer",
                    "type": "address"
                },
                {
                    "internalType": "string",
                    "name": "_seedType",
                    "type": "string"
                },
                {
                    "internalType": "string",
                    "name": "_variety",
                    "type": "string"
                },
                {
                    "internalType": "uint256",
                    "name": "_quantity",
                    "type": "uint256"
                }
            ],
            "name": "sellSeeds",
            "outputs": [],
            "stateMutability": "nonpayable",
            "type": "function"
        },
        {
            "inputs": [
                {
                    "internalType": "string",
                    "name": "_seedType",
                    "type": "string"
                },
                {
                    "internalType": "string",
                    "name": "_variety",
                    "type": "string"
                },
                {
                    "internalType": "uint256",
                    "name": "_quantity",
                    "type": "uint256"
                },
                {
                    "internalType": "uint256",
                    "name": "_pricePer10g",
                    "type": "uint256"
                }
            ],
            "name": "updateSeedDetails",
            "outputs": [],
            "stateMutability": "nonpayable",
            "type": "function"
        }
    ],
    "bytecode": "60806040526000805461ffff60a01b191681556005819055600b5534801561002657600080fd5b50600080546001600160a01b03191633179055611524806100486000396000f3fe60806040526004361061007b5760003560e01c8063412a5a6d1161004e578063412a5a6d14610111578063719fae3214610126578063b9ac42b214610146578063d49376ca1461015957600080fd5b806302ca78f21461008057806303f8027a146100a25780631aeb4ec7146100ce5780632d7e2e8b146100f1575b600080fd5b34801561008c57600080fd5b506100a061009b366004610fbd565b610179565b005b3480156100ae57600080fd5b506100b76102ff565b6040516100c5929190611097565b60405180910390f35b3480156100da57600080fd5b506100e361047c565b6040516100c592919061111b565b3480156100fd57600080fd5b506100a061010c3660046111bb565b610612565b34801561011d57600080fd5b506100a06106f5565b34801561013257600080fd5b506100a06101413660046111f8565b6107c1565b6100a0610154366004610fbd565b6108de565b34801561016557600080fd5b506100a061017436600461126c565b610d5c565b3360008181526007602052604090205460ff166101dd5760405162461bcd60e51b815260206004820152601b60248201527f5365656420636f6d70616e7920646f65736e277420657869737421000000000060448201526064015b60405180910390fd5b3360009081526007602052604090205460ff1661023c5760405162461bcd60e51b815260206004820152601a60248201527f5365656420436f6d70616e7920446f65736e277420457869737400000000000060448201526064016101d4565b600054600160a01b900460ff161515600103610298577f0abb2b17e070b031d143b94e96bb7894984f9776f01493cbcc2f4191d803a1b685338686864260405161028b969594939291906112d0565b60405180910390a16102f8565b60405162461bcd60e51b815260206004820152602f60248201527f4661726d657220646f65736e2774206578697374206f72206865206469646e2760448201526e7420706179207468652062696c6c7360881b60648201526084016101d4565b5050505050565b60008054606091906001600160a01b0316331461036f5760405162461bcd60e51b815260206004820152602860248201527f536f7272792c205468697320696e666f726d6174696f6e20697320636f6e66696044820152673232b73a34b0b61760c11b60648201526084016101d4565b600260055481805480602002602001604051908101604052809291908181526020016000905b8282101561046e576000848152602090819020604080518082019091526002850290910180546001600160a01b0316825260018101805492939192918401916103dd90611324565b80601f016020809104026020016040519081016040528092919081815260200182805461040990611324565b80156104565780601f1061042b57610100808354040283529160200191610456565b820191906000526020600020905b81548152906001019060200180831161043957829003601f168201915b50505050508152505081526020019060010190610395565b505050509150915091509091565b606060006006600b5481805480602002602001604051908101604052809291908181526020016000905b8282101561046e57600084815260209081902060408051606081019091526003850290910180546001600160a01b0316825260018101805492939192918401916104ef90611324565b80601f016020809104026020016040519081016040528092919081815260200182805461051b90611324565b80156105685780601f1061053d57610100808354040283529160200191610568565b820191906000526020600020905b81548152906001019060200180831161054b57829003601f168201915b5050505050815260200160028201805461058190611324565b80601f01602080910402602001604051908101604052809291908181526020018280546105ad90611324565b80156105fa5780601f106105cf576101008083540402835291602001916105fa565b820191906000526020600020905b8154815290600101906020018083116105dd57829003601f168201915b505050505081525050815260200190600101906104a6565b604080518082019091523381526020808201838152600280546001810182556000829052845191027f405787fa12a823e0f2b7631cc41b3ba8828b3321ca811111fa75cd3aa3bb5ace810180546001600160a01b03939093166001600160a01b03199093169290921782559151805191936106b2937f405787fa12a823e0f2b7631cc41b3ba8828b3321ca811111fa75cd3aa3bb5acf0192910190610e69565b5050336000908152600360209081526040808320805460ff19166001179055600580546004909352908320829055909250906106ed83611374565b919050555050565b3360008181526003602052604090205460ff1661074c5760405162461bcd60e51b81526020600482015260156024820152744661726d657220646f65736e27742065787369732160581b60448201526064016101d4565b3360009081526003602052604090205460ff166107a45760405162461bcd60e51b81526020600482015260166024820152754661726d657220646f65736e2774206578736973742160501b60448201526064016101d4565b50336000908152600160205260409020805460ff19166002179055565b3360008181526007602052604090205460ff166108205760405162461bcd60e51b815260206004820152601b60248201527f5365656420636f6d70616e7920646f65736e277420657869737421000000000060448201526064016101d4565b60408051608081018252868152602080820187905281830186905260608201859052336000908152600982529290922081518051929391926108659284920190610e69565b50602082810151805161087e9260018501920190610e69565b50604082015160028201556060909101516003909101555050600a80546001810182556000919091527fc65a7bb8d6351c1cf70c95a316cc6a92839c986682d98bc35f958f4883f9d2a80180546001600160a01b03191633179055505050565b3360008181526003602052604090205460ff166109355760405162461bcd60e51b81526020600482015260156024820152744661726d657220646f65736e27742065787369732160581b60448201526064016101d4565b3360009081526003602052604090205460ff1661098b5760405162461bcd60e51b815260206004820152601460248201527311985c9b595c88191bd95cdb89dd08115e1a5cdd60621b60448201526064016101d4565b6000805b600a54811015610b2c57866001600160a01b0316600a82815481106109b6576109b661138d565b6000918252602090912001546001600160a01b031603610b1a57856040516020016109e191906113a3565b6040516020818303038152906040528051906020012060096000600a8481548110610a0e57610a0e61138d565b60009182526020808320909101546001600160a01b0316835282810193909352604091820190209051610a4192016113bf565b6040516020818303038152906040528051906020012003610b1a5784604051602001610a6d91906113a3565b6040516020818303038152906040528051906020012060096000600a8481548110610a9a57610a9a61138d565b60009182526020808320909101546001600160a01b0316835282810193909352604091820190209051610ad49260019290920191016113bf565b6040516020818303038152906040528051906020012003610b1a57600a8181548110610b0257610b0261138d565b6000918252602090912001546001600160a01b031691505b80610b2481611374565b91505061098f565b506001600160a01b0381166000908152600960205260409020600201548311610bab5760405162461bcd60e51b815260206004820152602b60248201527f54686973206d7563682071756e6174697479206f662073656564206973206e6f60448201526a7420617661696c61626c6560a81b60648201526084016101d4565b6001600160a01b0381166000908152600960205260409020600201548311610d545760003411610c125760405162461bcd60e51b81526020600482015260126024820152710796f75206861766520656e746572656420360741b60448201526064016101d4565b6001600160a01b038116600090815260096020526040902060030154610c38908461145a565b3414610c945760405162461bcd60e51b815260206004820152602560248201527f596f7520686176656e277420656e74657264207468652065787065637465642060448201526476616c756560d81b60648201526084016101d4565b60405186906001600160a01b038216903480156108fc02916000818181858888f19350505050158015610ccb573d6000803e3d6000fd5b507fd735da5468732106f2c599326a1c6bb78802934f456a8737a5b0a5e3b0c28d6e33888888883442604051610d079796959493929190611479565b60405180910390a16001600160a01b03821660009081526009602052604081206002018054869290610d3a9084906114d7565b90915550506000805460ff60a01b1916600160a01b179055505b505050505050565b6040805160608101825233815260208082018581529282018490526006805460018101825560009190915282517ff652222313e28459528d920b65115c16c04f3efc82aaedc97be59f3f377c0d3f600390920291820180546001600160a01b0319166001600160a01b0390921691909117815593518051939493610e09937ff652222313e28459528d920b65115c16c04f3efc82aaedc97be59f3f377c0d40909301929190910190610e69565b5060408201518051610e25916002840191602090910190610e69565b5050336000908152600760209081526040808320805460ff19166001179055600b8054600890935290832082905590925090610e6083611374565b91905055505050565b828054610e7590611324565b90600052602060002090601f016020900481019282610e975760008555610edd565b82601f10610eb057805160ff1916838001178555610edd565b82800160010185558215610edd579182015b82811115610edd578251825591602001919060010190610ec2565b50610ee9929150610eed565b5090565b5b80821115610ee95760008155600101610eee565b6001600160a01b0381168114610f1757600080fd5b50565b634e487b7160e01b600052604160045260246000fd5b600082601f830112610f4157600080fd5b813567ffffffffffffffff80821115610f5c57610f5c610f1a565b604051601f8301601f19908116603f01168101908282118183101715610f8457610f84610f1a565b81604052838152866020858801011115610f9d57600080fd5b836020870160208301376000602085830101528094505050505092915050565b60008060008060808587031215610fd357600080fd5b8435610fde81610f02565b9350602085013567ffffffffffffffff80821115610ffb57600080fd5b61100788838901610f30565b9450604087013591508082111561101d57600080fd5b5061102a87828801610f30565b949793965093946060013593505050565b60005b8381101561105657818101518382015260200161103e565b83811115611065576000848401525b50505050565b6000815180845261108381602086016020860161103b565b601f01601f19169290920160200192915050565b6000604080830181845280865180835260608601915060608160051b8701019250602080890160005b8381101561110857888603605f19018552815180516001600160a01b031687528301518387018890526110f58888018261106b565b96505093820193908201906001016110c0565b5050959095019590955295945050505050565b60006040808301818452808651808352606092508286019150828160051b8701016020808a0160005b848110156111a657898403605f19018652815180516001600160a01b031685528381015184860189905261117a8987018261106b565b918a0151868303878c0152919050611192818361106b565b978501979550505090820190600101611144565b50509690960196909652509295945050505050565b6000602082840312156111cd57600080fd5b813567ffffffffffffffff8111156111e457600080fd5b6111f084828501610f30565b949350505050565b6000806000806080858703121561120e57600080fd5b843567ffffffffffffffff8082111561122657600080fd5b61123288838901610f30565b9550602087013591508082111561124857600080fd5b5061125587828801610f30565b949794965050505060408301359260600135919050565b6000806040838503121561127f57600080fd5b823567ffffffffffffffff8082111561129757600080fd5b6112a386838701610f30565b935060208501359150808211156112b957600080fd5b506112c685828601610f30565b9150509250929050565b6001600160a01b0387811682528616602082015260c0604082018190526000906112fc9083018761106b565b828103606084015261130e818761106b565b6080840195909552505060a00152949350505050565b600181811c9082168061133857607f821691505b60208210810361135857634e487b7160e01b600052602260045260246000fd5b50919050565b634e487b7160e01b600052601160045260246000fd5b6000600182016113865761138661135e565b5060010190565b634e487b7160e01b600052603260045260246000fd5b600082516113b581846020870161103b565b9190910192915050565b600080835481600182811c9150808316806113db57607f831692505b602080841082036113fa57634e487b7160e01b86526022600452602486fd5b81801561140e576001811461141f5761144c565b60ff1986168952848901965061144c565b60008a81526020902060005b868110156114445781548b82015290850190830161142b565b505084890196505b509498975050505050505050565b60008160001904831182151516156114745761147461135e565b500290565b6001600160a01b0388811682528716602082015260e0604082018190526000906114a59083018861106b565b82810360608401526114b7818861106b565b6080840196909652505060a081019290925260c090910152949350505050565b6000828210156114e9576114e961135e565b50039056fea2646970667358221220b990f511728fa42c12c25a85afd3e83671f9153c75bbea541e10beb6c2b9e4b264736f6c634300080e0033",
    "sourcePath": "e:/JSS Mysore/6th Semester/EC67L D&I/Project/project.sol",
    "compiler": {
        "name": "solc",
        "version": "0.8.14+commit.80d49f37"
    },
    "functionHashes": {
        "addFarmer(string)": "2d7e2e8b",
        "addSeedCompany(string,string)": "d49376ca",
        "buySeeds(address,string,string,uint256)": "b9ac42b2",
        "createContract()": "412a5a6d",
        "getListOfFarmer()": "03f8027a",
        "getListOfseedCompany()": "1aeb4ec7",
        "sellSeeds(address,string,string,uint256)": "02ca78f2",
        "updateSeedDetails(string,string,uint256,uint256)": "719fae32"
    },
    "gasEstimates": {
        "creation": {
            "codeDepositCost": "1082400",
            "executionCost": "59598",
            "totalCost": "1141998"
        },
        "external": {
            "addFarmer(string)": "infinite",
            "addSeedCompany(string,string)": "infinite",
            "buySeeds(address,string,string,uint256)": "infinite",
            "createContract()": "28820",
            "getListOfFarmer()": "infinite",
            "getListOfseedCompany()": "infinite",
            "sellSeeds(address,string,string,uint256)": "infinite",
            "updateSeedDetails(string,string,uint256,uint256)": "infinite"
        }
    }
}