{
    "contractName": "supplyChainAgriculture",
    "abi": [
        {
            "inputs": [],
            "stateMutability": "nonpayable",
            "type": "constructor"
        },
        {
            "anonymous": false,
            "inputs": [
                {
                    "indexed": false,
                    "internalType": "address",
                    "name": "farmer",
                    "type": "address"
                },
                {
                    "indexed": false,
                    "internalType": "address",
                    "name": "elevator",
                    "type": "address"
                },
                {
                    "indexed": false,
                    "internalType": "string",
                    "name": "grainType",
                    "type": "string"
                },
                {
                    "indexed": false,
                    "internalType": "string",
                    "name": "variety",
                    "type": "string"
                },
                {
                    "indexed": false,
                    "internalType": "uint256",
                    "name": "quantity",
                    "type": "uint256"
                },
                {
                    "indexed": false,
                    "internalType": "uint256",
                    "name": "pricePer1q",
                    "type": "uint256"
                },
                {
                    "indexed": false,
                    "internalType": "uint256",
                    "name": "purchaseDate",
                    "type": "uint256"
                }
            ],
            "name": "sellGrainsToElevator",
            "type": "event"
        },
        {
            "anonymous": false,
            "inputs": [
                {
                    "indexed": false,
                    "internalType": "address",
                    "name": "farmer",
                    "type": "address"
                },
                {
                    "indexed": false,
                    "internalType": "address",
                    "name": "seedCompany",
                    "type": "address"
                },
                {
                    "indexed": false,
                    "internalType": "string",
                    "name": "seedType",
                    "type": "string"
                },
                {
                    "indexed": false,
                    "internalType": "string",
                    "name": "variety",
                    "type": "string"
                },
                {
                    "indexed": false,
                    "internalType": "uint256",
                    "name": "quantity",
                    "type": "uint256"
                },
                {
                    "indexed": false,
                    "internalType": "uint256",
                    "name": "time",
                    "type": "uint256"
                }
            ],
            "name": "sellOfSeeds",
            "type": "event"
        },
        {
            "anonymous": false,
            "inputs": [
                {
                    "indexed": false,
                    "internalType": "address",
                    "name": "farmer",
                    "type": "address"
                },
                {
                    "indexed": false,
                    "internalType": "address",
                    "name": "Seedcompany",
                    "type": "address"
                },
                {
                    "indexed": false,
                    "internalType": "string",
                    "name": "seedType",
                    "type": "string"
                },
                {
                    "indexed": false,
                    "internalType": "string",
                    "name": "variety",
                    "type": "string"
                },
                {
                    "indexed": false,
                    "internalType": "uint256",
                    "name": "quantity",
                    "type": "uint256"
                },
                {
                    "indexed": false,
                    "internalType": "uint256",
                    "name": "Price",
                    "type": "uint256"
                },
                {
                    "indexed": false,
                    "internalType": "uint256",
                    "name": "time",
                    "type": "uint256"
                }
            ],
            "name": "transferCompleteSeed",
            "type": "event"
        },
        {
            "anonymous": false,
            "inputs": [
                {
                    "indexed": false,
                    "internalType": "address",
                    "name": "elevator",
                    "type": "address"
                },
                {
                    "indexed": false,
                    "internalType": "address",
                    "name": "farmer",
                    "type": "address"
                },
                {
                    "indexed": false,
                    "internalType": "string",
                    "name": "grownGrainType",
                    "type": "string"
                },
                {
                    "indexed": false,
                    "internalType": "string",
                    "name": "variety",
                    "type": "string"
                },
                {
                    "indexed": false,
                    "internalType": "uint256",
                    "name": "quantity",
                    "type": "uint256"
                },
                {
                    "indexed": false,
                    "internalType": "uint256",
                    "name": "Price",
                    "type": "uint256"
                },
                {
                    "indexed": false,
                    "internalType": "uint256",
                    "name": "time",
                    "type": "uint256"
                }
            ],
            "name": "transferCompletegrownGrain",
            "type": "event"
        },
        {
            "inputs": [
                {
                    "internalType": "string",
                    "name": "_hash",
                    "type": "string"
                },
                {
                    "internalType": "string",
                    "name": "_name",
                    "type": "string"
                },
                {
                    "internalType": "uint256",
                    "name": "_storageQuantity",
                    "type": "uint256"
                }
            ],
            "name": "addElevator",
            "outputs": [],
            "stateMutability": "nonpayable",
            "type": "function"
        },
        {
            "inputs": [
                {
                    "internalType": "string",
                    "name": "_hash",
                    "type": "string"
                }
            ],
            "name": "addFarmer",
            "outputs": [],
            "stateMutability": "nonpayable",
            "type": "function"
        },
        {
            "inputs": [
                {
                    "internalType": "string",
                    "name": "_hash",
                    "type": "string"
                },
                {
                    "internalType": "string",
                    "name": "_name",
                    "type": "string"
                }
            ],
            "name": "addProcessor",
            "outputs": [],
            "stateMutability": "nonpayable",
            "type": "function"
        },
        {
            "inputs": [
                {
                    "internalType": "string",
                    "name": "_name",
                    "type": "string"
                },
                {
                    "internalType": "string",
                    "name": "_hash",
                    "type": "string"
                }
            ],
            "name": "addSeedCompany",
            "outputs": [],
            "stateMutability": "nonpayable",
            "type": "function"
        },
        {
            "inputs": [
                {
                    "internalType": "string",
                    "name": "_seedType",
                    "type": "string"
                },
                {
                    "internalType": "string",
                    "name": "_variety",
                    "type": "string"
                },
                {
                    "internalType": "uint256",
                    "name": "_addQuantity",
                    "type": "uint256"
                }
            ],
            "name": "addSeedQuantity",
            "outputs": [],
            "stateMutability": "nonpayable",
            "type": "function"
        },
        {
            "inputs": [
                {
                    "internalType": "address payable",
                    "name": "_farmer",
                    "type": "address"
                },
                {
                    "internalType": "string",
                    "name": "_grainTypeGrown",
                    "type": "string"
                },
                {
                    "internalType": "string",
                    "name": "_variety",
                    "type": "string"
                },
                {
                    "internalType": "uint256",
                    "name": "_quantity",
                    "type": "uint256"
                }
            ],
            "name": "buyGrainFromFarmer",
            "outputs": [],
            "stateMutability": "payable",
            "type": "function"
        },
        {
            "inputs": [
                {
                    "internalType": "address payable",
                    "name": "_seedCompany",
                    "type": "address"
                },
                {
                    "internalType": "string",
                    "name": "_seedType",
                    "type": "string"
                },
                {
                    "internalType": "string",
                    "name": "_variety",
                    "type": "string"
                },
                {
                    "internalType": "uint256",
                    "name": "_quantity",
                    "type": "uint256"
                }
            ],
            "name": "buySeeds",
            "outputs": [],
            "stateMutability": "payable",
            "type": "function"
        },
        {
            "inputs": [],
            "name": "createContract",
            "outputs": [],
            "stateMutability": "nonpayable",
            "type": "function"
        },
        {
            "inputs": [],
            "name": "getListOfFarmer",
            "outputs": [
                {
                    "components": [
                        {
                            "internalType": "address payable",
                            "name": "farmerAddress",
                            "type": "address"
                        },
                        {
                            "internalType": "string",
                            "name": "hash",
                            "type": "string"
                        }
                    ],
                    "internalType": "struct supplyChainAgriculture.Farmer[]",
                    "name": "",
                    "type": "tuple[]"
                },
                {
                    "internalType": "uint256",
                    "name": "",
                    "type": "uint256"
                }
            ],
            "stateMutability": "view",
            "type": "function"
        },
        {
            "inputs": [],
            "name": "getListOfseedCompany",
            "outputs": [
                {
                    "components": [
                        {
                            "internalType": "address payable",
                            "name": "companyAddress",
                            "type": "address"
                        },
                        {
                            "internalType": "string",
                            "name": "CompanyName",
                            "type": "string"
                        },
                        {
                            "internalType": "string",
                            "name": "hash",
                            "type": "string"
                        }
                    ],
                    "internalType": "struct supplyChainAgriculture.SeedCompany[]",
                    "name": "",
                    "type": "tuple[]"
                },
                {
                    "internalType": "uint256",
                    "name": "",
                    "type": "uint256"
                }
            ],
            "stateMutability": "view",
            "type": "function"
        },
        {
            "inputs": [
                {
                    "internalType": "string",
                    "name": "_seedType",
                    "type": "string"
                },
                {
                    "internalType": "string",
                    "name": "_variety",
                    "type": "string"
                },
                {
                    "internalType": "uint256",
                    "name": "_addQuantity",
                    "type": "uint256"
                }
            ],
            "name": "removeSeedQuantity",
            "outputs": [],
            "stateMutability": "nonpayable",
            "type": "function"
        },
        {
            "inputs": [
                {
                    "internalType": "address",
                    "name": "_elevator",
                    "type": "address"
                },
                {
                    "internalType": "string",
                    "name": "_grainType",
                    "type": "string"
                },
                {
                    "internalType": "string",
                    "name": "_variety",
                    "type": "string"
                },
                {
                    "internalType": "uint256",
                    "name": "_quantity",
                    "type": "uint256"
                },
                {
                    "internalType": "uint256",
                    "name": "_moisture",
                    "type": "uint256"
                },
                {
                    "internalType": "uint256",
                    "name": "_temperature",
                    "type": "uint256"
                },
                {
                    "internalType": "uint256",
                    "name": "_pricePer1q",
                    "type": "uint256"
                },
                {
                    "internalType": "uint256",
                    "name": "_purchaseDate",
                    "type": "uint256"
                }
            ],
            "name": "sellGrainToElevator",
            "outputs": [],
            "stateMutability": "nonpayable",
            "type": "function"
        },
        {
            "inputs": [
                {
                    "internalType": "address",
                    "name": "_farmer",
                    "type": "address"
                },
                {
                    "internalType": "string",
                    "name": "_seedType",
                    "type": "string"
                },
                {
                    "internalType": "string",
                    "name": "_variety",
                    "type": "string"
                },
                {
                    "internalType": "uint256",
                    "name": "_quantity",
                    "type": "uint256"
                }
            ],
            "name": "sellSeeds",
            "outputs": [],
            "stateMutability": "nonpayable",
            "type": "function"
        },
        {
            "inputs": [
                {
                    "internalType": "string",
                    "name": "_seedType",
                    "type": "string"
                },
                {
                    "internalType": "string",
                    "name": "_variety",
                    "type": "string"
                },
                {
                    "internalType": "uint256",
                    "name": "_quantity",
                    "type": "uint256"
                },
                {
                    "internalType": "uint256",
                    "name": "_pricePer1q",
                    "type": "uint256"
                }
            ],
            "name": "updateGrainFarmerQuantity",
            "outputs": [],
            "stateMutability": "nonpayable",
            "type": "function"
        },
        {
            "inputs": [
                {
                    "internalType": "string",
                    "name": "_grainTypeGrown",
                    "type": "string"
                },
                {
                    "internalType": "string",
                    "name": "_variety",
                    "type": "string"
                },
                {
                    "internalType": "uint256",
                    "name": "_pricePer1q",
                    "type": "uint256"
                }
            ],
            "name": "updateGrainPriceByFarmer",
            "outputs": [],
            "stateMutability": "nonpayable",
            "type": "function"
        },
        {
            "inputs": [
                {
                    "internalType": "string",
                    "name": "_seedType",
                    "type": "string"
                },
                {
                    "internalType": "string",
                    "name": "_variety",
                    "type": "string"
                },
                {
                    "internalType": "uint256",
                    "name": "_quantity",
                    "type": "uint256"
                },
                {
                    "internalType": "uint256",
                    "name": "_pricePer10g",
                    "type": "uint256"
                }
            ],
            "name": "updateSeedDetails",
            "outputs": [],
            "stateMutability": "nonpayable",
            "type": "function"
        },
        {
            "inputs": [
                {
                    "internalType": "string",
                    "name": "_seedType",
                    "type": "string"
                },
                {
                    "internalType": "string",
                    "name": "_variety",
                    "type": "string"
                },
                {
                    "internalType": "uint256",
                    "name": "_pricePer10g",
                    "type": "uint256"
                }
            ],
            "name": "updateSeedPrice",
            "outputs": [],
            "stateMutability": "nonpayable",
            "type": "function"
        },
        {
            "inputs": [
                {
                    "internalType": "uint256",
                    "name": "_storageQuantity",
                    "type": "uint256"
                }
            ],
            "name": "updateStorageQuantity",
            "outputs": [],
            "stateMutability": "nonpayable",
            "type": "function"
        }
    ],
    "bytecode": "60806040526000805461ffff60a01b1916815560038190556005819055600981905560118190556015819055601b5534801561003a57600080fd5b50600080546001600160a01b03191633179055612acf8061005c6000396000f3fe6080604052600436106101095760003560e01c8063719fae3211610095578063c16634b711610064578063c16634b7146102a7578063c7d5c332146102c7578063d49376ca146102e7578063dc441ba814610307578063dcdd5bce1461032757600080fd5b8063719fae3214610234578063b5d765de14610254578063b9ac42b214610274578063c10e85791461028757600080fd5b80631aeb4ec7116100dc5780631aeb4ec71461019c5780632d7e2e8b146101bf578063412a5a6d146101df57806359a1d1a3146101f45780635eb78b8c1461021457600080fd5b806302ca78f21461010e57806303f8027a14610130578063166d9eaa1461015c57806317cf2c151461017c575b600080fd5b34801561011a57600080fd5b5061012e610129366004612300565b61033a565b005b34801561013c57600080fd5b50610145610503565b6040516101539291906123da565b60405180910390f35b34801561016857600080fd5b5061012e61017736600461245e565b610680565b34801561018857600080fd5b5061012e610197366004612477565b610735565b3480156101a857600080fd5b506101b1610854565b6040516101539291906124e4565b3480156101cb57600080fd5b5061012e6101da366004612584565b6109ea565b3480156101eb57600080fd5b5061012e610ad1565b34801561020057600080fd5b5061012e61020f366004612477565b610b75565b34801561022057600080fd5b5061012e61022f366004612477565b610d69565b34801561024057600080fd5b5061012e61024f3660046125c1565b610f71565b34801561026057600080fd5b5061012e61026f366004612477565b61105e565b61012e610282366004612300565b6112a8565b34801561029357600080fd5b5061012e6102a2366004612635565b61167d565b3480156102b357600080fd5b5061012e6102c23660046125c1565b611905565b3480156102d357600080fd5b5061012e6102e23660046126d9565b6119f2565b3480156102f357600080fd5b5061012e6103023660046126d9565b611aff565b34801561031357600080fd5b5061012e610322366004612477565b611c03565b61012e610335366004612300565b611dff565b336000818152600d602052604090205460ff166103725760405162461bcd60e51b81526004016103699061273d565b60405180910390fd5b336000908152600d602052604090205460ff166103d15760405162461bcd60e51b815260206004820152601a60248201527f5365656420436f6d70616e7920446f65736e27742045786973740000000000006044820152606401610369565b600054600160a01b900460ff16151560010361049c576040805180820182526001600160a01b0380881682523360208084019182526003805460009081526002909252948120935184549084166001600160a01b03199182161785559151600190940180549490931693909116929092179055815491906104518361278a565b91905055507f0abb2b17e070b031d143b94e96bb7894984f9776f01493cbcc2f4191d803a1b685338686864260405161048f969594939291906127a3565b60405180910390a16104fc565b60405162461bcd60e51b815260206004820152602f60248201527f4661726d657220646f65736e2774206578697374206f72206865206469646e2760448201526e7420706179207468652062696c6c7360881b6064820152608401610369565b5050505050565b60008054606091906001600160a01b031633146105735760405162461bcd60e51b815260206004820152602860248201527f536f7272792c205468697320696e666f726d6174696f6e20697320636f6e66696044820152673232b73a34b0b61760c11b6064820152608401610369565b600660095481805480602002602001604051908101604052809291908181526020016000905b82821015610672576000848152602090819020604080518082019091526002850290910180546001600160a01b0316825260018101805492939192918401916105e1906127f7565b80601f016020809104026020016040519081016040528092919081815260200182805461060d906127f7565b801561065a5780601f1061062f5761010080835404028352916020019161065a565b820191906000526020600020905b81548152906001019060200180831161063d57829003601f168201915b50505050508152505081526020019060010190610599565b505050509150915091509091565b3360008181526013602052604090205460ff166106af5760405162461bcd60e51b815260040161036990612831565b6000805b60125481101561070657601281815481106106d0576106d0612861565b60009182526020909120600490910201546001600160a01b031633036106f4578091505b806106fe8161278a565b9150506106b3565b50826012828154811061071b5761071b612861565b906000526020600020906004020160030181905550505050565b604080516080810182523381526020808201858152928201869052606082018490526012805460018101825560009190915282517fbb8a6a4669ba250d26cd7a459eca9d215f8307e33aebe50379bc5a3617ec3444600490920291820180546001600160a01b0319166001600160a01b03909216919091178155935180519394936107e9937fbb8a6a4669ba250d26cd7a459eca9d215f8307e33aebe50379bc5a3617ec34459093019291909101906121ac565b50604082015180516108059160028401916020909101906121ac565b5060609190910151600390910155336000908152601360209081526040808320805460ff19166001179055601580546014909352908320829055909161084a8361278a565b9190505550505050565b60606000600c60115481805480602002602001604051908101604052809291908181526020016000905b8282101561067257600084815260209081902060408051606081019091526003850290910180546001600160a01b0316825260018101805492939192918401916108c7906127f7565b80601f01602080910402602001604051908101604052809291908181526020018280546108f3906127f7565b80156109405780601f1061091557610100808354040283529160200191610940565b820191906000526020600020905b81548152906001019060200180831161092357829003601f168201915b50505050508152602001600282018054610959906127f7565b80601f0160208091040260200160405190810160405280929190818152602001828054610985906127f7565b80156109d25780601f106109a7576101008083540402835291602001916109d2565b820191906000526020600020905b8154815290600101906020018083116109b557829003601f168201915b5050505050815250508152602001906001019061087e565b60408051808201909152338152602080820183815260068054600181018255600091909152835160029091027ff652222313e28459528d920b65115c16c04f3efc82aaedc97be59f3f377c0d3f810180546001600160a01b03939093166001600160a01b0319909316929092178255915180519193610a8e937ff652222313e28459528d920b65115c16c04f3efc82aaedc97be59f3f377c0d4001929101906121ac565b5050336000908152600760209081526040808320805460ff1916600117905560098054600890935290832082905590925090610ac98361278a565b919050555050565b3360008181526007602052604090205460ff16610b005760405162461bcd60e51b815260040161036990612877565b3360009081526007602052604090205460ff16610b585760405162461bcd60e51b81526020600482015260166024820152754661726d657220646f65736e2774206578736973742160501b6044820152606401610369565b50336000908152600160205260409020805460ff19166002179055565b336000818152600d602052604090205460ff16610ba45760405162461bcd60e51b81526004016103699061273d565b6000805b601054811015610d4557336001600160a01b031660108281548110610bcf57610bcf612861565b6000918252602090912001546001600160a01b031603610d335785604051602001610bfa91906128a6565b60405160208183030381529060405280519060200120600f600060108481548110610c2757610c27612861565b60009182526020808320909101546001600160a01b0316835282810193909352604091820190209051610c5a92016128c2565b6040516020818303038152906040528051906020012003610d335784604051602001610c8691906128a6565b60405160208183030381529060405280519060200120600f600060108481548110610cb357610cb3612861565b60009182526020808320909101546001600160a01b0316835282810193909352604091820190209051610ced9260019290920191016128c2565b6040516020818303038152906040528051906020012003610d335760108181548110610d1b57610d1b612861565b6000918252602090912001546001600160a01b031691505b80610d3d8161278a565b915050610ba8565b506001600160a01b03166000908152600f6020526040902060030191909155505050565b336000818152600d602052604090205460ff16610d985760405162461bcd60e51b81526004016103699061273d565b6000805b601054811015610f3957336001600160a01b031660108281548110610dc357610dc3612861565b6000918252602090912001546001600160a01b031603610f275785604051602001610dee91906128a6565b60405160208183030381529060405280519060200120600f600060108481548110610e1b57610e1b612861565b60009182526020808320909101546001600160a01b0316835282810193909352604091820190209051610e4e92016128c2565b6040516020818303038152906040528051906020012003610f275784604051602001610e7a91906128a6565b60405160208183030381529060405280519060200120600f600060108481548110610ea757610ea7612861565b60009182526020808320909101546001600160a01b0316835282810193909352604091820190209051610ee19260019290920191016128c2565b6040516020818303038152906040528051906020012003610f275760108181548110610f0f57610f0f612861565b6000918252602090912001546001600160a01b031691505b80610f318161278a565b915050610d9c565b506001600160a01b0381166000908152600f602052604081206002018054859290610f6590849061295d565b90915550505050505050565b336000818152600d602052604090205460ff16610fa05760405162461bcd60e51b81526004016103699061273d565b60408051608081018252868152602080820187905281830186905260608201859052336000908152600f8252929092208151805192939192610fe592849201906121ac565b506020828101518051610ffe92600185019201906121ac565b50604082015160028201556060909101516003909101555050601080546001810182556000919091527f1b6847dc741a1b0cd08d278845f9d819d87b734759afb55fe2de5cb82a9ae6720180546001600160a01b03191633179055505050565b3360008181526007602052604090205460ff1661108d5760405162461bcd60e51b815260040161036990612877565b3360009081526007602052604090205460ff166110e35760405162461bcd60e51b815260206004820152601460248201527311985c9b595c88191bd95cdb89dd08195e1a5cdd60621b6044820152606401610369565b6000805b600b5481101561128457336001600160a01b0316600b828154811061110e5761110e612861565b6000918252602090912001546001600160a01b031603611272578560405160200161113991906128a6565b60405160208183030381529060405280519060200120600a6000600b848154811061116657611166612861565b60009182526020808320909101546001600160a01b031683528281019390935260409182019020905161119992016128c2565b604051602081830303815290604052805190602001200361127257846040516020016111c591906128a6565b60405160208183030381529060405280519060200120600a6000600b84815481106111f2576111f2612861565b60009182526020808320909101546001600160a01b031683528281019390935260409182019020905161122c9260019290920191016128c2565b604051602081830303815290604052805190602001200361127257600b818154811061125a5761125a612861565b6000918252602090912001546001600160a01b031691505b8061127c8161278a565b9150506110e7565b506001600160a01b03166000908152600a6020526040902060030191909155505050565b3360008181526007602052604090205460ff166112d75760405162461bcd60e51b815260040161036990612877565b3360009081526007602052604090205460ff1661132d5760405162461bcd60e51b815260206004820152601460248201527311985c9b595c88191bd95cdb89dd08115e1a5cdd60621b6044820152606401610369565b6000805b6010548110156114ce57866001600160a01b03166010828154811061135857611358612861565b6000918252602090912001546001600160a01b0316036114bc578560405160200161138391906128a6565b60405160208183030381529060405280519060200120600f6000601084815481106113b0576113b0612861565b60009182526020808320909101546001600160a01b03168352828101939093526040918201902090516113e392016128c2565b60405160208183030381529060405280519060200120036114bc578460405160200161140f91906128a6565b60405160208183030381529060405280519060200120600f60006010848154811061143c5761143c612861565b60009182526020808320909101546001600160a01b03168352828101939093526040918201902090516114769260019290920191016128c2565b60405160208183030381529060405280519060200120036114bc57601081815481106114a4576114a4612861565b6000918252602090912001546001600160a01b031691505b806114c68161278a565b915050611331565b506001600160a01b0381166000908152600f602052604090206002015483111561150a5760405162461bcd60e51b815260040161036990612975565b6001600160a01b0381166000908152600f6020526040902060020154831161167557600034116115715760405162461bcd60e51b81526020600482015260126024820152710796f75206861766520656e746572656420360741b6044820152606401610369565b6001600160a01b0381166000908152600f602052604090206003015461159790846129c0565b34146115b55760405162461bcd60e51b8152600401610369906129df565b60405186906001600160a01b038216903480156108fc02916000818181858888f193505050501580156115ec573d6000803e3d6000fd5b507f763a09a3907aa5142f5d1531400d72f0d62b4bb2d7af6cd649ebeff279b24427338888888834426040516116289796959493929190612a24565b60405180910390a16001600160a01b0382166000908152600f60205260408120600201805486929061165b908490612a82565b90915550506000805460ff60a01b1916600160a01b179055505b505050505050565b3360008181526007602052604090205460ff166116ac5760405162461bcd60e51b815260040161036990612877565b6001600160a01b03891660009081526013602052604090205460ff166116e45760405162461bcd60e51b815260040161036990612831565b6040805160e08101825289815260208082018a9052818301899052606082018890526080820187905260a0820186905260c082018590526001600160a01b038c1660009081526016825292909220815180519293919261174792849201906121ac565b50602082810151805161176092600185019201906121ac565b5060408201516002820155606082015160038201556080820151600482015560a0820151600582015560c090910151600690910155601780546001808201835560009283527fc624b66cc0138b8fabc209247f72d758e1cf3343756d543badbf24212bed8c1590910180546001600160a01b0319166001600160a01b038d161790559054600160a81b900460ff161515900361189857604080518082018252338082526001600160a01b038c8116602080850191825260055460009081526004909152859020935184549083166001600160a01b03199182161785559051600190940180549490921693169290921790915590517f82838b23da12c1aa4f25e2e7cba2e96cc80b9047022d1596608ff789d465f4ee9161188b918c908c908c908c908a908a90612a24565b60405180910390a16118fa565b60405162461bcd60e51b815260206004820152603160248201527f656c657661746f7220646f65736e2774206578697374206f72206865206469646044820152706e277420706179207468652062696c6c7360781b6064820152608401610369565b505050505050505050565b3360008181526007602052604090205460ff166119345760405162461bcd60e51b815260040161036990612877565b60408051608081018252868152602080820187905281830186905260608201859052336000908152600a825292909220815180519293919261197992849201906121ac565b50602082810151805161199292600185019201906121ac565b50604082015160028201556060909101516003909101555050600b80546001810182556000919091527f0175b7a638427703f0dbe7bb9bbf987a2551717b34e79f33b5b1008d1fa01db90180546001600160a01b03191633179055505050565b6040805160608101825233815260208082018481529282018590526018805460018101825560009190915282517fb13d2d76d1f4b7be834882e410b3e3a8afaf69f83600ae24db354391d2378d2e600390920291820180546001600160a01b0319166001600160a01b0390921691909117815593518051939493611a9f937fb13d2d76d1f4b7be834882e410b3e3a8afaf69f83600ae24db354391d2378d2f9093019291909101906121ac565b5060408201518051611abb9160028401916020909101906121ac565b5050336000908152601960209081526040808320805460ff19166001179055601b8054601a90935290832082905590925090611af68361278a565b91905055505050565b604080516060810182523381526020808201858152928201849052600c805460018101825560009190915282517fdf6966c971051c3d54ec59162606531493a51404a002842f56009d7e5cf4a8c7600390920291820180546001600160a01b0319166001600160a01b0390921691909117815593518051939493611bac937fdf6966c971051c3d54ec59162606531493a51404a002842f56009d7e5cf4a8c89093019291909101906121ac565b5060408201518051611bc89160028401916020909101906121ac565b5050336000908152600d60209081526040808320805460ff1916600117905560118054600e90935290832082905590925090611af68361278a565b336000818152600d602052604090205460ff16611c325760405162461bcd60e51b81526004016103699061273d565b6000805b601054811015611dd357336001600160a01b031660108281548110611c5d57611c5d612861565b6000918252602090912001546001600160a01b031603611dc15785604051602001611c8891906128a6565b60405160208183030381529060405280519060200120600f600060108481548110611cb557611cb5612861565b60009182526020808320909101546001600160a01b0316835282810193909352604091820190209051611ce892016128c2565b6040516020818303038152906040528051906020012003611dc15784604051602001611d1491906128a6565b60405160208183030381529060405280519060200120600f600060108481548110611d4157611d41612861565b60009182526020808320909101546001600160a01b0316835282810193909352604091820190209051611d7b9260019290920191016128c2565b6040516020818303038152906040528051906020012003611dc15760108181548110611da957611da9612861565b6000918252602090912001546001600160a01b031691505b80611dcb8161278a565b915050611c36565b506001600160a01b0381166000908152600f602052604081206002018054859290610f65908490612a82565b3360008181526013602052604090205460ff16611e2e5760405162461bcd60e51b815260040161036990612831565b3360009081526013602052604090205460ff16611e5d5760405162461bcd60e51b815260040161036990612831565b6000805b600b54811015611ffe57866001600160a01b0316600b8281548110611e8857611e88612861565b6000918252602090912001546001600160a01b031603611fec5785604051602001611eb391906128a6565b60405160208183030381529060405280519060200120600a6000600b8481548110611ee057611ee0612861565b60009182526020808320909101546001600160a01b0316835282810193909352604091820190209051611f1392016128c2565b6040516020818303038152906040528051906020012003611fec5784604051602001611f3f91906128a6565b60405160208183030381529060405280519060200120600a6000600b8481548110611f6c57611f6c612861565b60009182526020808320909101546001600160a01b0316835282810193909352604091820190209051611fa69260019290920191016128c2565b6040516020818303038152906040528051906020012003611fec57600b8181548110611fd457611fd4612861565b6000918252602090912001546001600160a01b031691505b80611ff68161278a565b915050611e61565b506001600160a01b0381166000908152600a602052604090206002015483111561203a5760405162461bcd60e51b815260040161036990612975565b6001600160a01b0381166000908152600a6020526040902060020154831161167557600034116120a15760405162461bcd60e51b81526020600482015260126024820152710796f75206861766520656e746572656420360741b6044820152606401610369565b6001600160a01b0381166000908152600a60205260409020600301546120c790846129c0565b34146120e55760405162461bcd60e51b8152600401610369906129df565b60405186906001600160a01b038216903480156108fc02916000818181858888f1935050505015801561211c573d6000803e3d6000fd5b507f6bf88a54d8df9cdac5ae0ecd59d55dd04ef597b60c83331cc9e3943775f9c19f338888888834426040516121589796959493929190612a24565b60405180910390a16001600160a01b0382166000908152600a60205260408120600201805486929061218b908490612a82565b90915550506000805460ff60a81b1916600160a81b17905550505050505050565b8280546121b8906127f7565b90600052602060002090601f0160209004810192826121da5760008555612220565b82601f106121f357805160ff1916838001178555612220565b82800160010185558215612220579182015b82811115612220578251825591602001919060010190612205565b5061222c929150612230565b5090565b5b8082111561222c5760008155600101612231565b6001600160a01b038116811461225a57600080fd5b50565b634e487b7160e01b600052604160045260246000fd5b600082601f83011261228457600080fd5b813567ffffffffffffffff8082111561229f5761229f61225d565b604051601f8301601f19908116603f011681019082821181831017156122c7576122c761225d565b816040528381528660208588010111156122e057600080fd5b836020870160208301376000602085830101528094505050505092915050565b6000806000806080858703121561231657600080fd5b843561232181612245565b9350602085013567ffffffffffffffff8082111561233e57600080fd5b61234a88838901612273565b9450604087013591508082111561236057600080fd5b5061236d87828801612273565b949793965093946060013593505050565b60005b83811015612399578181015183820152602001612381565b838111156123a8576000848401525b50505050565b600081518084526123c681602086016020860161237e565b601f01601f19169290920160200192915050565b6000604080830181845280865180835260608601915060608160051b8701019250602080890160005b8381101561244b57888603605f19018552815180516001600160a01b03168752830151838701889052612438888801826123ae565b9650509382019390820190600101612403565b5050959095019590955295945050505050565b60006020828403121561247057600080fd5b5035919050565b60008060006060848603121561248c57600080fd5b833567ffffffffffffffff808211156124a457600080fd5b6124b087838801612273565b945060208601359150808211156124c657600080fd5b506124d386828701612273565b925050604084013590509250925092565b60006040808301818452808651808352606092508286019150828160051b8701016020808a0160005b8481101561256f57898403605f19018652815180516001600160a01b0316855283810151848601899052612543898701826123ae565b918a0151868303878c015291905061255b81836123ae565b97850197955050509082019060010161250d565b50509690960196909652509295945050505050565b60006020828403121561259657600080fd5b813567ffffffffffffffff8111156125ad57600080fd5b6125b984828501612273565b949350505050565b600080600080608085870312156125d757600080fd5b843567ffffffffffffffff808211156125ef57600080fd5b6125fb88838901612273565b9550602087013591508082111561261157600080fd5b5061261e87828801612273565b949794965050505060408301359260600135919050565b600080600080600080600080610100898b03121561265257600080fd5b883561265d81612245565b9750602089013567ffffffffffffffff8082111561267a57600080fd5b6126868c838d01612273565b985060408b013591508082111561269c57600080fd5b506126a98b828c01612273565b989b979a5097986060810135985060808101359760a0820135975060c0820135965060e090910135945092505050565b600080604083850312156126ec57600080fd5b823567ffffffffffffffff8082111561270457600080fd5b61271086838701612273565b9350602085013591508082111561272657600080fd5b5061273385828601612273565b9150509250929050565b6020808252601b908201527f5365656420636f6d70616e7920646f65736e2774206578697374210000000000604082015260600190565b634e487b7160e01b600052601160045260246000fd5b60006001820161279c5761279c612774565b5060010190565b6001600160a01b0387811682528616602082015260c0604082018190526000906127cf908301876123ae565b82810360608401526127e181876123ae565b6080840195909552505060a00152949350505050565b600181811c9082168061280b57607f821691505b60208210810361282b57634e487b7160e01b600052602260045260246000fd5b50919050565b602080825260169082015275115b195d985d1bdc88191bd95cdb89dd08195e1a5cdd60521b604082015260600190565b634e487b7160e01b600052603260045260246000fd5b6020808252601590820152744661726d657220646f65736e27742065787369732160581b604082015260600190565b600082516128b881846020870161237e565b9190910192915050565b600080835481600182811c9150808316806128de57607f831692505b602080841082036128fd57634e487b7160e01b86526022600452602486fd5b81801561291157600181146129225761294f565b60ff1986168952848901965061294f565b60008a81526020902060005b868110156129475781548b82015290850190830161292e565b505084890196505b509498975050505050505050565b6000821982111561297057612970612774565b500190565b6020808252602b908201527f54686973206d7563682071756e6174697479206f662073656564206973206e6f60408201526a7420617661696c61626c6560a81b606082015260800190565b60008160001904831182151516156129da576129da612774565b500290565b60208082526025908201527f596f7520686176656e277420656e74657264207468652065787065637465642060408201526476616c756560d81b606082015260800190565b6001600160a01b0388811682528716602082015260e060408201819052600090612a50908301886123ae565b8281036060840152612a6281886123ae565b6080840196909652505060a081019290925260c090910152949350505050565b600082821015612a9457612a94612774565b50039056fea2646970667358221220b94f688f6c6548de1d9ad2cc18ae8237081864100c5ce4ee3628388781a7766964736f6c634300080e0033",
    "sourcePath": "e:/JSS Mysore/6th Semester/EC67L D&I/Project/project.sol",
    "compiler": {
        "name": "solc",
        "version": "0.8.14+commit.80d49f37"
    },
    "functionHashes": {
        "addElevator(string,string,uint256)": "17cf2c15",
        "addFarmer(string)": "2d7e2e8b",
        "addProcessor(string,string)": "c7d5c332",
        "addSeedCompany(string,string)": "d49376ca",
        "addSeedQuantity(string,string,uint256)": "5eb78b8c",
        "buyGrainFromFarmer(address,string,string,uint256)": "dcdd5bce",
        "buySeeds(address,string,string,uint256)": "b9ac42b2",
        "createContract()": "412a5a6d",
        "getListOfFarmer()": "03f8027a",
        "getListOfseedCompany()": "1aeb4ec7",
        "removeSeedQuantity(string,string,uint256)": "dc441ba8",
        "sellGrainToElevator(address,string,string,uint256,uint256,uint256,uint256,uint256)": "c10e8579",
        "sellSeeds(address,string,string,uint256)": "02ca78f2",
        "updateGrainFarmerQuantity(string,string,uint256,uint256)": "c16634b7",
        "updateGrainPriceByFarmer(string,string,uint256)": "b5d765de",
        "updateSeedDetails(string,string,uint256,uint256)": "719fae32",
        "updateSeedPrice(string,string,uint256)": "59a1d1a3",
        "updateStorageQuantity(uint256)": "166d9eaa"
    },
    "gasEstimates": {
        "creation": {
            "codeDepositCost": "2191800",
            "executionCost": "80845",
            "totalCost": "2272645"
        },
        "external": {
            "addElevator(string,string,uint256)": "infinite",
            "addFarmer(string)": "infinite",
            "addProcessor(string,string)": "infinite",
            "addSeedCompany(string,string)": "infinite",
            "addSeedQuantity(string,string,uint256)": "infinite",
            "buyGrainFromFarmer(address,string,string,uint256)": "infinite",
            "buySeeds(address,string,string,uint256)": "infinite",
            "createContract()": "28887",
            "getListOfFarmer()": "infinite",
            "getListOfseedCompany()": "infinite",
            "removeSeedQuantity(string,string,uint256)": "infinite",
            "sellGrainToElevator(address,string,string,uint256,uint256,uint256,uint256,uint256)": "infinite",
            "sellSeeds(address,string,string,uint256)": "infinite",
            "updateGrainFarmerQuantity(string,string,uint256,uint256)": "infinite",
            "updateGrainPriceByFarmer(string,string,uint256)": "infinite",
            "updateSeedDetails(string,string,uint256,uint256)": "infinite",
            "updateSeedPrice(string,string,uint256)": "infinite",
            "updateStorageQuantity(uint256)": "infinite"
        }
    }
}