{
    "contractName": "supplyChainAgri",
    "abi": [
        {
            "inputs": [],
            "stateMutability": "nonpayable",
            "type": "constructor"
        },
        {
            "anonymous": false,
            "inputs": [
                {
                    "indexed": false,
                    "internalType": "address",
                    "name": "farmer",
                    "type": "address"
                },
                {
                    "indexed": false,
                    "internalType": "address",
                    "name": "Seedcompany",
                    "type": "address"
                },
                {
                    "indexed": false,
                    "internalType": "bytes32",
                    "name": "seedType",
                    "type": "bytes32"
                },
                {
                    "indexed": false,
                    "internalType": "bytes32",
                    "name": "variety",
                    "type": "bytes32"
                },
                {
                    "indexed": false,
                    "internalType": "uint256",
                    "name": "quantity",
                    "type": "uint256"
                },
                {
                    "indexed": false,
                    "internalType": "uint256",
                    "name": "Price",
                    "type": "uint256"
                },
                {
                    "indexed": false,
                    "internalType": "uint256",
                    "name": "time",
                    "type": "uint256"
                }
            ],
            "name": "transferCompleteSeed",
            "type": "event"
        },
        {
            "inputs": [
                {
                    "internalType": "string",
                    "name": "_name",
                    "type": "string"
                }
            ],
            "name": "addFarmer",
            "outputs": [],
            "stateMutability": "nonpayable",
            "type": "function"
        },
        {
            "inputs": [
                {
                    "internalType": "string",
                    "name": "_name",
                    "type": "string"
                }
            ],
            "name": "addSeedCompany",
            "outputs": [],
            "stateMutability": "nonpayable",
            "type": "function"
        },
        {
            "inputs": [
                {
                    "internalType": "string",
                    "name": "_seedType",
                    "type": "string"
                },
                {
                    "internalType": "string",
                    "name": "_variety",
                    "type": "string"
                },
                {
                    "internalType": "uint256",
                    "name": "_varietyID",
                    "type": "uint256"
                },
                {
                    "internalType": "uint256",
                    "name": "_addQuantity",
                    "type": "uint256"
                }
            ],
            "name": "addSeedQuantity",
            "outputs": [],
            "stateMutability": "nonpayable",
            "type": "function"
        },
        {
            "inputs": [],
            "name": "getListOfFarmer",
            "outputs": [
                {
                    "components": [
                        {
                            "internalType": "address payable",
                            "name": "farmerAddress",
                            "type": "address"
                        },
                        {
                            "internalType": "string",
                            "name": "name",
                            "type": "string"
                        }
                    ],
                    "internalType": "struct supplyChainAgri.Farmer[]",
                    "name": "",
                    "type": "tuple[]"
                },
                {
                    "internalType": "uint256",
                    "name": "",
                    "type": "uint256"
                }
            ],
            "stateMutability": "view",
            "type": "function"
        },
        {
            "inputs": [],
            "name": "getListOfseedCompany",
            "outputs": [
                {
                    "components": [
                        {
                            "internalType": "address payable",
                            "name": "companyAddress",
                            "type": "address"
                        },
                        {
                            "internalType": "string",
                            "name": "CompanyName",
                            "type": "string"
                        }
                    ],
                    "internalType": "struct supplyChainAgri.SeedCompany[]",
                    "name": "",
                    "type": "tuple[]"
                },
                {
                    "internalType": "uint256",
                    "name": "",
                    "type": "uint256"
                }
            ],
            "stateMutability": "view",
            "type": "function"
        },
        {
            "inputs": [
                {
                    "internalType": "string",
                    "name": "_seedType",
                    "type": "string"
                },
                {
                    "internalType": "string",
                    "name": "_variety",
                    "type": "string"
                },
                {
                    "internalType": "uint256",
                    "name": "_varietyID",
                    "type": "uint256"
                },
                {
                    "internalType": "uint256",
                    "name": "_addQuantity",
                    "type": "uint256"
                }
            ],
            "name": "removeSeedQuantity",
            "outputs": [],
            "stateMutability": "nonpayable",
            "type": "function"
        },
        {
            "inputs": [
                {
                    "internalType": "string",
                    "name": "_seedType",
                    "type": "string"
                },
                {
                    "internalType": "string",
                    "name": "_variety",
                    "type": "string"
                },
                {
                    "internalType": "uint256",
                    "name": "_varietyID",
                    "type": "uint256"
                },
                {
                    "internalType": "uint256",
                    "name": "_quantity",
                    "type": "uint256"
                },
                {
                    "internalType": "uint256",
                    "name": "_pricePer10g",
                    "type": "uint256"
                }
            ],
            "name": "updateSeedDetails",
            "outputs": [],
            "stateMutability": "nonpayable",
            "type": "function"
        },
        {
            "inputs": [
                {
                    "internalType": "string",
                    "name": "_seedType",
                    "type": "string"
                },
                {
                    "internalType": "string",
                    "name": "_variety",
                    "type": "string"
                },
                {
                    "internalType": "uint256",
                    "name": "_varietyID",
                    "type": "uint256"
                },
                {
                    "internalType": "uint256",
                    "name": "_pricePer10g",
                    "type": "uint256"
                }
            ],
            "name": "updateSeedPrice",
            "outputs": [],
            "stateMutability": "nonpayable",
            "type": "function"
        }
    ],
    "bytecode": "60806040526000805460ff60a01b19168155600481905560085534801561002557600080fd5b50600080546001600160a01b03191633179055611443806100476000396000f3fe608060405234801561001057600080fd5b50600436106100885760003560e01c8063258a5fc91161005b578063258a5fc9146100ea5780632d7e2e8b146100fd5780636389e07b14610110578063bf222bff1461012357600080fd5b806303f8027a1461008d5780631946be7b146100ac5780631aeb4ec7146100c157806320186479146100d7575b600080fd5b610095610136565b6040516100a3929190610fde565b60405180910390f35b6100bf6100ba3660046110ea565b6102b8565b005b6100c961039f565b6040516100a3929190611127565b6100bf6100e536600461117e565b6104a2565b6100bf6100f83660046111fd565b6107a6565b6100bf61010b3660046110ea565b6109ca565b6100bf61011e3660046111fd565b610aa8565b6100bf6101313660046111fd565b610cbf565b60008054606091906001600160a01b031633146101ab5760405162461bcd60e51b815260206004820152602860248201527f536f7272792c205468697320696e666f726d6174696f6e20697320636f6e66696044820152673232b73a34b0b61760c11b60648201526084015b60405180910390fd5b600160045481805480602002602001604051908101604052809291908181526020016000905b828210156102aa576000848152602090819020604080518082019091526002850290910180546001600160a01b03168252600181018054929391929184019161021990611271565b80601f016020809104026020016040519081016040528092919081815260200182805461024590611271565b80156102925780601f1061026757610100808354040283529160200191610292565b820191906000526020600020905b81548152906001019060200180831161027557829003601f168201915b505050505081525050815260200190600101906101d1565b505050509150915091509091565b60408051808201909152338152602080820183815260058054600181018255600091909152835160029091027f036b6384b5eca791c62761152d0c79bb0604c104a5fb6f4eb0703f3154bb3db0810180546001600160a01b03939093166001600160a01b031990931692909217825591518051919361035c937f036b6384b5eca791c62761152d0c79bb0604c104a5fb6f4eb0703f3154bb3db10192910190610ecd565b5050336000908152600660209081526040808320805460ff1916600117905560088054600790935290832082905590925090610397836112c1565b919050555050565b60606000600560085481805480602002602001604051908101604052809291908181526020016000905b828210156102aa576000848152602090819020604080518082019091526002850290910180546001600160a01b03168252600181018054929391929184019161041190611271565b80601f016020809104026020016040519081016040528092919081815260200182805461043d90611271565b801561048a5780601f1061045f5761010080835404028352916020019161048a565b820191906000526020600020905b81548152906001019060200180831161046d57829003601f168201915b505050505081525050815260200190600101906103c9565b3360008181526006602052604090205460ff166104d15760405162461bcd60e51b81526004016101a2906112da565b6000805b600a5481101561068257336001600160a01b0316600a82815481106104fc576104fc611311565b6000918252602090912001546001600160a01b03160361067057876040516020016105279190611327565b6040516020818303038152906040528051906020012060096000600a848154811061055457610554611311565b60009182526020808320909101546001600160a01b0316835282810193909352604091820181208a82528352819020905161058f9201611343565b604051602081830303815290604052805190602001200361067057866040516020016105bb9190611327565b6040516020818303038152906040528051906020012060096000600a84815481106105e8576105e8611311565b60009182526020808320909101546001600160a01b0316835282810193909352604091820181208a82528352819020905161062a926001929092019101611343565b604051602081830303815290604052805190602001200361067057600a818154811061065857610658611311565b6000918252602090912001546001600160a01b031691505b8061067a816112c1565b9150506104d5565b506001600160a01b03811661075557604080516080810182528881526020808201899052818301879052606082018690523360009081526009825283812089825282529290922081518051929391926106de9284920190610ecd565b5060208281015180516106f79260018501920190610ecd565b5060408201516002820155606090910151600390910155600a80546001810182556000919091527fc65a7bb8d6351c1cf70c95a316cc6a92839c986682d98bc35f958f4883f9d2a80180546001600160a01b0319163317905561079d565b60405162461bcd60e51b815260206004820152601f60248201527f536565642044657461696c732061726520616c7265616479206578697374210060448201526064016101a2565b50505050505050565b3360008181526006602052604090205460ff166107d55760405162461bcd60e51b81526004016101a2906112da565b6000805b600a5481101561098657336001600160a01b0316600a828154811061080057610800611311565b6000918252602090912001546001600160a01b031603610974578660405160200161082b9190611327565b6040516020818303038152906040528051906020012060096000600a848154811061085857610858611311565b60009182526020808320909101546001600160a01b031683528281019390935260409182018120898252835281902090516108939201611343565b604051602081830303815290604052805190602001200361097457856040516020016108bf9190611327565b6040516020818303038152906040528051906020012060096000600a84815481106108ec576108ec611311565b60009182526020808320909101546001600160a01b0316835282810193909352604091820181208982528352819020905161092e926001929092019101611343565b604051602081830303815290604052805190602001200361097457600a818154811061095c5761095c611311565b6000918252602090912001546001600160a01b031691505b8061097e816112c1565b9150506107d9565b506001600160a01b0381166000908152600960209081526040808320878452909152812060020180548592906109bd9084906113de565b9091555050505050505050565b604080518082019091523381526020808201838152600180548082018255600091909152835160029091027fb10e2d527612073b26eecdfd717e6a320cf44b4afac2b0732d9fcbe2b7fa0cf6810180546001600160a01b03939093166001600160a01b0319909316929092178255915180519193610a6d937fb10e2d527612073b26eecdfd717e6a320cf44b4afac2b0732d9fcbe2b7fa0cf70192910190610ecd565b5050336000908152600260209081526040808320805460ff1916600117905560048054600390935290832082905590925090610397836112c1565b3360008181526006602052604090205460ff16610ad75760405162461bcd60e51b81526004016101a2906112da565b6000805b600a54811015610c8857336001600160a01b0316600a8281548110610b0257610b02611311565b6000918252602090912001546001600160a01b031603610c765786604051602001610b2d9190611327565b6040516020818303038152906040528051906020012060096000600a8481548110610b5a57610b5a611311565b60009182526020808320909101546001600160a01b03168352828101939093526040918201812089825283528190209051610b959201611343565b6040516020818303038152906040528051906020012003610c765785604051602001610bc19190611327565b6040516020818303038152906040528051906020012060096000600a8481548110610bee57610bee611311565b60009182526020808320909101546001600160a01b03168352828101939093526040918201812089825283528190209051610c30926001929092019101611343565b6040516020818303038152906040528051906020012003610c7657600a8181548110610c5e57610c5e611311565b6000918252602090912001546001600160a01b031691505b80610c80816112c1565b915050610adb565b506001600160a01b0381166000908152600960209081526040808320878452909152812060020180548592906109bd9084906113f5565b3360008181526006602052604090205460ff16610cee5760405162461bcd60e51b81526004016101a2906112da565b6000805b600a54811015610e9f57336001600160a01b0316600a8281548110610d1957610d19611311565b6000918252602090912001546001600160a01b031603610e8d5786604051602001610d449190611327565b6040516020818303038152906040528051906020012060096000600a8481548110610d7157610d71611311565b60009182526020808320909101546001600160a01b03168352828101939093526040918201812089825283528190209051610dac9201611343565b6040516020818303038152906040528051906020012003610e8d5785604051602001610dd89190611327565b6040516020818303038152906040528051906020012060096000600a8481548110610e0557610e05611311565b60009182526020808320909101546001600160a01b03168352828101939093526040918201812089825283528190209051610e47926001929092019101611343565b6040516020818303038152906040528051906020012003610e8d57600a8181548110610e7557610e75611311565b6000918252602090912001546001600160a01b031691505b80610e97816112c1565b915050610cf2565b506001600160a01b031660009081526009602090815260408083209583529490529290922060030155505050565b828054610ed990611271565b90600052602060002090601f016020900481019282610efb5760008555610f41565b82601f10610f1457805160ff1916838001178555610f41565b82800160010185558215610f41579182015b82811115610f41578251825591602001919060010190610f26565b50610f4d929150610f51565b5090565b5b80821115610f4d5760008155600101610f52565b60005b83811015610f81578181015183820152602001610f69565b83811115610f90576000848401525b50505050565b60018060a01b03815116825260006020820151604060208501528051806040860152610fc9816060870160208501610f66565b601f01601f1916939093016060019392505050565b6000604082016040835280855180835260608501915060608160051b8601019250602080880160005b8381101561103557605f19888703018552611023868351610f96565b95509382019390820190600101611007565b50509490940194909452949350505050565b634e487b7160e01b600052604160045260246000fd5b600082601f83011261106e57600080fd5b813567ffffffffffffffff8082111561108957611089611047565b604051601f8301601f19908116603f011681019082821181831017156110b1576110b1611047565b816040528381528660208588010111156110ca57600080fd5b836020870160208301376000602085830101528094505050505092915050565b6000602082840312156110fc57600080fd5b813567ffffffffffffffff81111561111357600080fd5b61111f8482850161105d565b949350505050565b6000604082016040835280855180835260608501915060608160051b8601019250602080880160005b8381101561103557605f1988870301855261116c868351610f96565b95509382019390820190600101611150565b600080600080600060a0868803121561119657600080fd5b853567ffffffffffffffff808211156111ae57600080fd5b6111ba89838a0161105d565b965060208801359150808211156111d057600080fd5b506111dd8882890161105d565b959895975050505060408401359360608101359360809091013592509050565b6000806000806080858703121561121357600080fd5b843567ffffffffffffffff8082111561122b57600080fd5b6112378883890161105d565b9550602087013591508082111561124d57600080fd5b5061125a8782880161105d565b949794965050505060408301359260600135919050565b600181811c9082168061128557607f821691505b6020821081036112a557634e487b7160e01b600052602260045260246000fd5b50919050565b634e487b7160e01b600052601160045260246000fd5b6000600182016112d3576112d36112ab565b5060010190565b6020808252601b908201527f5365656420636f6d70616e7920646f65736e2774206578697374210000000000604082015260600190565b634e487b7160e01b600052603260045260246000fd5b60008251611339818460208701610f66565b9190910192915050565b600080835481600182811c91508083168061135f57607f831692505b6020808410820361137e57634e487b7160e01b86526022600452602486fd5b81801561139257600181146113a3576113d0565b60ff198616895284890196506113d0565b60008a81526020902060005b868110156113c85781548b8201529085019083016113af565b505084890196505b509498975050505050505050565b6000828210156113f0576113f06112ab565b500390565b60008219821115611408576114086112ab565b50019056fea2646970667358221220fb5cb97a5bc067bc120c4e2d8fd6df9960ca02c5b2378236d70861612968c6f164736f6c634300080e0033",
    "sourcePath": "e:/JSS Mysore/6th Semester/EC67L D&I/Project/supplyChain.sol",
    "compiler": {
        "name": "solc",
        "version": "0.8.14+commit.80d49f37"
    },
    "functionHashes": {
        "addFarmer(string)": "2d7e2e8b",
        "addSeedCompany(string)": "1946be7b",
        "addSeedQuantity(string,string,uint256,uint256)": "6389e07b",
        "getListOfFarmer()": "03f8027a",
        "getListOfseedCompany()": "1aeb4ec7",
        "removeSeedQuantity(string,string,uint256,uint256)": "258a5fc9",
        "updateSeedDetails(string,string,uint256,uint256,uint256)": "20186479",
        "updateSeedPrice(string,string,uint256,uint256)": "bf222bff"
    },
    "gasEstimates": {
        "creation": {
            "codeDepositCost": "1037400",
            "executionCost": "59551",
            "totalCost": "1096951"
        },
        "external": {
            "addFarmer(string)": "infinite",
            "addSeedCompany(string)": "infinite",
            "addSeedQuantity(string,string,uint256,uint256)": "infinite",
            "getListOfFarmer()": "infinite",
            "getListOfseedCompany()": "infinite",
            "removeSeedQuantity(string,string,uint256,uint256)": "infinite",
            "updateSeedDetails(string,string,uint256,uint256,uint256)": "infinite",
            "updateSeedPrice(string,string,uint256,uint256)": "infinite"
        }
    }
}