{
    "contractName": "supplyChainAgriculture",
    "abi": [
        {
            "inputs": [],
            "stateMutability": "nonpayable",
            "type": "constructor"
        },
        {
            "anonymous": false,
            "inputs": [
                {
                    "indexed": false,
                    "internalType": "address",
                    "name": "farmer",
                    "type": "address"
                },
                {
                    "indexed": false,
                    "internalType": "address",
                    "name": "elevator",
                    "type": "address"
                },
                {
                    "indexed": false,
                    "internalType": "string",
                    "name": "grainType",
                    "type": "string"
                },
                {
                    "indexed": false,
                    "internalType": "string",
                    "name": "variety",
                    "type": "string"
                },
                {
                    "indexed": false,
                    "internalType": "uint256",
                    "name": "quantity",
                    "type": "uint256"
                },
                {
                    "indexed": false,
                    "internalType": "uint256",
                    "name": "pricePer1q",
                    "type": "uint256"
                },
                {
                    "indexed": false,
                    "internalType": "uint256",
                    "name": "purchaseDate",
                    "type": "uint256"
                }
            ],
            "name": "sellGrainsToElevator",
            "type": "event"
        },
        {
            "anonymous": false,
            "inputs": [
                {
                    "indexed": false,
                    "internalType": "address",
                    "name": "Elevator",
                    "type": "address"
                },
                {
                    "indexed": false,
                    "internalType": "address",
                    "name": "Processor",
                    "type": "address"
                },
                {
                    "indexed": false,
                    "internalType": "string",
                    "name": "grainType",
                    "type": "string"
                },
                {
                    "indexed": false,
                    "internalType": "string",
                    "name": "variety",
                    "type": "string"
                },
                {
                    "indexed": false,
                    "internalType": "uint256",
                    "name": "quantity",
                    "type": "uint256"
                },
                {
                    "indexed": false,
                    "internalType": "uint256",
                    "name": "pricePer1q",
                    "type": "uint256"
                },
                {
                    "indexed": false,
                    "internalType": "uint256",
                    "name": "purchaseDate",
                    "type": "uint256"
                }
            ],
            "name": "sellGrainsToProcessorFromElevator",
            "type": "event"
        },
        {
            "anonymous": false,
            "inputs": [
                {
                    "indexed": false,
                    "internalType": "address",
                    "name": "farmer",
                    "type": "address"
                },
                {
                    "indexed": false,
                    "internalType": "address",
                    "name": "seedCompany",
                    "type": "address"
                },
                {
                    "indexed": false,
                    "internalType": "string",
                    "name": "seedType",
                    "type": "string"
                },
                {
                    "indexed": false,
                    "internalType": "string",
                    "name": "variety",
                    "type": "string"
                },
                {
                    "indexed": false,
                    "internalType": "uint256",
                    "name": "quantity",
                    "type": "uint256"
                },
                {
                    "indexed": false,
                    "internalType": "uint256",
                    "name": "time",
                    "type": "uint256"
                }
            ],
            "name": "sellOfSeeds",
            "type": "event"
        },
        {
            "anonymous": false,
            "inputs": [
                {
                    "indexed": false,
                    "internalType": "address",
                    "name": "Processor",
                    "type": "address"
                },
                {
                    "indexed": false,
                    "internalType": "address",
                    "name": "elevator",
                    "type": "address"
                },
                {
                    "indexed": false,
                    "internalType": "string",
                    "name": "grainType",
                    "type": "string"
                },
                {
                    "indexed": false,
                    "internalType": "string",
                    "name": "variety",
                    "type": "string"
                },
                {
                    "indexed": false,
                    "internalType": "uint256",
                    "name": "quantity",
                    "type": "uint256"
                },
                {
                    "indexed": false,
                    "internalType": "uint256",
                    "name": "Price",
                    "type": "uint256"
                },
                {
                    "indexed": false,
                    "internalType": "uint256",
                    "name": "time",
                    "type": "uint256"
                }
            ],
            "name": "transferCompleteFromProcessorToElevator",
            "type": "event"
        },
        {
            "anonymous": false,
            "inputs": [
                {
                    "indexed": false,
                    "internalType": "address",
                    "name": "farmer",
                    "type": "address"
                },
                {
                    "indexed": false,
                    "internalType": "address",
                    "name": "Seedcompany",
                    "type": "address"
                },
                {
                    "indexed": false,
                    "internalType": "string",
                    "name": "seedType",
                    "type": "string"
                },
                {
                    "indexed": false,
                    "internalType": "string",
                    "name": "variety",
                    "type": "string"
                },
                {
                    "indexed": false,
                    "internalType": "uint256",
                    "name": "quantity",
                    "type": "uint256"
                },
                {
                    "indexed": false,
                    "internalType": "uint256",
                    "name": "Price",
                    "type": "uint256"
                },
                {
                    "indexed": false,
                    "internalType": "uint256",
                    "name": "time",
                    "type": "uint256"
                }
            ],
            "name": "transferCompleteSeed",
            "type": "event"
        },
        {
            "anonymous": false,
            "inputs": [
                {
                    "indexed": false,
                    "internalType": "address",
                    "name": "elevator",
                    "type": "address"
                },
                {
                    "indexed": false,
                    "internalType": "address",
                    "name": "farmer",
                    "type": "address"
                },
                {
                    "indexed": false,
                    "internalType": "string",
                    "name": "grownGrainType",
                    "type": "string"
                },
                {
                    "indexed": false,
                    "internalType": "string",
                    "name": "variety",
                    "type": "string"
                },
                {
                    "indexed": false,
                    "internalType": "uint256",
                    "name": "quantity",
                    "type": "uint256"
                },
                {
                    "indexed": false,
                    "internalType": "uint256",
                    "name": "Price",
                    "type": "uint256"
                },
                {
                    "indexed": false,
                    "internalType": "uint256",
                    "name": "time",
                    "type": "uint256"
                }
            ],
            "name": "transferCompletegrownGrain",
            "type": "event"
        },
        {
            "inputs": [
                {
                    "internalType": "string",
                    "name": "_hash",
                    "type": "string"
                },
                {
                    "internalType": "string",
                    "name": "_distributorName",
                    "type": "string"
                }
            ],
            "name": "addDistributor",
            "outputs": [],
            "stateMutability": "nonpayable",
            "type": "function"
        },
        {
            "inputs": [
                {
                    "internalType": "string",
                    "name": "_hash",
                    "type": "string"
                },
                {
                    "internalType": "string",
                    "name": "_name",
                    "type": "string"
                },
                {
                    "internalType": "uint256",
                    "name": "_storageQuantity",
                    "type": "uint256"
                }
            ],
            "name": "addElevator",
            "outputs": [],
            "stateMutability": "nonpayable",
            "type": "function"
        },
        {
            "inputs": [
                {
                    "internalType": "string",
                    "name": "_hash",
                    "type": "string"
                }
            ],
            "name": "addFarmer",
            "outputs": [],
            "stateMutability": "nonpayable",
            "type": "function"
        },
        {
            "inputs": [
                {
                    "internalType": "string",
                    "name": "_grainType",
                    "type": "string"
                },
                {
                    "internalType": "string",
                    "name": "_variety",
                    "type": "string"
                },
                {
                    "internalType": "uint256",
                    "name": "_quantity",
                    "type": "uint256"
                }
            ],
            "name": "addGrainQuantityFromElevator",
            "outputs": [],
            "stateMutability": "nonpayable",
            "type": "function"
        },
        {
            "inputs": [
                {
                    "internalType": "string",
                    "name": "_processedGrainType",
                    "type": "string"
                },
                {
                    "internalType": "string",
                    "name": "_processedGrainVariety",
                    "type": "string"
                },
                {
                    "internalType": "uint256",
                    "name": "_quantity",
                    "type": "uint256"
                }
            ],
            "name": "addProcessedGrainQuantity",
            "outputs": [],
            "stateMutability": "nonpayable",
            "type": "function"
        },
        {
            "inputs": [
                {
                    "internalType": "string",
                    "name": "_hash",
                    "type": "string"
                },
                {
                    "internalType": "string",
                    "name": "_name",
                    "type": "string"
                }
            ],
            "name": "addProcessor",
            "outputs": [],
            "stateMutability": "nonpayable",
            "type": "function"
        },
        {
            "inputs": [
                {
                    "internalType": "string",
                    "name": "_name",
                    "type": "string"
                },
                {
                    "internalType": "string",
                    "name": "_hash",
                    "type": "string"
                }
            ],
            "name": "addSeedCompany",
            "outputs": [],
            "stateMutability": "nonpayable",
            "type": "function"
        },
        {
            "inputs": [
                {
                    "internalType": "string",
                    "name": "_seedType",
                    "type": "string"
                },
                {
                    "internalType": "string",
                    "name": "_variety",
                    "type": "string"
                },
                {
                    "internalType": "uint256",
                    "name": "_addQuantity",
                    "type": "uint256"
                }
            ],
            "name": "addSeedQuantity",
            "outputs": [],
            "stateMutability": "nonpayable",
            "type": "function"
        },
        {
            "inputs": [
                {
                    "internalType": "address payable",
                    "name": "_elevator",
                    "type": "address"
                },
                {
                    "internalType": "string",
                    "name": "_grainType",
                    "type": "string"
                },
                {
                    "internalType": "string",
                    "name": "_variety",
                    "type": "string"
                },
                {
                    "internalType": "uint256",
                    "name": "_quantity",
                    "type": "uint256"
                }
            ],
            "name": "buyGrainFromElevator",
            "outputs": [],
            "stateMutability": "payable",
            "type": "function"
        },
        {
            "inputs": [
                {
                    "internalType": "address payable",
                    "name": "_farmer",
                    "type": "address"
                },
                {
                    "internalType": "string",
                    "name": "_grainTypeGrown",
                    "type": "string"
                },
                {
                    "internalType": "string",
                    "name": "_variety",
                    "type": "string"
                },
                {
                    "internalType": "uint256",
                    "name": "_quantity",
                    "type": "uint256"
                }
            ],
            "name": "buyGrainFromFarmer",
            "outputs": [],
            "stateMutability": "payable",
            "type": "function"
        },
        {
            "inputs": [
                {
                    "internalType": "address payable",
                    "name": "_seedCompany",
                    "type": "address"
                },
                {
                    "internalType": "string",
                    "name": "_seedType",
                    "type": "string"
                },
                {
                    "internalType": "string",
                    "name": "_variety",
                    "type": "string"
                },
                {
                    "internalType": "uint256",
                    "name": "_quantity",
                    "type": "uint256"
                }
            ],
            "name": "buySeeds",
            "outputs": [],
            "stateMutability": "payable",
            "type": "function"
        },
        {
            "inputs": [],
            "name": "createContract",
            "outputs": [],
            "stateMutability": "nonpayable",
            "type": "function"
        },
        {
            "inputs": [],
            "name": "getListOfFarmer",
            "outputs": [
                {
                    "components": [
                        {
                            "internalType": "address payable",
                            "name": "farmerAddress",
                            "type": "address"
                        },
                        {
                            "internalType": "string",
                            "name": "hash",
                            "type": "string"
                        }
                    ],
                    "internalType": "struct supplyChainAgriculture.Farmer[]",
                    "name": "",
                    "type": "tuple[]"
                },
                {
                    "internalType": "uint256",
                    "name": "",
                    "type": "uint256"
                }
            ],
            "stateMutability": "view",
            "type": "function"
        },
        {
            "inputs": [],
            "name": "getListOfseedCompany",
            "outputs": [
                {
                    "components": [
                        {
                            "internalType": "address payable",
                            "name": "companyAddress",
                            "type": "address"
                        },
                        {
                            "internalType": "string",
                            "name": "CompanyName",
                            "type": "string"
                        },
                        {
                            "internalType": "string",
                            "name": "hash",
                            "type": "string"
                        }
                    ],
                    "internalType": "struct supplyChainAgriculture.SeedCompany[]",
                    "name": "",
                    "type": "tuple[]"
                },
                {
                    "internalType": "uint256",
                    "name": "",
                    "type": "uint256"
                }
            ],
            "stateMutability": "view",
            "type": "function"
        },
        {
            "inputs": [
                {
                    "internalType": "string",
                    "name": "_grainType",
                    "type": "string"
                },
                {
                    "internalType": "string",
                    "name": "_variety",
                    "type": "string"
                },
                {
                    "internalType": "uint256",
                    "name": "_quantity",
                    "type": "uint256"
                }
            ],
            "name": "removeGrainQuantityFromElevator",
            "outputs": [],
            "stateMutability": "nonpayable",
            "type": "function"
        },
        {
            "inputs": [
                {
                    "internalType": "string",
                    "name": "_processedGrainType",
                    "type": "string"
                },
                {
                    "internalType": "string",
                    "name": "_processedGrainVariety",
                    "type": "string"
                },
                {
                    "internalType": "uint256",
                    "name": "_quantity",
                    "type": "uint256"
                }
            ],
            "name": "removeProcessedGrainQuantity",
            "outputs": [],
            "stateMutability": "nonpayable",
            "type": "function"
        },
        {
            "inputs": [
                {
                    "internalType": "string",
                    "name": "_seedType",
                    "type": "string"
                },
                {
                    "internalType": "string",
                    "name": "_variety",
                    "type": "string"
                },
                {
                    "internalType": "uint256",
                    "name": "_addQuantity",
                    "type": "uint256"
                }
            ],
            "name": "removeSeedQuantity",
            "outputs": [],
            "stateMutability": "nonpayable",
            "type": "function"
        },
        {
            "inputs": [
                {
                    "internalType": "address",
                    "name": "_elevator",
                    "type": "address"
                },
                {
                    "internalType": "string",
                    "name": "_grainType",
                    "type": "string"
                },
                {
                    "internalType": "string",
                    "name": "_variety",
                    "type": "string"
                },
                {
                    "internalType": "uint256",
                    "name": "_quantity",
                    "type": "uint256"
                },
                {
                    "internalType": "uint256",
                    "name": "_moisture",
                    "type": "uint256"
                },
                {
                    "internalType": "uint256",
                    "name": "_temperature",
                    "type": "uint256"
                },
                {
                    "internalType": "uint256",
                    "name": "_pricePer1q",
                    "type": "uint256"
                },
                {
                    "internalType": "uint256",
                    "name": "_purchaseDate",
                    "type": "uint256"
                }
            ],
            "name": "sellGrainToElevator",
            "outputs": [],
            "stateMutability": "nonpayable",
            "type": "function"
        },
        {
            "inputs": [
                {
                    "internalType": "address",
                    "name": "_processor",
                    "type": "address"
                },
                {
                    "internalType": "string",
                    "name": "_grainType",
                    "type": "string"
                },
                {
                    "internalType": "string",
                    "name": "_grainVariety",
                    "type": "string"
                },
                {
                    "internalType": "uint256",
                    "name": "_quantity",
                    "type": "uint256"
                },
                {
                    "internalType": "uint256",
                    "name": "_pricePer1q",
                    "type": "uint256"
                },
                {
                    "internalType": "uint256",
                    "name": "_purchaseDate",
                    "type": "uint256"
                }
            ],
            "name": "sellGrainToProcessor",
            "outputs": [],
            "stateMutability": "nonpayable",
            "type": "function"
        },
        {
            "inputs": [
                {
                    "internalType": "address",
                    "name": "_farmer",
                    "type": "address"
                },
                {
                    "internalType": "string",
                    "name": "_seedType",
                    "type": "string"
                },
                {
                    "internalType": "string",
                    "name": "_variety",
                    "type": "string"
                },
                {
                    "internalType": "uint256",
                    "name": "_quantity",
                    "type": "uint256"
                }
            ],
            "name": "sellSeeds",
            "outputs": [],
            "stateMutability": "nonpayable",
            "type": "function"
        },
        {
            "inputs": [
                {
                    "internalType": "string",
                    "name": "_seedType",
                    "type": "string"
                },
                {
                    "internalType": "string",
                    "name": "_variety",
                    "type": "string"
                },
                {
                    "internalType": "uint256",
                    "name": "_quantity",
                    "type": "uint256"
                },
                {
                    "internalType": "uint256",
                    "name": "_pricePer1q",
                    "type": "uint256"
                }
            ],
            "name": "updateGrainFarmerQuantity",
            "outputs": [],
            "stateMutability": "nonpayable",
            "type": "function"
        },
        {
            "inputs": [
                {
                    "internalType": "string",
                    "name": "_grainTypeGrown",
                    "type": "string"
                },
                {
                    "internalType": "string",
                    "name": "_variety",
                    "type": "string"
                },
                {
                    "internalType": "uint256",
                    "name": "_pricePer1q",
                    "type": "uint256"
                }
            ],
            "name": "updateGrainPriceByFarmer",
            "outputs": [],
            "stateMutability": "nonpayable",
            "type": "function"
        },
        {
            "inputs": [
                {
                    "internalType": "string",
                    "name": "_grainType",
                    "type": "string"
                },
                {
                    "internalType": "string",
                    "name": "_variety",
                    "type": "string"
                },
                {
                    "internalType": "uint256",
                    "name": "_pricePer1q",
                    "type": "uint256"
                }
            ],
            "name": "updateGrainPriceFromElevator",
            "outputs": [],
            "stateMutability": "nonpayable",
            "type": "function"
        },
        {
            "inputs": [
                {
                    "internalType": "string",
                    "name": "_processedGrainType",
                    "type": "string"
                },
                {
                    "internalType": "string",
                    "name": "_processedGrainVariety",
                    "type": "string"
                },
                {
                    "internalType": "uint256",
                    "name": "_quantity",
                    "type": "uint256"
                },
                {
                    "internalType": "uint256",
                    "name": "_pricePerLot",
                    "type": "uint256"
                },
                {
                    "internalType": "uint256",
                    "name": "_manufactureDate",
                    "type": "uint256"
                },
                {
                    "internalType": "uint256",
                    "name": "_expDate",
                    "type": "uint256"
                }
            ],
            "name": "updateProcessedGrainDetails",
            "outputs": [],
            "stateMutability": "nonpayable",
            "type": "function"
        },
        {
            "inputs": [
                {
                    "internalType": "string",
                    "name": "_processedGrainType",
                    "type": "string"
                },
                {
                    "internalType": "string",
                    "name": "_processedGrainVariety",
                    "type": "string"
                },
                {
                    "internalType": "uint256",
                    "name": "_pricePerLot",
                    "type": "uint256"
                }
            ],
            "name": "updateProcessedGrainPrice",
            "outputs": [],
            "stateMutability": "nonpayable",
            "type": "function"
        },
        {
            "inputs": [
                {
                    "internalType": "string",
                    "name": "_seedType",
                    "type": "string"
                },
                {
                    "internalType": "string",
                    "name": "_variety",
                    "type": "string"
                },
                {
                    "internalType": "uint256",
                    "name": "_quantity",
                    "type": "uint256"
                },
                {
                    "internalType": "uint256",
                    "name": "_pricePer10g",
                    "type": "uint256"
                }
            ],
            "name": "updateSeedDetails",
            "outputs": [],
            "stateMutability": "nonpayable",
            "type": "function"
        },
        {
            "inputs": [
                {
                    "internalType": "string",
                    "name": "_seedType",
                    "type": "string"
                },
                {
                    "internalType": "string",
                    "name": "_variety",
                    "type": "string"
                },
                {
                    "internalType": "uint256",
                    "name": "_pricePer10g",
                    "type": "uint256"
                }
            ],
            "name": "updateSeedPrice",
            "outputs": [],
            "stateMutability": "nonpayable",
            "type": "function"
        },
        {
            "inputs": [
                {
                    "internalType": "uint256",
                    "name": "_storageQuantity",
                    "type": "uint256"
                }
            ],
            "name": "updateStorageQuantity",
            "outputs": [],
            "stateMutability": "nonpayable",
            "type": "function"
        },
        {
            "inputs": [
                {
                    "internalType": "string",
                    "name": "_grainType",
                    "type": "string"
                },
                {
                    "internalType": "string",
                    "name": "_variety",
                    "type": "string"
                },
                {
                    "internalType": "uint256",
                    "name": "_quantity",
                    "type": "uint256"
                },
                {
                    "internalType": "uint256",
                    "name": "_pricePer1q",
                    "type": "uint256"
                }
            ],
            "name": "updategrainDetailsFromElevator",
            "outputs": [],
            "stateMutability": "nonpayable",
            "type": "function"
        }
    ],
    "bytecode": "60806040526000805462ffffff60a01b19168155600381905560058190556007819055600b81905560138190556017819055601f5534801561004057600080fd5b50600080546001600160a01b03191633179055614495806100626000396000f3fe6080604052600436106101c25760003560e01c8063719fae32116100f7578063cb8f510b11610095578063dc2fdb1411610064578063dc2fdb14146104d3578063dc441ba8146104f3578063dcdd5bce14610513578063f66959ee1461052657600080fd5b8063cb8f510b14610453578063cc746e4514610473578063ccc7cada14610493578063d49376ca146104b357600080fd5b8063b9ac42b2116100d1578063b9ac42b2146103e0578063c10e8579146103f3578063c16634b714610413578063c7d5c3321461043357600080fd5b8063719fae321461038d5780639375946d146103ad578063b5d765de146103c057600080fd5b80632d7e2e8b1161016457806353b2d0fd1161013e57806353b2d0fd1461030d57806359a1d1a31461032d5780635dc6a0051461034d5780635eb78b8c1461036d57600080fd5b80632d7e2e8b146102b8578063412a5a6d146102d857806347f15ddf146102ed57600080fd5b8063166d9eaa116101a0578063166d9eaa1461023557806317cf2c15146102555780631aeb4ec7146102755780631b5e33ac1461029857600080fd5b806302ca78f2146101c757806303f8027a146101e95780630d95c12914610215575b600080fd5b3480156101d357600080fd5b506101e76101e2366004613b4a565b610546565b005b3480156101f557600080fd5b506101fe61070f565b60405161020c929190613c24565b60405180910390f35b34801561022157600080fd5b506101e7610230366004613ca8565b61088c565b34801561024157600080fd5b506101e7610250366004613d15565b610ac3565b34801561026157600080fd5b506101e7610270366004613ca8565b610b78565b34801561028157600080fd5b5061028a610c97565b60405161020c929190613d2e565b3480156102a457600080fd5b506101e76102b3366004613ca8565b610e2d565b3480156102c457600080fd5b506101e76102d3366004613dce565b611029565b3480156102e457600080fd5b506101e7611110565b3480156102f957600080fd5b506101e7610308366004613e0b565b6111b4565b34801561031957600080fd5b506101e7610328366004613e9d565b611485565b34801561033957600080fd5b506101e7610348366004613ca8565b6115a1565b34801561035957600080fd5b506101e7610368366004613ca8565b611795565b34801561037957600080fd5b506101e7610388366004613ca8565b6119c0565b34801561039957600080fd5b506101e76103a8366004613e9d565b611bbc565b6101e76103bb366004613b4a565b611ca9565b3480156103cc57600080fd5b506101e76103db366004613ca8565b612032565b6101e76103ee366004613b4a565b61227c565b3480156103ff57600080fd5b506101e761040e366004613f11565b61262b565b34801561041f57600080fd5b506101e761042e366004613e9d565b6128c8565b34801561043f57600080fd5b506101e761044e366004613fb5565b612a0b565b34801561045f57600080fd5b506101e761046e366004613ca8565b612b18565b34801561047f57600080fd5b506101e761048e366004613ca8565b612d14565b34801561049f57600080fd5b506101e76104ae366004614019565b612f37565b3480156104bf57600080fd5b506101e76104ce366004613fb5565b613077565b3480156104df57600080fd5b506101e76104ee366004613fb5565b61317b565b3480156104ff57600080fd5b506101e761050e366004613ca8565b61327e565b6101e7610521366004613b4a565b61347a565b34801561053257600080fd5b506101e7610541366004613ca8565b613802565b336000818152600f602052604090205460ff1661057e5760405162461bcd60e51b8152600401610575906140a0565b60405180910390fd5b336000908152600f602052604090205460ff166105dd5760405162461bcd60e51b815260206004820152601a60248201527f5365656420436f6d70616e7920446f65736e27742045786973740000000000006044820152606401610575565b600054600160a01b900460ff1615156001036106a8576040805180820182523381526001600160a01b0387811660208084019182526003805460009081526002909252948120935184549084166001600160a01b031991821617855591516001909401805494909316939091169290921790558154919061065d836140ed565b91905055507f0abb2b17e070b031d143b94e96bb7894984f9776f01493cbcc2f4191d803a1b685338686864260405161069b96959493929190614106565b60405180910390a1610708565b60405162461bcd60e51b815260206004820152602f60248201527f4661726d657220646f65736e2774206578697374206f72206865206469646e2760448201526e7420706179207468652062696c6c7360881b6064820152608401610575565b5050505050565b60008054606091906001600160a01b0316331461077f5760405162461bcd60e51b815260206004820152602860248201527f536f7272792c205468697320696e666f726d6174696f6e20697320636f6e66696044820152673232b73a34b0b61760c11b6064820152608401610575565b6008600b5481805480602002602001604051908101604052809291908181526020016000905b8282101561087e576000848152602090819020604080518082019091526002850290910180546001600160a01b0316825260018101805492939192918401916107ed9061415a565b80601f01602080910402602001604051908101604052809291908181526020018280546108199061415a565b80156108665780601f1061083b57610100808354040283529160200191610866565b820191906000526020600020905b81548152906001019060200180831161084957829003601f168201915b505050505081525050815260200190600101906107a5565b505050509150915091509091565b336000818152601d602052604090205460ff166108bb5760405162461bcd60e51b815260040161057590614194565b336000908152601d602052604090205460ff166108ea5760405162461bcd60e51b815260040161057590614194565b6000805b602354811015610a8b57336001600160a01b031660238281548110610915576109156141cb565b6000918252602090912001546001600160a01b031603610a79578560405160200161094091906141e1565b60405160208183030381529060405280519060200120602260006023848154811061096d5761096d6141cb565b60009182526020808320909101546001600160a01b03168352828101939093526040918201902090516109a092016141fd565b6040516020818303038152906040528051906020012003610a7957846040516020016109cc91906141e1565b6040516020818303038152906040528051906020012060226000602384815481106109f9576109f96141cb565b60009182526020808320909101546001600160a01b0316835282810193909352604091820190209051610a339260019290920191016141fd565b6040516020818303038152906040528051906020012003610a795760238181548110610a6157610a616141cb565b6000918252602090912001546001600160a01b031691505b80610a83816140ed565b9150506108ee565b506001600160a01b03811660009081526022602052604081206002018054859290610ab7908490614298565b90915550505050505050565b3360008181526015602052604090205460ff16610af25760405162461bcd60e51b8152600401610575906142af565b6000805b601454811015610b495760148181548110610b1357610b136141cb565b60009182526020909120600490910201546001600160a01b03163303610b37578091505b80610b41816140ed565b915050610af6565b508260148281548110610b5e57610b5e6141cb565b906000526020600020906004020160030181905550505050565b604080516080810182523381526020808201858152928201869052606082018490526014805460018101825560009190915282517fce6d7b5282bd9a3661ae061feed1dbda4e52ab073b1f9285be6e155d9c38d4ec600490920291820180546001600160a01b0319166001600160a01b0390921691909117815593518051939493610c2c937fce6d7b5282bd9a3661ae061feed1dbda4e52ab073b1f9285be6e155d9c38d4ed9093019291909101906139f6565b5060408201518051610c489160028401916020909101906139f6565b5060609190910151600390910155336000908152601560209081526040808320805460ff191660011790556017805460169093529083208290559091610c8d836140ed565b9190505550505050565b60606000600e60135481805480602002602001604051908101604052809291908181526020016000905b8282101561087e57600084815260209081902060408051606081019091526003850290910180546001600160a01b031682526001810180549293919291840191610d0a9061415a565b80601f0160208091040260200160405190810160405280929190818152602001828054610d369061415a565b8015610d835780601f10610d5857610100808354040283529160200191610d83565b820191906000526020600020905b815481529060010190602001808311610d6657829003601f168201915b50505050508152602001600282018054610d9c9061415a565b80601f0160208091040260200160405190810160405280929190818152602001828054610dc89061415a565b8015610e155780601f10610dea57610100808354040283529160200191610e15565b820191906000526020600020905b815481529060010190602001808311610df857829003601f168201915b50505050508152505081526020019060010190610cc1565b3360008181526015602052604090205460ff16610e5c5760405162461bcd60e51b8152600401610575906142af565b6000805b601b54811015610ffd57336001600160a01b0316601b8281548110610e8757610e876141cb565b6000918252602090912001546001600160a01b031603610feb5785604051602001610eb291906141e1565b60405160208183030381529060405280519060200120601a6000601b8481548110610edf57610edf6141cb565b60009182526020808320909101546001600160a01b0316835282810193909352604091820190209051610f1292016141fd565b6040516020818303038152906040528051906020012003610feb5784604051602001610f3e91906141e1565b60405160208183030381529060405280519060200120601a6000601b8481548110610f6b57610f6b6141cb565b60009182526020808320909101546001600160a01b0316835282810193909352604091820190209051610fa59260019290920191016141fd565b6040516020818303038152906040528051906020012003610feb57601b8181548110610fd357610fd36141cb565b6000918252602090912001546001600160a01b031691505b80610ff5816140ed565b915050610e60565b506001600160a01b0381166000908152601a602052604081206002018054859290610ab7908490614298565b60408051808201909152338152602080820183815260088054600181018255600091909152835160029091027ff3f7a9fe364faab93b216da50a3214154f22a0a2b415b23a84c8169e8b636ee3810180546001600160a01b03939093166001600160a01b03199093169290921782559151805191936110cd937ff3f7a9fe364faab93b216da50a3214154f22a0a2b415b23a84c8169e8b636ee401929101906139f6565b5050336000908152600960209081526040808320805460ff19166001179055600b8054600a90935290832082905590925090611108836140ed565b919050555050565b3360008181526009602052604090205460ff1661113f5760405162461bcd60e51b8152600401610575906142df565b3360009081526009602052604090205460ff166111975760405162461bcd60e51b81526020600482015260166024820152754661726d657220646f65736e2774206578736973742160501b6044820152606401610575565b50336000908152600160205260409020805460ff19166002179055565b3360008181526015602052604090205460ff166111e35760405162461bcd60e51b8152600401610575906142af565b3360009081526015602052604090205460ff1661123b5760405162461bcd60e51b8152602060048201526016602482015275195b195d985d1bdc88191bd95cdb89dd08195e1a5cdd60521b6044820152606401610575565b6001600160a01b0387166000908152601d602052604090205460ff166112735760405162461bcd60e51b815260040161057590614194565b6040805160a081018252878152602080820188905281830187905260608201869052608082018590526001600160a01b038a1660009081528180529290922081518051929391926112c792849201906139f6565b5060208281015180516112e092600185019201906139f6565b506040820151600282015560608201516003820155608090910151600490910155602180546001808201835560009283527f3a6357012c1a3ae0a17d304c9920310382d968ebcc4b1771f41c6b304205b57090910180546001600160a01b0319166001600160a01b038b161790559054600160b01b900460ff1615159003611419576040805180820182526001600160a01b03808a1682523360208084019182526007805460009081526006909252948120935184549084166001600160a01b03199182161785559151600190940180549490931693909116929092179055815491906113cc836140ed565b91905055507f1a7fbb4c0e73e5682e67378b1f56e4ce2b0b08405c53e3fb728f130d7a09b0d13388888888888860405161140c979695949392919061430e565b60405180910390a161147c565b60405162461bcd60e51b815260206004820152603260248201527f50726f636573736f7220646f65736e2774206578697374206f72206865206469604482015271646e277420706179207468652062696c6c7360701b6064820152608401610575565b50505050505050565b3360008181526015602052604090205460ff166114b45760405162461bcd60e51b8152600401610575906142af565b3360009081526015602052604090205460ff166114e35760405162461bcd60e51b8152600401610575906142af565b60408051608081018252868152602080820187905281830186905260608201859052336000908152601a825292909220815180519293919261152892849201906139f6565b50602082810151805161154192600185019201906139f6565b50604082015160028201556060909101516003909101555050601b80546001810182556000919091527f3ad8aa4f87544323a9d1e5dd902f40c356527a7955687113db5f9a85ad579dc10180546001600160a01b03191633179055505050565b336000818152600f602052604090205460ff166115d05760405162461bcd60e51b8152600401610575906140a0565b6000805b60125481101561177157336001600160a01b0316601282815481106115fb576115fb6141cb565b6000918252602090912001546001600160a01b03160361175f578560405160200161162691906141e1565b604051602081830303815290604052805190602001206011600060128481548110611653576116536141cb565b60009182526020808320909101546001600160a01b031683528281019390935260409182019020905161168692016141fd565b604051602081830303815290604052805190602001200361175f57846040516020016116b291906141e1565b6040516020818303038152906040528051906020012060116000601284815481106116df576116df6141cb565b60009182526020808320909101546001600160a01b03168352828101939093526040918201902090516117199260019290920191016141fd565b604051602081830303815290604052805190602001200361175f5760128181548110611747576117476141cb565b6000918252602090912001546001600160a01b031691505b80611769816140ed565b9150506115d4565b506001600160a01b0316600090815260116020526040902060030191909155505050565b336000818152601d602052604090205460ff166117c45760405162461bcd60e51b815260040161057590614194565b336000908152601d602052604090205460ff166117f35760405162461bcd60e51b815260040161057590614194565b6000805b60235481101561199457336001600160a01b03166023828154811061181e5761181e6141cb565b6000918252602090912001546001600160a01b031603611982578560405160200161184991906141e1565b604051602081830303815290604052805190602001206022600060238481548110611876576118766141cb565b60009182526020808320909101546001600160a01b03168352828101939093526040918201902090516118a992016141fd565b604051602081830303815290604052805190602001200361198257846040516020016118d591906141e1565b604051602081830303815290604052805190602001206022600060238481548110611902576119026141cb565b60009182526020808320909101546001600160a01b031683528281019390935260409182019020905161193c9260019290920191016141fd565b6040516020818303038152906040528051906020012003611982576023818154811061196a5761196a6141cb565b6000918252602090912001546001600160a01b031691505b8061198c816140ed565b9150506117f7565b506001600160a01b03811660009081526022602052604081206002018054859290610ab790849061436c565b336000818152600f602052604090205460ff166119ef5760405162461bcd60e51b8152600401610575906140a0565b6000805b601254811015611b9057336001600160a01b031660128281548110611a1a57611a1a6141cb565b6000918252602090912001546001600160a01b031603611b7e5785604051602001611a4591906141e1565b604051602081830303815290604052805190602001206011600060128481548110611a7257611a726141cb565b60009182526020808320909101546001600160a01b0316835282810193909352604091820190209051611aa592016141fd565b6040516020818303038152906040528051906020012003611b7e5784604051602001611ad191906141e1565b604051602081830303815290604052805190602001206011600060128481548110611afe57611afe6141cb565b60009182526020808320909101546001600160a01b0316835282810193909352604091820190209051611b389260019290920191016141fd565b6040516020818303038152906040528051906020012003611b7e5760128181548110611b6657611b666141cb565b6000918252602090912001546001600160a01b031691505b80611b88816140ed565b9150506119f3565b506001600160a01b03811660009081526011602052604081206002018054859290610ab790849061436c565b336000818152600f602052604090205460ff16611beb5760405162461bcd60e51b8152600401610575906140a0565b6040805160808101825286815260208082018790528183018690526060820185905233600090815260118252929092208151805192939192611c3092849201906139f6565b506020828101518051611c4992600185019201906139f6565b50604082015160028201556060909101516003909101555050601280546001810182556000919091527fbb8a6a4669ba250d26cd7a459eca9d215f8307e33aebe50379bc5a3617ec34440180546001600160a01b03191633179055505050565b336000818152601d602052604090205460ff16611cd85760405162461bcd60e51b815260040161057590614194565b336000908152601d602052604090205460ff16611d075760405162461bcd60e51b8152600401610575906142af565b6000805b601b54811015611ea857866001600160a01b0316601b8281548110611d3257611d326141cb565b6000918252602090912001546001600160a01b031603611e965785604051602001611d5d91906141e1565b60405160208183030381529060405280519060200120601a6000601b8481548110611d8a57611d8a6141cb565b60009182526020808320909101546001600160a01b0316835282810193909352604091820190209051611dbd92016141fd565b6040516020818303038152906040528051906020012003611e965784604051602001611de991906141e1565b60405160208183030381529060405280519060200120601a6000601b8481548110611e1657611e166141cb565b60009182526020808320909101546001600160a01b0316835282810193909352604091820190209051611e509260019290920191016141fd565b6040516020818303038152906040528051906020012003611e9657601b8181548110611e7e57611e7e6141cb565b6000918252602090912001546001600160a01b031691505b80611ea0816140ed565b915050611d0b565b506001600160a01b0381166000908152601a6020526040902060020154831115611ee45760405162461bcd60e51b815260040161057590614384565b6001600160a01b0381166000908152601a6020526040902060020154831161202a5760003411611f265760405162461bcd60e51b8152600401610575906143cf565b6001600160a01b0381166000908152601a6020526040902060030154611f4c90846143fb565b3414611f6a5760405162461bcd60e51b81526004016105759061441a565b60405186906001600160a01b038216903480156108fc02916000818181858888f19350505050158015611fa1573d6000803e3d6000fd5b507fb72b373712565083b236fdc23e6f7ba444a9665b3d1da4d9b2408d64c53e122d33888888883442604051611fdd979695949392919061430e565b60405180910390a16001600160a01b0382166000908152601a602052604081206002018054869290612010908490614298565b90915550506000805460ff60b01b1916600160b01b179055505b505050505050565b3360008181526009602052604090205460ff166120615760405162461bcd60e51b8152600401610575906142df565b3360009081526009602052604090205460ff166120b75760405162461bcd60e51b815260206004820152601460248201527311985c9b595c88191bd95cdb89dd08195e1a5cdd60621b6044820152606401610575565b6000805b600d5481101561225857336001600160a01b0316600d82815481106120e2576120e26141cb565b6000918252602090912001546001600160a01b031603612246578560405160200161210d91906141e1565b60405160208183030381529060405280519060200120600c6000600d848154811061213a5761213a6141cb565b60009182526020808320909101546001600160a01b031683528281019390935260409182019020905161216d92016141fd565b6040516020818303038152906040528051906020012003612246578460405160200161219991906141e1565b60405160208183030381529060405280519060200120600c6000600d84815481106121c6576121c66141cb565b60009182526020808320909101546001600160a01b03168352828101939093526040918201902090516122009260019290920191016141fd565b604051602081830303815290604052805190602001200361224657600d818154811061222e5761222e6141cb565b6000918252602090912001546001600160a01b031691505b80612250816140ed565b9150506120bb565b506001600160a01b03166000908152600c6020526040902060030191909155505050565b3360008181526009602052604090205460ff166122ab5760405162461bcd60e51b8152600401610575906142df565b3360009081526009602052604090205460ff166123015760405162461bcd60e51b815260206004820152601460248201527311985c9b595c88191bd95cdb89dd08115e1a5cdd60621b6044820152606401610575565b6000805b6012548110156124a257866001600160a01b03166012828154811061232c5761232c6141cb565b6000918252602090912001546001600160a01b031603612490578560405160200161235791906141e1565b604051602081830303815290604052805190602001206011600060128481548110612384576123846141cb565b60009182526020808320909101546001600160a01b03168352828101939093526040918201902090516123b792016141fd565b604051602081830303815290604052805190602001200361249057846040516020016123e391906141e1565b604051602081830303815290604052805190602001206011600060128481548110612410576124106141cb565b60009182526020808320909101546001600160a01b031683528281019390935260409182019020905161244a9260019290920191016141fd565b60405160208183030381529060405280519060200120036124905760128181548110612478576124786141cb565b6000918252602090912001546001600160a01b031691505b8061249a816140ed565b915050612305565b506001600160a01b0381166000908152601160205260409020600201548311156124de5760405162461bcd60e51b815260040161057590614384565b6001600160a01b038116600090815260116020526040902060020154831161202a57600034116125205760405162461bcd60e51b8152600401610575906143cf565b6001600160a01b03811660009081526011602052604090206003015461254690846143fb565b34146125645760405162461bcd60e51b81526004016105759061441a565b60405186906001600160a01b038216903480156108fc02916000818181858888f1935050505015801561259b573d6000803e3d6000fd5b507f763a09a3907aa5142f5d1531400d72f0d62b4bb2d7af6cd649ebeff279b24427338888888834426040516125d7979695949392919061430e565b60405180910390a16001600160a01b0382166000908152601160205260408120600201805486929061260a908490614298565b90915550506000805460ff60a01b1916600160a01b17905550505050505050565b3360008181526009602052604090205460ff1661265a5760405162461bcd60e51b8152600401610575906142df565b6001600160a01b03891660009081526015602052604090205460ff166126925760405162461bcd60e51b8152600401610575906142af565b6040805160e08101825289815260208082018a9052818301899052606082018890526080820187905260a0820186905260c082018590526001600160a01b038c166000908152601882529290922081518051929391926126f592849201906139f6565b50602082810151805161270e92600185019201906139f6565b5060408201516002820155606082015160038201556080820151600482015560a0820151600582015560c090910151600690910155601980546001808201835560009283527f944998273e477b495144fb8794c914197f3ccb46be2900f4698fd0ef743c969590910180546001600160a01b0319166001600160a01b038d161790559054600160a81b900460ff161515900361285b576040805180820182523381526001600160a01b038b811660208084019182526005805460009081526004909252948120935184549084166001600160a01b031991821617855591516001909401805494909316939091169290921790558154919061280e836140ed565b91905055507f82838b23da12c1aa4f25e2e7cba2e96cc80b9047022d1596608ff789d465f4ee338a8a8a8a888860405161284e979695949392919061430e565b60405180910390a16128bd565b60405162461bcd60e51b815260206004820152603160248201527f656c657661746f7220646f65736e2774206578697374206f72206865206469646044820152706e277420706179207468652062696c6c7360781b6064820152608401610575565b505050505050505050565b3360008181526009602052604090205460ff166128f75760405162461bcd60e51b8152600401610575906142df565b3360009081526009602052604090205460ff1661294d5760405162461bcd60e51b815260206004820152601460248201527311985c9b595c88191bd95cdb89dd08195e1a5cdd60621b6044820152606401610575565b60408051608081018252868152602080820187905281830186905260608201859052336000908152600c825292909220815180519293919261299292849201906139f6565b5060208281015180516129ab92600185019201906139f6565b50604082015160028201556060909101516003909101555050600d80546001810182556000919091527fd7b6990105719101dabeb77144f2a3385c8033acd3af97e9423a695e81ad1eb50180546001600160a01b03191633179055505050565b604080516060810182523381526020808201848152928201859052601c805460018101825560009190915282517f0e4562a10381dec21b205ed72637e6b1b523bdd0e4d4d50af5cd23dd4500a211600390920291820180546001600160a01b0319166001600160a01b0390921691909117815593518051939493612ab8937f0e4562a10381dec21b205ed72637e6b1b523bdd0e4d4d50af5cd23dd4500a2129093019291909101906139f6565b5060408201518051612ad49160028401916020909101906139f6565b5050336000908152601d60209081526040808320805460ff19166001179055601f8054601e90935290832082905590925090612b0f836140ed565b91905055505050565b3360008181526015602052604090205460ff16612b475760405162461bcd60e51b8152600401610575906142af565b6000805b601b54811015612ce857336001600160a01b0316601b8281548110612b7257612b726141cb565b6000918252602090912001546001600160a01b031603612cd65785604051602001612b9d91906141e1565b60405160208183030381529060405280519060200120601a6000601b8481548110612bca57612bca6141cb565b60009182526020808320909101546001600160a01b0316835282810193909352604091820190209051612bfd92016141fd565b6040516020818303038152906040528051906020012003612cd65784604051602001612c2991906141e1565b60405160208183030381529060405280519060200120601a6000601b8481548110612c5657612c566141cb565b60009182526020808320909101546001600160a01b0316835282810193909352604091820190209051612c909260019290920191016141fd565b6040516020818303038152906040528051906020012003612cd657601b8181548110612cbe57612cbe6141cb565b6000918252602090912001546001600160a01b031691505b80612ce0816140ed565b915050612b4b565b506001600160a01b0381166000908152601a602052604081206002018054859290610ab790849061436c565b336000818152601d602052604090205460ff16612d435760405162461bcd60e51b815260040161057590614194565b336000908152601d602052604090205460ff16612d725760405162461bcd60e51b815260040161057590614194565b6000805b602354811015612f1357336001600160a01b031660238281548110612d9d57612d9d6141cb565b6000918252602090912001546001600160a01b031603612f015785604051602001612dc891906141e1565b604051602081830303815290604052805190602001206022600060238481548110612df557612df56141cb565b60009182526020808320909101546001600160a01b0316835282810193909352604091820190209051612e2892016141fd565b6040516020818303038152906040528051906020012003612f015784604051602001612e5491906141e1565b604051602081830303815290604052805190602001206022600060238481548110612e8157612e816141cb565b60009182526020808320909101546001600160a01b0316835282810193909352604091820190209051612ebb9260019290920191016141fd565b6040516020818303038152906040528051906020012003612f015760238181548110612ee957612ee96141cb565b6000918252602090912001546001600160a01b031691505b80612f0b816140ed565b915050612d76565b506001600160a01b0316600090815260226020526040902060030191909155505050565b336000818152601d602052604090205460ff16612f665760405162461bcd60e51b815260040161057590614194565b336000908152601d602052604090205460ff16612f955760405162461bcd60e51b815260040161057590614194565b6040805160c0810182528881526020808201899052818301889052606082018790526080820186905260a0820185905233600090815260228252929092208151805192939192612fe892849201906139f6565b50602082810151805161300192600185019201906139f6565b5060408201516002820155606082015160038201556080820151600482015560a0909101516005909101555050602380546001810182556000919091527fd57b2b5166478fd4318d2acc6cc2c704584312bdd8781b32d5d06abda57f42300180546001600160a01b031916331790555050505050565b604080516060810182523381526020808201858152928201849052600e805460018101825560009190915282517fbb7b4a454dc3493923482f07822329ed19e8244eff582cc204f8554c3620c3fd600390920291820180546001600160a01b0319166001600160a01b0390921691909117815593518051939493613124937fbb7b4a454dc3493923482f07822329ed19e8244eff582cc204f8554c3620c3fe9093019291909101906139f6565b50604082015180516131409160028401916020909101906139f6565b5050336000908152600f60209081526040808320805460ff1916600117905560138054601090935290832082905590925090612b0f836140ed565b6040805160608101825233815260208082018481529282018590526024805460018101825560009190915282517f7cd332d19b93bcabe3cce7ca0c18a052f57e5fd03b4758a09f30f5ddc4b22ec4600390920291820180546001600160a01b0319166001600160a01b0390921691909117815593518051939493613228937f7cd332d19b93bcabe3cce7ca0c18a052f57e5fd03b4758a09f30f5ddc4b22ec59093019291909101906139f6565b50604082015180516132449160028401916020909101906139f6565b5050336000908152602560209081526040808320805460ff19166001179055601f54602690925282205560278054925090612b0f836140ed565b336000818152600f602052604090205460ff166132ad5760405162461bcd60e51b8152600401610575906140a0565b6000805b60125481101561344e57336001600160a01b0316601282815481106132d8576132d86141cb565b6000918252602090912001546001600160a01b03160361343c578560405160200161330391906141e1565b604051602081830303815290604052805190602001206011600060128481548110613330576133306141cb565b60009182526020808320909101546001600160a01b031683528281019390935260409182019020905161336392016141fd565b604051602081830303815290604052805190602001200361343c578460405160200161338f91906141e1565b6040516020818303038152906040528051906020012060116000601284815481106133bc576133bc6141cb565b60009182526020808320909101546001600160a01b03168352828101939093526040918201902090516133f69260019290920191016141fd565b604051602081830303815290604052805190602001200361343c5760128181548110613424576134246141cb565b6000918252602090912001546001600160a01b031691505b80613446816140ed565b9150506132b1565b506001600160a01b03811660009081526011602052604081206002018054859290610ab7908490614298565b3360008181526015602052604090205460ff166134a95760405162461bcd60e51b8152600401610575906142af565b3360009081526015602052604090205460ff166134d85760405162461bcd60e51b8152600401610575906142af565b6000805b600d5481101561367957866001600160a01b0316600d8281548110613503576135036141cb565b6000918252602090912001546001600160a01b031603613667578560405160200161352e91906141e1565b60405160208183030381529060405280519060200120600c6000600d848154811061355b5761355b6141cb565b60009182526020808320909101546001600160a01b031683528281019390935260409182019020905161358e92016141fd565b604051602081830303815290604052805190602001200361366757846040516020016135ba91906141e1565b60405160208183030381529060405280519060200120600c6000600d84815481106135e7576135e76141cb565b60009182526020808320909101546001600160a01b03168352828101939093526040918201902090516136219260019290920191016141fd565b604051602081830303815290604052805190602001200361366757600d818154811061364f5761364f6141cb565b6000918252602090912001546001600160a01b031691505b80613671816140ed565b9150506134dc565b506001600160a01b0381166000908152600c60205260409020600201548311156136b55760405162461bcd60e51b815260040161057590614384565b6001600160a01b0381166000908152600c6020526040902060020154831161202a57600034116136f75760405162461bcd60e51b8152600401610575906143cf565b6001600160a01b0381166000908152600c602052604090206003015461371d90846143fb565b341461373b5760405162461bcd60e51b81526004016105759061441a565b60405186906001600160a01b038216903480156108fc02916000818181858888f19350505050158015613772573d6000803e3d6000fd5b507f6bf88a54d8df9cdac5ae0ecd59d55dd04ef597b60c83331cc9e3943775f9c19f338888888834426040516137ae979695949392919061430e565b60405180910390a16001600160a01b0382166000908152600c6020526040812060020180548692906137e1908490614298565b90915550506000805460ff60a81b1916600160a81b17905550505050505050565b3360008181526015602052604090205460ff166138315760405162461bcd60e51b8152600401610575906142af565b6000805b601b548110156139d257336001600160a01b0316601b828154811061385c5761385c6141cb565b6000918252602090912001546001600160a01b0316036139c0578560405160200161388791906141e1565b60405160208183030381529060405280519060200120601a6000601b84815481106138b4576138b46141cb565b60009182526020808320909101546001600160a01b03168352828101939093526040918201902090516138e792016141fd565b60405160208183030381529060405280519060200120036139c0578460405160200161391391906141e1565b60405160208183030381529060405280519060200120601a6000601b8481548110613940576139406141cb565b60009182526020808320909101546001600160a01b031683528281019390935260409182019020905161397a9260019290920191016141fd565b60405160208183030381529060405280519060200120036139c057601b81815481106139a8576139a86141cb565b6000918252602090912001546001600160a01b031691505b806139ca816140ed565b915050613835565b506001600160a01b03166000908152601a6020526040902060030191909155505050565b828054613a029061415a565b90600052602060002090601f016020900481019282613a245760008555613a6a565b82601f10613a3d57805160ff1916838001178555613a6a565b82800160010185558215613a6a579182015b82811115613a6a578251825591602001919060010190613a4f565b50613a76929150613a7a565b5090565b5b80821115613a765760008155600101613a7b565b6001600160a01b0381168114613aa457600080fd5b50565b634e487b7160e01b600052604160045260246000fd5b600082601f830112613ace57600080fd5b813567ffffffffffffffff80821115613ae957613ae9613aa7565b604051601f8301601f19908116603f01168101908282118183101715613b1157613b11613aa7565b81604052838152866020858801011115613b2a57600080fd5b836020870160208301376000602085830101528094505050505092915050565b60008060008060808587031215613b6057600080fd5b8435613b6b81613a8f565b9350602085013567ffffffffffffffff80821115613b8857600080fd5b613b9488838901613abd565b94506040870135915080821115613baa57600080fd5b50613bb787828801613abd565b949793965093946060013593505050565b60005b83811015613be3578181015183820152602001613bcb565b83811115613bf2576000848401525b50505050565b60008151808452613c10816020860160208601613bc8565b601f01601f19169290920160200192915050565b6000604080830181845280865180835260608601915060608160051b8701019250602080890160005b83811015613c9557888603605f19018552815180516001600160a01b03168752830151838701889052613c8288880182613bf8565b9650509382019390820190600101613c4d565b5050959095019590955295945050505050565b600080600060608486031215613cbd57600080fd5b833567ffffffffffffffff80821115613cd557600080fd5b613ce187838801613abd565b94506020860135915080821115613cf757600080fd5b50613d0486828701613abd565b925050604084013590509250925092565b600060208284031215613d2757600080fd5b5035919050565b60006040808301818452808651808352606092508286019150828160051b8701016020808a0160005b84811015613db957898403605f19018652815180516001600160a01b0316855283810151848601899052613d8d89870182613bf8565b918a0151868303878c0152919050613da58183613bf8565b978501979550505090820190600101613d57565b50509690960196909652509295945050505050565b600060208284031215613de057600080fd5b813567ffffffffffffffff811115613df757600080fd5b613e0384828501613abd565b949350505050565b60008060008060008060c08789031215613e2457600080fd5b8635613e2f81613a8f565b9550602087013567ffffffffffffffff80821115613e4c57600080fd5b613e588a838b01613abd565b96506040890135915080821115613e6e57600080fd5b50613e7b89828a01613abd565b945050606087013592506080870135915060a087013590509295509295509295565b60008060008060808587031215613eb357600080fd5b843567ffffffffffffffff80821115613ecb57600080fd5b613ed788838901613abd565b95506020870135915080821115613eed57600080fd5b50613efa87828801613abd565b949794965050505060408301359260600135919050565b600080600080600080600080610100898b031215613f2e57600080fd5b8835613f3981613a8f565b9750602089013567ffffffffffffffff80821115613f5657600080fd5b613f628c838d01613abd565b985060408b0135915080821115613f7857600080fd5b50613f858b828c01613abd565b989b979a5097986060810135985060808101359760a0820135975060c0820135965060e090910135945092505050565b60008060408385031215613fc857600080fd5b823567ffffffffffffffff80821115613fe057600080fd5b613fec86838701613abd565b9350602085013591508082111561400257600080fd5b5061400f85828601613abd565b9150509250929050565b60008060008060008060c0878903121561403257600080fd5b863567ffffffffffffffff8082111561404a57600080fd5b6140568a838b01613abd565b9750602089013591508082111561406c57600080fd5b5061407989828a01613abd565b96999698505050506040850135946060810135946080820135945060a09091013592509050565b6020808252601b908201527f5365656420636f6d70616e7920646f65736e2774206578697374210000000000604082015260600190565b634e487b7160e01b600052601160045260246000fd5b6000600182016140ff576140ff6140d7565b5060010190565b6001600160a01b0387811682528616602082015260c06040820181905260009061413290830187613bf8565b82810360608401526141448187613bf8565b6080840195909552505060a00152949350505050565b600181811c9082168061416e57607f821691505b60208210810361418e57634e487b7160e01b600052602260045260246000fd5b50919050565b60208082526017908201527f50726f636573736f7220646f65736e2774206578697374000000000000000000604082015260600190565b634e487b7160e01b600052603260045260246000fd5b600082516141f3818460208701613bc8565b9190910192915050565b600080835481600182811c91508083168061421957607f831692505b6020808410820361423857634e487b7160e01b86526022600452602486fd5b81801561424c576001811461425d5761428a565b60ff1986168952848901965061428a565b60008a81526020902060005b868110156142825781548b820152908501908301614269565b505084890196505b509498975050505050505050565b6000828210156142aa576142aa6140d7565b500390565b602080825260169082015275115b195d985d1bdc88191bd95cdb89dd08195e1a5cdd60521b604082015260600190565b6020808252601590820152744661726d657220646f65736e27742065787369732160581b604082015260600190565b6001600160a01b0388811682528716602082015260e06040820181905260009061433a90830188613bf8565b828103606084015261434c8188613bf8565b6080840196909652505060a081019290925260c090910152949350505050565b6000821982111561437f5761437f6140d7565b500190565b6020808252602b908201527f54686973206d7563682071756e6174697479206f662073656564206973206e6f60408201526a7420617661696c61626c6560a81b606082015260800190565b6020808252601290820152710796f75206861766520656e746572656420360741b604082015260600190565b6000816000190483118215151615614415576144156140d7565b500290565b60208082526025908201527f596f7520686176656e277420656e74657264207468652065787065637465642060408201526476616c756560d81b60608201526080019056fea26469706673582212206dbb9e46ab51ed52b23b3174b38ec0a2975562510cf8758905d35eae355ad37064736f6c634300080e0033",
    "sourcePath": "e:/JSS Mysore/6th Semester/EC67L D&I/Project/project.sol",
    "compiler": {
        "name": "solc",
        "version": "0.8.14+commit.80d49f37"
    },
    "functionHashes": {
        "addDistributor(string,string)": "dc2fdb14",
        "addElevator(string,string,uint256)": "17cf2c15",
        "addFarmer(string)": "2d7e2e8b",
        "addGrainQuantityFromElevator(string,string,uint256)": "cb8f510b",
        "addProcessedGrainQuantity(string,string,uint256)": "5dc6a005",
        "addProcessor(string,string)": "c7d5c332",
        "addSeedCompany(string,string)": "d49376ca",
        "addSeedQuantity(string,string,uint256)": "5eb78b8c",
        "buyGrainFromElevator(address,string,string,uint256)": "9375946d",
        "buyGrainFromFarmer(address,string,string,uint256)": "dcdd5bce",
        "buySeeds(address,string,string,uint256)": "b9ac42b2",
        "createContract()": "412a5a6d",
        "getListOfFarmer()": "03f8027a",
        "getListOfseedCompany()": "1aeb4ec7",
        "removeGrainQuantityFromElevator(string,string,uint256)": "1b5e33ac",
        "removeProcessedGrainQuantity(string,string,uint256)": "0d95c129",
        "removeSeedQuantity(string,string,uint256)": "dc441ba8",
        "sellGrainToElevator(address,string,string,uint256,uint256,uint256,uint256,uint256)": "c10e8579",
        "sellGrainToProcessor(address,string,string,uint256,uint256,uint256)": "47f15ddf",
        "sellSeeds(address,string,string,uint256)": "02ca78f2",
        "updateGrainFarmerQuantity(string,string,uint256,uint256)": "c16634b7",
        "updateGrainPriceByFarmer(string,string,uint256)": "b5d765de",
        "updateGrainPriceFromElevator(string,string,uint256)": "f66959ee",
        "updateProcessedGrainDetails(string,string,uint256,uint256,uint256,uint256)": "ccc7cada",
        "updateProcessedGrainPrice(string,string,uint256)": "cc746e45",
        "updateSeedDetails(string,string,uint256,uint256)": "719fae32",
        "updateSeedPrice(string,string,uint256)": "59a1d1a3",
        "updateStorageQuantity(uint256)": "166d9eaa",
        "updategrainDetailsFromElevator(string,string,uint256,uint256)": "53b2d0fd"
    },
    "gasEstimates": {
        "creation": {
            "codeDepositCost": "3511400",
            "executionCost": "87449",
            "totalCost": "3598849"
        },
        "external": {
            "addDistributor(string,string)": "infinite",
            "addElevator(string,string,uint256)": "infinite",
            "addFarmer(string)": "infinite",
            "addGrainQuantityFromElevator(string,string,uint256)": "infinite",
            "addProcessedGrainQuantity(string,string,uint256)": "infinite",
            "addProcessor(string,string)": "infinite",
            "addSeedCompany(string,string)": "infinite",
            "addSeedQuantity(string,string,uint256)": "infinite",
            "buyGrainFromElevator(address,string,string,uint256)": "infinite",
            "buyGrainFromFarmer(address,string,string,uint256)": "infinite",
            "buySeeds(address,string,string,uint256)": "infinite",
            "createContract()": "28888",
            "getListOfFarmer()": "infinite",
            "getListOfseedCompany()": "infinite",
            "removeGrainQuantityFromElevator(string,string,uint256)": "infinite",
            "removeProcessedGrainQuantity(string,string,uint256)": "infinite",
            "removeSeedQuantity(string,string,uint256)": "infinite",
            "sellGrainToElevator(address,string,string,uint256,uint256,uint256,uint256,uint256)": "infinite",
            "sellGrainToProcessor(address,string,string,uint256,uint256,uint256)": "infinite",
            "sellSeeds(address,string,string,uint256)": "infinite",
            "updateGrainFarmerQuantity(string,string,uint256,uint256)": "infinite",
            "updateGrainPriceByFarmer(string,string,uint256)": "infinite",
            "updateGrainPriceFromElevator(string,string,uint256)": "infinite",
            "updateProcessedGrainDetails(string,string,uint256,uint256,uint256,uint256)": "infinite",
            "updateProcessedGrainPrice(string,string,uint256)": "infinite",
            "updateSeedDetails(string,string,uint256,uint256)": "infinite",
            "updateSeedPrice(string,string,uint256)": "infinite",
            "updateStorageQuantity(uint256)": "infinite",
            "updategrainDetailsFromElevator(string,string,uint256,uint256)": "infinite"
        }
    }
}