{
    "contractName": "supplyChainAgriculture",
    "abi": [
        {
            "inputs": [],
            "stateMutability": "nonpayable",
            "type": "constructor"
        },
        {
            "anonymous": false,
            "inputs": [
                {
                    "indexed": false,
                    "internalType": "address",
                    "name": "farmer",
                    "type": "address"
                },
                {
                    "indexed": false,
                    "internalType": "address",
                    "name": "seedCompany",
                    "type": "address"
                },
                {
                    "indexed": false,
                    "internalType": "string",
                    "name": "seedType",
                    "type": "string"
                },
                {
                    "indexed": false,
                    "internalType": "string",
                    "name": "variety",
                    "type": "string"
                },
                {
                    "indexed": false,
                    "internalType": "uint256",
                    "name": "quantity",
                    "type": "uint256"
                },
                {
                    "indexed": false,
                    "internalType": "uint256",
                    "name": "time",
                    "type": "uint256"
                }
            ],
            "name": "sellOfSeeds",
            "type": "event"
        },
        {
            "anonymous": false,
            "inputs": [
                {
                    "indexed": false,
                    "internalType": "address",
                    "name": "farmer",
                    "type": "address"
                },
                {
                    "indexed": false,
                    "internalType": "address",
                    "name": "Seedcompany",
                    "type": "address"
                },
                {
                    "indexed": false,
                    "internalType": "string",
                    "name": "seedType",
                    "type": "string"
                },
                {
                    "indexed": false,
                    "internalType": "string",
                    "name": "variety",
                    "type": "string"
                },
                {
                    "indexed": false,
                    "internalType": "uint256",
                    "name": "quantity",
                    "type": "uint256"
                },
                {
                    "indexed": false,
                    "internalType": "uint256",
                    "name": "Price",
                    "type": "uint256"
                },
                {
                    "indexed": false,
                    "internalType": "uint256",
                    "name": "time",
                    "type": "uint256"
                }
            ],
            "name": "transferComplete",
            "type": "event"
        },
        {
            "inputs": [
                {
                    "internalType": "string",
                    "name": "_hash",
                    "type": "string"
                },
                {
                    "internalType": "string",
                    "name": "_name",
                    "type": "string"
                },
                {
                    "internalType": "uint256",
                    "name": "_storageQuantity",
                    "type": "uint256"
                }
            ],
            "name": "addElevator",
            "outputs": [],
            "stateMutability": "nonpayable",
            "type": "function"
        },
        {
            "inputs": [
                {
                    "internalType": "string",
                    "name": "_hash",
                    "type": "string"
                }
            ],
            "name": "addFarmer",
            "outputs": [],
            "stateMutability": "nonpayable",
            "type": "function"
        },
        {
            "inputs": [
                {
                    "internalType": "string",
                    "name": "_name",
                    "type": "string"
                },
                {
                    "internalType": "string",
                    "name": "_hash",
                    "type": "string"
                }
            ],
            "name": "addSeedCompany",
            "outputs": [],
            "stateMutability": "nonpayable",
            "type": "function"
        },
        {
            "inputs": [
                {
                    "internalType": "string",
                    "name": "_seedType",
                    "type": "string"
                },
                {
                    "internalType": "string",
                    "name": "_variety",
                    "type": "string"
                },
                {
                    "internalType": "uint256",
                    "name": "_addQuantity",
                    "type": "uint256"
                }
            ],
            "name": "addSeedQuantity",
            "outputs": [],
            "stateMutability": "nonpayable",
            "type": "function"
        },
        {
            "inputs": [
                {
                    "internalType": "address payable",
                    "name": "_seedCompany",
                    "type": "address"
                },
                {
                    "internalType": "string",
                    "name": "_seedType",
                    "type": "string"
                },
                {
                    "internalType": "string",
                    "name": "_variety",
                    "type": "string"
                },
                {
                    "internalType": "uint256",
                    "name": "_quantity",
                    "type": "uint256"
                }
            ],
            "name": "buySeeds",
            "outputs": [],
            "stateMutability": "payable",
            "type": "function"
        },
        {
            "inputs": [],
            "name": "createContract",
            "outputs": [],
            "stateMutability": "nonpayable",
            "type": "function"
        },
        {
            "inputs": [],
            "name": "getListOfFarmer",
            "outputs": [
                {
                    "components": [
                        {
                            "internalType": "address payable",
                            "name": "farmerAddress",
                            "type": "address"
                        },
                        {
                            "internalType": "string",
                            "name": "hash",
                            "type": "string"
                        }
                    ],
                    "internalType": "struct supplyChainAgriculture.Farmer[]",
                    "name": "",
                    "type": "tuple[]"
                },
                {
                    "internalType": "uint256",
                    "name": "",
                    "type": "uint256"
                }
            ],
            "stateMutability": "view",
            "type": "function"
        },
        {
            "inputs": [],
            "name": "getListOfseedCompany",
            "outputs": [
                {
                    "components": [
                        {
                            "internalType": "address payable",
                            "name": "companyAddress",
                            "type": "address"
                        },
                        {
                            "internalType": "string",
                            "name": "CompanyName",
                            "type": "string"
                        },
                        {
                            "internalType": "string",
                            "name": "hash",
                            "type": "string"
                        }
                    ],
                    "internalType": "struct supplyChainAgriculture.SeedCompany[]",
                    "name": "",
                    "type": "tuple[]"
                },
                {
                    "internalType": "uint256",
                    "name": "",
                    "type": "uint256"
                }
            ],
            "stateMutability": "view",
            "type": "function"
        },
        {
            "inputs": [
                {
                    "internalType": "string",
                    "name": "_seedType",
                    "type": "string"
                },
                {
                    "internalType": "string",
                    "name": "_variety",
                    "type": "string"
                },
                {
                    "internalType": "uint256",
                    "name": "_addQuantity",
                    "type": "uint256"
                }
            ],
            "name": "removeSeedQuantity",
            "outputs": [],
            "stateMutability": "nonpayable",
            "type": "function"
        },
        {
            "inputs": [
                {
                    "internalType": "address",
                    "name": "_farmer",
                    "type": "address"
                },
                {
                    "internalType": "string",
                    "name": "_seedType",
                    "type": "string"
                },
                {
                    "internalType": "string",
                    "name": "_variety",
                    "type": "string"
                },
                {
                    "internalType": "uint256",
                    "name": "_quantity",
                    "type": "uint256"
                }
            ],
            "name": "sellSeeds",
            "outputs": [],
            "stateMutability": "nonpayable",
            "type": "function"
        },
        {
            "inputs": [
                {
                    "internalType": "string",
                    "name": "_seedType",
                    "type": "string"
                },
                {
                    "internalType": "string",
                    "name": "_variety",
                    "type": "string"
                },
                {
                    "internalType": "uint256",
                    "name": "_quantity",
                    "type": "uint256"
                },
                {
                    "internalType": "uint256",
                    "name": "_pricePer10g",
                    "type": "uint256"
                }
            ],
            "name": "updateSeedDetails",
            "outputs": [],
            "stateMutability": "nonpayable",
            "type": "function"
        },
        {
            "inputs": [
                {
                    "internalType": "string",
                    "name": "_seedType",
                    "type": "string"
                },
                {
                    "internalType": "string",
                    "name": "_variety",
                    "type": "string"
                },
                {
                    "internalType": "uint256",
                    "name": "_pricePer10g",
                    "type": "uint256"
                }
            ],
            "name": "updateSeedPrice",
            "outputs": [],
            "stateMutability": "nonpayable",
            "type": "function"
        },
        {
            "inputs": [
                {
                    "internalType": "uint256",
                    "name": "_storageQuantity",
                    "type": "uint256"
                }
            ],
            "name": "updateStorageQuantity",
            "outputs": [],
            "stateMutability": "nonpayable",
            "type": "function"
        }
    ],
    "bytecode": "60806040526000805461ffff60a01b191681556005819055600b819055600f5534801561002b57600080fd5b50600080546001600160a01b03191633179055611ed28061004d6000396000f3fe6080604052600436106100c25760003560e01c8063412a5a6d1161007f578063719fae3211610059578063719fae32146101ed578063b9ac42b21461020d578063d49376ca14610220578063dc441ba81461024057600080fd5b8063412a5a6d1461019857806359a1d1a3146101ad5780635eb78b8c146101cd57600080fd5b806302ca78f2146100c757806303f8027a146100e9578063166d9eaa1461011557806317cf2c15146101355780631aeb4ec7146101555780632d7e2e8b14610178575b600080fd5b3480156100d357600080fd5b506100e76100e2366004611896565b610260565b005b3480156100f557600080fd5b506100fe6103ba565b60405161010c929190611970565b60405180910390f35b34801561012157600080fd5b506100e76101303660046119f4565b610537565b34801561014157600080fd5b506100e7610150366004611a0d565b610615565b34801561016157600080fd5b5061016a61078d565b60405161010c929190611a7a565b34801561018457600080fd5b506100e7610193366004611b1a565b610923565b3480156101a457600080fd5b506100e7610a06565b3480156101b957600080fd5b506100e76101c8366004611a0d565b610ad2565b3480156101d957600080fd5b506100e76101e8366004611a0d565b610cc6565b3480156101f957600080fd5b506100e7610208366004611b57565b610ece565b6100e761021b366004611896565b610fbb565b34801561022c57600080fd5b506100e761023b366004611bcb565b611439565b34801561024c57600080fd5b506100e761025b366004611a0d565b611546565b3360008181526007602052604090205460ff166102985760405162461bcd60e51b815260040161028f90611c2f565b60405180910390fd5b3360009081526007602052604090205460ff166102f75760405162461bcd60e51b815260206004820152601a60248201527f5365656420436f6d70616e7920446f65736e2774204578697374000000000000604482015260640161028f565b600054600160a01b900460ff161515600103610353577f0abb2b17e070b031d143b94e96bb7894984f9776f01493cbcc2f4191d803a1b685338686864260405161034696959493929190611c66565b60405180910390a16103b3565b60405162461bcd60e51b815260206004820152602f60248201527f4661726d657220646f65736e2774206578697374206f72206865206469646e2760448201526e7420706179207468652062696c6c7360881b606482015260840161028f565b5050505050565b60008054606091906001600160a01b0316331461042a5760405162461bcd60e51b815260206004820152602860248201527f536f7272792c205468697320696e666f726d6174696f6e20697320636f6e66696044820152673232b73a34b0b61760c11b606482015260840161028f565b600260055481805480602002602001604051908101604052809291908181526020016000905b82821015610529576000848152602090819020604080518082019091526002850290910180546001600160a01b03168252600181018054929391929184019161049890611cba565b80601f01602080910402602001604051908101604052809291908181526020018280546104c490611cba565b80156105115780601f106104e657610100808354040283529160200191610511565b820191906000526020600020905b8154815290600101906020018083116104f457829003601f168201915b50505050508152505081526020019060010190610450565b505050509150915091509091565b336000818152600d602052604090205460ff1661058f5760405162461bcd60e51b8152602060048201526016602482015275115b195d985d1bdc88191bd95cdb89dd08195e1a5cdd60521b604482015260640161028f565b6000805b600c548110156105e657600c81815481106105b0576105b0611cf4565b60009182526020909120600490910201546001600160a01b031633036105d4578091505b806105de81611d20565b915050610593565b5082600c82815481106105fb576105fb611cf4565b906000526020600020906004020160030181905550505050565b336000818152600d602052604090205460ff1661066d5760405162461bcd60e51b8152602060048201526016602482015275115b195d985d1bdc88191bd95cdb89dd08195e1a5cdd60521b604482015260640161028f565b60408051608081018252338152602080820186815292820187905260608201859052600c805460018101825560009190915282517fdf6966c971051c3d54ec59162606531493a51404a002842f56009d7e5cf4a8c7600490920291820180546001600160a01b0319166001600160a01b0390921691909117815593518051939493610721937fdf6966c971051c3d54ec59162606531493a51404a002842f56009d7e5cf4a8c8909301929190910190611742565b506040820151805161073d916002840191602090910190611742565b5060609190910151600390910155336000908152600d60209081526040808320805460ff19166001179055600f8054600e909352908320829055909161078283611d20565b919050555050505050565b606060006006600b5481805480602002602001604051908101604052809291908181526020016000905b8282101561052957600084815260209081902060408051606081019091526003850290910180546001600160a01b03168252600181018054929391929184019161080090611cba565b80601f016020809104026020016040519081016040528092919081815260200182805461082c90611cba565b80156108795780601f1061084e57610100808354040283529160200191610879565b820191906000526020600020905b81548152906001019060200180831161085c57829003601f168201915b5050505050815260200160028201805461089290611cba565b80601f01602080910402602001604051908101604052809291908181526020018280546108be90611cba565b801561090b5780601f106108e05761010080835404028352916020019161090b565b820191906000526020600020905b8154815290600101906020018083116108ee57829003601f168201915b505050505081525050815260200190600101906107b7565b604080518082019091523381526020808201838152600280546001810182556000829052845191027f405787fa12a823e0f2b7631cc41b3ba8828b3321ca811111fa75cd3aa3bb5ace810180546001600160a01b03939093166001600160a01b03199093169290921782559151805191936109c3937f405787fa12a823e0f2b7631cc41b3ba8828b3321ca811111fa75cd3aa3bb5acf0192910190611742565b5050336000908152600360209081526040808320805460ff19166001179055600580546004909352908320829055909250906109fe83611d20565b919050555050565b3360008181526003602052604090205460ff16610a5d5760405162461bcd60e51b81526020600482015260156024820152744661726d657220646f65736e27742065787369732160581b604482015260640161028f565b3360009081526003602052604090205460ff16610ab55760405162461bcd60e51b81526020600482015260166024820152754661726d657220646f65736e2774206578736973742160501b604482015260640161028f565b50336000908152600160205260409020805460ff19166002179055565b3360008181526007602052604090205460ff16610b015760405162461bcd60e51b815260040161028f90611c2f565b6000805b600a54811015610ca257336001600160a01b0316600a8281548110610b2c57610b2c611cf4565b6000918252602090912001546001600160a01b031603610c905785604051602001610b579190611d39565b6040516020818303038152906040528051906020012060096000600a8481548110610b8457610b84611cf4565b60009182526020808320909101546001600160a01b0316835282810193909352604091820190209051610bb79201611d55565b6040516020818303038152906040528051906020012003610c905784604051602001610be39190611d39565b6040516020818303038152906040528051906020012060096000600a8481548110610c1057610c10611cf4565b60009182526020808320909101546001600160a01b0316835282810193909352604091820190209051610c4a926001929092019101611d55565b6040516020818303038152906040528051906020012003610c9057600a8181548110610c7857610c78611cf4565b6000918252602090912001546001600160a01b031691505b80610c9a81611d20565b915050610b05565b506001600160a01b0316600090815260096020526040902060030191909155505050565b3360008181526007602052604090205460ff16610cf55760405162461bcd60e51b815260040161028f90611c2f565b6000805b600a54811015610e9657336001600160a01b0316600a8281548110610d2057610d20611cf4565b6000918252602090912001546001600160a01b031603610e845785604051602001610d4b9190611d39565b6040516020818303038152906040528051906020012060096000600a8481548110610d7857610d78611cf4565b60009182526020808320909101546001600160a01b0316835282810193909352604091820190209051610dab9201611d55565b6040516020818303038152906040528051906020012003610e845784604051602001610dd79190611d39565b6040516020818303038152906040528051906020012060096000600a8481548110610e0457610e04611cf4565b60009182526020808320909101546001600160a01b0316835282810193909352604091820190209051610e3e926001929092019101611d55565b6040516020818303038152906040528051906020012003610e8457600a8181548110610e6c57610e6c611cf4565b6000918252602090912001546001600160a01b031691505b80610e8e81611d20565b915050610cf9565b506001600160a01b03811660009081526009602052604081206002018054859290610ec2908490611df0565b90915550505050505050565b3360008181526007602052604090205460ff16610efd5760405162461bcd60e51b815260040161028f90611c2f565b6040805160808101825286815260208082018790528183018690526060820185905233600090815260098252929092208151805192939192610f429284920190611742565b506020828101518051610f5b9260018501920190611742565b50604082015160028201556060909101516003909101555050600a80546001810182556000919091527fc65a7bb8d6351c1cf70c95a316cc6a92839c986682d98bc35f958f4883f9d2a80180546001600160a01b03191633179055505050565b3360008181526003602052604090205460ff166110125760405162461bcd60e51b81526020600482015260156024820152744661726d657220646f65736e27742065787369732160581b604482015260640161028f565b3360009081526003602052604090205460ff166110685760405162461bcd60e51b815260206004820152601460248201527311985c9b595c88191bd95cdb89dd08115e1a5cdd60621b604482015260640161028f565b6000805b600a5481101561120957866001600160a01b0316600a828154811061109357611093611cf4565b6000918252602090912001546001600160a01b0316036111f757856040516020016110be9190611d39565b6040516020818303038152906040528051906020012060096000600a84815481106110eb576110eb611cf4565b60009182526020808320909101546001600160a01b031683528281019390935260409182019020905161111e9201611d55565b60405160208183030381529060405280519060200120036111f7578460405160200161114a9190611d39565b6040516020818303038152906040528051906020012060096000600a848154811061117757611177611cf4565b60009182526020808320909101546001600160a01b03168352828101939093526040918201902090516111b1926001929092019101611d55565b60405160208183030381529060405280519060200120036111f757600a81815481106111df576111df611cf4565b6000918252602090912001546001600160a01b031691505b8061120181611d20565b91505061106c565b506001600160a01b03811660009081526009602052604090206002015483116112885760405162461bcd60e51b815260206004820152602b60248201527f54686973206d7563682071756e6174697479206f662073656564206973206e6f60448201526a7420617661696c61626c6560a81b606482015260840161028f565b6001600160a01b038116600090815260096020526040902060020154831161143157600034116112ef5760405162461bcd60e51b81526020600482015260126024820152710796f75206861766520656e746572656420360741b604482015260640161028f565b6001600160a01b0381166000908152600960205260409020600301546113159084611e08565b34146113715760405162461bcd60e51b815260206004820152602560248201527f596f7520686176656e277420656e74657264207468652065787065637465642060448201526476616c756560d81b606482015260840161028f565b60405186906001600160a01b038216903480156108fc02916000818181858888f193505050501580156113a8573d6000803e3d6000fd5b507fd735da5468732106f2c599326a1c6bb78802934f456a8737a5b0a5e3b0c28d6e338888888834426040516113e49796959493929190611e27565b60405180910390a16001600160a01b03821660009081526009602052604081206002018054869290611417908490611e85565b90915550506000805460ff60a01b1916600160a01b179055505b505050505050565b6040805160608101825233815260208082018581529282018490526006805460018101825560009190915282517ff652222313e28459528d920b65115c16c04f3efc82aaedc97be59f3f377c0d3f600390920291820180546001600160a01b0319166001600160a01b03909216919091178155935180519394936114e6937ff652222313e28459528d920b65115c16c04f3efc82aaedc97be59f3f377c0d40909301929190910190611742565b5060408201518051611502916002840191602090910190611742565b5050336000908152600760209081526040808320805460ff19166001179055600b805460089093529083208290559092509061153d83611d20565b91905055505050565b3360008181526007602052604090205460ff166115755760405162461bcd60e51b815260040161028f90611c2f565b6000805b600a5481101561171657336001600160a01b0316600a82815481106115a0576115a0611cf4565b6000918252602090912001546001600160a01b03160361170457856040516020016115cb9190611d39565b6040516020818303038152906040528051906020012060096000600a84815481106115f8576115f8611cf4565b60009182526020808320909101546001600160a01b031683528281019390935260409182019020905161162b9201611d55565b604051602081830303815290604052805190602001200361170457846040516020016116579190611d39565b6040516020818303038152906040528051906020012060096000600a848154811061168457611684611cf4565b60009182526020808320909101546001600160a01b03168352828101939093526040918201902090516116be926001929092019101611d55565b604051602081830303815290604052805190602001200361170457600a81815481106116ec576116ec611cf4565b6000918252602090912001546001600160a01b031691505b8061170e81611d20565b915050611579565b506001600160a01b03811660009081526009602052604081206002018054859290610ec2908490611e85565b82805461174e90611cba565b90600052602060002090601f01602090048101928261177057600085556117b6565b82601f1061178957805160ff19168380011785556117b6565b828001600101855582156117b6579182015b828111156117b657825182559160200191906001019061179b565b506117c29291506117c6565b5090565b5b808211156117c257600081556001016117c7565b6001600160a01b03811681146117f057600080fd5b50565b634e487b7160e01b600052604160045260246000fd5b600082601f83011261181a57600080fd5b813567ffffffffffffffff80821115611835576118356117f3565b604051601f8301601f19908116603f0116810190828211818310171561185d5761185d6117f3565b8160405283815286602085880101111561187657600080fd5b836020870160208301376000602085830101528094505050505092915050565b600080600080608085870312156118ac57600080fd5b84356118b7816117db565b9350602085013567ffffffffffffffff808211156118d457600080fd5b6118e088838901611809565b945060408701359150808211156118f657600080fd5b5061190387828801611809565b949793965093946060013593505050565b60005b8381101561192f578181015183820152602001611917565b8381111561193e576000848401525b50505050565b6000815180845261195c816020860160208601611914565b601f01601f19169290920160200192915050565b6000604080830181845280865180835260608601915060608160051b8701019250602080890160005b838110156119e157888603605f19018552815180516001600160a01b031687528301518387018890526119ce88880182611944565b9650509382019390820190600101611999565b5050959095019590955295945050505050565b600060208284031215611a0657600080fd5b5035919050565b600080600060608486031215611a2257600080fd5b833567ffffffffffffffff80821115611a3a57600080fd5b611a4687838801611809565b94506020860135915080821115611a5c57600080fd5b50611a6986828701611809565b925050604084013590509250925092565b60006040808301818452808651808352606092508286019150828160051b8701016020808a0160005b84811015611b0557898403605f19018652815180516001600160a01b0316855283810151848601899052611ad989870182611944565b918a0151868303878c0152919050611af18183611944565b978501979550505090820190600101611aa3565b50509690960196909652509295945050505050565b600060208284031215611b2c57600080fd5b813567ffffffffffffffff811115611b4357600080fd5b611b4f84828501611809565b949350505050565b60008060008060808587031215611b6d57600080fd5b843567ffffffffffffffff80821115611b8557600080fd5b611b9188838901611809565b95506020870135915080821115611ba757600080fd5b50611bb487828801611809565b949794965050505060408301359260600135919050565b60008060408385031215611bde57600080fd5b823567ffffffffffffffff80821115611bf657600080fd5b611c0286838701611809565b93506020850135915080821115611c1857600080fd5b50611c2585828601611809565b9150509250929050565b6020808252601b908201527f5365656420636f6d70616e7920646f65736e2774206578697374210000000000604082015260600190565b6001600160a01b0387811682528616602082015260c060408201819052600090611c9290830187611944565b8281036060840152611ca48187611944565b6080840195909552505060a00152949350505050565b600181811c90821680611cce57607f821691505b602082108103611cee57634e487b7160e01b600052602260045260246000fd5b50919050565b634e487b7160e01b600052603260045260246000fd5b634e487b7160e01b600052601160045260246000fd5b600060018201611d3257611d32611d0a565b5060010190565b60008251611d4b818460208701611914565b9190910192915050565b600080835481600182811c915080831680611d7157607f831692505b60208084108203611d9057634e487b7160e01b86526022600452602486fd5b818015611da45760018114611db557611de2565b60ff19861689528489019650611de2565b60008a81526020902060005b86811015611dda5781548b820152908501908301611dc1565b505084890196505b509498975050505050505050565b60008219821115611e0357611e03611d0a565b500190565b6000816000190483118215151615611e2257611e22611d0a565b500290565b6001600160a01b0388811682528716602082015260e060408201819052600090611e5390830188611944565b8281036060840152611e658188611944565b6080840196909652505060a081019290925260c090910152949350505050565b600082821015611e9757611e97611d0a565b50039056fea264697066735822122040db784e429ac6ffee9f8f5b60d599bfafb929b5df5584fb9cda0ca716137dd364736f6c634300080e0033",
    "sourcePath": "e:/JSS Mysore/6th Semester/EC67L D&I/Project/project.sol",
    "compiler": {
        "name": "solc",
        "version": "0.8.14+commit.80d49f37"
    },
    "functionHashes": {
        "addElevator(string,string,uint256)": "17cf2c15",
        "addFarmer(string)": "2d7e2e8b",
        "addSeedCompany(string,string)": "d49376ca",
        "addSeedQuantity(string,string,uint256)": "5eb78b8c",
        "buySeeds(address,string,string,uint256)": "b9ac42b2",
        "createContract()": "412a5a6d",
        "getListOfFarmer()": "03f8027a",
        "getListOfseedCompany()": "1aeb4ec7",
        "removeSeedQuantity(string,string,uint256)": "dc441ba8",
        "sellSeeds(address,string,string,uint256)": "02ca78f2",
        "updateSeedDetails(string,string,uint256,uint256)": "719fae32",
        "updateSeedPrice(string,string,uint256)": "59a1d1a3",
        "updateStorageQuantity(uint256)": "166d9eaa"
    },
    "gasEstimates": {
        "creation": {
            "codeDepositCost": "1578000",
            "executionCost": "65132",
            "totalCost": "1643132"
        },
        "external": {
            "addElevator(string,string,uint256)": "infinite",
            "addFarmer(string)": "infinite",
            "addSeedCompany(string,string)": "infinite",
            "addSeedQuantity(string,string,uint256)": "infinite",
            "buySeeds(address,string,string,uint256)": "infinite",
            "createContract()": "28843",
            "getListOfFarmer()": "infinite",
            "getListOfseedCompany()": "infinite",
            "removeSeedQuantity(string,string,uint256)": "infinite",
            "sellSeeds(address,string,string,uint256)": "infinite",
            "updateSeedDetails(string,string,uint256,uint256)": "infinite",
            "updateSeedPrice(string,string,uint256)": "infinite",
            "updateStorageQuantity(uint256)": "infinite"
        }
    }
}