{
    "contractName": "supplyChainAgriculture",
    "abi": [
        {
            "inputs": [],
            "stateMutability": "nonpayable",
            "type": "constructor"
        },
        {
            "anonymous": false,
            "inputs": [
                {
                    "indexed": false,
                    "internalType": "address",
                    "name": "farmer",
                    "type": "address"
                },
                {
                    "indexed": false,
                    "internalType": "address",
                    "name": "elevator",
                    "type": "address"
                },
                {
                    "indexed": false,
                    "internalType": "string",
                    "name": "grainType",
                    "type": "string"
                },
                {
                    "indexed": false,
                    "internalType": "string",
                    "name": "variety",
                    "type": "string"
                },
                {
                    "indexed": false,
                    "internalType": "uint256",
                    "name": "quantity",
                    "type": "uint256"
                },
                {
                    "indexed": false,
                    "internalType": "uint256",
                    "name": "pricePer1q",
                    "type": "uint256"
                },
                {
                    "indexed": false,
                    "internalType": "uint256",
                    "name": "purchaseDate",
                    "type": "uint256"
                }
            ],
            "name": "sellGrainsToElevator",
            "type": "event"
        },
        {
            "anonymous": false,
            "inputs": [
                {
                    "indexed": false,
                    "internalType": "address",
                    "name": "farmer",
                    "type": "address"
                },
                {
                    "indexed": false,
                    "internalType": "address",
                    "name": "seedCompany",
                    "type": "address"
                },
                {
                    "indexed": false,
                    "internalType": "string",
                    "name": "seedType",
                    "type": "string"
                },
                {
                    "indexed": false,
                    "internalType": "string",
                    "name": "variety",
                    "type": "string"
                },
                {
                    "indexed": false,
                    "internalType": "uint256",
                    "name": "quantity",
                    "type": "uint256"
                },
                {
                    "indexed": false,
                    "internalType": "uint256",
                    "name": "time",
                    "type": "uint256"
                }
            ],
            "name": "sellOfSeeds",
            "type": "event"
        },
        {
            "anonymous": false,
            "inputs": [
                {
                    "indexed": false,
                    "internalType": "address",
                    "name": "farmer",
                    "type": "address"
                },
                {
                    "indexed": false,
                    "internalType": "address",
                    "name": "Seedcompany",
                    "type": "address"
                },
                {
                    "indexed": false,
                    "internalType": "string",
                    "name": "seedType",
                    "type": "string"
                },
                {
                    "indexed": false,
                    "internalType": "string",
                    "name": "variety",
                    "type": "string"
                },
                {
                    "indexed": false,
                    "internalType": "uint256",
                    "name": "quantity",
                    "type": "uint256"
                },
                {
                    "indexed": false,
                    "internalType": "uint256",
                    "name": "Price",
                    "type": "uint256"
                },
                {
                    "indexed": false,
                    "internalType": "uint256",
                    "name": "time",
                    "type": "uint256"
                }
            ],
            "name": "transferCompleteSeed",
            "type": "event"
        },
        {
            "anonymous": false,
            "inputs": [
                {
                    "indexed": false,
                    "internalType": "address",
                    "name": "elevator",
                    "type": "address"
                },
                {
                    "indexed": false,
                    "internalType": "address",
                    "name": "farmer",
                    "type": "address"
                },
                {
                    "indexed": false,
                    "internalType": "string",
                    "name": "grownGrainType",
                    "type": "string"
                },
                {
                    "indexed": false,
                    "internalType": "string",
                    "name": "variety",
                    "type": "string"
                },
                {
                    "indexed": false,
                    "internalType": "uint256",
                    "name": "quantity",
                    "type": "uint256"
                },
                {
                    "indexed": false,
                    "internalType": "uint256",
                    "name": "Price",
                    "type": "uint256"
                },
                {
                    "indexed": false,
                    "internalType": "uint256",
                    "name": "time",
                    "type": "uint256"
                }
            ],
            "name": "transferCompletegrownGrain",
            "type": "event"
        },
        {
            "inputs": [
                {
                    "internalType": "string",
                    "name": "_hash",
                    "type": "string"
                },
                {
                    "internalType": "string",
                    "name": "_name",
                    "type": "string"
                },
                {
                    "internalType": "uint256",
                    "name": "_storageQuantity",
                    "type": "uint256"
                }
            ],
            "name": "addElevator",
            "outputs": [],
            "stateMutability": "nonpayable",
            "type": "function"
        },
        {
            "inputs": [
                {
                    "internalType": "string",
                    "name": "_hash",
                    "type": "string"
                }
            ],
            "name": "addFarmer",
            "outputs": [],
            "stateMutability": "nonpayable",
            "type": "function"
        },
        {
            "inputs": [
                {
                    "internalType": "string",
                    "name": "_name",
                    "type": "string"
                },
                {
                    "internalType": "string",
                    "name": "_hash",
                    "type": "string"
                }
            ],
            "name": "addSeedCompany",
            "outputs": [],
            "stateMutability": "nonpayable",
            "type": "function"
        },
        {
            "inputs": [
                {
                    "internalType": "string",
                    "name": "_seedType",
                    "type": "string"
                },
                {
                    "internalType": "string",
                    "name": "_variety",
                    "type": "string"
                },
                {
                    "internalType": "uint256",
                    "name": "_addQuantity",
                    "type": "uint256"
                }
            ],
            "name": "addSeedQuantity",
            "outputs": [],
            "stateMutability": "nonpayable",
            "type": "function"
        },
        {
            "inputs": [
                {
                    "internalType": "address payable",
                    "name": "_farmer",
                    "type": "address"
                },
                {
                    "internalType": "string",
                    "name": "_grainTypeGrown",
                    "type": "string"
                },
                {
                    "internalType": "string",
                    "name": "_variety",
                    "type": "string"
                },
                {
                    "internalType": "uint256",
                    "name": "_quantity",
                    "type": "uint256"
                }
            ],
            "name": "buyGrainFromFarmer",
            "outputs": [],
            "stateMutability": "payable",
            "type": "function"
        },
        {
            "inputs": [
                {
                    "internalType": "address payable",
                    "name": "_seedCompany",
                    "type": "address"
                },
                {
                    "internalType": "string",
                    "name": "_seedType",
                    "type": "string"
                },
                {
                    "internalType": "string",
                    "name": "_variety",
                    "type": "string"
                },
                {
                    "internalType": "uint256",
                    "name": "_quantity",
                    "type": "uint256"
                }
            ],
            "name": "buySeeds",
            "outputs": [],
            "stateMutability": "payable",
            "type": "function"
        },
        {
            "inputs": [],
            "name": "createContract",
            "outputs": [],
            "stateMutability": "nonpayable",
            "type": "function"
        },
        {
            "inputs": [],
            "name": "getListOfFarmer",
            "outputs": [
                {
                    "components": [
                        {
                            "internalType": "address payable",
                            "name": "farmerAddress",
                            "type": "address"
                        },
                        {
                            "internalType": "string",
                            "name": "hash",
                            "type": "string"
                        }
                    ],
                    "internalType": "struct supplyChainAgriculture.Farmer[]",
                    "name": "",
                    "type": "tuple[]"
                },
                {
                    "internalType": "uint256",
                    "name": "",
                    "type": "uint256"
                }
            ],
            "stateMutability": "view",
            "type": "function"
        },
        {
            "inputs": [],
            "name": "getListOfseedCompany",
            "outputs": [
                {
                    "components": [
                        {
                            "internalType": "address payable",
                            "name": "companyAddress",
                            "type": "address"
                        },
                        {
                            "internalType": "string",
                            "name": "CompanyName",
                            "type": "string"
                        },
                        {
                            "internalType": "string",
                            "name": "hash",
                            "type": "string"
                        }
                    ],
                    "internalType": "struct supplyChainAgriculture.SeedCompany[]",
                    "name": "",
                    "type": "tuple[]"
                },
                {
                    "internalType": "uint256",
                    "name": "",
                    "type": "uint256"
                }
            ],
            "stateMutability": "view",
            "type": "function"
        },
        {
            "inputs": [
                {
                    "internalType": "string",
                    "name": "_seedType",
                    "type": "string"
                },
                {
                    "internalType": "string",
                    "name": "_variety",
                    "type": "string"
                },
                {
                    "internalType": "uint256",
                    "name": "_addQuantity",
                    "type": "uint256"
                }
            ],
            "name": "removeSeedQuantity",
            "outputs": [],
            "stateMutability": "nonpayable",
            "type": "function"
        },
        {
            "inputs": [
                {
                    "internalType": "address",
                    "name": "_elevator",
                    "type": "address"
                },
                {
                    "internalType": "string",
                    "name": "_grainType",
                    "type": "string"
                },
                {
                    "internalType": "string",
                    "name": "_variety",
                    "type": "string"
                },
                {
                    "internalType": "uint256",
                    "name": "_quantity",
                    "type": "uint256"
                },
                {
                    "internalType": "uint256",
                    "name": "_moisture",
                    "type": "uint256"
                },
                {
                    "internalType": "uint256",
                    "name": "_temperature",
                    "type": "uint256"
                },
                {
                    "internalType": "uint256",
                    "name": "_pricePer1q",
                    "type": "uint256"
                },
                {
                    "internalType": "uint256",
                    "name": "_purchaseDate",
                    "type": "uint256"
                }
            ],
            "name": "sellGrainToElevator",
            "outputs": [],
            "stateMutability": "nonpayable",
            "type": "function"
        },
        {
            "inputs": [
                {
                    "internalType": "address",
                    "name": "_farmer",
                    "type": "address"
                },
                {
                    "internalType": "string",
                    "name": "_seedType",
                    "type": "string"
                },
                {
                    "internalType": "string",
                    "name": "_variety",
                    "type": "string"
                },
                {
                    "internalType": "uint256",
                    "name": "_quantity",
                    "type": "uint256"
                }
            ],
            "name": "sellSeeds",
            "outputs": [],
            "stateMutability": "nonpayable",
            "type": "function"
        },
        {
            "inputs": [
                {
                    "internalType": "string",
                    "name": "_seedType",
                    "type": "string"
                },
                {
                    "internalType": "string",
                    "name": "_variety",
                    "type": "string"
                },
                {
                    "internalType": "uint256",
                    "name": "_quantity",
                    "type": "uint256"
                },
                {
                    "internalType": "uint256",
                    "name": "_pricePer1q",
                    "type": "uint256"
                }
            ],
            "name": "updateGrainFarmerQuantity",
            "outputs": [],
            "stateMutability": "nonpayable",
            "type": "function"
        },
        {
            "inputs": [
                {
                    "internalType": "string",
                    "name": "_seedType",
                    "type": "string"
                },
                {
                    "internalType": "string",
                    "name": "_variety",
                    "type": "string"
                },
                {
                    "internalType": "uint256",
                    "name": "_quantity",
                    "type": "uint256"
                },
                {
                    "internalType": "uint256",
                    "name": "_pricePer10g",
                    "type": "uint256"
                }
            ],
            "name": "updateSeedDetails",
            "outputs": [],
            "stateMutability": "nonpayable",
            "type": "function"
        },
        {
            "inputs": [
                {
                    "internalType": "string",
                    "name": "_seedType",
                    "type": "string"
                },
                {
                    "internalType": "string",
                    "name": "_variety",
                    "type": "string"
                },
                {
                    "internalType": "uint256",
                    "name": "_pricePer10g",
                    "type": "uint256"
                }
            ],
            "name": "updateSeedPrice",
            "outputs": [],
            "stateMutability": "nonpayable",
            "type": "function"
        },
        {
            "inputs": [
                {
                    "internalType": "uint256",
                    "name": "_storageQuantity",
                    "type": "uint256"
                }
            ],
            "name": "updateStorageQuantity",
            "outputs": [],
            "stateMutability": "nonpayable",
            "type": "function"
        }
    ],
    "bytecode": "60806040526000805461ffff60a01b191681556005819055600d81905560115534801561002b57600080fd5b50600080546001600160a01b031916331790556125d98061004d6000396000f3fe6080604052600436106100f35760003560e01c80635eb78b8c1161008a578063c16634b711610059578063c16634b714610271578063d49376ca14610291578063dc441ba8146102b1578063dcdd5bce146102d157600080fd5b80635eb78b8c146101fe578063719fae321461021e578063b9ac42b21461023e578063c10e85791461025157600080fd5b80631aeb4ec7116100c65780631aeb4ec7146101865780632d7e2e8b146101a9578063412a5a6d146101c957806359a1d1a3146101de57600080fd5b806302ca78f2146100f857806303f8027a1461011a578063166d9eaa1461014657806317cf2c1514610166575b600080fd5b34801561010457600080fd5b50610118610113366004611e0a565b6102e4565b005b34801561012657600080fd5b5061012f61043e565b60405161013d929190611ee4565b60405180910390f35b34801561015257600080fd5b50610118610161366004611f68565b6105bb565b34801561017257600080fd5b50610118610181366004611f81565b610670565b34801561019257600080fd5b5061019b6107bf565b60405161013d929190611fee565b3480156101b557600080fd5b506101186101c436600461208e565b610955565b3480156101d557600080fd5b50610118610a38565b3480156101ea57600080fd5b506101186101f9366004611f81565b610adc565b34801561020a57600080fd5b50610118610219366004611f81565b610cd0565b34801561022a57600080fd5b506101186102393660046120cb565b610ed8565b61011861024c366004611e0a565b610fc5565b34801561025d57600080fd5b5061011861026c36600461213f565b61139a565b34801561027d57600080fd5b5061011861028c3660046120cb565b611513565b34801561029d57600080fd5b506101186102ac3660046121e3565b611600565b3480156102bd57600080fd5b506101186102cc366004611f81565b61170d565b6101186102df366004611e0a565b611909565b3360008181526009602052604090205460ff1661031c5760405162461bcd60e51b815260040161031390612247565b60405180910390fd5b3360009081526009602052604090205460ff1661037b5760405162461bcd60e51b815260206004820152601a60248201527f5365656420436f6d70616e7920446f65736e27742045786973740000000000006044820152606401610313565b600054600160a01b900460ff1615156001036103d7577f0abb2b17e070b031d143b94e96bb7894984f9776f01493cbcc2f4191d803a1b68533868686426040516103ca9695949392919061227e565b60405180910390a1610437565b60405162461bcd60e51b815260206004820152602f60248201527f4661726d657220646f65736e2774206578697374206f72206865206469646e2760448201526e7420706179207468652062696c6c7360881b6064820152608401610313565b5050505050565b60008054606091906001600160a01b031633146104ae5760405162461bcd60e51b815260206004820152602860248201527f536f7272792c205468697320696e666f726d6174696f6e20697320636f6e66696044820152673232b73a34b0b61760c11b6064820152608401610313565b600260055481805480602002602001604051908101604052809291908181526020016000905b828210156105ad576000848152602090819020604080518082019091526002850290910180546001600160a01b03168252600181018054929391929184019161051c906122d2565b80601f0160208091040260200160405190810160405280929190818152602001828054610548906122d2565b80156105955780601f1061056a57610100808354040283529160200191610595565b820191906000526020600020905b81548152906001019060200180831161057857829003601f168201915b505050505081525050815260200190600101906104d4565b505050509150915091509091565b336000818152600f602052604090205460ff166105ea5760405162461bcd60e51b81526004016103139061230c565b6000805b600e5481101561064157600e818154811061060b5761060b61233c565b60009182526020909120600490910201546001600160a01b0316330361062f578091505b8061063981612368565b9150506105ee565b5082600e82815481106106565761065661233c565b906000526020600020906004020160030181905550505050565b336000818152600f602052604090205460ff1661069f5760405162461bcd60e51b81526004016103139061230c565b60408051608081018252338152602080820186815292820187905260608201859052600e805460018101825560009190915282517fbb7b4a454dc3493923482f07822329ed19e8244eff582cc204f8554c3620c3fd600490920291820180546001600160a01b0319166001600160a01b0390921691909117815593518051939493610753937fbb7b4a454dc3493923482f07822329ed19e8244eff582cc204f8554c3620c3fe909301929190910190611cb6565b506040820151805161076f916002840191602090910190611cb6565b5060609190910151600390910155336000908152600f60209081526040808320805460ff1916600117905560118054601090935290832082905590916107b483612368565b919050555050505050565b606060006008600d5481805480602002602001604051908101604052809291908181526020016000905b828210156105ad57600084815260209081902060408051606081019091526003850290910180546001600160a01b031682526001810180549293919291840191610832906122d2565b80601f016020809104026020016040519081016040528092919081815260200182805461085e906122d2565b80156108ab5780601f10610880576101008083540402835291602001916108ab565b820191906000526020600020905b81548152906001019060200180831161088e57829003601f168201915b505050505081526020016002820180546108c4906122d2565b80601f01602080910402602001604051908101604052809291908181526020018280546108f0906122d2565b801561093d5780601f106109125761010080835404028352916020019161093d565b820191906000526020600020905b81548152906001019060200180831161092057829003601f168201915b505050505081525050815260200190600101906107e9565b604080518082019091523381526020808201838152600280546001810182556000829052845191027f405787fa12a823e0f2b7631cc41b3ba8828b3321ca811111fa75cd3aa3bb5ace810180546001600160a01b03939093166001600160a01b03199093169290921782559151805191936109f5937f405787fa12a823e0f2b7631cc41b3ba8828b3321ca811111fa75cd3aa3bb5acf0192910190611cb6565b5050336000908152600360209081526040808320805460ff1916600117905560058054600490935290832082905590925090610a3083612368565b919050555050565b3360008181526003602052604090205460ff16610a675760405162461bcd60e51b815260040161031390612381565b3360009081526003602052604090205460ff16610abf5760405162461bcd60e51b81526020600482015260166024820152754661726d657220646f65736e2774206578736973742160501b6044820152606401610313565b50336000908152600160205260409020805460ff19166002179055565b3360008181526009602052604090205460ff16610b0b5760405162461bcd60e51b815260040161031390612247565b6000805b600c54811015610cac57336001600160a01b0316600c8281548110610b3657610b3661233c565b6000918252602090912001546001600160a01b031603610c9a5785604051602001610b6191906123b0565b60405160208183030381529060405280519060200120600b6000600c8481548110610b8e57610b8e61233c565b60009182526020808320909101546001600160a01b0316835282810193909352604091820190209051610bc192016123cc565b6040516020818303038152906040528051906020012003610c9a5784604051602001610bed91906123b0565b60405160208183030381529060405280519060200120600b6000600c8481548110610c1a57610c1a61233c565b60009182526020808320909101546001600160a01b0316835282810193909352604091820190209051610c549260019290920191016123cc565b6040516020818303038152906040528051906020012003610c9a57600c8181548110610c8257610c8261233c565b6000918252602090912001546001600160a01b031691505b80610ca481612368565b915050610b0f565b506001600160a01b03166000908152600b6020526040902060030191909155505050565b3360008181526009602052604090205460ff16610cff5760405162461bcd60e51b815260040161031390612247565b6000805b600c54811015610ea057336001600160a01b0316600c8281548110610d2a57610d2a61233c565b6000918252602090912001546001600160a01b031603610e8e5785604051602001610d5591906123b0565b60405160208183030381529060405280519060200120600b6000600c8481548110610d8257610d8261233c565b60009182526020808320909101546001600160a01b0316835282810193909352604091820190209051610db592016123cc565b6040516020818303038152906040528051906020012003610e8e5784604051602001610de191906123b0565b60405160208183030381529060405280519060200120600b6000600c8481548110610e0e57610e0e61233c565b60009182526020808320909101546001600160a01b0316835282810193909352604091820190209051610e489260019290920191016123cc565b6040516020818303038152906040528051906020012003610e8e57600c8181548110610e7657610e7661233c565b6000918252602090912001546001600160a01b031691505b80610e9881612368565b915050610d03565b506001600160a01b0381166000908152600b602052604081206002018054859290610ecc908490612467565b90915550505050505050565b3360008181526009602052604090205460ff16610f075760405162461bcd60e51b815260040161031390612247565b60408051608081018252868152602080820187905281830186905260608201859052336000908152600b8252929092208151805192939192610f4c9284920190611cb6565b506020828101518051610f659260018501920190611cb6565b50604082015160028201556060909101516003909101555050600c80546001810182556000919091527fdf6966c971051c3d54ec59162606531493a51404a002842f56009d7e5cf4a8c70180546001600160a01b03191633179055505050565b3360008181526003602052604090205460ff16610ff45760405162461bcd60e51b815260040161031390612381565b3360009081526003602052604090205460ff1661104a5760405162461bcd60e51b815260206004820152601460248201527311985c9b595c88191bd95cdb89dd08115e1a5cdd60621b6044820152606401610313565b6000805b600c548110156111eb57866001600160a01b0316600c82815481106110755761107561233c565b6000918252602090912001546001600160a01b0316036111d957856040516020016110a091906123b0565b60405160208183030381529060405280519060200120600b6000600c84815481106110cd576110cd61233c565b60009182526020808320909101546001600160a01b031683528281019390935260409182019020905161110092016123cc565b60405160208183030381529060405280519060200120036111d9578460405160200161112c91906123b0565b60405160208183030381529060405280519060200120600b6000600c84815481106111595761115961233c565b60009182526020808320909101546001600160a01b03168352828101939093526040918201902090516111939260019290920191016123cc565b60405160208183030381529060405280519060200120036111d957600c81815481106111c1576111c161233c565b6000918252602090912001546001600160a01b031691505b806111e381612368565b91505061104e565b506001600160a01b0381166000908152600b60205260409020600201548311156112275760405162461bcd60e51b81526004016103139061247f565b6001600160a01b0381166000908152600b60205260409020600201548311611392576000341161128e5760405162461bcd60e51b81526020600482015260126024820152710796f75206861766520656e746572656420360741b6044820152606401610313565b6001600160a01b0381166000908152600b60205260409020600301546112b490846124ca565b34146112d25760405162461bcd60e51b8152600401610313906124e9565b60405186906001600160a01b038216903480156108fc02916000818181858888f19350505050158015611309573d6000803e3d6000fd5b507f763a09a3907aa5142f5d1531400d72f0d62b4bb2d7af6cd649ebeff279b2442733888888883442604051611345979695949392919061252e565b60405180910390a16001600160a01b0382166000908152600b60205260408120600201805486929061137890849061258c565b90915550506000805460ff60a01b1916600160a01b179055505b505050505050565b3360008181526003602052604090205460ff166113c95760405162461bcd60e51b815260040161031390612381565b6040805160e08101825289815260208082018a9052818301899052606082018890526080820187905260a0820186905260c082018590526001600160a01b038c1660009081526012825292909220815180519293919261142c9284920190611cb6565b5060208281015180516114459260018501920190611cb6565b506040828101516002830155606083015160038301556080830151600483015560a0830151600583015560c090920151600690910155601380546001810182556000919091527f66de8ffda797e3de9c05e8fc57b3bf0ec28a930d40b0d285d93c06501cf6a0900180546001600160a01b0319166001600160a01b038c16179055517f82838b23da12c1aa4f25e2e7cba2e96cc80b9047022d1596608ff789d465f4ee906115009033908c908c908c908c908a908a9061252e565b60405180910390a1505050505050505050565b3360008181526003602052604090205460ff166115425760405162461bcd60e51b815260040161031390612381565b60408051608081018252868152602080820187905281830186905260608201859052336000908152600682529290922081518051929391926115879284920190611cb6565b5060208281015180516115a09260018501920190611cb6565b50604082015160028201556060909101516003909101555050600780546001810182556000919091527fa66cc928b5edb82af9bd49922954155ab7b0942694bea4ce44661d9a8736c6880180546001600160a01b03191633179055505050565b6040805160608101825233815260208082018581529282018490526008805460018101825560009190915282517ff3f7a9fe364faab93b216da50a3214154f22a0a2b415b23a84c8169e8b636ee3600390920291820180546001600160a01b0319166001600160a01b03909216919091178155935180519394936116ad937ff3f7a9fe364faab93b216da50a3214154f22a0a2b415b23a84c8169e8b636ee4909301929190910190611cb6565b50604082015180516116c9916002840191602090910190611cb6565b5050336000908152600960209081526040808320805460ff19166001179055600d8054600a9093529083208290559092509061170483612368565b91905055505050565b3360008181526009602052604090205460ff1661173c5760405162461bcd60e51b815260040161031390612247565b6000805b600c548110156118dd57336001600160a01b0316600c82815481106117675761176761233c565b6000918252602090912001546001600160a01b0316036118cb578560405160200161179291906123b0565b60405160208183030381529060405280519060200120600b6000600c84815481106117bf576117bf61233c565b60009182526020808320909101546001600160a01b03168352828101939093526040918201902090516117f292016123cc565b60405160208183030381529060405280519060200120036118cb578460405160200161181e91906123b0565b60405160208183030381529060405280519060200120600b6000600c848154811061184b5761184b61233c565b60009182526020808320909101546001600160a01b03168352828101939093526040918201902090516118859260019290920191016123cc565b60405160208183030381529060405280519060200120036118cb57600c81815481106118b3576118b361233c565b6000918252602090912001546001600160a01b031691505b806118d581612368565b915050611740565b506001600160a01b0381166000908152600b602052604081206002018054859290610ecc90849061258c565b336000818152600f602052604090205460ff166119385760405162461bcd60e51b81526004016103139061230c565b336000908152600f602052604090205460ff166119675760405162461bcd60e51b81526004016103139061230c565b6000805b600754811015611b0857866001600160a01b0316600782815481106119925761199261233c565b6000918252602090912001546001600160a01b031603611af657856040516020016119bd91906123b0565b6040516020818303038152906040528051906020012060066000600784815481106119ea576119ea61233c565b60009182526020808320909101546001600160a01b0316835282810193909352604091820190209051611a1d92016123cc565b6040516020818303038152906040528051906020012003611af65784604051602001611a4991906123b0565b604051602081830303815290604052805190602001206006600060078481548110611a7657611a7661233c565b60009182526020808320909101546001600160a01b0316835282810193909352604091820190209051611ab09260019290920191016123cc565b6040516020818303038152906040528051906020012003611af65760078181548110611ade57611ade61233c565b6000918252602090912001546001600160a01b031691505b80611b0081612368565b91505061196b565b506001600160a01b038116600090815260066020526040902060020154831115611b445760405162461bcd60e51b81526004016103139061247f565b6001600160a01b03811660009081526006602052604090206002015483116113925760003411611bab5760405162461bcd60e51b81526020600482015260126024820152710796f75206861766520656e746572656420360741b6044820152606401610313565b6001600160a01b038116600090815260066020526040902060030154611bd190846124ca565b3414611bef5760405162461bcd60e51b8152600401610313906124e9565b60405186906001600160a01b038216903480156108fc02916000818181858888f19350505050158015611c26573d6000803e3d6000fd5b507f6bf88a54d8df9cdac5ae0ecd59d55dd04ef597b60c83331cc9e3943775f9c19f33888888883442604051611c62979695949392919061252e565b60405180910390a16001600160a01b03821660009081526006602052604081206002018054869290611c9590849061258c565b90915550506000805460ff60a81b1916600160a81b17905550505050505050565b828054611cc2906122d2565b90600052602060002090601f016020900481019282611ce45760008555611d2a565b82601f10611cfd57805160ff1916838001178555611d2a565b82800160010185558215611d2a579182015b82811115611d2a578251825591602001919060010190611d0f565b50611d36929150611d3a565b5090565b5b80821115611d365760008155600101611d3b565b6001600160a01b0381168114611d6457600080fd5b50565b634e487b7160e01b600052604160045260246000fd5b600082601f830112611d8e57600080fd5b813567ffffffffffffffff80821115611da957611da9611d67565b604051601f8301601f19908116603f01168101908282118183101715611dd157611dd1611d67565b81604052838152866020858801011115611dea57600080fd5b836020870160208301376000602085830101528094505050505092915050565b60008060008060808587031215611e2057600080fd5b8435611e2b81611d4f565b9350602085013567ffffffffffffffff80821115611e4857600080fd5b611e5488838901611d7d565b94506040870135915080821115611e6a57600080fd5b50611e7787828801611d7d565b949793965093946060013593505050565b60005b83811015611ea3578181015183820152602001611e8b565b83811115611eb2576000848401525b50505050565b60008151808452611ed0816020860160208601611e88565b601f01601f19169290920160200192915050565b6000604080830181845280865180835260608601915060608160051b8701019250602080890160005b83811015611f5557888603605f19018552815180516001600160a01b03168752830151838701889052611f4288880182611eb8565b9650509382019390820190600101611f0d565b5050959095019590955295945050505050565b600060208284031215611f7a57600080fd5b5035919050565b600080600060608486031215611f9657600080fd5b833567ffffffffffffffff80821115611fae57600080fd5b611fba87838801611d7d565b94506020860135915080821115611fd057600080fd5b50611fdd86828701611d7d565b925050604084013590509250925092565b60006040808301818452808651808352606092508286019150828160051b8701016020808a0160005b8481101561207957898403605f19018652815180516001600160a01b031685528381015184860189905261204d89870182611eb8565b918a0151868303878c01529190506120658183611eb8565b978501979550505090820190600101612017565b50509690960196909652509295945050505050565b6000602082840312156120a057600080fd5b813567ffffffffffffffff8111156120b757600080fd5b6120c384828501611d7d565b949350505050565b600080600080608085870312156120e157600080fd5b843567ffffffffffffffff808211156120f957600080fd5b61210588838901611d7d565b9550602087013591508082111561211b57600080fd5b5061212887828801611d7d565b949794965050505060408301359260600135919050565b600080600080600080600080610100898b03121561215c57600080fd5b883561216781611d4f565b9750602089013567ffffffffffffffff8082111561218457600080fd5b6121908c838d01611d7d565b985060408b01359150808211156121a657600080fd5b506121b38b828c01611d7d565b989b979a5097986060810135985060808101359760a0820135975060c0820135965060e090910135945092505050565b600080604083850312156121f657600080fd5b823567ffffffffffffffff8082111561220e57600080fd5b61221a86838701611d7d565b9350602085013591508082111561223057600080fd5b5061223d85828601611d7d565b9150509250929050565b6020808252601b908201527f5365656420636f6d70616e7920646f65736e2774206578697374210000000000604082015260600190565b6001600160a01b0387811682528616602082015260c0604082018190526000906122aa90830187611eb8565b82810360608401526122bc8187611eb8565b6080840195909552505060a00152949350505050565b600181811c908216806122e657607f821691505b60208210810361230657634e487b7160e01b600052602260045260246000fd5b50919050565b602080825260169082015275115b195d985d1bdc88191bd95cdb89dd08195e1a5cdd60521b604082015260600190565b634e487b7160e01b600052603260045260246000fd5b634e487b7160e01b600052601160045260246000fd5b60006001820161237a5761237a612352565b5060010190565b6020808252601590820152744661726d657220646f65736e27742065787369732160581b604082015260600190565b600082516123c2818460208701611e88565b9190910192915050565b600080835481600182811c9150808316806123e857607f831692505b6020808410820361240757634e487b7160e01b86526022600452602486fd5b81801561241b576001811461242c57612459565b60ff19861689528489019650612459565b60008a81526020902060005b868110156124515781548b820152908501908301612438565b505084890196505b509498975050505050505050565b6000821982111561247a5761247a612352565b500190565b6020808252602b908201527f54686973206d7563682071756e6174697479206f662073656564206973206e6f60408201526a7420617661696c61626c6560a81b606082015260800190565b60008160001904831182151516156124e4576124e4612352565b500290565b60208082526025908201527f596f7520686176656e277420656e74657264207468652065787065637465642060408201526476616c756560d81b606082015260800190565b6001600160a01b0388811682528716602082015260e06040820181905260009061255a90830188611eb8565b828103606084015261256c8188611eb8565b6080840196909652505060a081019290925260c090910152949350505050565b60008282101561259e5761259e612352565b50039056fea2646970667358221220d9ae02a5a81fa74aeb29099188cd5d024ddf136597597975a683b72e4b66114f64736f6c634300080e0033",
    "sourcePath": "e:/JSS Mysore/6th Semester/EC67L D&I/Project/project.sol",
    "compiler": {
        "name": "solc",
        "version": "0.8.14+commit.80d49f37"
    },
    "functionHashes": {
        "addElevator(string,string,uint256)": "17cf2c15",
        "addFarmer(string)": "2d7e2e8b",
        "addSeedCompany(string,string)": "d49376ca",
        "addSeedQuantity(string,string,uint256)": "5eb78b8c",
        "buyGrainFromFarmer(address,string,string,uint256)": "dcdd5bce",
        "buySeeds(address,string,string,uint256)": "b9ac42b2",
        "createContract()": "412a5a6d",
        "getListOfFarmer()": "03f8027a",
        "getListOfseedCompany()": "1aeb4ec7",
        "removeSeedQuantity(string,string,uint256)": "dc441ba8",
        "sellGrainToElevator(address,string,string,uint256,uint256,uint256,uint256,uint256)": "c10e8579",
        "sellSeeds(address,string,string,uint256)": "02ca78f2",
        "updateGrainFarmerQuantity(string,string,uint256,uint256)": "c16634b7",
        "updateSeedDetails(string,string,uint256,uint256)": "719fae32",
        "updateSeedPrice(string,string,uint256)": "59a1d1a3",
        "updateStorageQuantity(uint256)": "166d9eaa"
    },
    "gasEstimates": {
        "creation": {
            "codeDepositCost": "1937800",
            "executionCost": "65528",
            "totalCost": "2003328"
        },
        "external": {
            "addElevator(string,string,uint256)": "infinite",
            "addFarmer(string)": "infinite",
            "addSeedCompany(string,string)": "infinite",
            "addSeedQuantity(string,string,uint256)": "infinite",
            "buyGrainFromFarmer(address,string,string,uint256)": "infinite",
            "buySeeds(address,string,string,uint256)": "infinite",
            "createContract()": "28887",
            "getListOfFarmer()": "infinite",
            "getListOfseedCompany()": "infinite",
            "removeSeedQuantity(string,string,uint256)": "infinite",
            "sellGrainToElevator(address,string,string,uint256,uint256,uint256,uint256,uint256)": "infinite",
            "sellSeeds(address,string,string,uint256)": "infinite",
            "updateGrainFarmerQuantity(string,string,uint256,uint256)": "infinite",
            "updateSeedDetails(string,string,uint256,uint256)": "infinite",
            "updateSeedPrice(string,string,uint256)": "infinite",
            "updateStorageQuantity(uint256)": "infinite"
        }
    }
}