{
    "contractName": "supplyChainAgriculture",
    "abi": [
        {
            "inputs": [],
            "stateMutability": "nonpayable",
            "type": "constructor"
        },
        {
            "anonymous": false,
            "inputs": [
                {
                    "indexed": false,
                    "internalType": "address",
                    "name": "farmer",
                    "type": "address"
                },
                {
                    "indexed": false,
                    "internalType": "address",
                    "name": "elevator",
                    "type": "address"
                },
                {
                    "indexed": false,
                    "internalType": "string",
                    "name": "grainType",
                    "type": "string"
                },
                {
                    "indexed": false,
                    "internalType": "string",
                    "name": "variety",
                    "type": "string"
                },
                {
                    "indexed": false,
                    "internalType": "uint256",
                    "name": "quantity",
                    "type": "uint256"
                },
                {
                    "indexed": false,
                    "internalType": "uint256",
                    "name": "pricePer1q",
                    "type": "uint256"
                },
                {
                    "indexed": false,
                    "internalType": "uint256",
                    "name": "purchaseDate",
                    "type": "uint256"
                }
            ],
            "name": "sellGrainsToElevator",
            "type": "event"
        },
        {
            "anonymous": false,
            "inputs": [
                {
                    "indexed": false,
                    "internalType": "address",
                    "name": "farmer",
                    "type": "address"
                },
                {
                    "indexed": false,
                    "internalType": "address",
                    "name": "seedCompany",
                    "type": "address"
                },
                {
                    "indexed": false,
                    "internalType": "string",
                    "name": "seedType",
                    "type": "string"
                },
                {
                    "indexed": false,
                    "internalType": "string",
                    "name": "variety",
                    "type": "string"
                },
                {
                    "indexed": false,
                    "internalType": "uint256",
                    "name": "quantity",
                    "type": "uint256"
                },
                {
                    "indexed": false,
                    "internalType": "uint256",
                    "name": "time",
                    "type": "uint256"
                }
            ],
            "name": "sellOfSeeds",
            "type": "event"
        },
        {
            "anonymous": false,
            "inputs": [
                {
                    "indexed": false,
                    "internalType": "address",
                    "name": "farmer",
                    "type": "address"
                },
                {
                    "indexed": false,
                    "internalType": "address",
                    "name": "Seedcompany",
                    "type": "address"
                },
                {
                    "indexed": false,
                    "internalType": "string",
                    "name": "seedType",
                    "type": "string"
                },
                {
                    "indexed": false,
                    "internalType": "string",
                    "name": "variety",
                    "type": "string"
                },
                {
                    "indexed": false,
                    "internalType": "uint256",
                    "name": "quantity",
                    "type": "uint256"
                },
                {
                    "indexed": false,
                    "internalType": "uint256",
                    "name": "Price",
                    "type": "uint256"
                },
                {
                    "indexed": false,
                    "internalType": "uint256",
                    "name": "time",
                    "type": "uint256"
                }
            ],
            "name": "transferCompleteSeed",
            "type": "event"
        },
        {
            "anonymous": false,
            "inputs": [
                {
                    "indexed": false,
                    "internalType": "address",
                    "name": "elevator",
                    "type": "address"
                },
                {
                    "indexed": false,
                    "internalType": "address",
                    "name": "farmer",
                    "type": "address"
                },
                {
                    "indexed": false,
                    "internalType": "string",
                    "name": "grownGrainType",
                    "type": "string"
                },
                {
                    "indexed": false,
                    "internalType": "string",
                    "name": "variety",
                    "type": "string"
                },
                {
                    "indexed": false,
                    "internalType": "uint256",
                    "name": "quantity",
                    "type": "uint256"
                },
                {
                    "indexed": false,
                    "internalType": "uint256",
                    "name": "Price",
                    "type": "uint256"
                },
                {
                    "indexed": false,
                    "internalType": "uint256",
                    "name": "time",
                    "type": "uint256"
                }
            ],
            "name": "transferCompletegrownGrain",
            "type": "event"
        },
        {
            "inputs": [
                {
                    "internalType": "string",
                    "name": "_hash",
                    "type": "string"
                },
                {
                    "internalType": "string",
                    "name": "_name",
                    "type": "string"
                },
                {
                    "internalType": "uint256",
                    "name": "_storageQuantity",
                    "type": "uint256"
                }
            ],
            "name": "addElevator",
            "outputs": [],
            "stateMutability": "nonpayable",
            "type": "function"
        },
        {
            "inputs": [
                {
                    "internalType": "string",
                    "name": "_hash",
                    "type": "string"
                }
            ],
            "name": "addFarmer",
            "outputs": [],
            "stateMutability": "nonpayable",
            "type": "function"
        },
        {
            "inputs": [
                {
                    "internalType": "string",
                    "name": "_name",
                    "type": "string"
                },
                {
                    "internalType": "string",
                    "name": "_hash",
                    "type": "string"
                }
            ],
            "name": "addSeedCompany",
            "outputs": [],
            "stateMutability": "nonpayable",
            "type": "function"
        },
        {
            "inputs": [
                {
                    "internalType": "string",
                    "name": "_seedType",
                    "type": "string"
                },
                {
                    "internalType": "string",
                    "name": "_variety",
                    "type": "string"
                },
                {
                    "internalType": "uint256",
                    "name": "_addQuantity",
                    "type": "uint256"
                }
            ],
            "name": "addSeedQuantity",
            "outputs": [],
            "stateMutability": "nonpayable",
            "type": "function"
        },
        {
            "inputs": [
                {
                    "internalType": "address payable",
                    "name": "_farmer",
                    "type": "address"
                },
                {
                    "internalType": "string",
                    "name": "_grainTypeGrown",
                    "type": "string"
                },
                {
                    "internalType": "string",
                    "name": "_variety",
                    "type": "string"
                },
                {
                    "internalType": "uint256",
                    "name": "_quantity",
                    "type": "uint256"
                }
            ],
            "name": "buyGrainFromFarmer",
            "outputs": [],
            "stateMutability": "payable",
            "type": "function"
        },
        {
            "inputs": [
                {
                    "internalType": "address payable",
                    "name": "_seedCompany",
                    "type": "address"
                },
                {
                    "internalType": "string",
                    "name": "_seedType",
                    "type": "string"
                },
                {
                    "internalType": "string",
                    "name": "_variety",
                    "type": "string"
                },
                {
                    "internalType": "uint256",
                    "name": "_quantity",
                    "type": "uint256"
                }
            ],
            "name": "buySeeds",
            "outputs": [],
            "stateMutability": "payable",
            "type": "function"
        },
        {
            "inputs": [],
            "name": "createContract",
            "outputs": [],
            "stateMutability": "nonpayable",
            "type": "function"
        },
        {
            "inputs": [],
            "name": "getListOfFarmer",
            "outputs": [
                {
                    "components": [
                        {
                            "internalType": "address payable",
                            "name": "farmerAddress",
                            "type": "address"
                        },
                        {
                            "internalType": "string",
                            "name": "hash",
                            "type": "string"
                        }
                    ],
                    "internalType": "struct supplyChainAgriculture.Farmer[]",
                    "name": "",
                    "type": "tuple[]"
                },
                {
                    "internalType": "uint256",
                    "name": "",
                    "type": "uint256"
                }
            ],
            "stateMutability": "view",
            "type": "function"
        },
        {
            "inputs": [],
            "name": "getListOfseedCompany",
            "outputs": [
                {
                    "components": [
                        {
                            "internalType": "address payable",
                            "name": "companyAddress",
                            "type": "address"
                        },
                        {
                            "internalType": "string",
                            "name": "CompanyName",
                            "type": "string"
                        },
                        {
                            "internalType": "string",
                            "name": "hash",
                            "type": "string"
                        }
                    ],
                    "internalType": "struct supplyChainAgriculture.SeedCompany[]",
                    "name": "",
                    "type": "tuple[]"
                },
                {
                    "internalType": "uint256",
                    "name": "",
                    "type": "uint256"
                }
            ],
            "stateMutability": "view",
            "type": "function"
        },
        {
            "inputs": [
                {
                    "internalType": "string",
                    "name": "_seedType",
                    "type": "string"
                },
                {
                    "internalType": "string",
                    "name": "_variety",
                    "type": "string"
                },
                {
                    "internalType": "uint256",
                    "name": "_addQuantity",
                    "type": "uint256"
                }
            ],
            "name": "removeSeedQuantity",
            "outputs": [],
            "stateMutability": "nonpayable",
            "type": "function"
        },
        {
            "inputs": [
                {
                    "internalType": "address",
                    "name": "_elevator",
                    "type": "address"
                },
                {
                    "internalType": "string",
                    "name": "_grainType",
                    "type": "string"
                },
                {
                    "internalType": "string",
                    "name": "_variety",
                    "type": "string"
                },
                {
                    "internalType": "uint256",
                    "name": "_quantity",
                    "type": "uint256"
                },
                {
                    "internalType": "uint256",
                    "name": "_moisture",
                    "type": "uint256"
                },
                {
                    "internalType": "uint256",
                    "name": "_temperature",
                    "type": "uint256"
                },
                {
                    "internalType": "uint256",
                    "name": "_pricePer1q",
                    "type": "uint256"
                },
                {
                    "internalType": "uint256",
                    "name": "_purchaseDate",
                    "type": "uint256"
                }
            ],
            "name": "sellGrainToElevator",
            "outputs": [],
            "stateMutability": "nonpayable",
            "type": "function"
        },
        {
            "inputs": [
                {
                    "internalType": "address",
                    "name": "_farmer",
                    "type": "address"
                },
                {
                    "internalType": "string",
                    "name": "_seedType",
                    "type": "string"
                },
                {
                    "internalType": "string",
                    "name": "_variety",
                    "type": "string"
                },
                {
                    "internalType": "uint256",
                    "name": "_quantity",
                    "type": "uint256"
                }
            ],
            "name": "sellSeeds",
            "outputs": [],
            "stateMutability": "nonpayable",
            "type": "function"
        },
        {
            "inputs": [
                {
                    "internalType": "string",
                    "name": "_seedType",
                    "type": "string"
                },
                {
                    "internalType": "string",
                    "name": "_variety",
                    "type": "string"
                },
                {
                    "internalType": "uint256",
                    "name": "_quantity",
                    "type": "uint256"
                },
                {
                    "internalType": "uint256",
                    "name": "_pricePer1q",
                    "type": "uint256"
                }
            ],
            "name": "updateGrainFarmerQuantity",
            "outputs": [],
            "stateMutability": "nonpayable",
            "type": "function"
        },
        {
            "inputs": [
                {
                    "internalType": "string",
                    "name": "_grainTypeGrown",
                    "type": "string"
                },
                {
                    "internalType": "string",
                    "name": "_variety",
                    "type": "string"
                },
                {
                    "internalType": "uint256",
                    "name": "_pricePer1q",
                    "type": "uint256"
                }
            ],
            "name": "updateGrainPriceByFarmer",
            "outputs": [],
            "stateMutability": "nonpayable",
            "type": "function"
        },
        {
            "inputs": [
                {
                    "internalType": "string",
                    "name": "_seedType",
                    "type": "string"
                },
                {
                    "internalType": "string",
                    "name": "_variety",
                    "type": "string"
                },
                {
                    "internalType": "uint256",
                    "name": "_quantity",
                    "type": "uint256"
                },
                {
                    "internalType": "uint256",
                    "name": "_pricePer10g",
                    "type": "uint256"
                }
            ],
            "name": "updateSeedDetails",
            "outputs": [],
            "stateMutability": "nonpayable",
            "type": "function"
        },
        {
            "inputs": [
                {
                    "internalType": "string",
                    "name": "_seedType",
                    "type": "string"
                },
                {
                    "internalType": "string",
                    "name": "_variety",
                    "type": "string"
                },
                {
                    "internalType": "uint256",
                    "name": "_pricePer10g",
                    "type": "uint256"
                }
            ],
            "name": "updateSeedPrice",
            "outputs": [],
            "stateMutability": "nonpayable",
            "type": "function"
        },
        {
            "inputs": [
                {
                    "internalType": "uint256",
                    "name": "_storageQuantity",
                    "type": "uint256"
                }
            ],
            "name": "updateStorageQuantity",
            "outputs": [],
            "stateMutability": "nonpayable",
            "type": "function"
        }
    ],
    "bytecode": "60806040526000805461ffff60a01b191681556005819055600d81905560115534801561002b57600080fd5b50600080546001600160a01b031916331790556129038061004d6000396000f3fe6080604052600436106100fe5760003560e01c80635eb78b8c11610095578063c10e857911610064578063c10e85791461027c578063c16634b71461029c578063d49376ca146102bc578063dc441ba8146102dc578063dcdd5bce146102fc57600080fd5b80635eb78b8c14610209578063719fae3214610229578063b5d765de14610249578063b9ac42b21461026957600080fd5b80631aeb4ec7116100d15780631aeb4ec7146101915780632d7e2e8b146101b4578063412a5a6d146101d457806359a1d1a3146101e957600080fd5b806302ca78f21461010357806303f8027a14610125578063166d9eaa1461015157806317cf2c1514610171575b600080fd5b34801561010f57600080fd5b5061012361011e366004612134565b61030f565b005b34801561013157600080fd5b5061013a610469565b60405161014892919061220e565b60405180910390f35b34801561015d57600080fd5b5061012361016c366004612292565b6105e6565b34801561017d57600080fd5b5061012361018c3660046122ab565b61069b565b34801561019d57600080fd5b506101a66107ea565b604051610148929190612318565b3480156101c057600080fd5b506101236101cf3660046123b8565b610980565b3480156101e057600080fd5b50610123610a63565b3480156101f557600080fd5b506101236102043660046122ab565b610b07565b34801561021557600080fd5b506101236102243660046122ab565b610cfb565b34801561023557600080fd5b506101236102443660046123f5565b610f03565b34801561025557600080fd5b506101236102643660046122ab565b610ff0565b610123610277366004612134565b61123a565b34801561028857600080fd5b50610123610297366004612469565b61160f565b3480156102a857600080fd5b506101236102b73660046123f5565b61183d565b3480156102c857600080fd5b506101236102d736600461250d565b61192a565b3480156102e857600080fd5b506101236102f73660046122ab565b611a37565b61012361030a366004612134565b611c33565b3360008181526009602052604090205460ff166103475760405162461bcd60e51b815260040161033e90612571565b60405180910390fd5b3360009081526009602052604090205460ff166103a65760405162461bcd60e51b815260206004820152601a60248201527f5365656420436f6d70616e7920446f65736e2774204578697374000000000000604482015260640161033e565b600054600160a01b900460ff161515600103610402577f0abb2b17e070b031d143b94e96bb7894984f9776f01493cbcc2f4191d803a1b68533868686426040516103f5969594939291906125a8565b60405180910390a1610462565b60405162461bcd60e51b815260206004820152602f60248201527f4661726d657220646f65736e2774206578697374206f72206865206469646e2760448201526e7420706179207468652062696c6c7360881b606482015260840161033e565b5050505050565b60008054606091906001600160a01b031633146104d95760405162461bcd60e51b815260206004820152602860248201527f536f7272792c205468697320696e666f726d6174696f6e20697320636f6e66696044820152673232b73a34b0b61760c11b606482015260840161033e565b600260055481805480602002602001604051908101604052809291908181526020016000905b828210156105d8576000848152602090819020604080518082019091526002850290910180546001600160a01b031682526001810180549293919291840191610547906125fc565b80601f0160208091040260200160405190810160405280929190818152602001828054610573906125fc565b80156105c05780601f10610595576101008083540402835291602001916105c0565b820191906000526020600020905b8154815290600101906020018083116105a357829003601f168201915b505050505081525050815260200190600101906104ff565b505050509150915091509091565b336000818152600f602052604090205460ff166106155760405162461bcd60e51b815260040161033e90612636565b6000805b600e5481101561066c57600e818154811061063657610636612666565b60009182526020909120600490910201546001600160a01b0316330361065a578091505b8061066481612692565b915050610619565b5082600e828154811061068157610681612666565b906000526020600020906004020160030181905550505050565b336000818152600f602052604090205460ff166106ca5760405162461bcd60e51b815260040161033e90612636565b60408051608081018252338152602080820186815292820187905260608201859052600e805460018101825560009190915282517fbb7b4a454dc3493923482f07822329ed19e8244eff582cc204f8554c3620c3fd600490920291820180546001600160a01b0319166001600160a01b039092169190911781559351805193949361077e937fbb7b4a454dc3493923482f07822329ed19e8244eff582cc204f8554c3620c3fe909301929190910190611fe0565b506040820151805161079a916002840191602090910190611fe0565b5060609190910151600390910155336000908152600f60209081526040808320805460ff1916600117905560118054601090935290832082905590916107df83612692565b919050555050505050565b606060006008600d5481805480602002602001604051908101604052809291908181526020016000905b828210156105d857600084815260209081902060408051606081019091526003850290910180546001600160a01b03168252600181018054929391929184019161085d906125fc565b80601f0160208091040260200160405190810160405280929190818152602001828054610889906125fc565b80156108d65780601f106108ab576101008083540402835291602001916108d6565b820191906000526020600020905b8154815290600101906020018083116108b957829003601f168201915b505050505081526020016002820180546108ef906125fc565b80601f016020809104026020016040519081016040528092919081815260200182805461091b906125fc565b80156109685780601f1061093d57610100808354040283529160200191610968565b820191906000526020600020905b81548152906001019060200180831161094b57829003601f168201915b50505050508152505081526020019060010190610814565b604080518082019091523381526020808201838152600280546001810182556000829052845191027f405787fa12a823e0f2b7631cc41b3ba8828b3321ca811111fa75cd3aa3bb5ace810180546001600160a01b03939093166001600160a01b0319909316929092178255915180519193610a20937f405787fa12a823e0f2b7631cc41b3ba8828b3321ca811111fa75cd3aa3bb5acf0192910190611fe0565b5050336000908152600360209081526040808320805460ff1916600117905560058054600490935290832082905590925090610a5b83612692565b919050555050565b3360008181526003602052604090205460ff16610a925760405162461bcd60e51b815260040161033e906126ab565b3360009081526003602052604090205460ff16610aea5760405162461bcd60e51b81526020600482015260166024820152754661726d657220646f65736e2774206578736973742160501b604482015260640161033e565b50336000908152600160205260409020805460ff19166002179055565b3360008181526009602052604090205460ff16610b365760405162461bcd60e51b815260040161033e90612571565b6000805b600c54811015610cd757336001600160a01b0316600c8281548110610b6157610b61612666565b6000918252602090912001546001600160a01b031603610cc55785604051602001610b8c91906126da565b60405160208183030381529060405280519060200120600b6000600c8481548110610bb957610bb9612666565b60009182526020808320909101546001600160a01b0316835282810193909352604091820190209051610bec92016126f6565b6040516020818303038152906040528051906020012003610cc55784604051602001610c1891906126da565b60405160208183030381529060405280519060200120600b6000600c8481548110610c4557610c45612666565b60009182526020808320909101546001600160a01b0316835282810193909352604091820190209051610c7f9260019290920191016126f6565b6040516020818303038152906040528051906020012003610cc557600c8181548110610cad57610cad612666565b6000918252602090912001546001600160a01b031691505b80610ccf81612692565b915050610b3a565b506001600160a01b03166000908152600b6020526040902060030191909155505050565b3360008181526009602052604090205460ff16610d2a5760405162461bcd60e51b815260040161033e90612571565b6000805b600c54811015610ecb57336001600160a01b0316600c8281548110610d5557610d55612666565b6000918252602090912001546001600160a01b031603610eb95785604051602001610d8091906126da565b60405160208183030381529060405280519060200120600b6000600c8481548110610dad57610dad612666565b60009182526020808320909101546001600160a01b0316835282810193909352604091820190209051610de092016126f6565b6040516020818303038152906040528051906020012003610eb95784604051602001610e0c91906126da565b60405160208183030381529060405280519060200120600b6000600c8481548110610e3957610e39612666565b60009182526020808320909101546001600160a01b0316835282810193909352604091820190209051610e739260019290920191016126f6565b6040516020818303038152906040528051906020012003610eb957600c8181548110610ea157610ea1612666565b6000918252602090912001546001600160a01b031691505b80610ec381612692565b915050610d2e565b506001600160a01b0381166000908152600b602052604081206002018054859290610ef7908490612791565b90915550505050505050565b3360008181526009602052604090205460ff16610f325760405162461bcd60e51b815260040161033e90612571565b60408051608081018252868152602080820187905281830186905260608201859052336000908152600b8252929092208151805192939192610f779284920190611fe0565b506020828101518051610f909260018501920190611fe0565b50604082015160028201556060909101516003909101555050600c80546001810182556000919091527fdf6966c971051c3d54ec59162606531493a51404a002842f56009d7e5cf4a8c70180546001600160a01b03191633179055505050565b3360008181526003602052604090205460ff1661101f5760405162461bcd60e51b815260040161033e906126ab565b3360009081526003602052604090205460ff166110755760405162461bcd60e51b815260206004820152601460248201527311985c9b595c88191bd95cdb89dd08195e1a5cdd60621b604482015260640161033e565b6000805b60075481101561121657336001600160a01b0316600782815481106110a0576110a0612666565b6000918252602090912001546001600160a01b03160361120457856040516020016110cb91906126da565b6040516020818303038152906040528051906020012060066000600784815481106110f8576110f8612666565b60009182526020808320909101546001600160a01b031683528281019390935260409182019020905161112b92016126f6565b6040516020818303038152906040528051906020012003611204578460405160200161115791906126da565b60405160208183030381529060405280519060200120600660006007848154811061118457611184612666565b60009182526020808320909101546001600160a01b03168352828101939093526040918201902090516111be9260019290920191016126f6565b604051602081830303815290604052805190602001200361120457600781815481106111ec576111ec612666565b6000918252602090912001546001600160a01b031691505b8061120e81612692565b915050611079565b506001600160a01b0316600090815260066020526040902060030191909155505050565b3360008181526003602052604090205460ff166112695760405162461bcd60e51b815260040161033e906126ab565b3360009081526003602052604090205460ff166112bf5760405162461bcd60e51b815260206004820152601460248201527311985c9b595c88191bd95cdb89dd08115e1a5cdd60621b604482015260640161033e565b6000805b600c5481101561146057866001600160a01b0316600c82815481106112ea576112ea612666565b6000918252602090912001546001600160a01b03160361144e578560405160200161131591906126da565b60405160208183030381529060405280519060200120600b6000600c848154811061134257611342612666565b60009182526020808320909101546001600160a01b031683528281019390935260409182019020905161137592016126f6565b604051602081830303815290604052805190602001200361144e57846040516020016113a191906126da565b60405160208183030381529060405280519060200120600b6000600c84815481106113ce576113ce612666565b60009182526020808320909101546001600160a01b03168352828101939093526040918201902090516114089260019290920191016126f6565b604051602081830303815290604052805190602001200361144e57600c818154811061143657611436612666565b6000918252602090912001546001600160a01b031691505b8061145881612692565b9150506112c3565b506001600160a01b0381166000908152600b602052604090206002015483111561149c5760405162461bcd60e51b815260040161033e906127a9565b6001600160a01b0381166000908152600b6020526040902060020154831161160757600034116115035760405162461bcd60e51b81526020600482015260126024820152710796f75206861766520656e746572656420360741b604482015260640161033e565b6001600160a01b0381166000908152600b602052604090206003015461152990846127f4565b34146115475760405162461bcd60e51b815260040161033e90612813565b60405186906001600160a01b038216903480156108fc02916000818181858888f1935050505015801561157e573d6000803e3d6000fd5b507f763a09a3907aa5142f5d1531400d72f0d62b4bb2d7af6cd649ebeff279b24427338888888834426040516115ba9796959493929190612858565b60405180910390a16001600160a01b0382166000908152600b6020526040812060020180548692906115ed9084906128b6565b90915550506000805460ff60a01b1916600160a01b179055505b505050505050565b3360008181526003602052604090205460ff1661163e5760405162461bcd60e51b815260040161033e906126ab565b6001600160a01b0389166000908152600f602052604090205460ff166116765760405162461bcd60e51b815260040161033e90612636565b6040805160e08101825289815260208082018a9052818301899052606082018890526080820187905260a0820186905260c082018590526001600160a01b038c166000908152601282529290922081518051929391926116d99284920190611fe0565b5060208281015180516116f29260018501920190611fe0565b5060408201516002820155606082015160038201556080820151600482015560a0820151600582015560c090910151600690910155601380546001808201835560009283527f66de8ffda797e3de9c05e8fc57b3bf0ec28a930d40b0d285d93c06501cf6a09090910180546001600160a01b0319166001600160a01b038d161790559054600160a81b900460ff16151590036117d0577f82838b23da12c1aa4f25e2e7cba2e96cc80b9047022d1596608ff789d465f4ee338a8a8a8a88886040516117c39796959493929190612858565b60405180910390a1611832565b60405162461bcd60e51b815260206004820152603160248201527f656c657661746f7220646f65736e2774206578697374206f72206865206469646044820152706e277420706179207468652062696c6c7360781b606482015260840161033e565b505050505050505050565b3360008181526003602052604090205460ff1661186c5760405162461bcd60e51b815260040161033e906126ab565b60408051608081018252868152602080820187905281830186905260608201859052336000908152600682529290922081518051929391926118b19284920190611fe0565b5060208281015180516118ca9260018501920190611fe0565b50604082015160028201556060909101516003909101555050600780546001810182556000919091527fa66cc928b5edb82af9bd49922954155ab7b0942694bea4ce44661d9a8736c6880180546001600160a01b03191633179055505050565b6040805160608101825233815260208082018581529282018490526008805460018101825560009190915282517ff3f7a9fe364faab93b216da50a3214154f22a0a2b415b23a84c8169e8b636ee3600390920291820180546001600160a01b0319166001600160a01b03909216919091178155935180519394936119d7937ff3f7a9fe364faab93b216da50a3214154f22a0a2b415b23a84c8169e8b636ee4909301929190910190611fe0565b50604082015180516119f3916002840191602090910190611fe0565b5050336000908152600960209081526040808320805460ff19166001179055600d8054600a90935290832082905590925090611a2e83612692565b91905055505050565b3360008181526009602052604090205460ff16611a665760405162461bcd60e51b815260040161033e90612571565b6000805b600c54811015611c0757336001600160a01b0316600c8281548110611a9157611a91612666565b6000918252602090912001546001600160a01b031603611bf55785604051602001611abc91906126da565b60405160208183030381529060405280519060200120600b6000600c8481548110611ae957611ae9612666565b60009182526020808320909101546001600160a01b0316835282810193909352604091820190209051611b1c92016126f6565b6040516020818303038152906040528051906020012003611bf55784604051602001611b4891906126da565b60405160208183030381529060405280519060200120600b6000600c8481548110611b7557611b75612666565b60009182526020808320909101546001600160a01b0316835282810193909352604091820190209051611baf9260019290920191016126f6565b6040516020818303038152906040528051906020012003611bf557600c8181548110611bdd57611bdd612666565b6000918252602090912001546001600160a01b031691505b80611bff81612692565b915050611a6a565b506001600160a01b0381166000908152600b602052604081206002018054859290610ef79084906128b6565b336000818152600f602052604090205460ff16611c625760405162461bcd60e51b815260040161033e90612636565b336000908152600f602052604090205460ff16611c915760405162461bcd60e51b815260040161033e90612636565b6000805b600754811015611e3257866001600160a01b031660078281548110611cbc57611cbc612666565b6000918252602090912001546001600160a01b031603611e205785604051602001611ce791906126da565b604051602081830303815290604052805190602001206006600060078481548110611d1457611d14612666565b60009182526020808320909101546001600160a01b0316835282810193909352604091820190209051611d4792016126f6565b6040516020818303038152906040528051906020012003611e205784604051602001611d7391906126da565b604051602081830303815290604052805190602001206006600060078481548110611da057611da0612666565b60009182526020808320909101546001600160a01b0316835282810193909352604091820190209051611dda9260019290920191016126f6565b6040516020818303038152906040528051906020012003611e205760078181548110611e0857611e08612666565b6000918252602090912001546001600160a01b031691505b80611e2a81612692565b915050611c95565b506001600160a01b038116600090815260066020526040902060020154831115611e6e5760405162461bcd60e51b815260040161033e906127a9565b6001600160a01b03811660009081526006602052604090206002015483116116075760003411611ed55760405162461bcd60e51b81526020600482015260126024820152710796f75206861766520656e746572656420360741b604482015260640161033e565b6001600160a01b038116600090815260066020526040902060030154611efb90846127f4565b3414611f195760405162461bcd60e51b815260040161033e90612813565b60405186906001600160a01b038216903480156108fc02916000818181858888f19350505050158015611f50573d6000803e3d6000fd5b507f6bf88a54d8df9cdac5ae0ecd59d55dd04ef597b60c83331cc9e3943775f9c19f33888888883442604051611f8c9796959493929190612858565b60405180910390a16001600160a01b03821660009081526006602052604081206002018054869290611fbf9084906128b6565b90915550506000805460ff60a81b1916600160a81b17905550505050505050565b828054611fec906125fc565b90600052602060002090601f01602090048101928261200e5760008555612054565b82601f1061202757805160ff1916838001178555612054565b82800160010185558215612054579182015b82811115612054578251825591602001919060010190612039565b50612060929150612064565b5090565b5b808211156120605760008155600101612065565b6001600160a01b038116811461208e57600080fd5b50565b634e487b7160e01b600052604160045260246000fd5b600082601f8301126120b857600080fd5b813567ffffffffffffffff808211156120d3576120d3612091565b604051601f8301601f19908116603f011681019082821181831017156120fb576120fb612091565b8160405283815286602085880101111561211457600080fd5b836020870160208301376000602085830101528094505050505092915050565b6000806000806080858703121561214a57600080fd5b843561215581612079565b9350602085013567ffffffffffffffff8082111561217257600080fd5b61217e888389016120a7565b9450604087013591508082111561219457600080fd5b506121a1878288016120a7565b949793965093946060013593505050565b60005b838110156121cd5781810151838201526020016121b5565b838111156121dc576000848401525b50505050565b600081518084526121fa8160208601602086016121b2565b601f01601f19169290920160200192915050565b6000604080830181845280865180835260608601915060608160051b8701019250602080890160005b8381101561227f57888603605f19018552815180516001600160a01b0316875283015183870188905261226c888801826121e2565b9650509382019390820190600101612237565b5050959095019590955295945050505050565b6000602082840312156122a457600080fd5b5035919050565b6000806000606084860312156122c057600080fd5b833567ffffffffffffffff808211156122d857600080fd5b6122e4878388016120a7565b945060208601359150808211156122fa57600080fd5b50612307868287016120a7565b925050604084013590509250925092565b60006040808301818452808651808352606092508286019150828160051b8701016020808a0160005b848110156123a357898403605f19018652815180516001600160a01b0316855283810151848601899052612377898701826121e2565b918a0151868303878c015291905061238f81836121e2565b978501979550505090820190600101612341565b50509690960196909652509295945050505050565b6000602082840312156123ca57600080fd5b813567ffffffffffffffff8111156123e157600080fd5b6123ed848285016120a7565b949350505050565b6000806000806080858703121561240b57600080fd5b843567ffffffffffffffff8082111561242357600080fd5b61242f888389016120a7565b9550602087013591508082111561244557600080fd5b50612452878288016120a7565b949794965050505060408301359260600135919050565b600080600080600080600080610100898b03121561248657600080fd5b883561249181612079565b9750602089013567ffffffffffffffff808211156124ae57600080fd5b6124ba8c838d016120a7565b985060408b01359150808211156124d057600080fd5b506124dd8b828c016120a7565b989b979a5097986060810135985060808101359760a0820135975060c0820135965060e090910135945092505050565b6000806040838503121561252057600080fd5b823567ffffffffffffffff8082111561253857600080fd5b612544868387016120a7565b9350602085013591508082111561255a57600080fd5b50612567858286016120a7565b9150509250929050565b6020808252601b908201527f5365656420636f6d70616e7920646f65736e2774206578697374210000000000604082015260600190565b6001600160a01b0387811682528616602082015260c0604082018190526000906125d4908301876121e2565b82810360608401526125e681876121e2565b6080840195909552505060a00152949350505050565b600181811c9082168061261057607f821691505b60208210810361263057634e487b7160e01b600052602260045260246000fd5b50919050565b602080825260169082015275115b195d985d1bdc88191bd95cdb89dd08195e1a5cdd60521b604082015260600190565b634e487b7160e01b600052603260045260246000fd5b634e487b7160e01b600052601160045260246000fd5b6000600182016126a4576126a461267c565b5060010190565b6020808252601590820152744661726d657220646f65736e27742065787369732160581b604082015260600190565b600082516126ec8184602087016121b2565b9190910192915050565b600080835481600182811c91508083168061271257607f831692505b6020808410820361273157634e487b7160e01b86526022600452602486fd5b818015612745576001811461275657612783565b60ff19861689528489019650612783565b60008a81526020902060005b8681101561277b5781548b820152908501908301612762565b505084890196505b509498975050505050505050565b600082198211156127a4576127a461267c565b500190565b6020808252602b908201527f54686973206d7563682071756e6174697479206f662073656564206973206e6f60408201526a7420617661696c61626c6560a81b606082015260800190565b600081600019048311821515161561280e5761280e61267c565b500290565b60208082526025908201527f596f7520686176656e277420656e74657264207468652065787065637465642060408201526476616c756560d81b606082015260800190565b6001600160a01b0388811682528716602082015260e060408201819052600090612884908301886121e2565b828103606084015261289681886121e2565b6080840196909652505060a081019290925260c090910152949350505050565b6000828210156128c8576128c861267c565b50039056fea2646970667358221220991aaf7edbb7eb40ee34be67270d76cd9b6b51ec1e7f7258fab2c1321a65db3864736f6c634300080e0033",
    "sourcePath": "e:/JSS Mysore/6th Semester/EC67L D&I/Project/project.sol",
    "compiler": {
        "name": "solc",
        "version": "0.8.14+commit.80d49f37"
    },
    "functionHashes": {
        "addElevator(string,string,uint256)": "17cf2c15",
        "addFarmer(string)": "2d7e2e8b",
        "addSeedCompany(string,string)": "d49376ca",
        "addSeedQuantity(string,string,uint256)": "5eb78b8c",
        "buyGrainFromFarmer(address,string,string,uint256)": "dcdd5bce",
        "buySeeds(address,string,string,uint256)": "b9ac42b2",
        "createContract()": "412a5a6d",
        "getListOfFarmer()": "03f8027a",
        "getListOfseedCompany()": "1aeb4ec7",
        "removeSeedQuantity(string,string,uint256)": "dc441ba8",
        "sellGrainToElevator(address,string,string,uint256,uint256,uint256,uint256,uint256)": "c10e8579",
        "sellSeeds(address,string,string,uint256)": "02ca78f2",
        "updateGrainFarmerQuantity(string,string,uint256,uint256)": "c16634b7",
        "updateGrainPriceByFarmer(string,string,uint256)": "b5d765de",
        "updateSeedDetails(string,string,uint256,uint256)": "719fae32",
        "updateSeedPrice(string,string,uint256)": "59a1d1a3",
        "updateStorageQuantity(uint256)": "166d9eaa"
    },
    "gasEstimates": {
        "creation": {
            "codeDepositCost": "2099800",
            "executionCost": "65716",
            "totalCost": "2165516"
        },
        "external": {
            "addElevator(string,string,uint256)": "infinite",
            "addFarmer(string)": "infinite",
            "addSeedCompany(string,string)": "infinite",
            "addSeedQuantity(string,string,uint256)": "infinite",
            "buyGrainFromFarmer(address,string,string,uint256)": "infinite",
            "buySeeds(address,string,string,uint256)": "infinite",
            "createContract()": "28887",
            "getListOfFarmer()": "infinite",
            "getListOfseedCompany()": "infinite",
            "removeSeedQuantity(string,string,uint256)": "infinite",
            "sellGrainToElevator(address,string,string,uint256,uint256,uint256,uint256,uint256)": "infinite",
            "sellSeeds(address,string,string,uint256)": "infinite",
            "updateGrainFarmerQuantity(string,string,uint256,uint256)": "infinite",
            "updateGrainPriceByFarmer(string,string,uint256)": "infinite",
            "updateSeedDetails(string,string,uint256,uint256)": "infinite",
            "updateSeedPrice(string,string,uint256)": "infinite",
            "updateStorageQuantity(uint256)": "infinite"
        }
    }
}