{
    "contractName": "supplyChainAgriculture",
    "abi": [
        {
            "inputs": [],
            "stateMutability": "nonpayable",
            "type": "constructor"
        },
        {
            "anonymous": false,
            "inputs": [
                {
                    "indexed": false,
                    "internalType": "address",
                    "name": "Processor",
                    "type": "address"
                },
                {
                    "indexed": false,
                    "internalType": "address",
                    "name": "Distributor",
                    "type": "address"
                },
                {
                    "indexed": false,
                    "internalType": "string",
                    "name": "grainType",
                    "type": "string"
                },
                {
                    "indexed": false,
                    "internalType": "string",
                    "name": "variety",
                    "type": "string"
                },
                {
                    "indexed": false,
                    "internalType": "uint256",
                    "name": "quantity",
                    "type": "uint256"
                },
                {
                    "indexed": false,
                    "internalType": "uint256",
                    "name": "pricePer1q",
                    "type": "uint256"
                },
                {
                    "indexed": false,
                    "internalType": "uint256",
                    "name": "purchaseDate",
                    "type": "uint256"
                }
            ],
            "name": "sellGrainsToDsitributorFromProcessor",
            "type": "event"
        },
        {
            "anonymous": false,
            "inputs": [
                {
                    "indexed": false,
                    "internalType": "address",
                    "name": "farmer",
                    "type": "address"
                },
                {
                    "indexed": false,
                    "internalType": "address",
                    "name": "elevator",
                    "type": "address"
                },
                {
                    "indexed": false,
                    "internalType": "string",
                    "name": "grainType",
                    "type": "string"
                },
                {
                    "indexed": false,
                    "internalType": "string",
                    "name": "variety",
                    "type": "string"
                },
                {
                    "indexed": false,
                    "internalType": "uint256",
                    "name": "quantity",
                    "type": "uint256"
                },
                {
                    "indexed": false,
                    "internalType": "uint256",
                    "name": "pricePer1q",
                    "type": "uint256"
                },
                {
                    "indexed": false,
                    "internalType": "uint256",
                    "name": "purchaseDate",
                    "type": "uint256"
                }
            ],
            "name": "sellGrainsToElevator",
            "type": "event"
        },
        {
            "anonymous": false,
            "inputs": [
                {
                    "indexed": false,
                    "internalType": "address",
                    "name": "Elevator",
                    "type": "address"
                },
                {
                    "indexed": false,
                    "internalType": "address",
                    "name": "Processor",
                    "type": "address"
                },
                {
                    "indexed": false,
                    "internalType": "string",
                    "name": "grainType",
                    "type": "string"
                },
                {
                    "indexed": false,
                    "internalType": "string",
                    "name": "variety",
                    "type": "string"
                },
                {
                    "indexed": false,
                    "internalType": "uint256",
                    "name": "quantity",
                    "type": "uint256"
                },
                {
                    "indexed": false,
                    "internalType": "uint256",
                    "name": "pricePer1q",
                    "type": "uint256"
                },
                {
                    "indexed": false,
                    "internalType": "uint256",
                    "name": "purchaseDate",
                    "type": "uint256"
                }
            ],
            "name": "sellGrainsToProcessorFromElevator",
            "type": "event"
        },
        {
            "anonymous": false,
            "inputs": [
                {
                    "indexed": false,
                    "internalType": "address",
                    "name": "farmer",
                    "type": "address"
                },
                {
                    "indexed": false,
                    "internalType": "address",
                    "name": "seedCompany",
                    "type": "address"
                },
                {
                    "indexed": false,
                    "internalType": "string",
                    "name": "seedType",
                    "type": "string"
                },
                {
                    "indexed": false,
                    "internalType": "string",
                    "name": "variety",
                    "type": "string"
                },
                {
                    "indexed": false,
                    "internalType": "uint256",
                    "name": "quantity",
                    "type": "uint256"
                },
                {
                    "indexed": false,
                    "internalType": "uint256",
                    "name": "time",
                    "type": "uint256"
                }
            ],
            "name": "sellOfSeeds",
            "type": "event"
        },
        {
            "anonymous": false,
            "inputs": [
                {
                    "indexed": false,
                    "internalType": "address",
                    "name": "Distributor",
                    "type": "address"
                },
                {
                    "indexed": false,
                    "internalType": "address",
                    "name": "Processor",
                    "type": "address"
                },
                {
                    "indexed": false,
                    "internalType": "string",
                    "name": "grainType",
                    "type": "string"
                },
                {
                    "indexed": false,
                    "internalType": "string",
                    "name": "variety",
                    "type": "string"
                },
                {
                    "indexed": false,
                    "internalType": "uint256",
                    "name": "quantity",
                    "type": "uint256"
                },
                {
                    "indexed": false,
                    "internalType": "uint256",
                    "name": "Price",
                    "type": "uint256"
                },
                {
                    "indexed": false,
                    "internalType": "uint256",
                    "name": "time",
                    "type": "uint256"
                }
            ],
            "name": "transferCompleteFromDistributorToProcessor",
            "type": "event"
        },
        {
            "anonymous": false,
            "inputs": [
                {
                    "indexed": false,
                    "internalType": "address",
                    "name": "Processor",
                    "type": "address"
                },
                {
                    "indexed": false,
                    "internalType": "address",
                    "name": "elevator",
                    "type": "address"
                },
                {
                    "indexed": false,
                    "internalType": "string",
                    "name": "grainType",
                    "type": "string"
                },
                {
                    "indexed": false,
                    "internalType": "string",
                    "name": "variety",
                    "type": "string"
                },
                {
                    "indexed": false,
                    "internalType": "uint256",
                    "name": "quantity",
                    "type": "uint256"
                },
                {
                    "indexed": false,
                    "internalType": "uint256",
                    "name": "Price",
                    "type": "uint256"
                },
                {
                    "indexed": false,
                    "internalType": "uint256",
                    "name": "time",
                    "type": "uint256"
                }
            ],
            "name": "transferCompleteFromProcessorToElevator",
            "type": "event"
        },
        {
            "anonymous": false,
            "inputs": [
                {
                    "indexed": false,
                    "internalType": "address",
                    "name": "farmer",
                    "type": "address"
                },
                {
                    "indexed": false,
                    "internalType": "address",
                    "name": "Seedcompany",
                    "type": "address"
                },
                {
                    "indexed": false,
                    "internalType": "string",
                    "name": "seedType",
                    "type": "string"
                },
                {
                    "indexed": false,
                    "internalType": "string",
                    "name": "variety",
                    "type": "string"
                },
                {
                    "indexed": false,
                    "internalType": "uint256",
                    "name": "quantity",
                    "type": "uint256"
                },
                {
                    "indexed": false,
                    "internalType": "uint256",
                    "name": "Price",
                    "type": "uint256"
                },
                {
                    "indexed": false,
                    "internalType": "uint256",
                    "name": "time",
                    "type": "uint256"
                }
            ],
            "name": "transferCompleteSeed",
            "type": "event"
        },
        {
            "anonymous": false,
            "inputs": [
                {
                    "indexed": false,
                    "internalType": "address",
                    "name": "elevator",
                    "type": "address"
                },
                {
                    "indexed": false,
                    "internalType": "address",
                    "name": "farmer",
                    "type": "address"
                },
                {
                    "indexed": false,
                    "internalType": "string",
                    "name": "grownGrainType",
                    "type": "string"
                },
                {
                    "indexed": false,
                    "internalType": "string",
                    "name": "variety",
                    "type": "string"
                },
                {
                    "indexed": false,
                    "internalType": "uint256",
                    "name": "quantity",
                    "type": "uint256"
                },
                {
                    "indexed": false,
                    "internalType": "uint256",
                    "name": "Price",
                    "type": "uint256"
                },
                {
                    "indexed": false,
                    "internalType": "uint256",
                    "name": "time",
                    "type": "uint256"
                }
            ],
            "name": "transferCompletegrownGrain",
            "type": "event"
        },
        {
            "inputs": [
                {
                    "internalType": "string",
                    "name": "_hash",
                    "type": "string"
                },
                {
                    "internalType": "string",
                    "name": "_distributorName",
                    "type": "string"
                }
            ],
            "name": "addDistributor",
            "outputs": [],
            "stateMutability": "nonpayable",
            "type": "function"
        },
        {
            "inputs": [
                {
                    "internalType": "string",
                    "name": "_hash",
                    "type": "string"
                },
                {
                    "internalType": "string",
                    "name": "_name",
                    "type": "string"
                },
                {
                    "internalType": "uint256",
                    "name": "_storageQuantity",
                    "type": "uint256"
                }
            ],
            "name": "addElevator",
            "outputs": [],
            "stateMutability": "nonpayable",
            "type": "function"
        },
        {
            "inputs": [
                {
                    "internalType": "string",
                    "name": "_hash",
                    "type": "string"
                }
            ],
            "name": "addFarmer",
            "outputs": [],
            "stateMutability": "nonpayable",
            "type": "function"
        },
        {
            "inputs": [
                {
                    "internalType": "string",
                    "name": "_grainType",
                    "type": "string"
                },
                {
                    "internalType": "string",
                    "name": "_variety",
                    "type": "string"
                },
                {
                    "internalType": "uint256",
                    "name": "_quantity",
                    "type": "uint256"
                }
            ],
            "name": "addGrainQuantityFromElevator",
            "outputs": [],
            "stateMutability": "nonpayable",
            "type": "function"
        },
        {
            "inputs": [
                {
                    "internalType": "string",
                    "name": "_processedGrainType",
                    "type": "string"
                },
                {
                    "internalType": "string",
                    "name": "_processedGrainVariety",
                    "type": "string"
                },
                {
                    "internalType": "uint256",
                    "name": "_quantity",
                    "type": "uint256"
                }
            ],
            "name": "addProcessedGrainQuantity",
            "outputs": [],
            "stateMutability": "nonpayable",
            "type": "function"
        },
        {
            "inputs": [
                {
                    "internalType": "string",
                    "name": "_hash",
                    "type": "string"
                },
                {
                    "internalType": "string",
                    "name": "_name",
                    "type": "string"
                }
            ],
            "name": "addProcessor",
            "outputs": [],
            "stateMutability": "nonpayable",
            "type": "function"
        },
        {
            "inputs": [
                {
                    "internalType": "string",
                    "name": "_name",
                    "type": "string"
                },
                {
                    "internalType": "string",
                    "name": "_hash",
                    "type": "string"
                }
            ],
            "name": "addSeedCompany",
            "outputs": [],
            "stateMutability": "nonpayable",
            "type": "function"
        },
        {
            "inputs": [
                {
                    "internalType": "string",
                    "name": "_seedType",
                    "type": "string"
                },
                {
                    "internalType": "string",
                    "name": "_variety",
                    "type": "string"
                },
                {
                    "internalType": "uint256",
                    "name": "_addQuantity",
                    "type": "uint256"
                }
            ],
            "name": "addSeedQuantity",
            "outputs": [],
            "stateMutability": "nonpayable",
            "type": "function"
        },
        {
            "inputs": [
                {
                    "internalType": "address payable",
                    "name": "_elevator",
                    "type": "address"
                },
                {
                    "internalType": "string",
                    "name": "_grainType",
                    "type": "string"
                },
                {
                    "internalType": "string",
                    "name": "_variety",
                    "type": "string"
                },
                {
                    "internalType": "uint256",
                    "name": "_quantity",
                    "type": "uint256"
                }
            ],
            "name": "buyGrainFromElevator",
            "outputs": [],
            "stateMutability": "payable",
            "type": "function"
        },
        {
            "inputs": [
                {
                    "internalType": "address payable",
                    "name": "_farmer",
                    "type": "address"
                },
                {
                    "internalType": "string",
                    "name": "_grainTypeGrown",
                    "type": "string"
                },
                {
                    "internalType": "string",
                    "name": "_variety",
                    "type": "string"
                },
                {
                    "internalType": "uint256",
                    "name": "_quantity",
                    "type": "uint256"
                }
            ],
            "name": "buyGrainFromFarmer",
            "outputs": [],
            "stateMutability": "payable",
            "type": "function"
        },
        {
            "inputs": [
                {
                    "internalType": "address",
                    "name": "_processor",
                    "type": "address"
                },
                {
                    "internalType": "string",
                    "name": "_grainType",
                    "type": "string"
                },
                {
                    "internalType": "string",
                    "name": "_grainVariety",
                    "type": "string"
                },
                {
                    "internalType": "uint256",
                    "name": "_quantity",
                    "type": "uint256"
                }
            ],
            "name": "buyGrainFromProcessor",
            "outputs": [],
            "stateMutability": "payable",
            "type": "function"
        },
        {
            "inputs": [
                {
                    "internalType": "address payable",
                    "name": "_seedCompany",
                    "type": "address"
                },
                {
                    "internalType": "string",
                    "name": "_seedType",
                    "type": "string"
                },
                {
                    "internalType": "string",
                    "name": "_variety",
                    "type": "string"
                },
                {
                    "internalType": "uint256",
                    "name": "_quantity",
                    "type": "uint256"
                }
            ],
            "name": "buySeeds",
            "outputs": [],
            "stateMutability": "payable",
            "type": "function"
        },
        {
            "inputs": [],
            "name": "createContract",
            "outputs": [],
            "stateMutability": "nonpayable",
            "type": "function"
        },
        {
            "inputs": [],
            "name": "getListOfFarmer",
            "outputs": [
                {
                    "components": [
                        {
                            "internalType": "address payable",
                            "name": "farmerAddress",
                            "type": "address"
                        },
                        {
                            "internalType": "string",
                            "name": "hash",
                            "type": "string"
                        }
                    ],
                    "internalType": "struct supplyChainAgriculture.Farmer[]",
                    "name": "",
                    "type": "tuple[]"
                },
                {
                    "internalType": "uint256",
                    "name": "",
                    "type": "uint256"
                }
            ],
            "stateMutability": "view",
            "type": "function"
        },
        {
            "inputs": [],
            "name": "getListOfseedCompany",
            "outputs": [
                {
                    "components": [
                        {
                            "internalType": "address payable",
                            "name": "companyAddress",
                            "type": "address"
                        },
                        {
                            "internalType": "string",
                            "name": "CompanyName",
                            "type": "string"
                        },
                        {
                            "internalType": "string",
                            "name": "hash",
                            "type": "string"
                        }
                    ],
                    "internalType": "struct supplyChainAgriculture.SeedCompany[]",
                    "name": "",
                    "type": "tuple[]"
                },
                {
                    "internalType": "uint256",
                    "name": "",
                    "type": "uint256"
                }
            ],
            "stateMutability": "view",
            "type": "function"
        },
        {
            "inputs": [
                {
                    "internalType": "string",
                    "name": "_grainType",
                    "type": "string"
                },
                {
                    "internalType": "string",
                    "name": "_variety",
                    "type": "string"
                },
                {
                    "internalType": "uint256",
                    "name": "_quantity",
                    "type": "uint256"
                }
            ],
            "name": "removeGrainQuantityFromElevator",
            "outputs": [],
            "stateMutability": "nonpayable",
            "type": "function"
        },
        {
            "inputs": [
                {
                    "internalType": "string",
                    "name": "_processedGrainType",
                    "type": "string"
                },
                {
                    "internalType": "string",
                    "name": "_processedGrainVariety",
                    "type": "string"
                },
                {
                    "internalType": "uint256",
                    "name": "_quantity",
                    "type": "uint256"
                }
            ],
            "name": "removeProcessedGrainQuantity",
            "outputs": [],
            "stateMutability": "nonpayable",
            "type": "function"
        },
        {
            "inputs": [
                {
                    "internalType": "string",
                    "name": "_seedType",
                    "type": "string"
                },
                {
                    "internalType": "string",
                    "name": "_variety",
                    "type": "string"
                },
                {
                    "internalType": "uint256",
                    "name": "_addQuantity",
                    "type": "uint256"
                }
            ],
            "name": "removeSeedQuantity",
            "outputs": [],
            "stateMutability": "nonpayable",
            "type": "function"
        },
        {
            "inputs": [
                {
                    "internalType": "address",
                    "name": "_distributor",
                    "type": "address"
                },
                {
                    "internalType": "string",
                    "name": "_grainType",
                    "type": "string"
                },
                {
                    "internalType": "string",
                    "name": "_variety",
                    "type": "string"
                },
                {
                    "internalType": "uint256",
                    "name": "_quantity",
                    "type": "uint256"
                },
                {
                    "internalType": "uint256",
                    "name": "soldDate",
                    "type": "uint256"
                }
            ],
            "name": "sellGrainToDistributorFromProcessor",
            "outputs": [],
            "stateMutability": "nonpayable",
            "type": "function"
        },
        {
            "inputs": [
                {
                    "internalType": "address",
                    "name": "_elevator",
                    "type": "address"
                },
                {
                    "internalType": "string",
                    "name": "_grainType",
                    "type": "string"
                },
                {
                    "internalType": "string",
                    "name": "_variety",
                    "type": "string"
                },
                {
                    "internalType": "uint256",
                    "name": "_quantity",
                    "type": "uint256"
                },
                {
                    "internalType": "uint256",
                    "name": "_moisture",
                    "type": "uint256"
                },
                {
                    "internalType": "uint256",
                    "name": "_temperature",
                    "type": "uint256"
                },
                {
                    "internalType": "uint256",
                    "name": "_pricePer1q",
                    "type": "uint256"
                },
                {
                    "internalType": "uint256",
                    "name": "_purchaseDate",
                    "type": "uint256"
                }
            ],
            "name": "sellGrainToElevator",
            "outputs": [],
            "stateMutability": "nonpayable",
            "type": "function"
        },
        {
            "inputs": [
                {
                    "internalType": "address",
                    "name": "_processor",
                    "type": "address"
                },
                {
                    "internalType": "string",
                    "name": "_grainType",
                    "type": "string"
                },
                {
                    "internalType": "string",
                    "name": "_grainVariety",
                    "type": "string"
                },
                {
                    "internalType": "uint256",
                    "name": "_quantity",
                    "type": "uint256"
                },
                {
                    "internalType": "uint256",
                    "name": "_pricePer1q",
                    "type": "uint256"
                },
                {
                    "internalType": "uint256",
                    "name": "_purchaseDate",
                    "type": "uint256"
                }
            ],
            "name": "sellGrainToProcessor",
            "outputs": [],
            "stateMutability": "nonpayable",
            "type": "function"
        },
        {
            "inputs": [
                {
                    "internalType": "address",
                    "name": "_farmer",
                    "type": "address"
                },
                {
                    "internalType": "string",
                    "name": "_seedType",
                    "type": "string"
                },
                {
                    "internalType": "string",
                    "name": "_variety",
                    "type": "string"
                },
                {
                    "internalType": "uint256",
                    "name": "_quantity",
                    "type": "uint256"
                }
            ],
            "name": "sellSeeds",
            "outputs": [],
            "stateMutability": "nonpayable",
            "type": "function"
        },
        {
            "inputs": [
                {
                    "internalType": "string",
                    "name": "_seedType",
                    "type": "string"
                },
                {
                    "internalType": "string",
                    "name": "_variety",
                    "type": "string"
                },
                {
                    "internalType": "uint256",
                    "name": "_quantity",
                    "type": "uint256"
                },
                {
                    "internalType": "uint256",
                    "name": "_pricePer1q",
                    "type": "uint256"
                }
            ],
            "name": "updateGrainFarmerQuantity",
            "outputs": [],
            "stateMutability": "nonpayable",
            "type": "function"
        },
        {
            "inputs": [
                {
                    "internalType": "string",
                    "name": "_grainTypeGrown",
                    "type": "string"
                },
                {
                    "internalType": "string",
                    "name": "_variety",
                    "type": "string"
                },
                {
                    "internalType": "uint256",
                    "name": "_pricePer1q",
                    "type": "uint256"
                }
            ],
            "name": "updateGrainPriceByFarmer",
            "outputs": [],
            "stateMutability": "nonpayable",
            "type": "function"
        },
        {
            "inputs": [
                {
                    "internalType": "string",
                    "name": "_grainType",
                    "type": "string"
                },
                {
                    "internalType": "string",
                    "name": "_variety",
                    "type": "string"
                },
                {
                    "internalType": "uint256",
                    "name": "_pricePer1q",
                    "type": "uint256"
                }
            ],
            "name": "updateGrainPriceFromElevator",
            "outputs": [],
            "stateMutability": "nonpayable",
            "type": "function"
        },
        {
            "inputs": [
                {
                    "internalType": "string",
                    "name": "_processedGrainType",
                    "type": "string"
                },
                {
                    "internalType": "string",
                    "name": "_processedGrainVariety",
                    "type": "string"
                },
                {
                    "internalType": "uint256",
                    "name": "_quantity",
                    "type": "uint256"
                },
                {
                    "internalType": "uint256",
                    "name": "_pricePerLot",
                    "type": "uint256"
                },
                {
                    "internalType": "uint256",
                    "name": "_manufactureDate",
                    "type": "uint256"
                },
                {
                    "internalType": "uint256",
                    "name": "_expDate",
                    "type": "uint256"
                }
            ],
            "name": "updateProcessedGrainDetails",
            "outputs": [],
            "stateMutability": "nonpayable",
            "type": "function"
        },
        {
            "inputs": [
                {
                    "internalType": "string",
                    "name": "_processedGrainType",
                    "type": "string"
                },
                {
                    "internalType": "string",
                    "name": "_processedGrainVariety",
                    "type": "string"
                },
                {
                    "internalType": "uint256",
                    "name": "_pricePerLot",
                    "type": "uint256"
                }
            ],
            "name": "updateProcessedGrainPrice",
            "outputs": [],
            "stateMutability": "nonpayable",
            "type": "function"
        },
        {
            "inputs": [
                {
                    "internalType": "string",
                    "name": "_seedType",
                    "type": "string"
                },
                {
                    "internalType": "string",
                    "name": "_variety",
                    "type": "string"
                },
                {
                    "internalType": "uint256",
                    "name": "_quantity",
                    "type": "uint256"
                },
                {
                    "internalType": "uint256",
                    "name": "_pricePer10g",
                    "type": "uint256"
                }
            ],
            "name": "updateSeedDetails",
            "outputs": [],
            "stateMutability": "nonpayable",
            "type": "function"
        },
        {
            "inputs": [
                {
                    "internalType": "string",
                    "name": "_seedType",
                    "type": "string"
                },
                {
                    "internalType": "string",
                    "name": "_variety",
                    "type": "string"
                },
                {
                    "internalType": "uint256",
                    "name": "_pricePer10g",
                    "type": "uint256"
                }
            ],
            "name": "updateSeedPrice",
            "outputs": [],
            "stateMutability": "nonpayable",
            "type": "function"
        },
        {
            "inputs": [
                {
                    "internalType": "uint256",
                    "name": "_storageQuantity",
                    "type": "uint256"
                }
            ],
            "name": "updateStorageQuantity",
            "outputs": [],
            "stateMutability": "nonpayable",
            "type": "function"
        },
        {
            "inputs": [
                {
                    "internalType": "string",
                    "name": "_grainType",
                    "type": "string"
                },
                {
                    "internalType": "string",
                    "name": "_variety",
                    "type": "string"
                },
                {
                    "internalType": "uint256",
                    "name": "_quantity",
                    "type": "uint256"
                },
                {
                    "internalType": "uint256",
                    "name": "_pricePer1q",
                    "type": "uint256"
                }
            ],
            "name": "updategrainDetailsFromElevator",
            "outputs": [],
            "stateMutability": "nonpayable",
            "type": "function"
        }
    ],
    "bytecode": "60806040526000805463ffffffff60a01b19168155600381905560058190556007819055600b81905560138190556017819055601f5534801561004157600080fd5b50600080546001600160a01b03191633179055614bc2806100636000396000f3fe6080604052600436106101d85760003560e01c8063719fae3211610102578063cc746e4511610095578063dc441ba811610064578063dc441ba814610529578063dcdd5bce14610549578063f617ecb91461055c578063f66959ee1461056f57600080fd5b8063cc746e45146104a9578063ccc7cada146104c9578063d49376ca146104e9578063dc2fdb141461050957600080fd5b8063c10e8579116100d1578063c10e857914610429578063c16634b714610449578063c7d5c33214610469578063cb8f510b1461048957600080fd5b8063719fae32146103c35780639375946d146103e3578063b5d765de146103f6578063b9ac42b21461041657600080fd5b80632d7e2e8b1161017a57806359a1d1a31161014957806359a1d1a3146103435780635dc6a005146103635780635eb78b8c1461038357806361f3e6c7146103a357600080fd5b80632d7e2e8b146102ce578063412a5a6d146102ee57806347f15ddf1461030357806353b2d0fd1461032357600080fd5b8063166d9eaa116101b6578063166d9eaa1461024b57806317cf2c151461026b5780631aeb4ec71461028b5780631b5e33ac146102ae57600080fd5b806302ca78f2146101dd57806303f8027a146101ff5780630d95c1291461022b575b600080fd5b3480156101e957600080fd5b506101fd6101f83660046141b8565b61058f565b005b34801561020b57600080fd5b50610214610758565b604051610222929190614292565b60405180910390f35b34801561023757600080fd5b506101fd610246366004614316565b6108d5565b34801561025757600080fd5b506101fd610266366004614383565b610b0c565b34801561027757600080fd5b506101fd610286366004614316565b610bc1565b34801561029757600080fd5b506102a0610ce0565b60405161022292919061439c565b3480156102ba57600080fd5b506101fd6102c9366004614316565b610e76565b3480156102da57600080fd5b506101fd6102e936600461443c565b611072565b3480156102fa57600080fd5b506101fd611159565b34801561030f57600080fd5b506101fd61031e366004614479565b6111fd565b34801561032f57600080fd5b506101fd61033e36600461450b565b6114b7565b34801561034f57600080fd5b506101fd61035e366004614316565b6117b1565b34801561036f57600080fd5b506101fd61037e366004614316565b6119a5565b34801561038f57600080fd5b506101fd61039e366004614316565b611bd0565b3480156103af57600080fd5b506101fd6103be36600461457f565b611dcc565b3480156103cf57600080fd5b506101fd6103de36600461450b565b611e62565b6101fd6103f13660046141b8565b611f4f565b34801561040257600080fd5b506101fd610411366004614316565b6122d7565b6101fd6104243660046141b8565b612521565b34801561043557600080fd5b506101fd610444366004614607565b6128d0565b34801561045557600080fd5b506101fd61046436600461450b565b612bae565b34801561047557600080fd5b506101fd6104843660046146ab565b612cf1565b34801561049557600080fd5b506101fd6104a4366004614316565b612dfe565b3480156104b557600080fd5b506101fd6104c4366004614316565b612ffa565b3480156104d557600080fd5b506101fd6104e436600461470f565b61321d565b3480156104f557600080fd5b506101fd6105043660046146ab565b61335d565b34801561051557600080fd5b506101fd6105243660046146ab565b613461565b34801561053557600080fd5b506101fd610544366004614316565b613564565b6101fd6105573660046141b8565b613760565b6101fd61056a3660046141b8565b613ae8565b34801561057b57600080fd5b506101fd61058a366004614316565b613e70565b336000818152600f602052604090205460ff166105c75760405162461bcd60e51b81526004016105be90614796565b60405180910390fd5b336000908152600f602052604090205460ff166106265760405162461bcd60e51b815260206004820152601a60248201527f5365656420436f6d70616e7920446f65736e277420457869737400000000000060448201526064016105be565b600054600160a01b900460ff1615156001036106f1576040805180820182523381526001600160a01b0387811660208084019182526003805460009081526002909252948120935184549084166001600160a01b03199182161785559151600190940180549490931693909116929092179055815491906106a6836147e3565b91905055507f0abb2b17e070b031d143b94e96bb7894984f9776f01493cbcc2f4191d803a1b68533868686426040516106e4969594939291906147fc565b60405180910390a1610751565b60405162461bcd60e51b815260206004820152602f60248201527f4661726d657220646f65736e2774206578697374206f72206865206469646e2760448201526e7420706179207468652062696c6c7360881b60648201526084016105be565b5050505050565b60008054606091906001600160a01b031633146107c85760405162461bcd60e51b815260206004820152602860248201527f536f7272792c205468697320696e666f726d6174696f6e20697320636f6e66696044820152673232b73a34b0b61760c11b60648201526084016105be565b6008600b5481805480602002602001604051908101604052809291908181526020016000905b828210156108c7576000848152602090819020604080518082019091526002850290910180546001600160a01b03168252600181018054929391929184019161083690614850565b80601f016020809104026020016040519081016040528092919081815260200182805461086290614850565b80156108af5780601f10610884576101008083540402835291602001916108af565b820191906000526020600020905b81548152906001019060200180831161089257829003601f168201915b505050505081525050815260200190600101906107ee565b505050509150915091509091565b336000818152601d602052604090205460ff166109045760405162461bcd60e51b81526004016105be9061488a565b336000908152601d602052604090205460ff166109335760405162461bcd60e51b81526004016105be9061488a565b6000805b602354811015610ad457336001600160a01b03166023828154811061095e5761095e6148c1565b6000918252602090912001546001600160a01b031603610ac2578560405160200161098991906148d7565b6040516020818303038152906040528051906020012060226000602384815481106109b6576109b66148c1565b60009182526020808320909101546001600160a01b03168352828101939093526040918201902090516109e992016148f3565b6040516020818303038152906040528051906020012003610ac25784604051602001610a1591906148d7565b604051602081830303815290604052805190602001206022600060238481548110610a4257610a426148c1565b60009182526020808320909101546001600160a01b0316835282810193909352604091820190209051610a7c9260019290920191016148f3565b6040516020818303038152906040528051906020012003610ac25760238181548110610aaa57610aaa6148c1565b6000918252602090912001546001600160a01b031691505b80610acc816147e3565b915050610937565b506001600160a01b03811660009081526022602052604081206002018054859290610b0090849061498e565b90915550505050505050565b3360008181526015602052604090205460ff16610b3b5760405162461bcd60e51b81526004016105be906149a5565b6000805b601454811015610b925760148181548110610b5c57610b5c6148c1565b60009182526020909120600490910201546001600160a01b03163303610b80578091505b80610b8a816147e3565b915050610b3f565b508260148281548110610ba757610ba76148c1565b906000526020600020906004020160030181905550505050565b604080516080810182523381526020808201858152928201869052606082018490526014805460018101825560009190915282517fce6d7b5282bd9a3661ae061feed1dbda4e52ab073b1f9285be6e155d9c38d4ec600490920291820180546001600160a01b0319166001600160a01b0390921691909117815593518051939493610c75937fce6d7b5282bd9a3661ae061feed1dbda4e52ab073b1f9285be6e155d9c38d4ed909301929190910190614064565b5060408201518051610c91916002840191602090910190614064565b5060609190910151600390910155336000908152601560209081526040808320805460ff191660011790556017805460169093529083208290559091610cd6836147e3565b9190505550505050565b60606000600e60135481805480602002602001604051908101604052809291908181526020016000905b828210156108c757600084815260209081902060408051606081019091526003850290910180546001600160a01b031682526001810180549293919291840191610d5390614850565b80601f0160208091040260200160405190810160405280929190818152602001828054610d7f90614850565b8015610dcc5780601f10610da157610100808354040283529160200191610dcc565b820191906000526020600020905b815481529060010190602001808311610daf57829003601f168201915b50505050508152602001600282018054610de590614850565b80601f0160208091040260200160405190810160405280929190818152602001828054610e1190614850565b8015610e5e5780601f10610e3357610100808354040283529160200191610e5e565b820191906000526020600020905b815481529060010190602001808311610e4157829003601f168201915b50505050508152505081526020019060010190610d0a565b3360008181526015602052604090205460ff16610ea55760405162461bcd60e51b81526004016105be906149a5565b6000805b601b5481101561104657336001600160a01b0316601b8281548110610ed057610ed06148c1565b6000918252602090912001546001600160a01b0316036110345785604051602001610efb91906148d7565b60405160208183030381529060405280519060200120601a6000601b8481548110610f2857610f286148c1565b60009182526020808320909101546001600160a01b0316835282810193909352604091820190209051610f5b92016148f3565b60405160208183030381529060405280519060200120036110345784604051602001610f8791906148d7565b60405160208183030381529060405280519060200120601a6000601b8481548110610fb457610fb46148c1565b60009182526020808320909101546001600160a01b0316835282810193909352604091820190209051610fee9260019290920191016148f3565b604051602081830303815290604052805190602001200361103457601b818154811061101c5761101c6148c1565b6000918252602090912001546001600160a01b031691505b8061103e816147e3565b915050610ea9565b506001600160a01b0381166000908152601a602052604081206002018054859290610b0090849061498e565b60408051808201909152338152602080820183815260088054600181018255600091909152835160029091027ff3f7a9fe364faab93b216da50a3214154f22a0a2b415b23a84c8169e8b636ee3810180546001600160a01b03939093166001600160a01b0319909316929092178255915180519193611116937ff3f7a9fe364faab93b216da50a3214154f22a0a2b415b23a84c8169e8b636ee40192910190614064565b5050336000908152600960209081526040808320805460ff19166001179055600b8054600a90935290832082905590925090611151836147e3565b919050555050565b3360008181526009602052604090205460ff166111885760405162461bcd60e51b81526004016105be906149d5565b3360009081526009602052604090205460ff166111e05760405162461bcd60e51b81526020600482015260166024820152754661726d657220646f65736e2774206578736973742160501b60448201526064016105be565b50336000908152600160205260409020805460ff19166002179055565b3360008181526015602052604090205460ff1661122c5760405162461bcd60e51b81526004016105be906149a5565b3360009081526015602052604090205460ff166112845760405162461bcd60e51b8152602060048201526016602482015275195b195d985d1bdc88191bd95cdb89dd08195e1a5cdd60521b60448201526064016105be565b6001600160a01b0387166000908152601d602052604090205460ff166112bc5760405162461bcd60e51b81526004016105be9061488a565b600054600160b01b900460ff16151560010361144b576040805160a081018252878152602080820188905281830187905260608201869052608082018590526001600160a01b038a1660009081528180529290922081518051929391926113269284920190614064565b50602082810151805161133f9260018501920190614064565b506040828101516002830155606083015160038301556080909201516004909101556021805460018082019092557f3a6357012c1a3ae0a17d304c9920310382d968ebcc4b1771f41c6b304205b5700180546001600160a01b03199081166001600160a01b038c811691821790935584518086018652338152602080820192835260078054600090815260069092529681209151825485169086161782559151940180549092169390921692909217909155815491906113fe836147e3565b91905055507f1a7fbb4c0e73e5682e67378b1f56e4ce2b0b08405c53e3fb728f130d7a09b0d13388888888888860405161143e9796959493929190614a04565b60405180910390a16114ae565b60405162461bcd60e51b815260206004820152603260248201527f50726f636573736f7220646f65736e2774206578697374206f72206865206469604482015271646e277420706179207468652062696c6c7360701b60648201526084016105be565b50505050505050565b3360008181526015602052604090205460ff166114e65760405162461bcd60e51b81526004016105be906149a5565b3360009081526015602052604090205460ff166115155760405162461bcd60e51b81526004016105be906149a5565b6000805b601b548110156116b657336001600160a01b0316601b8281548110611540576115406148c1565b6000918252602090912001546001600160a01b0316036116a4578660405160200161156b91906148d7565b60405160208183030381529060405280519060200120601a6000601b8481548110611598576115986148c1565b60009182526020808320909101546001600160a01b03168352828101939093526040918201902090516115cb92016148f3565b60405160208183030381529060405280519060200120036116a457856040516020016115f791906148d7565b60405160208183030381529060405280519060200120601a6000601b8481548110611624576116246148c1565b60009182526020808320909101546001600160a01b031683528281019390935260409182019020905161165e9260019290920191016148f3565b60405160208183030381529060405280519060200120036116a457601b818154811061168c5761168c6148c1565b6000918252602090912001546001600160a01b031691505b806116ae816147e3565b915050611519565b506001600160a01b0381166117815760408051608081018252878152602080820188905281830187905260608201869052336000908152601a825292909220815180519293919261170a9284920190614064565b5060208281015180516117239260018501920190614064565b5060408201516002820155606090910151600390910155601b80546001810182556000919091527f3ad8aa4f87544323a9d1e5dd902f40c356527a7955687113db5f9a85ad579dc10180546001600160a01b031916331790556117a9565b336000908152601a6020526040812060020180548692906117a3908490614a62565b90915550505b505050505050565b336000818152600f602052604090205460ff166117e05760405162461bcd60e51b81526004016105be90614796565b6000805b60125481101561198157336001600160a01b03166012828154811061180b5761180b6148c1565b6000918252602090912001546001600160a01b03160361196f578560405160200161183691906148d7565b604051602081830303815290604052805190602001206011600060128481548110611863576118636148c1565b60009182526020808320909101546001600160a01b031683528281019390935260409182019020905161189692016148f3565b604051602081830303815290604052805190602001200361196f57846040516020016118c291906148d7565b6040516020818303038152906040528051906020012060116000601284815481106118ef576118ef6148c1565b60009182526020808320909101546001600160a01b03168352828101939093526040918201902090516119299260019290920191016148f3565b604051602081830303815290604052805190602001200361196f5760128181548110611957576119576148c1565b6000918252602090912001546001600160a01b031691505b80611979816147e3565b9150506117e4565b506001600160a01b0316600090815260116020526040902060030191909155505050565b336000818152601d602052604090205460ff166119d45760405162461bcd60e51b81526004016105be9061488a565b336000908152601d602052604090205460ff16611a035760405162461bcd60e51b81526004016105be9061488a565b6000805b602354811015611ba457336001600160a01b031660238281548110611a2e57611a2e6148c1565b6000918252602090912001546001600160a01b031603611b925785604051602001611a5991906148d7565b604051602081830303815290604052805190602001206022600060238481548110611a8657611a866148c1565b60009182526020808320909101546001600160a01b0316835282810193909352604091820190209051611ab992016148f3565b6040516020818303038152906040528051906020012003611b925784604051602001611ae591906148d7565b604051602081830303815290604052805190602001206022600060238481548110611b1257611b126148c1565b60009182526020808320909101546001600160a01b0316835282810193909352604091820190209051611b4c9260019290920191016148f3565b6040516020818303038152906040528051906020012003611b925760238181548110611b7a57611b7a6148c1565b6000918252602090912001546001600160a01b031691505b80611b9c816147e3565b915050611a07565b506001600160a01b03811660009081526022602052604081206002018054859290610b00908490614a62565b336000818152600f602052604090205460ff16611bff5760405162461bcd60e51b81526004016105be90614796565b6000805b601254811015611da057336001600160a01b031660128281548110611c2a57611c2a6148c1565b6000918252602090912001546001600160a01b031603611d8e5785604051602001611c5591906148d7565b604051602081830303815290604052805190602001206011600060128481548110611c8257611c826148c1565b60009182526020808320909101546001600160a01b0316835282810193909352604091820190209051611cb592016148f3565b6040516020818303038152906040528051906020012003611d8e5784604051602001611ce191906148d7565b604051602081830303815290604052805190602001206011600060128481548110611d0e57611d0e6148c1565b60009182526020808320909101546001600160a01b0316835282810193909352604091820190209051611d489260019290920191016148f3565b6040516020818303038152906040528051906020012003611d8e5760128181548110611d7657611d766148c1565b6000918252602090912001546001600160a01b031691505b80611d98816147e3565b915050611c03565b506001600160a01b03811660009081526011602052604081206002018054859290610b00908490614a62565b336000818152601d602052604090205460ff16611dfb5760405162461bcd60e51b81526004016105be9061488a565b336000908152601d602052604090205460ff16611e2a5760405162461bcd60e51b81526004016105be9061488a565b6001600160a01b03861660009081526027602052604090205460ff166117a95760405162461bcd60e51b81526004016105be90614a7a565b336000818152600f602052604090205460ff16611e915760405162461bcd60e51b81526004016105be90614796565b6040805160808101825286815260208082018790528183018690526060820185905233600090815260118252929092208151805192939192611ed69284920190614064565b506020828101518051611eef9260018501920190614064565b50604082015160028201556060909101516003909101555050601280546001810182556000919091527fbb8a6a4669ba250d26cd7a459eca9d215f8307e33aebe50379bc5a3617ec34440180546001600160a01b03191633179055505050565b336000818152601d602052604090205460ff16611f7e5760405162461bcd60e51b81526004016105be9061488a565b336000908152601d602052604090205460ff16611fad5760405162461bcd60e51b81526004016105be906149a5565b6000805b601b5481101561214e57866001600160a01b0316601b8281548110611fd857611fd86148c1565b6000918252602090912001546001600160a01b03160361213c578560405160200161200391906148d7565b60405160208183030381529060405280519060200120601a6000601b8481548110612030576120306148c1565b60009182526020808320909101546001600160a01b031683528281019390935260409182019020905161206392016148f3565b604051602081830303815290604052805190602001200361213c578460405160200161208f91906148d7565b60405160208183030381529060405280519060200120601a6000601b84815481106120bc576120bc6148c1565b60009182526020808320909101546001600160a01b03168352828101939093526040918201902090516120f69260019290920191016148f3565b604051602081830303815290604052805190602001200361213c57601b8181548110612124576121246148c1565b6000918252602090912001546001600160a01b031691505b80612146816147e3565b915050611fb1565b506001600160a01b0381166000908152601a602052604090206002015483111561218a5760405162461bcd60e51b81526004016105be90614ab1565b6001600160a01b0381166000908152601a602052604090206002015483116117a957600034116121cc5760405162461bcd60e51b81526004016105be90614afc565b6001600160a01b0381166000908152601a60205260409020600301546121f29084614b28565b34146122105760405162461bcd60e51b81526004016105be90614b47565b60405186906001600160a01b038216903480156108fc02916000818181858888f19350505050158015612247573d6000803e3d6000fd5b507fb72b373712565083b236fdc23e6f7ba444a9665b3d1da4d9b2408d64c53e122d338888888834426040516122839796959493929190614a04565b60405180910390a16001600160a01b0382166000908152601a6020526040812060020180548692906122b690849061498e565b90915550506000805460ff60b01b1916600160b01b17905550505050505050565b3360008181526009602052604090205460ff166123065760405162461bcd60e51b81526004016105be906149d5565b3360009081526009602052604090205460ff1661235c5760405162461bcd60e51b815260206004820152601460248201527311985c9b595c88191bd95cdb89dd08195e1a5cdd60621b60448201526064016105be565b6000805b600d548110156124fd57336001600160a01b0316600d8281548110612387576123876148c1565b6000918252602090912001546001600160a01b0316036124eb57856040516020016123b291906148d7565b60405160208183030381529060405280519060200120600c6000600d84815481106123df576123df6148c1565b60009182526020808320909101546001600160a01b031683528281019390935260409182019020905161241292016148f3565b60405160208183030381529060405280519060200120036124eb578460405160200161243e91906148d7565b60405160208183030381529060405280519060200120600c6000600d848154811061246b5761246b6148c1565b60009182526020808320909101546001600160a01b03168352828101939093526040918201902090516124a59260019290920191016148f3565b60405160208183030381529060405280519060200120036124eb57600d81815481106124d3576124d36148c1565b6000918252602090912001546001600160a01b031691505b806124f5816147e3565b915050612360565b506001600160a01b03166000908152600c6020526040902060030191909155505050565b3360008181526009602052604090205460ff166125505760405162461bcd60e51b81526004016105be906149d5565b3360009081526009602052604090205460ff166125a65760405162461bcd60e51b815260206004820152601460248201527311985c9b595c88191bd95cdb89dd08115e1a5cdd60621b60448201526064016105be565b6000805b60125481101561274757866001600160a01b0316601282815481106125d1576125d16148c1565b6000918252602090912001546001600160a01b03160361273557856040516020016125fc91906148d7565b604051602081830303815290604052805190602001206011600060128481548110612629576126296148c1565b60009182526020808320909101546001600160a01b031683528281019390935260409182019020905161265c92016148f3565b6040516020818303038152906040528051906020012003612735578460405160200161268891906148d7565b6040516020818303038152906040528051906020012060116000601284815481106126b5576126b56148c1565b60009182526020808320909101546001600160a01b03168352828101939093526040918201902090516126ef9260019290920191016148f3565b6040516020818303038152906040528051906020012003612735576012818154811061271d5761271d6148c1565b6000918252602090912001546001600160a01b031691505b8061273f816147e3565b9150506125aa565b506001600160a01b0381166000908152601160205260409020600201548311156127835760405162461bcd60e51b81526004016105be90614ab1565b6001600160a01b03811660009081526011602052604090206002015483116117a957600034116127c55760405162461bcd60e51b81526004016105be90614afc565b6001600160a01b0381166000908152601160205260409020600301546127eb9084614b28565b34146128095760405162461bcd60e51b81526004016105be90614b47565b60405186906001600160a01b038216903480156108fc02916000818181858888f19350505050158015612840573d6000803e3d6000fd5b507f763a09a3907aa5142f5d1531400d72f0d62b4bb2d7af6cd649ebeff279b244273388888888344260405161287c9796959493929190614a04565b60405180910390a16001600160a01b038216600090815260116020526040812060020180548692906128af90849061498e565b90915550506000805460ff60a01b1916600160a01b17905550505050505050565b3360008181526009602052604090205460ff166128ff5760405162461bcd60e51b81526004016105be906149d5565b6001600160a01b03891660009081526015602052604090205460ff166129375760405162461bcd60e51b81526004016105be906149a5565b600054600160a81b900460ff161515600103612b41576040805160e08101825289815260208082018a9052818301899052606082018890526080820187905260a0820186905260c082018590526001600160a01b038c166000908152601882529290922081518051929391926129b09284920190614064565b5060208281015180516129c99260018501920190614064565b5060408201518160020155606082015181600301556080820151816004015560a0820151816005015560c082015181600601559050506019899080600181540180825580915050600190039060005260206000200160009091909190916101000a8154816001600160a01b0302191690836001600160a01b031602179055506040518060400160405280336001600160a01b031681526020018a6001600160a01b031681525060046000600554815260200190815260200160002060008201518160000160006101000a8154816001600160a01b0302191690836001600160a01b0316021790555060208201518160010160006101000a8154816001600160a01b0302191690836001600160a01b0316021790555090505060056000815480929190612af4906147e3565b91905055507f82838b23da12c1aa4f25e2e7cba2e96cc80b9047022d1596608ff789d465f4ee338a8a8a8a8888604051612b349796959493929190614a04565b60405180910390a1612ba3565b60405162461bcd60e51b815260206004820152603160248201527f656c657661746f7220646f65736e2774206578697374206f72206865206469646044820152706e277420706179207468652062696c6c7360781b60648201526084016105be565b505050505050505050565b3360008181526009602052604090205460ff16612bdd5760405162461bcd60e51b81526004016105be906149d5565b3360009081526009602052604090205460ff16612c335760405162461bcd60e51b815260206004820152601460248201527311985c9b595c88191bd95cdb89dd08195e1a5cdd60621b60448201526064016105be565b60408051608081018252868152602080820187905281830186905260608201859052336000908152600c8252929092208151805192939192612c789284920190614064565b506020828101518051612c919260018501920190614064565b50604082015160028201556060909101516003909101555050600d80546001810182556000919091527fd7b6990105719101dabeb77144f2a3385c8033acd3af97e9423a695e81ad1eb50180546001600160a01b03191633179055505050565b604080516060810182523381526020808201848152928201859052601c805460018101825560009190915282517f0e4562a10381dec21b205ed72637e6b1b523bdd0e4d4d50af5cd23dd4500a211600390920291820180546001600160a01b0319166001600160a01b0390921691909117815593518051939493612d9e937f0e4562a10381dec21b205ed72637e6b1b523bdd0e4d4d50af5cd23dd4500a212909301929190910190614064565b5060408201518051612dba916002840191602090910190614064565b5050336000908152601d60209081526040808320805460ff19166001179055601f8054601e90935290832082905590925090612df5836147e3565b91905055505050565b3360008181526015602052604090205460ff16612e2d5760405162461bcd60e51b81526004016105be906149a5565b6000805b601b54811015612fce57336001600160a01b0316601b8281548110612e5857612e586148c1565b6000918252602090912001546001600160a01b031603612fbc5785604051602001612e8391906148d7565b60405160208183030381529060405280519060200120601a6000601b8481548110612eb057612eb06148c1565b60009182526020808320909101546001600160a01b0316835282810193909352604091820190209051612ee392016148f3565b6040516020818303038152906040528051906020012003612fbc5784604051602001612f0f91906148d7565b60405160208183030381529060405280519060200120601a6000601b8481548110612f3c57612f3c6148c1565b60009182526020808320909101546001600160a01b0316835282810193909352604091820190209051612f769260019290920191016148f3565b6040516020818303038152906040528051906020012003612fbc57601b8181548110612fa457612fa46148c1565b6000918252602090912001546001600160a01b031691505b80612fc6816147e3565b915050612e31565b506001600160a01b0381166000908152601a602052604081206002018054859290610b00908490614a62565b336000818152601d602052604090205460ff166130295760405162461bcd60e51b81526004016105be9061488a565b336000908152601d602052604090205460ff166130585760405162461bcd60e51b81526004016105be9061488a565b6000805b6023548110156131f957336001600160a01b031660238281548110613083576130836148c1565b6000918252602090912001546001600160a01b0316036131e757856040516020016130ae91906148d7565b6040516020818303038152906040528051906020012060226000602384815481106130db576130db6148c1565b60009182526020808320909101546001600160a01b031683528281019390935260409182019020905161310e92016148f3565b60405160208183030381529060405280519060200120036131e7578460405160200161313a91906148d7565b604051602081830303815290604052805190602001206022600060238481548110613167576131676148c1565b60009182526020808320909101546001600160a01b03168352828101939093526040918201902090516131a19260019290920191016148f3565b60405160208183030381529060405280519060200120036131e757602381815481106131cf576131cf6148c1565b6000918252602090912001546001600160a01b031691505b806131f1816147e3565b91505061305c565b506001600160a01b0316600090815260226020526040902060030191909155505050565b336000818152601d602052604090205460ff1661324c5760405162461bcd60e51b81526004016105be9061488a565b336000908152601d602052604090205460ff1661327b5760405162461bcd60e51b81526004016105be9061488a565b6040805160c0810182528881526020808201899052818301889052606082018790526080820186905260a08201859052336000908152602282529290922081518051929391926132ce9284920190614064565b5060208281015180516132e79260018501920190614064565b5060408201516002820155606082015160038201556080820151600482015560a0909101516005909101555050602380546001810182556000919091527fd57b2b5166478fd4318d2acc6cc2c704584312bdd8781b32d5d06abda57f42300180546001600160a01b031916331790555050505050565b604080516060810182523381526020808201858152928201849052600e805460018101825560009190915282517fbb7b4a454dc3493923482f07822329ed19e8244eff582cc204f8554c3620c3fd600390920291820180546001600160a01b0319166001600160a01b039092169190911781559351805193949361340a937fbb7b4a454dc3493923482f07822329ed19e8244eff582cc204f8554c3620c3fe909301929190910190614064565b5060408201518051613426916002840191602090910190614064565b5050336000908152600f60209081526040808320805460ff1916600117905560138054601090935290832082905590925090612df5836147e3565b6040805160608101825233815260208082018481529282018590526026805460018101825560009190915282517f744a2cf8fd7008e3d53b67916e73460df9fa5214e3ef23dd4259ca09493a3594600390920291820180546001600160a01b0319166001600160a01b039092169190911781559351805193949361350e937f744a2cf8fd7008e3d53b67916e73460df9fa5214e3ef23dd4259ca09493a3595909301929190910190614064565b506040820151805161352a916002840191602090910190614064565b5050336000908152602760209081526040808320805460ff19166001179055601f54602890925282205560298054925090612df5836147e3565b336000818152600f602052604090205460ff166135935760405162461bcd60e51b81526004016105be90614796565b6000805b60125481101561373457336001600160a01b0316601282815481106135be576135be6148c1565b6000918252602090912001546001600160a01b03160361372257856040516020016135e991906148d7565b604051602081830303815290604052805190602001206011600060128481548110613616576136166148c1565b60009182526020808320909101546001600160a01b031683528281019390935260409182019020905161364992016148f3565b6040516020818303038152906040528051906020012003613722578460405160200161367591906148d7565b6040516020818303038152906040528051906020012060116000601284815481106136a2576136a26148c1565b60009182526020808320909101546001600160a01b03168352828101939093526040918201902090516136dc9260019290920191016148f3565b6040516020818303038152906040528051906020012003613722576012818154811061370a5761370a6148c1565b6000918252602090912001546001600160a01b031691505b8061372c816147e3565b915050613597565b506001600160a01b03811660009081526011602052604081206002018054859290610b0090849061498e565b3360008181526015602052604090205460ff1661378f5760405162461bcd60e51b81526004016105be906149a5565b3360009081526015602052604090205460ff166137be5760405162461bcd60e51b81526004016105be906149a5565b6000805b600d5481101561395f57866001600160a01b0316600d82815481106137e9576137e96148c1565b6000918252602090912001546001600160a01b03160361394d578560405160200161381491906148d7565b60405160208183030381529060405280519060200120600c6000600d8481548110613841576138416148c1565b60009182526020808320909101546001600160a01b031683528281019390935260409182019020905161387492016148f3565b604051602081830303815290604052805190602001200361394d57846040516020016138a091906148d7565b60405160208183030381529060405280519060200120600c6000600d84815481106138cd576138cd6148c1565b60009182526020808320909101546001600160a01b03168352828101939093526040918201902090516139079260019290920191016148f3565b604051602081830303815290604052805190602001200361394d57600d8181548110613935576139356148c1565b6000918252602090912001546001600160a01b031691505b80613957816147e3565b9150506137c2565b506001600160a01b0381166000908152600c602052604090206002015483111561399b5760405162461bcd60e51b81526004016105be90614ab1565b6001600160a01b0381166000908152600c602052604090206002015483116117a957600034116139dd5760405162461bcd60e51b81526004016105be90614afc565b6001600160a01b0381166000908152600c6020526040902060030154613a039084614b28565b3414613a215760405162461bcd60e51b81526004016105be90614b47565b60405186906001600160a01b038216903480156108fc02916000818181858888f19350505050158015613a58573d6000803e3d6000fd5b507f6bf88a54d8df9cdac5ae0ecd59d55dd04ef597b60c83331cc9e3943775f9c19f33888888883442604051613a949796959493929190614a04565b60405180910390a16001600160a01b0382166000908152600c602052604081206002018054869290613ac790849061498e565b90915550506000805460ff60a81b1916600160a81b17905550505050505050565b3360008181526027602052604090205460ff16613b175760405162461bcd60e51b81526004016105be90614a7a565b3360009081526027602052604090205460ff16613b465760405162461bcd60e51b81526004016105be90614a7a565b6000805b602354811015613ce757336001600160a01b031660238281548110613b7157613b716148c1565b6000918252602090912001546001600160a01b031603613cd55785604051602001613b9c91906148d7565b604051602081830303815290604052805190602001206022600060238481548110613bc957613bc96148c1565b60009182526020808320909101546001600160a01b0316835282810193909352604091820190209051613bfc92016148f3565b6040516020818303038152906040528051906020012003613cd55784604051602001613c2891906148d7565b604051602081830303815290604052805190602001206022600060238481548110613c5557613c556148c1565b60009182526020808320909101546001600160a01b0316835282810193909352604091820190209051613c8f9260019290920191016148f3565b6040516020818303038152906040528051906020012003613cd55760238181548110613cbd57613cbd6148c1565b6000918252602090912001546001600160a01b031691505b80613cdf816147e3565b915050613b4a565b506001600160a01b038116600090815260226020526040902060020154831115613d235760405162461bcd60e51b81526004016105be90614ab1565b6001600160a01b03811660009081526022602052604090206002015483116117a95760003411613d655760405162461bcd60e51b81526004016105be90614afc565b6001600160a01b038116600090815260226020526040902060030154613d8b9084614b28565b3414613da95760405162461bcd60e51b81526004016105be90614b47565b60405186906001600160a01b038216903480156108fc02916000818181858888f19350505050158015613de0573d6000803e3d6000fd5b507fa0b005cf2484a60b0ffe244d2c1f2b027247d0131f91bcc01e1717db97be313233888888883442604051613e1c9796959493929190614a04565b60405180910390a16001600160a01b03821660009081526022602052604081206002018054869290613e4f90849061498e565b90915550506000805460ff60b81b1916600160b81b17905550505050505050565b3360008181526015602052604090205460ff16613e9f5760405162461bcd60e51b81526004016105be906149a5565b6000805b601b5481101561404057336001600160a01b0316601b8281548110613eca57613eca6148c1565b6000918252602090912001546001600160a01b03160361402e5785604051602001613ef591906148d7565b60405160208183030381529060405280519060200120601a6000601b8481548110613f2257613f226148c1565b60009182526020808320909101546001600160a01b0316835282810193909352604091820190209051613f5592016148f3565b604051602081830303815290604052805190602001200361402e5784604051602001613f8191906148d7565b60405160208183030381529060405280519060200120601a6000601b8481548110613fae57613fae6148c1565b60009182526020808320909101546001600160a01b0316835282810193909352604091820190209051613fe89260019290920191016148f3565b604051602081830303815290604052805190602001200361402e57601b8181548110614016576140166148c1565b6000918252602090912001546001600160a01b031691505b80614038816147e3565b915050613ea3565b506001600160a01b03166000908152601a6020526040902060030191909155505050565b82805461407090614850565b90600052602060002090601f01602090048101928261409257600085556140d8565b82601f106140ab57805160ff19168380011785556140d8565b828001600101855582156140d8579182015b828111156140d85782518255916020019190600101906140bd565b506140e49291506140e8565b5090565b5b808211156140e457600081556001016140e9565b6001600160a01b038116811461411257600080fd5b50565b634e487b7160e01b600052604160045260246000fd5b600082601f83011261413c57600080fd5b813567ffffffffffffffff8082111561415757614157614115565b604051601f8301601f19908116603f0116810190828211818310171561417f5761417f614115565b8160405283815286602085880101111561419857600080fd5b836020870160208301376000602085830101528094505050505092915050565b600080600080608085870312156141ce57600080fd5b84356141d9816140fd565b9350602085013567ffffffffffffffff808211156141f657600080fd5b6142028883890161412b565b9450604087013591508082111561421857600080fd5b506142258782880161412b565b949793965093946060013593505050565b60005b83811015614251578181015183820152602001614239565b83811115614260576000848401525b50505050565b6000815180845261427e816020860160208601614236565b601f01601f19169290920160200192915050565b6000604080830181845280865180835260608601915060608160051b8701019250602080890160005b8381101561430357888603605f19018552815180516001600160a01b031687528301518387018890526142f088880182614266565b96505093820193908201906001016142bb565b5050959095019590955295945050505050565b60008060006060848603121561432b57600080fd5b833567ffffffffffffffff8082111561434357600080fd5b61434f8783880161412b565b9450602086013591508082111561436557600080fd5b506143728682870161412b565b925050604084013590509250925092565b60006020828403121561439557600080fd5b5035919050565b60006040808301818452808651808352606092508286019150828160051b8701016020808a0160005b8481101561442757898403605f19018652815180516001600160a01b03168552838101518486018990526143fb89870182614266565b918a0151868303878c01529190506144138183614266565b9785019795505050908201906001016143c5565b50509690960196909652509295945050505050565b60006020828403121561444e57600080fd5b813567ffffffffffffffff81111561446557600080fd5b6144718482850161412b565b949350505050565b60008060008060008060c0878903121561449257600080fd5b863561449d816140fd565b9550602087013567ffffffffffffffff808211156144ba57600080fd5b6144c68a838b0161412b565b965060408901359150808211156144dc57600080fd5b506144e989828a0161412b565b945050606087013592506080870135915060a087013590509295509295509295565b6000806000806080858703121561452157600080fd5b843567ffffffffffffffff8082111561453957600080fd5b6145458883890161412b565b9550602087013591508082111561455b57600080fd5b506145688782880161412b565b949794965050505060408301359260600135919050565b600080600080600060a0868803121561459757600080fd5b85356145a2816140fd565b9450602086013567ffffffffffffffff808211156145bf57600080fd5b6145cb89838a0161412b565b955060408801359150808211156145e157600080fd5b506145ee8882890161412b565b9598949750949560608101359550608001359392505050565b600080600080600080600080610100898b03121561462457600080fd5b883561462f816140fd565b9750602089013567ffffffffffffffff8082111561464c57600080fd5b6146588c838d0161412b565b985060408b013591508082111561466e57600080fd5b5061467b8b828c0161412b565b989b979a5097986060810135985060808101359760a0820135975060c0820135965060e090910135945092505050565b600080604083850312156146be57600080fd5b823567ffffffffffffffff808211156146d657600080fd5b6146e28683870161412b565b935060208501359150808211156146f857600080fd5b506147058582860161412b565b9150509250929050565b60008060008060008060c0878903121561472857600080fd5b863567ffffffffffffffff8082111561474057600080fd5b61474c8a838b0161412b565b9750602089013591508082111561476257600080fd5b5061476f89828a0161412b565b96999698505050506040850135946060810135946080820135945060a09091013592509050565b6020808252601b908201527f5365656420636f6d70616e7920646f65736e2774206578697374210000000000604082015260600190565b634e487b7160e01b600052601160045260246000fd5b6000600182016147f5576147f56147cd565b5060010190565b6001600160a01b0387811682528616602082015260c06040820181905260009061482890830187614266565b828103606084015261483a8187614266565b6080840195909552505060a00152949350505050565b600181811c9082168061486457607f821691505b60208210810361488457634e487b7160e01b600052602260045260246000fd5b50919050565b60208082526017908201527f50726f636573736f7220646f65736e2774206578697374000000000000000000604082015260600190565b634e487b7160e01b600052603260045260246000fd5b600082516148e9818460208701614236565b9190910192915050565b600080835481600182811c91508083168061490f57607f831692505b6020808410820361492e57634e487b7160e01b86526022600452602486fd5b818015614942576001811461495357614980565b60ff19861689528489019650614980565b60008a81526020902060005b868110156149785781548b82015290850190830161495f565b505084890196505b509498975050505050505050565b6000828210156149a0576149a06147cd565b500390565b602080825260169082015275115b195d985d1bdc88191bd95cdb89dd08195e1a5cdd60521b604082015260600190565b6020808252601590820152744661726d657220646f65736e27742065787369732160581b604082015260600190565b6001600160a01b0388811682528716602082015260e060408201819052600090614a3090830188614266565b8281036060840152614a428188614266565b6080840196909652505060a081019290925260c090910152949350505050565b60008219821115614a7557614a756147cd565b500190565b60208082526019908201527f4469737472696275746f7220646f65736e277420657869737400000000000000604082015260600190565b6020808252602b908201527f54686973206d7563682071756e6174697479206f662073656564206973206e6f60408201526a7420617661696c61626c6560a81b606082015260800190565b6020808252601290820152710796f75206861766520656e746572656420360741b604082015260600190565b6000816000190483118215151615614b4257614b426147cd565b500290565b60208082526025908201527f596f7520686176656e277420656e74657264207468652065787065637465642060408201526476616c756560d81b60608201526080019056fea2646970667358221220cd8e5a1ee48ce2c92f065d22423c79c18d7318bfb67d4acfbd7181fe6830aea464736f6c634300080e0033",
    "sourcePath": "e:/JSS Mysore/6th Semester/EC67L D&I/Project/project.sol",
    "compiler": {
        "name": "solc",
        "version": "0.8.14+commit.80d49f37"
    },
    "functionHashes": {
        "addDistributor(string,string)": "dc2fdb14",
        "addElevator(string,string,uint256)": "17cf2c15",
        "addFarmer(string)": "2d7e2e8b",
        "addGrainQuantityFromElevator(string,string,uint256)": "cb8f510b",
        "addProcessedGrainQuantity(string,string,uint256)": "5dc6a005",
        "addProcessor(string,string)": "c7d5c332",
        "addSeedCompany(string,string)": "d49376ca",
        "addSeedQuantity(string,string,uint256)": "5eb78b8c",
        "buyGrainFromElevator(address,string,string,uint256)": "9375946d",
        "buyGrainFromFarmer(address,string,string,uint256)": "dcdd5bce",
        "buyGrainFromProcessor(address,string,string,uint256)": "f617ecb9",
        "buySeeds(address,string,string,uint256)": "b9ac42b2",
        "createContract()": "412a5a6d",
        "getListOfFarmer()": "03f8027a",
        "getListOfseedCompany()": "1aeb4ec7",
        "removeGrainQuantityFromElevator(string,string,uint256)": "1b5e33ac",
        "removeProcessedGrainQuantity(string,string,uint256)": "0d95c129",
        "removeSeedQuantity(string,string,uint256)": "dc441ba8",
        "sellGrainToDistributorFromProcessor(address,string,string,uint256,uint256)": "61f3e6c7",
        "sellGrainToElevator(address,string,string,uint256,uint256,uint256,uint256,uint256)": "c10e8579",
        "sellGrainToProcessor(address,string,string,uint256,uint256,uint256)": "47f15ddf",
        "sellSeeds(address,string,string,uint256)": "02ca78f2",
        "updateGrainFarmerQuantity(string,string,uint256,uint256)": "c16634b7",
        "updateGrainPriceByFarmer(string,string,uint256)": "b5d765de",
        "updateGrainPriceFromElevator(string,string,uint256)": "f66959ee",
        "updateProcessedGrainDetails(string,string,uint256,uint256,uint256,uint256)": "ccc7cada",
        "updateProcessedGrainPrice(string,string,uint256)": "cc746e45",
        "updateSeedDetails(string,string,uint256,uint256)": "719fae32",
        "updateSeedPrice(string,string,uint256)": "59a1d1a3",
        "updateStorageQuantity(uint256)": "166d9eaa",
        "updategrainDetailsFromElevator(string,string,uint256,uint256)": "53b2d0fd"
    },
    "gasEstimates": {
        "creation": {
            "codeDepositCost": "3878800",
            "executionCost": "87928",
            "totalCost": "3966728"
        },
        "external": {
            "addDistributor(string,string)": "infinite",
            "addElevator(string,string,uint256)": "infinite",
            "addFarmer(string)": "infinite",
            "addGrainQuantityFromElevator(string,string,uint256)": "infinite",
            "addProcessedGrainQuantity(string,string,uint256)": "infinite",
            "addProcessor(string,string)": "infinite",
            "addSeedCompany(string,string)": "infinite",
            "addSeedQuantity(string,string,uint256)": "infinite",
            "buyGrainFromElevator(address,string,string,uint256)": "infinite",
            "buyGrainFromFarmer(address,string,string,uint256)": "infinite",
            "buyGrainFromProcessor(address,string,string,uint256)": "infinite",
            "buySeeds(address,string,string,uint256)": "infinite",
            "createContract()": "28888",
            "getListOfFarmer()": "infinite",
            "getListOfseedCompany()": "infinite",
            "removeGrainQuantityFromElevator(string,string,uint256)": "infinite",
            "removeProcessedGrainQuantity(string,string,uint256)": "infinite",
            "removeSeedQuantity(string,string,uint256)": "infinite",
            "sellGrainToDistributorFromProcessor(address,string,string,uint256,uint256)": "infinite",
            "sellGrainToElevator(address,string,string,uint256,uint256,uint256,uint256,uint256)": "infinite",
            "sellGrainToProcessor(address,string,string,uint256,uint256,uint256)": "infinite",
            "sellSeeds(address,string,string,uint256)": "infinite",
            "updateGrainFarmerQuantity(string,string,uint256,uint256)": "infinite",
            "updateGrainPriceByFarmer(string,string,uint256)": "infinite",
            "updateGrainPriceFromElevator(string,string,uint256)": "infinite",
            "updateProcessedGrainDetails(string,string,uint256,uint256,uint256,uint256)": "infinite",
            "updateProcessedGrainPrice(string,string,uint256)": "infinite",
            "updateSeedDetails(string,string,uint256,uint256)": "infinite",
            "updateSeedPrice(string,string,uint256)": "infinite",
            "updateStorageQuantity(uint256)": "infinite",
            "updategrainDetailsFromElevator(string,string,uint256,uint256)": "infinite"
        }
    }
}