{
    "contractName": "supplyChainAgri",
    "abi": [
        {
            "inputs": [],
            "stateMutability": "nonpayable",
            "type": "constructor"
        },
        {
            "anonymous": false,
            "inputs": [
                {
                    "indexed": false,
                    "internalType": "address",
                    "name": "Retailer",
                    "type": "address"
                },
                {
                    "indexed": false,
                    "internalType": "address",
                    "name": "Customer",
                    "type": "address"
                },
                {
                    "indexed": false,
                    "internalType": "string",
                    "name": "grainType",
                    "type": "string"
                },
                {
                    "indexed": false,
                    "internalType": "string",
                    "name": "variety",
                    "type": "string"
                },
                {
                    "indexed": false,
                    "internalType": "uint256",
                    "name": "quantity",
                    "type": "uint256"
                },
                {
                    "indexed": false,
                    "internalType": "uint256",
                    "name": "pricePer1q",
                    "type": "uint256"
                },
                {
                    "indexed": false,
                    "internalType": "uint256",
                    "name": "purchaseDate",
                    "type": "uint256"
                }
            ],
            "name": "sellGrainsToCustomerFromRetailer",
            "type": "event"
        },
        {
            "anonymous": false,
            "inputs": [
                {
                    "indexed": false,
                    "internalType": "address",
                    "name": "Farmer",
                    "type": "address"
                },
                {
                    "indexed": false,
                    "internalType": "address",
                    "name": "Processor",
                    "type": "address"
                },
                {
                    "indexed": false,
                    "internalType": "string",
                    "name": "grainType",
                    "type": "string"
                },
                {
                    "indexed": false,
                    "internalType": "string",
                    "name": "variety",
                    "type": "string"
                },
                {
                    "indexed": false,
                    "internalType": "uint256",
                    "name": "quantity",
                    "type": "uint256"
                },
                {
                    "indexed": false,
                    "internalType": "uint256",
                    "name": "pricePer1q",
                    "type": "uint256"
                },
                {
                    "indexed": false,
                    "internalType": "uint256",
                    "name": "purchaseDate",
                    "type": "uint256"
                }
            ],
            "name": "sellGrainsToProcessorFromElevator",
            "type": "event"
        },
        {
            "anonymous": false,
            "inputs": [
                {
                    "indexed": false,
                    "internalType": "address",
                    "name": "Processor",
                    "type": "address"
                },
                {
                    "indexed": false,
                    "internalType": "address",
                    "name": "Retailer",
                    "type": "address"
                },
                {
                    "indexed": false,
                    "internalType": "string",
                    "name": "grainType",
                    "type": "string"
                },
                {
                    "indexed": false,
                    "internalType": "string",
                    "name": "variety",
                    "type": "string"
                },
                {
                    "indexed": false,
                    "internalType": "uint256",
                    "name": "quantity",
                    "type": "uint256"
                },
                {
                    "indexed": false,
                    "internalType": "uint256",
                    "name": "pricePer1q",
                    "type": "uint256"
                },
                {
                    "indexed": false,
                    "internalType": "uint256",
                    "name": "purchaseDate",
                    "type": "uint256"
                }
            ],
            "name": "sellGrainsToRetailerFromProcessor",
            "type": "event"
        },
        {
            "anonymous": false,
            "inputs": [
                {
                    "indexed": false,
                    "internalType": "address",
                    "name": "farmer",
                    "type": "address"
                },
                {
                    "indexed": false,
                    "internalType": "address",
                    "name": "seedCompany",
                    "type": "address"
                },
                {
                    "indexed": false,
                    "internalType": "string",
                    "name": "seedType",
                    "type": "string"
                },
                {
                    "indexed": false,
                    "internalType": "string",
                    "name": "variety",
                    "type": "string"
                },
                {
                    "indexed": false,
                    "internalType": "uint256",
                    "name": "quantity",
                    "type": "uint256"
                },
                {
                    "indexed": false,
                    "internalType": "uint256",
                    "name": "time",
                    "type": "uint256"
                }
            ],
            "name": "sellOfSeeds",
            "type": "event"
        },
        {
            "anonymous": false,
            "inputs": [
                {
                    "indexed": false,
                    "internalType": "address",
                    "name": "Customer",
                    "type": "address"
                },
                {
                    "indexed": false,
                    "internalType": "address",
                    "name": "Retailer",
                    "type": "address"
                },
                {
                    "indexed": false,
                    "internalType": "string",
                    "name": "grainType",
                    "type": "string"
                },
                {
                    "indexed": false,
                    "internalType": "string",
                    "name": "variety",
                    "type": "string"
                },
                {
                    "indexed": false,
                    "internalType": "uint256",
                    "name": "quantity",
                    "type": "uint256"
                },
                {
                    "indexed": false,
                    "internalType": "uint256",
                    "name": "Price",
                    "type": "uint256"
                },
                {
                    "indexed": false,
                    "internalType": "uint256",
                    "name": "time",
                    "type": "uint256"
                }
            ],
            "name": "transferCompleteFromCustomerToRetailer",
            "type": "event"
        },
        {
            "anonymous": false,
            "inputs": [
                {
                    "indexed": false,
                    "internalType": "address",
                    "name": "processor",
                    "type": "address"
                },
                {
                    "indexed": false,
                    "internalType": "address",
                    "name": "farmer",
                    "type": "address"
                },
                {
                    "indexed": false,
                    "internalType": "string",
                    "name": "grownGrainType",
                    "type": "string"
                },
                {
                    "indexed": false,
                    "internalType": "string",
                    "name": "variety",
                    "type": "string"
                },
                {
                    "indexed": false,
                    "internalType": "uint256",
                    "name": "quantity",
                    "type": "uint256"
                },
                {
                    "indexed": false,
                    "internalType": "uint256",
                    "name": "Price",
                    "type": "uint256"
                },
                {
                    "indexed": false,
                    "internalType": "uint256",
                    "name": "time",
                    "type": "uint256"
                }
            ],
            "name": "transferCompleteFromProcessorToFarmer",
            "type": "event"
        },
        {
            "anonymous": false,
            "inputs": [
                {
                    "indexed": false,
                    "internalType": "address",
                    "name": "Retailer",
                    "type": "address"
                },
                {
                    "indexed": false,
                    "internalType": "address",
                    "name": "Processor",
                    "type": "address"
                },
                {
                    "indexed": false,
                    "internalType": "string",
                    "name": "grainType",
                    "type": "string"
                },
                {
                    "indexed": false,
                    "internalType": "string",
                    "name": "variety",
                    "type": "string"
                },
                {
                    "indexed": false,
                    "internalType": "uint256",
                    "name": "quantity",
                    "type": "uint256"
                },
                {
                    "indexed": false,
                    "internalType": "uint256",
                    "name": "Price",
                    "type": "uint256"
                },
                {
                    "indexed": false,
                    "internalType": "uint256",
                    "name": "time",
                    "type": "uint256"
                }
            ],
            "name": "transferCompleteFromRetailerToProcessor",
            "type": "event"
        },
        {
            "anonymous": false,
            "inputs": [
                {
                    "indexed": false,
                    "internalType": "address",
                    "name": "farmer",
                    "type": "address"
                },
                {
                    "indexed": false,
                    "internalType": "address",
                    "name": "Seedcompany",
                    "type": "address"
                },
                {
                    "indexed": false,
                    "internalType": "string",
                    "name": "seedType",
                    "type": "string"
                },
                {
                    "indexed": false,
                    "internalType": "string",
                    "name": "variety",
                    "type": "string"
                },
                {
                    "indexed": false,
                    "internalType": "uint256",
                    "name": "quantity",
                    "type": "uint256"
                },
                {
                    "indexed": false,
                    "internalType": "uint256",
                    "name": "Price",
                    "type": "uint256"
                },
                {
                    "indexed": false,
                    "internalType": "uint256",
                    "name": "time",
                    "type": "uint256"
                }
            ],
            "name": "transferCompleteSeed",
            "type": "event"
        },
        {
            "inputs": [],
            "name": "FarmerDashBoard",
            "outputs": [
                {
                    "components": [
                        {
                            "internalType": "address",
                            "name": "from",
                            "type": "address"
                        },
                        {
                            "internalType": "address",
                            "name": "to",
                            "type": "address"
                        },
                        {
                            "internalType": "string",
                            "name": "Type",
                            "type": "string"
                        },
                        {
                            "internalType": "string",
                            "name": "variety",
                            "type": "string"
                        },
                        {
                            "internalType": "uint256",
                            "name": "varietyID",
                            "type": "uint256"
                        },
                        {
                            "internalType": "uint256",
                            "name": "quantity",
                            "type": "uint256"
                        },
                        {
                            "internalType": "uint256",
                            "name": "requestTime",
                            "type": "uint256"
                        }
                    ],
                    "internalType": "struct supplyChainAgri.RequestDetails[]",
                    "name": "",
                    "type": "tuple[]"
                }
            ],
            "stateMutability": "view",
            "type": "function"
        },
        {
            "inputs": [],
            "name": "ProcessorDashBoard",
            "outputs": [
                {
                    "components": [
                        {
                            "internalType": "address",
                            "name": "from",
                            "type": "address"
                        },
                        {
                            "internalType": "address",
                            "name": "to",
                            "type": "address"
                        },
                        {
                            "internalType": "string",
                            "name": "Type",
                            "type": "string"
                        },
                        {
                            "internalType": "string",
                            "name": "variety",
                            "type": "string"
                        },
                        {
                            "internalType": "uint256",
                            "name": "varietyID",
                            "type": "uint256"
                        },
                        {
                            "internalType": "uint256",
                            "name": "quantity",
                            "type": "uint256"
                        },
                        {
                            "internalType": "uint256",
                            "name": "requestTime",
                            "type": "uint256"
                        }
                    ],
                    "internalType": "struct supplyChainAgri.RequestDetails[]",
                    "name": "",
                    "type": "tuple[]"
                }
            ],
            "stateMutability": "view",
            "type": "function"
        },
        {
            "inputs": [],
            "name": "RetailerDashBoard",
            "outputs": [
                {
                    "components": [
                        {
                            "internalType": "address",
                            "name": "from",
                            "type": "address"
                        },
                        {
                            "internalType": "address",
                            "name": "to",
                            "type": "address"
                        },
                        {
                            "internalType": "string",
                            "name": "Type",
                            "type": "string"
                        },
                        {
                            "internalType": "string",
                            "name": "variety",
                            "type": "string"
                        },
                        {
                            "internalType": "uint256",
                            "name": "varietyID",
                            "type": "uint256"
                        },
                        {
                            "internalType": "uint256",
                            "name": "quantity",
                            "type": "uint256"
                        },
                        {
                            "internalType": "uint256",
                            "name": "requestTime",
                            "type": "uint256"
                        }
                    ],
                    "internalType": "struct supplyChainAgri.RequestDetails[]",
                    "name": "",
                    "type": "tuple[]"
                }
            ],
            "stateMutability": "view",
            "type": "function"
        },
        {
            "inputs": [
                {
                    "internalType": "address",
                    "name": "_farmer",
                    "type": "address"
                }
            ],
            "name": "addFarmer",
            "outputs": [],
            "stateMutability": "nonpayable",
            "type": "function"
        },
        {
            "inputs": [
                {
                    "internalType": "string",
                    "name": "_grainType",
                    "type": "string"
                },
                {
                    "internalType": "string",
                    "name": "_variety",
                    "type": "string"
                },
                {
                    "internalType": "uint256",
                    "name": "_varietyID",
                    "type": "uint256"
                },
                {
                    "internalType": "uint256",
                    "name": "_quantity",
                    "type": "uint256"
                },
                {
                    "internalType": "uint256",
                    "name": "_manDate",
                    "type": "uint256"
                }
            ],
            "name": "addProcessedGrainQuantity",
            "outputs": [],
            "stateMutability": "nonpayable",
            "type": "function"
        },
        {
            "inputs": [
                {
                    "internalType": "address",
                    "name": "_processor",
                    "type": "address"
                }
            ],
            "name": "addProcessor",
            "outputs": [],
            "stateMutability": "nonpayable",
            "type": "function"
        },
        {
            "inputs": [
                {
                    "internalType": "address",
                    "name": "_retailer",
                    "type": "address"
                }
            ],
            "name": "addRetailer",
            "outputs": [],
            "stateMutability": "nonpayable",
            "type": "function"
        },
        {
            "inputs": [
                {
                    "internalType": "address",
                    "name": "_seedCompany",
                    "type": "address"
                }
            ],
            "name": "addSeedCompany",
            "outputs": [],
            "stateMutability": "nonpayable",
            "type": "function"
        },
        {
            "inputs": [
                {
                    "internalType": "string",
                    "name": "_seedType",
                    "type": "string"
                },
                {
                    "internalType": "string",
                    "name": "_variety",
                    "type": "string"
                },
                {
                    "internalType": "uint256",
                    "name": "_varietyID",
                    "type": "uint256"
                },
                {
                    "internalType": "uint256",
                    "name": "_addQuantity",
                    "type": "uint256"
                }
            ],
            "name": "addSeedQuantity",
            "outputs": [],
            "stateMutability": "nonpayable",
            "type": "function"
        },
        {
            "inputs": [
                {
                    "internalType": "address payable",
                    "name": "_farmer",
                    "type": "address"
                },
                {
                    "internalType": "string",
                    "name": "_grainType",
                    "type": "string"
                },
                {
                    "internalType": "string",
                    "name": "_variety",
                    "type": "string"
                },
                {
                    "internalType": "uint256",
                    "name": "_varietyID",
                    "type": "uint256"
                },
                {
                    "internalType": "uint256",
                    "name": "_quantity",
                    "type": "uint256"
                }
            ],
            "name": "buyGrainFromFarmer",
            "outputs": [],
            "stateMutability": "payable",
            "type": "function"
        },
        {
            "inputs": [
                {
                    "internalType": "address",
                    "name": "_processor",
                    "type": "address"
                },
                {
                    "internalType": "string",
                    "name": "_grainType",
                    "type": "string"
                },
                {
                    "internalType": "string",
                    "name": "_variety",
                    "type": "string"
                },
                {
                    "internalType": "uint256",
                    "name": "_varietyID",
                    "type": "uint256"
                },
                {
                    "internalType": "uint256",
                    "name": "_quantity",
                    "type": "uint256"
                },
                {
                    "internalType": "uint256",
                    "name": "_manDate",
                    "type": "uint256"
                }
            ],
            "name": "buyGrainFromProcessor",
            "outputs": [],
            "stateMutability": "payable",
            "type": "function"
        },
        {
            "inputs": [
                {
                    "internalType": "address",
                    "name": "_retailer",
                    "type": "address"
                },
                {
                    "internalType": "string",
                    "name": "_grainType",
                    "type": "string"
                },
                {
                    "internalType": "string",
                    "name": "_variety",
                    "type": "string"
                },
                {
                    "internalType": "uint256",
                    "name": "_varietyID",
                    "type": "uint256"
                },
                {
                    "internalType": "uint256",
                    "name": "_quantity",
                    "type": "uint256"
                },
                {
                    "internalType": "uint256",
                    "name": "_manDate",
                    "type": "uint256"
                }
            ],
            "name": "buyGrainFromRetailer",
            "outputs": [],
            "stateMutability": "payable",
            "type": "function"
        },
        {
            "inputs": [
                {
                    "internalType": "address payable",
                    "name": "_seedCompany",
                    "type": "address"
                },
                {
                    "internalType": "string",
                    "name": "_seedType",
                    "type": "string"
                },
                {
                    "internalType": "string",
                    "name": "_variety",
                    "type": "string"
                },
                {
                    "internalType": "uint256",
                    "name": "_varietyID",
                    "type": "uint256"
                },
                {
                    "internalType": "uint256",
                    "name": "_quantity",
                    "type": "uint256"
                }
            ],
            "name": "buySeeds",
            "outputs": [],
            "stateMutability": "payable",
            "type": "function"
        },
        {
            "inputs": [
                {
                    "internalType": "address",
                    "name": "",
                    "type": "address"
                }
            ],
            "name": "farmerListIndex",
            "outputs": [
                {
                    "internalType": "uint256",
                    "name": "",
                    "type": "uint256"
                }
            ],
            "stateMutability": "view",
            "type": "function"
        },
        {
            "inputs": [
                {
                    "internalType": "address",
                    "name": "",
                    "type": "address"
                }
            ],
            "name": "farmerListMapping",
            "outputs": [
                {
                    "internalType": "bool",
                    "name": "",
                    "type": "bool"
                }
            ],
            "stateMutability": "view",
            "type": "function"
        },
        {
            "inputs": [
                {
                    "internalType": "uint256",
                    "name": "",
                    "type": "uint256"
                }
            ],
            "name": "processorUpdateAddress",
            "outputs": [
                {
                    "internalType": "address",
                    "name": "",
                    "type": "address"
                }
            ],
            "stateMutability": "view",
            "type": "function"
        },
        {
            "inputs": [
                {
                    "internalType": "uint256",
                    "name": "",
                    "type": "uint256"
                }
            ],
            "name": "retailerUpdateAddress",
            "outputs": [
                {
                    "internalType": "address",
                    "name": "",
                    "type": "address"
                }
            ],
            "stateMutability": "view",
            "type": "function"
        },
        {
            "inputs": [],
            "name": "seedCompanyCount",
            "outputs": [
                {
                    "internalType": "uint256",
                    "name": "",
                    "type": "uint256"
                }
            ],
            "stateMutability": "view",
            "type": "function"
        },
        {
            "inputs": [],
            "name": "seedCompanyDashBoard",
            "outputs": [
                {
                    "components": [
                        {
                            "internalType": "address",
                            "name": "from",
                            "type": "address"
                        },
                        {
                            "internalType": "address",
                            "name": "to",
                            "type": "address"
                        },
                        {
                            "internalType": "string",
                            "name": "Type",
                            "type": "string"
                        },
                        {
                            "internalType": "string",
                            "name": "variety",
                            "type": "string"
                        },
                        {
                            "internalType": "uint256",
                            "name": "varietyID",
                            "type": "uint256"
                        },
                        {
                            "internalType": "uint256",
                            "name": "quantity",
                            "type": "uint256"
                        },
                        {
                            "internalType": "uint256",
                            "name": "requestTime",
                            "type": "uint256"
                        }
                    ],
                    "internalType": "struct supplyChainAgri.RequestDetails[]",
                    "name": "",
                    "type": "tuple[]"
                }
            ],
            "stateMutability": "view",
            "type": "function"
        },
        {
            "inputs": [
                {
                    "internalType": "address",
                    "name": "",
                    "type": "address"
                }
            ],
            "name": "seedCompanyIndex",
            "outputs": [
                {
                    "internalType": "uint256",
                    "name": "",
                    "type": "uint256"
                }
            ],
            "stateMutability": "view",
            "type": "function"
        },
        {
            "inputs": [
                {
                    "internalType": "uint256",
                    "name": "",
                    "type": "uint256"
                }
            ],
            "name": "seedCompanyListArray",
            "outputs": [
                {
                    "internalType": "address payable",
                    "name": "companyAddress",
                    "type": "address"
                }
            ],
            "stateMutability": "view",
            "type": "function"
        },
        {
            "inputs": [
                {
                    "internalType": "address",
                    "name": "",
                    "type": "address"
                }
            ],
            "name": "seedCompanyListMapping",
            "outputs": [
                {
                    "internalType": "bool",
                    "name": "",
                    "type": "bool"
                }
            ],
            "stateMutability": "view",
            "type": "function"
        },
        {
            "inputs": [
                {
                    "internalType": "address",
                    "name": "",
                    "type": "address"
                },
                {
                    "internalType": "uint256",
                    "name": "",
                    "type": "uint256"
                }
            ],
            "name": "seedTypeVariety",
            "outputs": [
                {
                    "internalType": "string",
                    "name": "seedType",
                    "type": "string"
                },
                {
                    "internalType": "string",
                    "name": "variety",
                    "type": "string"
                },
                {
                    "internalType": "uint256",
                    "name": "quantity",
                    "type": "uint256"
                },
                {
                    "internalType": "uint256",
                    "name": "pricePer10g",
                    "type": "uint256"
                }
            ],
            "stateMutability": "view",
            "type": "function"
        },
        {
            "inputs": [
                {
                    "internalType": "uint256",
                    "name": "",
                    "type": "uint256"
                }
            ],
            "name": "seedUpdateAddress",
            "outputs": [
                {
                    "internalType": "address",
                    "name": "",
                    "type": "address"
                }
            ],
            "stateMutability": "view",
            "type": "function"
        },
        {
            "inputs": [
                {
                    "internalType": "address",
                    "name": "_customer",
                    "type": "address"
                },
                {
                    "internalType": "string",
                    "name": "_grainType",
                    "type": "string"
                },
                {
                    "internalType": "string",
                    "name": "_variety",
                    "type": "string"
                },
                {
                    "internalType": "uint256",
                    "name": "_varietyID",
                    "type": "uint256"
                },
                {
                    "internalType": "uint256",
                    "name": "_quantity",
                    "type": "uint256"
                },
                {
                    "internalType": "uint256",
                    "name": "_pricePerkg",
                    "type": "uint256"
                },
                {
                    "internalType": "uint256",
                    "name": "_manDate",
                    "type": "uint256"
                }
            ],
            "name": "sellGrianToCustomer",
            "outputs": [],
            "stateMutability": "nonpayable",
            "type": "function"
        },
        {
            "inputs": [
                {
                    "internalType": "address",
                    "name": "_processor",
                    "type": "address"
                },
                {
                    "internalType": "string",
                    "name": "_grainType",
                    "type": "string"
                },
                {
                    "internalType": "string",
                    "name": "_variety",
                    "type": "string"
                },
                {
                    "internalType": "uint256",
                    "name": "_varietyID",
                    "type": "uint256"
                },
                {
                    "internalType": "uint256",
                    "name": "_quantity",
                    "type": "uint256"
                },
                {
                    "internalType": "uint256",
                    "name": "_pricePer1q",
                    "type": "uint256"
                }
            ],
            "name": "sellGrianToProcessor",
            "outputs": [],
            "stateMutability": "nonpayable",
            "type": "function"
        },
        {
            "inputs": [
                {
                    "internalType": "address",
                    "name": "_retailer",
                    "type": "address"
                },
                {
                    "internalType": "string",
                    "name": "_grainType",
                    "type": "string"
                },
                {
                    "internalType": "string",
                    "name": "_variety",
                    "type": "string"
                },
                {
                    "internalType": "uint256",
                    "name": "_varietyID",
                    "type": "uint256"
                },
                {
                    "internalType": "uint256",
                    "name": "_quantity",
                    "type": "uint256"
                },
                {
                    "internalType": "uint256",
                    "name": "_pricePer10kg",
                    "type": "uint256"
                },
                {
                    "internalType": "uint256",
                    "name": "_manDate",
                    "type": "uint256"
                }
            ],
            "name": "sellGrianToRetailer",
            "outputs": [],
            "stateMutability": "nonpayable",
            "type": "function"
        },
        {
            "inputs": [
                {
                    "internalType": "address",
                    "name": "_farmer",
                    "type": "address"
                },
                {
                    "internalType": "string",
                    "name": "_seedType",
                    "type": "string"
                },
                {
                    "internalType": "string",
                    "name": "_variety",
                    "type": "string"
                },
                {
                    "internalType": "uint256",
                    "name": "_varietyID",
                    "type": "uint256"
                },
                {
                    "internalType": "uint256",
                    "name": "_quantity",
                    "type": "uint256"
                },
                {
                    "internalType": "uint256",
                    "name": "_pricePer10g",
                    "type": "uint256"
                }
            ],
            "name": "sellSeeds",
            "outputs": [],
            "stateMutability": "nonpayable",
            "type": "function"
        },
        {
            "inputs": [
                {
                    "internalType": "string",
                    "name": "_grainTypeGrown",
                    "type": "string"
                },
                {
                    "internalType": "string",
                    "name": "_variety",
                    "type": "string"
                },
                {
                    "internalType": "uint256",
                    "name": "_varietyID",
                    "type": "uint256"
                },
                {
                    "internalType": "uint256",
                    "name": "_quantity",
                    "type": "uint256"
                },
                {
                    "internalType": "uint256",
                    "name": "_pricePer1q",
                    "type": "uint256"
                }
            ],
            "name": "updateGrainFarmerQuantity",
            "outputs": [],
            "stateMutability": "nonpayable",
            "type": "function"
        },
        {
            "inputs": [
                {
                    "internalType": "string",
                    "name": "_grainTypeGrown",
                    "type": "string"
                },
                {
                    "internalType": "string",
                    "name": "_variety",
                    "type": "string"
                },
                {
                    "internalType": "uint256",
                    "name": "_varietyID",
                    "type": "uint256"
                },
                {
                    "internalType": "uint256",
                    "name": "_quantity",
                    "type": "uint256"
                }
            ],
            "name": "updateGrainQuantityByFarmer",
            "outputs": [],
            "stateMutability": "nonpayable",
            "type": "function"
        },
        {
            "inputs": [
                {
                    "internalType": "string",
                    "name": "_grainType",
                    "type": "string"
                },
                {
                    "internalType": "string",
                    "name": "_variety",
                    "type": "string"
                },
                {
                    "internalType": "uint256",
                    "name": "_varietyID",
                    "type": "uint256"
                },
                {
                    "internalType": "uint256",
                    "name": "_quantity",
                    "type": "uint256"
                },
                {
                    "internalType": "uint256",
                    "name": "_pricePer10kg",
                    "type": "uint256"
                },
                {
                    "internalType": "uint256",
                    "name": "_manDate",
                    "type": "uint256"
                },
                {
                    "internalType": "uint256",
                    "name": "_expDate",
                    "type": "uint256"
                }
            ],
            "name": "updateProcessedGrain",
            "outputs": [],
            "stateMutability": "nonpayable",
            "type": "function"
        },
        {
            "inputs": [
                {
                    "internalType": "string",
                    "name": "_grainType",
                    "type": "string"
                },
                {
                    "internalType": "string",
                    "name": "_variety",
                    "type": "string"
                },
                {
                    "internalType": "uint256",
                    "name": "_varietyID",
                    "type": "uint256"
                },
                {
                    "internalType": "uint256",
                    "name": "_quantity",
                    "type": "uint256"
                },
                {
                    "internalType": "uint256",
                    "name": "_pricePerkg",
                    "type": "uint256"
                },
                {
                    "internalType": "uint256",
                    "name": "_manDate",
                    "type": "uint256"
                },
                {
                    "internalType": "uint256",
                    "name": "_expDate",
                    "type": "uint256"
                }
            ],
            "name": "updateRetailerGrain",
            "outputs": [],
            "stateMutability": "nonpayable",
            "type": "function"
        },
        {
            "inputs": [
                {
                    "internalType": "string",
                    "name": "_grainType",
                    "type": "string"
                },
                {
                    "internalType": "string",
                    "name": "_variety",
                    "type": "string"
                },
                {
                    "internalType": "uint256",
                    "name": "_varietyID",
                    "type": "uint256"
                },
                {
                    "internalType": "uint256",
                    "name": "_quantity",
                    "type": "uint256"
                },
                {
                    "internalType": "uint256",
                    "name": "_manDate",
                    "type": "uint256"
                }
            ],
            "name": "updateRetailerGrainQuantity",
            "outputs": [],
            "stateMutability": "nonpayable",
            "type": "function"
        },
        {
            "inputs": [
                {
                    "internalType": "string",
                    "name": "_seedType",
                    "type": "string"
                },
                {
                    "internalType": "string",
                    "name": "_variety",
                    "type": "string"
                },
                {
                    "internalType": "uint256",
                    "name": "_varietyID",
                    "type": "uint256"
                },
                {
                    "internalType": "uint256",
                    "name": "_quantity",
                    "type": "uint256"
                },
                {
                    "internalType": "uint256",
                    "name": "_pricePer10g",
                    "type": "uint256"
                }
            ],
            "name": "updateSeedDetails",
            "outputs": [],
            "stateMutability": "nonpayable",
            "type": "function"
        }
    ],
    "bytecode": "60806040526000805463ffffffff60a01b191681556008819055600f81905560165534801561002d57600080fd5b50600080546001600160a01b03191633179055615dfb80620000506000396000f3fe6080604052600436106101f95760003560e01c80636389e07b1161010d578063a444c2d9116100a0578063d37795ca1161006f578063d37795ca146105cc578063e150bbfd146105ec578063e3e5ad0214610619578063f30bb33c14610639578063fbb785001461064c57600080fd5b8063a444c2d914610547578063a5b4139614610567578063b5d02ded1461057c578063ba298638146105ac57600080fd5b806380c3f96d116100dc57806380c3f96d146104d45780638ec4f505146104f457806395e4f2ef14610514578063981e3e051461052757600080fd5b80636389e07b146104525780636b5d70191461047257806373b1aeb61461048757806377e214c8146104b457600080fd5b80632a2c48be1161019057806342b8a9041161015f57806342b8a904146103955780634358b025146103c5578063441962f7146103da57806350bf84b81461041257806355b925531461043257600080fd5b80632a2c48be146102f15780632dbe0bde146103155780633caaef83146103555780634287ad8d1461037557600080fd5b80631c00bbb4116101cc5780631c00bbb41461027e5780632010657c1461029157806320186479146102b157806325460753146102d157600080fd5b80630660aba4146101fe57806308fc51a01461022057806313fd455f146102335780631a91e86f1461025e575b600080fd5b34801561020a57600080fd5b5061021e610219366004615501565b61066c565b005b61021e61022e36600461558a565b610883565b34801561023f57600080fd5b50610248610d8c565b604051610255919061566e565b60405180910390f35b34801561026a57600080fd5b5061021e610279366004615736565b611092565b61021e61028c3660046157b5565b611307565b34801561029d57600080fd5b5061021e6102ac366004615847565b611891565b3480156102bd57600080fd5b5061021e6102cc366004615736565b611955565b3480156102dd57600080fd5b5061021e6102ec366004615847565b611c41565b3480156102fd57600080fd5b50610307600f5481565b604051908152602001610255565b34801561032157600080fd5b50610345610330366004615847565b600d6020526000908152604090205460ff1681565b6040519015158152602001610255565b34801561036157600080fd5b5061021e61037036600461586b565b611cfd565b34801561038157600080fd5b5061021e610390366004615736565b6121f6565b3480156103a157600080fd5b506103b56103b0366004615906565b6124e1565b6040516102559493929190615932565b3480156103d157600080fd5b50610248612624565b3480156103e657600080fd5b506103fa6103f536600461596b565b6128d0565b6040516001600160a01b039091168152602001610255565b34801561041e57600080fd5b506103fa61042d36600461596b565b6128fa565b34801561043e57600080fd5b5061021e61044d36600461586b565b61290a565b34801561045e57600080fd5b5061021e61046d366004615501565b612d68565b34801561047e57600080fd5b50610248612f8c565b34801561049357600080fd5b506103076104a2366004615847565b60076020526000908152604090205481565b3480156104c057600080fd5b506103fa6104cf36600461596b565b613238565b3480156104e057600080fd5b5061021e6104ef366004615847565b613248565b34801561050057600080fd5b5061021e61050f366004615847565b613304565b61021e6105223660046157b5565b613396565b34801561053357600080fd5b5061021e6105423660046157b5565b6138af565b34801561055357600080fd5b506103fa61056236600461596b565b613da6565b34801561057357600080fd5b50610248613db6565b34801561058857600080fd5b50610345610597366004615847565b60066020526000908152604090205460ff1681565b3480156105b857600080fd5b5061021e6105c7366004615736565b614062565b3480156105d857600080fd5b5061021e6105e7366004615984565b614317565b3480156105f857600080fd5b50610307610607366004615847565b600e6020526000908152604090205481565b34801561062557600080fd5b5061021e610634366004615984565b614634565b61021e61064736600461558a565b6149a4565b34801561065857600080fd5b5061021e6106673660046157b5565b614e6c565b3360008181526006602052604090205460ff166106a45760405162461bcd60e51b815260040161069b90615a14565b60405180910390fd5b6000805b600a5481101561085557336001600160a01b0316600a82815481106106cf576106cf615a43565b6000918252602090912001546001600160a01b03160361084357866040516020016106fa9190615a59565b6040516020818303038152906040528051906020012060096000600a848154811061072757610727615a43565b60009182526020808320909101546001600160a01b031683528281019390935260409182018120898252835281902090516107629201615aaf565b6040516020818303038152906040528051906020012003610843578560405160200161078e9190615a59565b6040516020818303038152906040528051906020012060096000600a84815481106107bb576107bb615a43565b60009182526020808320909101546001600160a01b031683528281019390935260409182018120898252835281902090516107fd926001929092019101615aaf565b604051602081830303815290604052805190602001200361084357600a818154811061082b5761082b615a43565b6000918252602090912001546001600160a01b031691505b8061084d81615b60565b9150506106a8565b506001600160a01b031660009081526009602090815260408083209583529490529290922060020155505050565b3360008181526014602052604090205460ff166108b25760405162461bcd60e51b815260040161069b90615b79565b6000805b600a54811015610a6357876001600160a01b0316600a82815481106108dd576108dd615a43565b6000918252602090912001546001600160a01b031603610a5157866040516020016109089190615a59565b6040516020818303038152906040528051906020012060096000600a848154811061093557610935615a43565b60009182526020808320909101546001600160a01b031683528281019390935260409182018120898252835281902090516109709201615aaf565b6040516020818303038152906040528051906020012003610a51578560405160200161099c9190615a59565b6040516020818303038152906040528051906020012060096000600a84815481106109c9576109c9615a43565b60009182526020808320909101546001600160a01b03168352828101939093526040918201812089825283528190209051610a0b926001929092019101615aaf565b6040516020818303038152906040528051906020012003610a5157600a8181548110610a3957610a39615a43565b6000918252602090912001546001600160a01b031691505b80610a5b81615b60565b9150506108b6565b506001600160a01b0381166000908152600960209081526040808320878452909152902060020154831115610aca5760405162461bcd60e51b815260206004820152600d60248201526c4e6f7420417661696c61626c6560981b604482015260640161069b565b6001600160a01b03811660009081526009602090815260408083208784529091529020600201548311610d835760003411610b175760405162461bcd60e51b815260040161069b90615bb0565b6001600160a01b0381166000908152600960209081526040808320878452909152902060030154610b489084615bdc565b3414610b835760405162461bcd60e51b815260206004820152600a602482015269726f6e672076616c756560b01b604482015260640161069b565b60405187906001600160a01b038216903480156108fc02916000818181858888f19350505050158015610bba573d6000803e3d6000fd5b507f8932ff46ca78add65a28ff4f4393de8318beb2f192d46cca64b1a37421e7eacb33898989883442604051610bf69796959493929190615bfb565b60405180910390a16001600160a01b038216600090815260096020908152604080832088845290915281206002018054869290610c34908490615c59565b90915550506000805460ff60a81b1916600160a81b1781556040805160e0810182523381526001600160a01b038b811660208084019182529383018c8152606084018c9052608084018b905260a084018a90524260c0850152600b80546001810182559652835160079096027f0175b7a638427703f0dbe7bb9bbf987a2551717b34e79f33b5b1008d1fa01db9810180549785166001600160a01b031998891617815592517f0175b7a638427703f0dbe7bb9bbf987a2551717b34e79f33b5b1008d1fa01dba82018054919095169716969096179092559051805192949193610d44937f0175b7a638427703f0dbe7bb9bbf987a2551717b34e79f33b5b1008d1fa01dbb909301929101906152c2565b5060608201518051610d609160038401916020909101906152c2565b506080820151816004015560a0820151816005015560c082015181600601555050505b50505050505050565b336000818152600660205260409020546060919060ff16610dbf5760405162461bcd60e51b815260040161069b90615a14565b600b5460009067ffffffffffffffff811115610ddd57610ddd61545e565b604051908082528060200260200182016040528015610e1657816020015b610e03615342565b815260200190600190039081610dfb5790505b5090506000805b600b5481101561103857336001600160a01b0316600b8281548110610e4457610e44615a43565b60009182526020909120600160079092020101546001600160a01b03160361102657600b8181548110610e7957610e79615a43565b60009182526020918290206040805160e081018252600790930290910180546001600160a01b0390811684526001820154169383019390935260028301805492939291840191610ec890615a75565b80601f0160208091040260200160405190810160405280929190818152602001828054610ef490615a75565b8015610f415780601f10610f1657610100808354040283529160200191610f41565b820191906000526020600020905b815481529060010190602001808311610f2457829003601f168201915b50505050508152602001600382018054610f5a90615a75565b80601f0160208091040260200160405190810160405280929190818152602001828054610f8690615a75565b8015610fd35780601f10610fa857610100808354040283529160200191610fd3565b820191906000526020600020905b815481529060010190602001808311610fb657829003601f168201915b50505050508152602001600482015481526020016005820154815260200160068201548152505083838151811061100c5761100c615a43565b6020026020010181905250818061102290615b60565b9250505b8061103081615b60565b915050610e1d565b50815160000361108a5760405162461bcd60e51b815260206004820152601860248201527f596f7520646f6e2774206861766520616e79206f726465720000000000000000604482015260640161069b565b5091505b5090565b336000818152601b602052604090205460ff166110c15760405162461bcd60e51b815260040161069b90615c70565b6000805b601f548110156112c257336001600160a01b0316601f82815481106110ec576110ec615a43565b6000918252602090912001546001600160a01b0316036112b057876040516020016111179190615a59565b60405160208183030381529060405280519060200120601e6000601f848154811061114457611144615a43565b60009182526020808320909101546001600160a01b0316835282810193909352604091820181208a82528352819020905161117f9201615aaf565b60405160208183030381529060405280519060200120036112b057866040516020016111ab9190615a59565b60405160208183030381529060405280519060200120601e6000601f84815481106111d8576111d8615a43565b60009182526020808320909101546001600160a01b0316835282810193909352604091820181208a82528352819020905161121a926001929092019101615aaf565b60405160208183030381529060405280519060200120036112b05783601e6000601f848154811061124d5761124d615a43565b60009182526020808320909101546001600160a01b0316835282810193909352604091820181208a8252909252902060040154036112b057601f818154811061129857611298615a43565b6000918252602090912001546001600160a01b031691505b806112ba81615b60565b9150506110c5565b506001600160a01b0381166000908152601e60209081526040808320888452909152812060020180548692906112f9908490615ca0565b909155505050505050505050565b3360008181526022602052604090205460ff1661135f5760405162461bcd60e51b815260206004820152601660248201527510dd5cdd1bdb595c88191bd95cdb89dd08195e1a5cdd60521b604482015260640161069b565b6000805b601f5481101561156057336001600160a01b0316601f828154811061138a5761138a615a43565b6000918252602090912001546001600160a01b03160361154e57876040516020016113b59190615a59565b60405160208183030381529060405280519060200120601e6000601f84815481106113e2576113e2615a43565b60009182526020808320909101546001600160a01b0316835282810193909352604091820181208a82528352819020905161141d9201615aaf565b604051602081830303815290604052805190602001200361154e57866040516020016114499190615a59565b60405160208183030381529060405280519060200120601e6000601f848154811061147657611476615a43565b60009182526020808320909101546001600160a01b0316835282810193909352604091820181208a8252835281902090516114b8926001929092019101615aaf565b604051602081830303815290604052805190602001200361154e578360176000601f84815481106114eb576114eb615a43565b60009182526020808320909101546001600160a01b0316835282810193909352604091820181208a82529092529020600401540361154e57601f818154811061153657611536615a43565b6000918252602090912001546001600160a01b031691505b8061155881615b60565b915050611363565b506001600160a01b03811660009081526017602090815260408083208884529091529020600201548411156115c75760405162461bcd60e51b815260206004820152600d60248201526c4e6f7420417661696c61626c6560981b604482015260640161069b565b6001600160a01b0381166000908152601760209081526040808320888452909152902060020154841161188757600034116116145760405162461bcd60e51b815260040161069b90615bb0565b6001600160a01b0381166000908152601e602090815260408083208884529091529020600301546116459085615bdc565b34146116875760405162461bcd60e51b8152602060048201526011602482015270656e7465722072696768742076616c756560781b604482015260640161069b565b60405188906001600160a01b038216903480156108fc02916000818181858888f193505050501580156116be573d6000803e3d6000fd5b507f12d15ccba64c0873f11bdf2634b8ba97802259cf02563b14d8a7bfe94774495e338a8a8a8934426040516116fa9796959493929190615bfb565b60405180910390a16001600160a01b0382166000908152601e6020908152604080832089845290915281206002018054879290611738908490615c59565b90915550506000805460ff60b81b1916600160b81b1781556040805160e0810182523381526001600160a01b038c811660208381019182529383018d8152606084018d9052608084018c905260a084018b90524260c0850152845460018101865595859052835160079096027fc97bfaf2f8ee708c303a06d134f5ecd8389ae0432af62dc132a24118292866bb810180549785166001600160a01b031998891617815592517fc97bfaf2f8ee708c303a06d134f5ecd8389ae0432af62dc132a24118292866bc82018054919095169716969096179092559051805192949193611848937fc97bfaf2f8ee708c303a06d134f5ecd8389ae0432af62dc132a24118292866bd909301929101906152c2565b50606082015180516118649160038401916020909101906152c2565b506080820151816004015560a0820151816005015560c082015181600601555050505b5050505050505050565b6000546001600160a01b031633146118bb5760405162461bcd60e51b815260040161069b90615cb8565b60408051602080820183526001600160a01b03848116808452600c805460018082018355600092835295517fdf6966c971051c3d54ec59162606531493a51404a002842f56009d7e5cf4a8c790910180546001600160a01b03191691909416179092558152600d8252838120805460ff1916909317909255600f8054600e909252928220819055919061194d83615b60565b919050555050565b336000818152600d602052604090205460ff166119845760405162461bcd60e51b815260040161069b90615cdf565b6000805b601154811015611b3557336001600160a01b0316601182815481106119af576119af615a43565b6000918252602090912001546001600160a01b031603611b2357876040516020016119da9190615a59565b604051602081830303815290604052805190602001206010600060118481548110611a0757611a07615a43565b60009182526020808320909101546001600160a01b0316835282810193909352604091820181208a825283528190209051611a429201615aaf565b6040516020818303038152906040528051906020012003611b235786604051602001611a6e9190615a59565b604051602081830303815290604052805190602001206010600060118481548110611a9b57611a9b615a43565b60009182526020808320909101546001600160a01b0316835282810193909352604091820181208a825283528190209051611add926001929092019101615aaf565b6040516020818303038152906040528051906020012003611b235760118181548110611b0b57611b0b615a43565b6000918252602090912001546001600160a01b031691505b80611b2d81615b60565b915050611988565b506001600160a01b038116611c085760408051608081018252888152602080820189905281830187905260608201869052336000908152601082528381208982528252929092208151805192939192611b9192849201906152c2565b506020828101518051611baa92600185019201906152c2565b5060408201516002820155606090910151600390910155601180546001810182556000919091527f31ecc21a745e3968a04e9570e4425bc18fa8019c68028196b546d1669c200c680180546001600160a01b03191633179055610d83565b60405162461bcd60e51b815260206004820152600e60248201526d44657461696c732065786973742160901b604482015260640161069b565b6000546001600160a01b03163314611c6b5760405162461bcd60e51b815260040161069b90615cb8565b60408051602080820183526001600160a01b038481168084526013805460018082018355600092835295517f66de8ffda797e3de9c05e8fc57b3bf0ec28a930d40b0d285d93c06501cf6a09090910180546001600160a01b0319169190941617909255815260148252838120805460ff1916909317909255601680546015909252928220819055919061194d83615b60565b3360008181526014602052604090205460ff16611d2c5760405162461bcd60e51b815260040161069b90615b79565b600054600160a81b900460ff1615156001036121c6576040805160608082018352338083526001600160a01b038c81166020808601918252865160c0810188528e81528082018e90528088018c90529485018a9052608085018990526000938452601e81528684208c855281528684206005015460a086015295850193845260048054600181018255908452855160089091027f8a35acfbc15ff81a39ae7d344fd709f28e8600b4aa8c65c6b64bfe7fe36bd19b810180549285166001600160a01b031993841617815592517f8a35acfbc15ff81a39ae7d344fd709f28e8600b4aa8c65c6b64bfe7fe36bd19c8201805491909516921691909117909255925180518051939691937f8a35acfbc15ff81a39ae7d344fd709f28e8600b4aa8c65c6b64bfe7fe36bd19d90930192611e6692849201906152c2565b506020828101518051611e7f92600185019201906152c2565b5060408201518160020155606082015181600301556080820151816004015560a08201518160050155505050507f21ae95adce98f43393bdeb699afb8b7b888aa82636724d677c2cc715165e910889338a8a898942604051611ee79796959493929190615bfb565b60405180910390a160005b60195481101561206857336001600160a01b031660208281548110611f1957611f19615a43565b60009182526020909120600160079092020101546001600160a01b0316036120565788604051602001611f4c9190615a59565b6040516020818303038152906040528051906020012060208281548110611f7557611f75615a43565b9060005260206000209060070201600201604051602001611f969190615aaf565b60405160208183030381529060405280519060200120036120565787604051602001611fc29190615a59565b6040516020818303038152906040528051906020012060208281548110611feb57611feb615a43565b906000526020600020906007020160030160405160200161200c9190615aaf565b604051602081830303815290604052805190602001200361205657866020828154811061203b5761203b615a43565b90600052602060002090600702016004015403612056578091505b8061206081615b60565b915050611ef2565b506020805461207990600190615c59565b8154811061208957612089615a43565b9060005260206000209060070201602082815481106120aa576120aa615a43565b60009182526020909120825460079092020180546001600160a01b039283166001600160a01b0319918216178255600180850154908301805491909416911617909155600280830180549183019161210190615a75565b61210c929190615391565b50600382018160030190805461212190615a75565b61212c929190615391565b506004828101549082015560058083015490820155600691820154910155602080548061215b5761215b615d16565b60008281526020812060076000199093019283020180546001600160a01b03199081168255600182018054909116905590612199600283018261540c565b6121a760038301600061540c565b5060006004820181905560058201819055600690910155905550611887565b60405162461bcd60e51b815260206004820152600560248201526432b93937b960d91b604482015260640161069b565b3360008181526006602052604090205460ff166122255760405162461bcd60e51b815260040161069b90615a14565b6000805b600a548110156123d657336001600160a01b0316600a828154811061225057612250615a43565b6000918252602090912001546001600160a01b0316036123c4578760405160200161227b9190615a59565b6040516020818303038152906040528051906020012060096000600a84815481106122a8576122a8615a43565b60009182526020808320909101546001600160a01b0316835282810193909352604091820181208a8252835281902090516122e39201615aaf565b60405160208183030381529060405280519060200120036123c4578660405160200161230f9190615a59565b6040516020818303038152906040528051906020012060096000600a848154811061233c5761233c615a43565b60009182526020808320909101546001600160a01b0316835282810193909352604091820181208a82528352819020905161237e926001929092019101615aaf565b60405160208183030381529060405280519060200120036123c457600a81815481106123ac576123ac615a43565b6000918252602090912001546001600160a01b031691505b806123ce81615b60565b915050612229565b506001600160a01b0381166124a9576040805160808101825288815260208082018990528183018790526060820186905233600090815260098252838120898252825292909220815180519293919261243292849201906152c2565b50602082810151805161244b92600185019201906152c2565b5060408201516002820155606090910151600390910155600a80546001810182556000919091527fc65a7bb8d6351c1cf70c95a316cc6a92839c986682d98bc35f958f4883f9d2a80180546001600160a01b03191633179055610d83565b60405162461bcd60e51b815260206004820152600d60248201526c19195d185a5b1cc8195e1a5cdd609a1b604482015260640161069b565b601060209081526000928352604080842090915290825290208054819061250790615a75565b80601f016020809104026020016040519081016040528092919081815260200182805461253390615a75565b80156125805780601f1061255557610100808354040283529160200191612580565b820191906000526020600020905b81548152906001019060200180831161256357829003601f168201915b50505050509080600101805461259590615a75565b80601f01602080910402602001604051908101604052809291908181526020018280546125c190615a75565b801561260e5780601f106125e35761010080835404028352916020019161260e565b820191906000526020600020905b8154815290600101906020018083116125f157829003601f168201915b5050505050908060020154908060030154905084565b336000818152601460205260409020546060919060ff166126575760405162461bcd60e51b815260040161069b90615b79565b60195460009067ffffffffffffffff8111156126755761267561545e565b6040519080825280602002602001820160405280156126ae57816020015b61269b615342565b8152602001906001900390816126935790505b5090506000805b60195481101561103857336001600160a01b0316601982815481106126dc576126dc615a43565b60009182526020909120600160079092020101546001600160a01b0316036128be576019818154811061271157612711615a43565b60009182526020918290206040805160e081018252600790930290910180546001600160a01b039081168452600182015416938301939093526002830180549293929184019161276090615a75565b80601f016020809104026020016040519081016040528092919081815260200182805461278c90615a75565b80156127d95780601f106127ae576101008083540402835291602001916127d9565b820191906000526020600020905b8154815290600101906020018083116127bc57829003601f168201915b505050505081526020016003820180546127f290615a75565b80601f016020809104026020016040519081016040528092919081815260200182805461281e90615a75565b801561286b5780601f106128405761010080835404028352916020019161286b565b820191906000526020600020905b81548152906001019060200180831161284e57829003601f168201915b5050505050815260200160048201548152602001600582015481526020016006820154815250508383815181106128a4576128a4615a43565b602002602001018190525081806128ba90615b60565b9250505b806128c881615b60565b9150506126b5565b601881815481106128e057600080fd5b6000918252602090912001546001600160a01b0316905081565b600c81815481106128e057600080fd5b3360008181526014602052604090205460ff166129395760405162461bcd60e51b815260040161069b90615b79565b600054600160a81b900460ff1615156001036121c6576040805160608082018352338083526001600160a01b038c81166020808601918252865160c0810188528e81528082018e90528088018c90529485018a9052608085018990526000938452601781528684208c855281528684206005015460a086015295850193845260038054600181018255908452855160089091027fc2575a0e9e593c00f959f8c92f12db2869c3395a3b0502d05e2516446f71f85b810180549285166001600160a01b031993841617815592517fc2575a0e9e593c00f959f8c92f12db2869c3395a3b0502d05e2516446f71f85c8201805491909516921691909117909255925180518051939691937fc2575a0e9e593c00f959f8c92f12db2869c3395a3b0502d05e2516446f71f85d90930192612a7392849201906152c2565b506020828101518051612a8c92600185019201906152c2565b5060408201518160020155606082015181600301556080820151816004015560a08201518160050155505050507fff4c12d16fb3e79a51e0ea6fabe2582649ee21108826d46780d6bda8cb47ef6a89338a8a898942604051612af49796959493929190615bfb565b60405180910390a160005b601954811015612c7557336001600160a01b031660198281548110612b2657612b26615a43565b60009182526020909120600160079092020101546001600160a01b031603612c635788604051602001612b599190615a59565b6040516020818303038152906040528051906020012060198281548110612b8257612b82615a43565b9060005260206000209060070201600201604051602001612ba39190615aaf565b6040516020818303038152906040528051906020012003612c635787604051602001612bcf9190615a59565b6040516020818303038152906040528051906020012060198281548110612bf857612bf8615a43565b9060005260206000209060070201600301604051602001612c199190615aaf565b6040516020818303038152906040528051906020012003612c63578660198281548110612c4857612c48615a43565b90600052602060002090600702016004015403612c63578091505b80612c6d81615b60565b915050612aff565b5060198054612c8690600190615c59565b81548110612c9657612c96615a43565b906000526020600020906007020160198281548110612cb757612cb7615a43565b60009182526020909120825460079092020180546001600160a01b039283166001600160a01b03199182161782556001808501549083018054919094169116179091556002808301805491830191612d0e90615a75565b612d19929190615391565b506003820181600301908054612d2e90615a75565b612d39929190615391565b506004828101549082015560058083015490820155600691820154910155601980548061215b5761215b615d16565b336000818152600d602052604090205460ff16612d975760405162461bcd60e51b815260040161069b90615cdf565b6000805b601154811015612f4857336001600160a01b031660118281548110612dc257612dc2615a43565b6000918252602090912001546001600160a01b031603612f365786604051602001612ded9190615a59565b604051602081830303815290604052805190602001206010600060118481548110612e1a57612e1a615a43565b60009182526020808320909101546001600160a01b03168352828101939093526040918201812089825283528190209051612e559201615aaf565b6040516020818303038152906040528051906020012003612f365785604051602001612e819190615a59565b604051602081830303815290604052805190602001206010600060118481548110612eae57612eae615a43565b60009182526020808320909101546001600160a01b03168352828101939093526040918201812089825283528190209051612ef0926001929092019101615aaf565b6040516020818303038152906040528051906020012003612f365760118181548110612f1e57612f1e615a43565b6000918252602090912001546001600160a01b031691505b80612f4081615b60565b915050612d9b565b506001600160a01b038116600090815260106020908152604080832087845290915281206002018054859290612f7f908490615ca0565b9091555050505050505050565b336000818152601b60205260409020546060919060ff16612fbf5760405162461bcd60e51b815260040161069b90615c70565b60195460009067ffffffffffffffff811115612fdd57612fdd61545e565b60405190808252806020026020018201604052801561301657816020015b613003615342565b815260200190600190039081612ffb5790505b5090506000805b60205481101561103857336001600160a01b03166020828154811061304457613044615a43565b60009182526020909120600160079092020101546001600160a01b031603613226576020818154811061307957613079615a43565b60009182526020918290206040805160e081018252600790930290910180546001600160a01b03908116845260018201541693830193909352600283018054929392918401916130c890615a75565b80601f01602080910402602001604051908101604052809291908181526020018280546130f490615a75565b80156131415780601f1061311657610100808354040283529160200191613141565b820191906000526020600020905b81548152906001019060200180831161312457829003601f168201915b5050505050815260200160038201805461315a90615a75565b80601f016020809104026020016040519081016040528092919081815260200182805461318690615a75565b80156131d35780601f106131a8576101008083540402835291602001916131d3565b820191906000526020600020905b8154815290600101906020018083116131b657829003601f168201915b50505050508152602001600482015481526020016005820154815260200160068201548152505083838151811061320c5761320c615a43565b6020026020010181905250818061322290615b60565b9250505b8061323081615b60565b91505061301d565b601f81815481106128e057600080fd5b6000546001600160a01b031633146132725760405162461bcd60e51b815260040161069b90615cb8565b60408051602080820183526001600160a01b038481168084526005805460018082018355600092835295517f036b6384b5eca791c62761152d0c79bb0604c104a5fb6f4eb0703f3154bb3db090910180546001600160a01b0319169190941617909255815260068252838120805460ff1916909317909255600880546007909252928220819055919061194d83615b60565b60408051602080820183526001600160a01b03848116808452601a805460018082018355600092835295517f057c384a7d1c54f3a1b2e5e67b2617b8224fdfd1ea7234eea573a6ff665ff63e90910180546001600160a01b03191691909416179092558152601b8252838120805460ff1916909317909255601d8054601c909252928220819055919061194d83615b60565b336000818152601b602052604090205460ff166133c55760405162461bcd60e51b815260040161069b90615c70565b6000805b6018548110156135c657336001600160a01b0316601882815481106133f0576133f0615a43565b6000918252602090912001546001600160a01b0316036135b4578760405160200161341b9190615a59565b60405160208183030381529060405280519060200120601760006018848154811061344857613448615a43565b60009182526020808320909101546001600160a01b0316835282810193909352604091820181208a8252835281902090516134839201615aaf565b60405160208183030381529060405280519060200120036135b457866040516020016134af9190615a59565b6040516020818303038152906040528051906020012060176000601884815481106134dc576134dc615a43565b60009182526020808320909101546001600160a01b0316835282810193909352604091820181208a82528352819020905161351e926001929092019101615aaf565b60405160208183030381529060405280519060200120036135b45783601760006018848154811061355157613551615a43565b60009182526020808320909101546001600160a01b0316835282810193909352604091820181208a8252909252902060040154036135b4576018818154811061359c5761359c615a43565b6000918252602090912001546001600160a01b031691505b806135be81615b60565b9150506133c9565b506001600160a01b03811660009081526017602090815260408083208884529091529020600201548411156136525760405162461bcd60e51b815260206004820152602c60248201527f54686973206d7563682071756e6174697479206f6620677261696e206973206e60448201526b6f7420617661696c61626c6560a01b606482015260840161069b565b6001600160a01b03811660009081526017602090815260408083208884529091529020600201548411611887576000341161369f5760405162461bcd60e51b815260040161069b90615bb0565b6001600160a01b03811660009081526017602090815260408083208884529091529020600301546136d09085615bdc565b34146136ee5760405162461bcd60e51b815260040161069b90615d2c565b60405188906001600160a01b038216903480156108fc02916000818181858888f19350505050158015613725573d6000803e3d6000fd5b507fea80c60f1c90c5e9ff77525101204f9246acf51d82518c27edbeaa0d60127bb4338a8a8a8934426040516137619796959493929190615bfb565b60405180910390a16001600160a01b03821660009081526017602090815260408083208984529091528120600201805487929061379f908490615c59565b90915550506000805460ff60b01b1916600160b01b1781556040805160e0810182523381526001600160a01b038c811660208084019182529383018d8152606084018d9052608084018c905260a084018b90524260c0850152601980546001810182559652835160079096027f944998273e477b495144fb8794c914197f3ccb46be2900f4698fd0ef743c9695810180549785166001600160a01b031998891617815592517f944998273e477b495144fb8794c914197f3ccb46be2900f4698fd0ef743c969682018054919095169716969096179092559051805192949193611848937f944998273e477b495144fb8794c914197f3ccb46be2900f4698fd0ef743c9697909301929101906152c2565b3360008181526006602052604090205460ff166138de5760405162461bcd60e51b815260040161069b90615a14565b600054600160a81b900460ff161515600103613d435760408051606080820183523382526001600160a01b038a8116602080850191825285516080810187528c81528082018c90528087018a9052938401889052948401928352600280546001810182556000918252855160069091027f405787fa12a823e0f2b7631cc41b3ba8828b3321ca811111fa75cd3aa3bb5ace810180549286166001600160a01b031993841617815593517f405787fa12a823e0f2b7631cc41b3ba8828b3321ca811111fa75cd3aa3bb5acf82018054919096169216919091179093559251805180519496929491937f405787fa12a823e0f2b7631cc41b3ba8828b3321ca811111fa75cd3aa3bb5ad001926139f7928492909101906152c2565b506020828101518051613a1092600185019201906152c2565b506040820151816002015560608201518160030155505050507f1a7fbb4c0e73e5682e67378b1f56e4ce2b0b08405c53e3fb728f130d7a09b0d188338989888842604051613a649796959493929190615bfb565b60405180910390a160005b600b54811015613be557336001600160a01b0316600b8281548110613a9657613a96615a43565b60009182526020909120600160079092020101546001600160a01b031603613bd35787604051602001613ac99190615a59565b60405160208183030381529060405280519060200120600b8281548110613af257613af2615a43565b9060005260206000209060070201600201604051602001613b139190615aaf565b6040516020818303038152906040528051906020012003613bd35786604051602001613b3f9190615a59565b60405160208183030381529060405280519060200120600b8281548110613b6857613b68615a43565b9060005260206000209060070201600301604051602001613b899190615aaf565b6040516020818303038152906040528051906020012003613bd35785600b8281548110613bb857613bb8615a43565b90600052602060002090600702016004015403613bd3578091505b80613bdd81615b60565b915050613a6f565b50600b8054613bf690600190615c59565b81548110613c0657613c06615a43565b9060005260206000209060070201600b8281548110613c2757613c27615a43565b60009182526020909120825460079092020180546001600160a01b039283166001600160a01b03199182161782556001808501549083018054919094169116179091556002808301805491830191613c7e90615a75565b613c89929190615391565b506003820181600301908054613c9e90615a75565b613ca9929190615391565b506004828101549082015560058083015490820155600691820154910155600b805480613cd857613cd8615d16565b60008281526020812060076000199093019283020180546001600160a01b03199081168255600182018054909116905590613d16600283018261540c565b613d2460038301600061540c565b5060006004820181905560058201819055600690910155905550610d83565b60405162461bcd60e51b815260206004820152603260248201527f50726f636573736f7220646f65736e2774206578697374206f72206865206469604482015271646e277420706179207468652062696c6c7360701b606482015260840161069b565b601181815481106128e057600080fd5b336000818152600d60205260409020546060919060ff16613de95760405162461bcd60e51b815260040161069b90615cdf565b60125460009067ffffffffffffffff811115613e0757613e0761545e565b604051908082528060200260200182016040528015613e4057816020015b613e2d615342565b815260200190600190039081613e255790505b5090506000805b60125481101561103857336001600160a01b031660128281548110613e6e57613e6e615a43565b60009182526020909120600160079092020101546001600160a01b0316036140505760128181548110613ea357613ea3615a43565b60009182526020918290206040805160e081018252600790930290910180546001600160a01b0390811684526001820154169383019390935260028301805492939291840191613ef290615a75565b80601f0160208091040260200160405190810160405280929190818152602001828054613f1e90615a75565b8015613f6b5780601f10613f4057610100808354040283529160200191613f6b565b820191906000526020600020905b815481529060010190602001808311613f4e57829003601f168201915b50505050508152602001600382018054613f8490615a75565b80601f0160208091040260200160405190810160405280929190818152602001828054613fb090615a75565b8015613ffd5780601f10613fd257610100808354040283529160200191613ffd565b820191906000526020600020905b815481529060010190602001808311613fe057829003601f168201915b50505050508152602001600482015481526020016005820154815260200160068201548152505083838151811061403657614036615a43565b6020026020010181905250818061404c90615b60565b9250505b8061405a81615b60565b915050613e47565b3360008181526014602052604090205460ff166140915760405162461bcd60e51b815260040161069b90615b79565b6000805b60185481101561429257336001600160a01b0316601882815481106140bc576140bc615a43565b6000918252602090912001546001600160a01b03160361428057876040516020016140e79190615a59565b60405160208183030381529060405280519060200120601760006018848154811061411457614114615a43565b60009182526020808320909101546001600160a01b0316835282810193909352604091820181208a82528352819020905161414f9201615aaf565b6040516020818303038152906040528051906020012003614280578660405160200161417b9190615a59565b6040516020818303038152906040528051906020012060176000601884815481106141a8576141a8615a43565b60009182526020808320909101546001600160a01b0316835282810193909352604091820181208a8252835281902090516141ea926001929092019101615aaf565b60405160208183030381529060405280519060200120036142805783601760006018848154811061421d5761421d615a43565b60009182526020808320909101546001600160a01b0316835282810193909352604091820181208a825290925290206004015403614280576018818154811061426857614268615a43565b6000918252602090912001546001600160a01b031691505b8061428a81615b60565b915050614095565b506001600160a01b0381166142e15760405162461bcd60e51b815260206004820152601560248201527411195d185a5b1cc8185c99481b9bdd08199bdd5b99605a1b604482015260640161069b565b6001600160a01b0381166000908152601760209081526040808320888452909152812060020180548692906112f9908490615ca0565b336000818152601b602052604090205460ff166143465760405162461bcd60e51b815260040161069b90615c70565b6000805b601f5481101561454757336001600160a01b0316601f828154811061437157614371615a43565b6000918252602090912001546001600160a01b031603614535578960405160200161439c9190615a59565b60405160208183030381529060405280519060200120601e6000601f84815481106143c9576143c9615a43565b60009182526020808320909101546001600160a01b0316835282810193909352604091820181208c8252835281902090516144049201615aaf565b604051602081830303815290604052805190602001200361453557886040516020016144309190615a59565b60405160208183030381529060405280519060200120601e6000601f848154811061445d5761445d615a43565b60009182526020808320909101546001600160a01b0316835282810193909352604091820181208c82528352819020905161449f926001929092019101615aaf565b60405160208183030381529060405280519060200120036145355784601e6000601f84815481106144d2576144d2615a43565b60009182526020808320909101546001600160a01b0316835282810193909352604091820181208c82529092529020600401540361453557601f818154811061451d5761451d615a43565b6000918252602090912001546001600160a01b031691505b8061453f81615b60565b91505061434a565b506040805160c0810182528a815260208082018b9052818301899052606082018890526080820187905260a08201869052336000908152601e82528381208b825282529290922081518051929391926145a392849201906152c2565b5060208281015180516145bc92600185019201906152c2565b5060408201516002820155606082015160038201556080820151600482015560a0909101516005909101555050601f80546001810182556000919091527fa03837a25210ee280c2113ff4b77ca23440b19d4866cca721c801278fd08d8070180546001600160a01b0319163317905550505050505050565b3360008181526006602052604090205460ff166146635760405162461bcd60e51b815260040161069b90615a14565b6000805b60185481101561486457336001600160a01b03166018828154811061468e5761468e615a43565b6000918252602090912001546001600160a01b03160361485257896040516020016146b99190615a59565b6040516020818303038152906040528051906020012060176000601884815481106146e6576146e6615a43565b60009182526020808320909101546001600160a01b0316835282810193909352604091820181208c8252835281902090516147219201615aaf565b6040516020818303038152906040528051906020012003614852578860405160200161474d9190615a59565b60405160208183030381529060405280519060200120601760006018848154811061477a5761477a615a43565b60009182526020808320909101546001600160a01b0316835282810193909352604091820181208c8252835281902090516147bc926001929092019101615aaf565b6040516020818303038152906040528051906020012003614852578460176000601884815481106147ef576147ef615a43565b60009182526020808320909101546001600160a01b0316835282810193909352604091820181208c825290925290206004015403614852576018818154811061483a5761483a615a43565b6000918252602090912001546001600160a01b031691505b8061485c81615b60565b915050614667565b506001600160a01b038116614959576040805160c0810182528a815260208082018b9052818301899052606082018890526080820187905260a08201869052336000908152601782528381208b825282529290922081518051929391926148ce92849201906152c2565b5060208281015180516148e792600185019201906152c2565b5060408201516002820155606082015160038201556080820151600482015560a090910151600590910155601880546001810182556000919091527fb13d2d76d1f4b7be834882e410b3e3a8afaf69f83600ae24db354391d2378d2e0180546001600160a01b03191633179055614999565b60405162461bcd60e51b815260206004820152601560248201527411195d185a5b1cc8185c99481b9bdd08199bdd5b99605a1b604482015260640161069b565b505050505050505050565b3360008181526006602052604090205460ff166149d35760405162461bcd60e51b815260040161069b90615a14565b6000805b601154811015614b8457876001600160a01b0316601182815481106149fe576149fe615a43565b6000918252602090912001546001600160a01b031603614b725786604051602001614a299190615a59565b604051602081830303815290604052805190602001206010600060118481548110614a5657614a56615a43565b60009182526020808320909101546001600160a01b03168352828101939093526040918201812089825283528190209051614a919201615aaf565b6040516020818303038152906040528051906020012003614b725785604051602001614abd9190615a59565b604051602081830303815290604052805190602001206010600060118481548110614aea57614aea615a43565b60009182526020808320909101546001600160a01b03168352828101939093526040918201812089825283528190209051614b2c926001929092019101615aaf565b6040516020818303038152906040528051906020012003614b725760118181548110614b5a57614b5a615a43565b6000918252602090912001546001600160a01b031691505b80614b7c81615b60565b9150506149d7565b506001600160a01b0381166000908152601060209081526040808320878452909152902060020154831115614c0f5760405162461bcd60e51b815260206004820152602b60248201527f54686973206d7563682071756e6174697479206f662073656564206973206e6f60448201526a7420617661696c61626c6560a81b606482015260840161069b565b6001600160a01b03811660009081526010602090815260408083208784529091529020600201548311610d835760003411614c5c5760405162461bcd60e51b815260040161069b90615bb0565b6001600160a01b0381166000908152601060209081526040808320878452909152902060030154614c8d9084615bdc565b3414614cab5760405162461bcd60e51b815260040161069b90615d2c565b60405187906001600160a01b038216903480156108fc02916000818181858888f19350505050158015614ce2573d6000803e3d6000fd5b507f763a09a3907aa5142f5d1531400d72f0d62b4bb2d7af6cd649ebeff279b2442733898989883442604051614d1e9796959493929190615bfb565b60405180910390a16001600160a01b038216600090815260106020908152604080832088845290915281206002018054869290614d5c908490615c59565b90915550506000805460ff60a01b1916600160a01b1781556040805160e0810182523381526001600160a01b038b811660208084019182529383018c8152606084018c9052608084018b905260a084018a90524260c0850152601280546001810182559652835160079096027fbb8a6a4669ba250d26cd7a459eca9d215f8307e33aebe50379bc5a3617ec3444810180549785166001600160a01b031998891617815592517fbb8a6a4669ba250d26cd7a459eca9d215f8307e33aebe50379bc5a3617ec344582018054919095169716969096179092559051805192949193610d44937fbb8a6a4669ba250d26cd7a459eca9d215f8307e33aebe50379bc5a3617ec3446909301929101906152c2565b336000818152600d602052604090205460ff16614e9b5760405162461bcd60e51b815260040161069b90615cdf565b600054600160a01b900460ff1615156001036152925760408051606080820183523382526001600160a01b038a8116602080850191825285516080810187528c81528082018c90528087018a90529384018890529484019283526001805480820182556000918252855160069091027fb10e2d527612073b26eecdfd717e6a320cf44b4afac2b0732d9fcbe2b7fa0cf6810180549286166001600160a01b031993841617815593517fb10e2d527612073b26eecdfd717e6a320cf44b4afac2b0732d9fcbe2b7fa0cf782018054919096169216919091179093559251805180519496929491937fb10e2d527612073b26eecdfd717e6a320cf44b4afac2b0732d9fcbe2b7fa0cf80192614fb3928492909101906152c2565b506020828101518051614fcc92600185019201906152c2565b506040820151816002015560608201518160030155505050507f0abb2b17e070b031d143b94e96bb7894984f9776f01493cbcc2f4191d803a1b688338989884260405161501e96959493929190615d71565b60405180910390a160005b60125481101561519f57336001600160a01b03166012828154811061505057615050615a43565b60009182526020909120600160079092020101546001600160a01b03160361518d57876040516020016150839190615a59565b60405160208183030381529060405280519060200120601282815481106150ac576150ac615a43565b90600052602060002090600702016002016040516020016150cd9190615aaf565b604051602081830303815290604052805190602001200361518d57866040516020016150f99190615a59565b604051602081830303815290604052805190602001206012828154811061512257615122615a43565b90600052602060002090600702016003016040516020016151439190615aaf565b604051602081830303815290604052805190602001200361518d57856012828154811061517257615172615a43565b9060005260206000209060070201600401540361518d578091505b8061519781615b60565b915050615029565b50601280546151b090600190615c59565b815481106151c0576151c0615a43565b9060005260206000209060070201601282815481106151e1576151e1615a43565b60009182526020909120825460079092020180546001600160a01b039283166001600160a01b0319918216178255600180850154908301805491909416911617909155600280830180549183019161523890615a75565b615243929190615391565b50600382018160030190805461525890615a75565b615263929190615391565b5060048281015490820155600580830154908201556006918201549101556012805480613cd857613cd8615d16565b60405162461bcd60e51b815260206004820152600560248201526422b93937b960d91b604482015260640161069b565b8280546152ce90615a75565b90600052602060002090601f0160209004810192826152f05760008555615336565b82601f1061530957805160ff1916838001178555615336565b82800160010185558215615336579182015b8281111561533657825182559160200191906001019061531b565b5061108e929150615449565b6040518060e0016040528060006001600160a01b0316815260200160006001600160a01b0316815260200160608152602001606081526020016000815260200160008152602001600081525090565b82805461539d90615a75565b90600052602060002090601f0160209004810192826153bf5760008555615336565b82601f106153d05780548555615336565b8280016001018555821561533657600052602060002091601f016020900482015b828111156153365782548255916001019190600101906153f1565b50805461541890615a75565b6000825580601f10615428575050565b601f0160209004906000526020600020908101906154469190615449565b50565b5b8082111561108e576000815560010161544a565b634e487b7160e01b600052604160045260246000fd5b600082601f83011261548557600080fd5b813567ffffffffffffffff808211156154a0576154a061545e565b604051601f8301601f19908116603f011681019082821181831017156154c8576154c861545e565b816040528381528660208588010111156154e157600080fd5b836020870160208301376000602085830101528094505050505092915050565b6000806000806080858703121561551757600080fd5b843567ffffffffffffffff8082111561552f57600080fd5b61553b88838901615474565b9550602087013591508082111561555157600080fd5b5061555e87828801615474565b949794965050505060408301359260600135919050565b6001600160a01b038116811461544657600080fd5b600080600080600060a086880312156155a257600080fd5b85356155ad81615575565b9450602086013567ffffffffffffffff808211156155ca57600080fd5b6155d689838a01615474565b955060408801359150808211156155ec57600080fd5b506155f988828901615474565b9598949750949560608101359550608001359392505050565b60005b8381101561562d578181015183820152602001615615565b8381111561563c576000848401525b50505050565b6000815180845261565a816020860160208601615612565b601f01601f19169290920160200192915050565b60006020808301818452808551808352604092508286019150828160051b87010184880160005b8381101561572857888303603f19018552815180516001600160a01b0390811685528882015116888501528681015160e0888601819052906156d982870182615642565b915050606080830151868303828801526156f38382615642565b6080858101519089015260a0808601519089015260c09485015194909701939093525050509386019390860190600101615695565b509098975050505050505050565b600080600080600060a0868803121561574e57600080fd5b853567ffffffffffffffff8082111561576657600080fd5b61577289838a01615474565b9650602088013591508082111561578857600080fd5b5061579588828901615474565b959895975050505060408401359360608101359360809091013592509050565b60008060008060008060c087890312156157ce57600080fd5b86356157d981615575565b9550602087013567ffffffffffffffff808211156157f657600080fd5b6158028a838b01615474565b9650604089013591508082111561581857600080fd5b5061582589828a01615474565b945050606087013592506080870135915060a087013590509295509295509295565b60006020828403121561585957600080fd5b813561586481615575565b9392505050565b600080600080600080600060e0888a03121561588657600080fd5b873561589181615575565b9650602088013567ffffffffffffffff808211156158ae57600080fd5b6158ba8b838c01615474565b975060408a01359150808211156158d057600080fd5b506158dd8a828b01615474565b979a96995096976060810135975060808101359660a0820135965060c090910135945092505050565b6000806040838503121561591957600080fd5b823561592481615575565b946020939093013593505050565b6080815260006159456080830187615642565b82810360208401526159578187615642565b604084019590955250506060015292915050565b60006020828403121561597d57600080fd5b5035919050565b600080600080600080600060e0888a03121561599f57600080fd5b873567ffffffffffffffff808211156159b757600080fd5b6159c38b838c01615474565b985060208a01359150808211156159d957600080fd5b506159e68a828b01615474565b979a9799505050506040860135956060810135956080820135955060a0820135945060c09091013592509050565b6020808252601590820152744661726d657220646f65736e27742065787369732160581b604082015260600190565b634e487b7160e01b600052603260045260246000fd5b60008251615a6b818460208701615612565b9190910192915050565b600181811c90821680615a8957607f821691505b602082108103615aa957634e487b7160e01b600052602260045260246000fd5b50919050565b600080835481600182811c915080831680615acb57607f831692505b60208084108203615aea57634e487b7160e01b86526022600452602486fd5b818015615afe5760018114615b0f57615b3c565b60ff19861689528489019650615b3c565b60008a81526020902060005b86811015615b345781548b820152908501908301615b1b565b505084890196505b509498975050505050505050565b634e487b7160e01b600052601160045260246000fd5b600060018201615b7257615b72615b4a565b5060010190565b60208082526017908201527f50726f636573736f7220646f65736e2774206578697374000000000000000000604082015260600190565b6020808252601290820152710796f75206861766520656e746572656420360741b604082015260600190565b6000816000190483118215151615615bf657615bf6615b4a565b500290565b6001600160a01b0388811682528716602082015260e060408201819052600090615c2790830188615642565b8281036060840152615c398188615642565b6080840196909652505060a081019290925260c090910152949350505050565b600082821015615c6b57615c6b615b4a565b500390565b60208082526016908201527514995d185a5b195c88191bd95cdb89dd08195e1a5cdd60521b604082015260600190565b60008219821115615cb357615cb3615b4a565b500190565b6020808252600d908201526c31b7b73334b232b73a34b0b61760991b604082015260600190565b6020808252601b908201527f5365656420636f6d70616e7920646f65736e2774206578697374210000000000604082015260600190565b634e487b7160e01b600052603160045260246000fd5b60208082526025908201527f596f7520686176656e277420656e74657264207468652065787065637465642060408201526476616c756560d81b606082015260800190565b6001600160a01b0387811682528616602082015260c060408201819052600090615d9d90830187615642565b8281036060840152615daf8187615642565b6080840195909552505060a0015294935050505056fea2646970667358221220f8918729944f48a98339b325856f44b0c0940225e5601c7d7893a457724d53fc64736f6c634300080e0033",
    "sourcePath": "e:/JSS Mysore/6th Semester/EC67L D&I/Project/supplyChain.sol",
    "compiler": {
        "name": "solc",
        "version": "0.8.14+commit.80d49f37"
    },
    "functionHashes": {
        "FarmerDashBoard()": "13fd455f",
        "ProcessorDashBoard()": "4358b025",
        "RetailerDashBoard()": "6b5d7019",
        "addFarmer(address)": "80c3f96d",
        "addProcessedGrainQuantity(string,string,uint256,uint256,uint256)": "ba298638",
        "addProcessor(address)": "25460753",
        "addRetailer(address)": "8ec4f505",
        "addSeedCompany(address)": "2010657c",
        "addSeedQuantity(string,string,uint256,uint256)": "6389e07b",
        "buyGrainFromFarmer(address,string,string,uint256,uint256)": "08fc51a0",
        "buyGrainFromProcessor(address,string,string,uint256,uint256,uint256)": "95e4f2ef",
        "buyGrainFromRetailer(address,string,string,uint256,uint256,uint256)": "1c00bbb4",
        "buySeeds(address,string,string,uint256,uint256)": "f30bb33c",
        "farmerListIndex(address)": "73b1aeb6",
        "farmerListMapping(address)": "b5d02ded",
        "processorUpdateAddress(uint256)": "441962f7",
        "retailerUpdateAddress(uint256)": "77e214c8",
        "seedCompanyCount()": "2a2c48be",
        "seedCompanyDashBoard()": "a5b41396",
        "seedCompanyIndex(address)": "e150bbfd",
        "seedCompanyListArray(uint256)": "50bf84b8",
        "seedCompanyListMapping(address)": "2dbe0bde",
        "seedTypeVariety(address,uint256)": "42b8a904",
        "seedUpdateAddress(uint256)": "a444c2d9",
        "sellGrianToCustomer(address,string,string,uint256,uint256,uint256,uint256)": "3caaef83",
        "sellGrianToProcessor(address,string,string,uint256,uint256,uint256)": "981e3e05",
        "sellGrianToRetailer(address,string,string,uint256,uint256,uint256,uint256)": "55b92553",
        "sellSeeds(address,string,string,uint256,uint256,uint256)": "fbb78500",
        "updateGrainFarmerQuantity(string,string,uint256,uint256,uint256)": "4287ad8d",
        "updateGrainQuantityByFarmer(string,string,uint256,uint256)": "0660aba4",
        "updateProcessedGrain(string,string,uint256,uint256,uint256,uint256,uint256)": "e3e5ad02",
        "updateRetailerGrain(string,string,uint256,uint256,uint256,uint256,uint256)": "d37795ca",
        "updateRetailerGrainQuantity(string,string,uint256,uint256,uint256)": "1a91e86f",
        "updateSeedDetails(string,string,uint256,uint256,uint256)": "20186479"
    },
    "gasEstimates": {
        "creation": {
            "codeDepositCost": "4811800",
            "executionCost": "69147",
            "totalCost": "4880947"
        },
        "external": {
            "FarmerDashBoard()": "infinite",
            "ProcessorDashBoard()": "infinite",
            "RetailerDashBoard()": "infinite",
            "addFarmer(address)": "121787",
            "addProcessedGrainQuantity(string,string,uint256,uint256,uint256)": "infinite",
            "addProcessor(address)": "121854",
            "addRetailer(address)": "119669",
            "addSeedCompany(address)": "121810",
            "addSeedQuantity(string,string,uint256,uint256)": "infinite",
            "buyGrainFromFarmer(address,string,string,uint256,uint256)": "infinite",
            "buyGrainFromProcessor(address,string,string,uint256,uint256,uint256)": "infinite",
            "buyGrainFromRetailer(address,string,string,uint256,uint256,uint256)": "infinite",
            "buySeeds(address,string,string,uint256,uint256)": "infinite",
            "farmerListIndex(address)": "2603",
            "farmerListMapping(address)": "2614",
            "processorUpdateAddress(uint256)": "4703",
            "retailerUpdateAddress(uint256)": "4726",
            "seedCompanyCount()": "2341",
            "seedCompanyDashBoard()": "infinite",
            "seedCompanyIndex(address)": "2579",
            "seedCompanyListArray(uint256)": "4725",
            "seedCompanyListMapping(address)": "2593",
            "seedTypeVariety(address,uint256)": "infinite",
            "seedUpdateAddress(uint256)": "4659",
            "sellGrianToCustomer(address,string,string,uint256,uint256,uint256,uint256)": "infinite",
            "sellGrianToProcessor(address,string,string,uint256,uint256,uint256)": "infinite",
            "sellGrianToRetailer(address,string,string,uint256,uint256,uint256,uint256)": "infinite",
            "sellSeeds(address,string,string,uint256,uint256,uint256)": "infinite",
            "updateGrainFarmerQuantity(string,string,uint256,uint256,uint256)": "infinite",
            "updateGrainQuantityByFarmer(string,string,uint256,uint256)": "infinite",
            "updateProcessedGrain(string,string,uint256,uint256,uint256,uint256,uint256)": "infinite",
            "updateRetailerGrain(string,string,uint256,uint256,uint256,uint256,uint256)": "infinite",
            "updateRetailerGrainQuantity(string,string,uint256,uint256,uint256)": "infinite",
            "updateSeedDetails(string,string,uint256,uint256,uint256)": "infinite"
        }
    }
}