{
    "contractName": "supplyChainAgriculture",
    "abi": [
        {
            "inputs": [],
            "stateMutability": "nonpayable",
            "type": "constructor"
        },
        {
            "anonymous": false,
            "inputs": [
                {
                    "indexed": false,
                    "internalType": "address",
                    "name": "farmer",
                    "type": "address"
                },
                {
                    "indexed": false,
                    "internalType": "address",
                    "name": "seedCompany",
                    "type": "address"
                },
                {
                    "indexed": false,
                    "internalType": "string",
                    "name": "seedType",
                    "type": "string"
                },
                {
                    "indexed": false,
                    "internalType": "string",
                    "name": "variety",
                    "type": "string"
                },
                {
                    "indexed": false,
                    "internalType": "uint256",
                    "name": "quantity",
                    "type": "uint256"
                },
                {
                    "indexed": false,
                    "internalType": "uint256",
                    "name": "time",
                    "type": "uint256"
                }
            ],
            "name": "sellOfSeeds",
            "type": "event"
        },
        {
            "anonymous": false,
            "inputs": [
                {
                    "indexed": false,
                    "internalType": "address",
                    "name": "farmer",
                    "type": "address"
                },
                {
                    "indexed": false,
                    "internalType": "address",
                    "name": "Seedcompany",
                    "type": "address"
                },
                {
                    "indexed": false,
                    "internalType": "string",
                    "name": "seedType",
                    "type": "string"
                },
                {
                    "indexed": false,
                    "internalType": "string",
                    "name": "variety",
                    "type": "string"
                },
                {
                    "indexed": false,
                    "internalType": "uint256",
                    "name": "quantity",
                    "type": "uint256"
                },
                {
                    "indexed": false,
                    "internalType": "uint256",
                    "name": "Price",
                    "type": "uint256"
                },
                {
                    "indexed": false,
                    "internalType": "uint256",
                    "name": "time",
                    "type": "uint256"
                }
            ],
            "name": "transferComplete",
            "type": "event"
        },
        {
            "inputs": [
                {
                    "internalType": "string",
                    "name": "_hash",
                    "type": "string"
                },
                {
                    "internalType": "string",
                    "name": "_name",
                    "type": "string"
                },
                {
                    "internalType": "uint256",
                    "name": "_storageQuantity",
                    "type": "uint256"
                }
            ],
            "name": "addElevator",
            "outputs": [],
            "stateMutability": "nonpayable",
            "type": "function"
        },
        {
            "inputs": [
                {
                    "internalType": "string",
                    "name": "_hash",
                    "type": "string"
                }
            ],
            "name": "addFarmer",
            "outputs": [],
            "stateMutability": "nonpayable",
            "type": "function"
        },
        {
            "inputs": [
                {
                    "internalType": "string",
                    "name": "_name",
                    "type": "string"
                },
                {
                    "internalType": "string",
                    "name": "_hash",
                    "type": "string"
                }
            ],
            "name": "addSeedCompany",
            "outputs": [],
            "stateMutability": "nonpayable",
            "type": "function"
        },
        {
            "inputs": [
                {
                    "internalType": "string",
                    "name": "_seedType",
                    "type": "string"
                },
                {
                    "internalType": "string",
                    "name": "_variety",
                    "type": "string"
                },
                {
                    "internalType": "uint256",
                    "name": "_addQuantity",
                    "type": "uint256"
                }
            ],
            "name": "addSeedQuantity",
            "outputs": [],
            "stateMutability": "nonpayable",
            "type": "function"
        },
        {
            "inputs": [
                {
                    "internalType": "address payable",
                    "name": "_seedCompany",
                    "type": "address"
                },
                {
                    "internalType": "string",
                    "name": "_seedType",
                    "type": "string"
                },
                {
                    "internalType": "string",
                    "name": "_variety",
                    "type": "string"
                },
                {
                    "internalType": "uint256",
                    "name": "_quantity",
                    "type": "uint256"
                }
            ],
            "name": "buySeeds",
            "outputs": [],
            "stateMutability": "payable",
            "type": "function"
        },
        {
            "inputs": [],
            "name": "createContract",
            "outputs": [],
            "stateMutability": "nonpayable",
            "type": "function"
        },
        {
            "inputs": [],
            "name": "getListOfFarmer",
            "outputs": [
                {
                    "components": [
                        {
                            "internalType": "address payable",
                            "name": "farmerAddress",
                            "type": "address"
                        },
                        {
                            "internalType": "string",
                            "name": "hash",
                            "type": "string"
                        }
                    ],
                    "internalType": "struct supplyChainAgriculture.Farmer[]",
                    "name": "",
                    "type": "tuple[]"
                },
                {
                    "internalType": "uint256",
                    "name": "",
                    "type": "uint256"
                }
            ],
            "stateMutability": "view",
            "type": "function"
        },
        {
            "inputs": [],
            "name": "getListOfseedCompany",
            "outputs": [
                {
                    "components": [
                        {
                            "internalType": "address payable",
                            "name": "companyAddress",
                            "type": "address"
                        },
                        {
                            "internalType": "string",
                            "name": "CompanyName",
                            "type": "string"
                        },
                        {
                            "internalType": "string",
                            "name": "hash",
                            "type": "string"
                        }
                    ],
                    "internalType": "struct supplyChainAgriculture.SeedCompany[]",
                    "name": "",
                    "type": "tuple[]"
                },
                {
                    "internalType": "uint256",
                    "name": "",
                    "type": "uint256"
                }
            ],
            "stateMutability": "view",
            "type": "function"
        },
        {
            "inputs": [
                {
                    "internalType": "string",
                    "name": "_seedType",
                    "type": "string"
                },
                {
                    "internalType": "string",
                    "name": "_variety",
                    "type": "string"
                },
                {
                    "internalType": "uint256",
                    "name": "_addQuantity",
                    "type": "uint256"
                }
            ],
            "name": "removeSeedQuantity",
            "outputs": [],
            "stateMutability": "nonpayable",
            "type": "function"
        },
        {
            "inputs": [
                {
                    "internalType": "address",
                    "name": "_farmer",
                    "type": "address"
                },
                {
                    "internalType": "string",
                    "name": "_seedType",
                    "type": "string"
                },
                {
                    "internalType": "string",
                    "name": "_variety",
                    "type": "string"
                },
                {
                    "internalType": "uint256",
                    "name": "_quantity",
                    "type": "uint256"
                }
            ],
            "name": "sellSeeds",
            "outputs": [],
            "stateMutability": "nonpayable",
            "type": "function"
        },
        {
            "inputs": [
                {
                    "internalType": "string",
                    "name": "_seedType",
                    "type": "string"
                },
                {
                    "internalType": "string",
                    "name": "_variety",
                    "type": "string"
                },
                {
                    "internalType": "uint256",
                    "name": "_quantity",
                    "type": "uint256"
                },
                {
                    "internalType": "uint256",
                    "name": "_pricePer10g",
                    "type": "uint256"
                }
            ],
            "name": "updateSeedDetails",
            "outputs": [],
            "stateMutability": "nonpayable",
            "type": "function"
        },
        {
            "inputs": [
                {
                    "internalType": "string",
                    "name": "_seedType",
                    "type": "string"
                },
                {
                    "internalType": "string",
                    "name": "_variety",
                    "type": "string"
                },
                {
                    "internalType": "uint256",
                    "name": "_pricePer10g",
                    "type": "uint256"
                }
            ],
            "name": "updateSeedPrice",
            "outputs": [],
            "stateMutability": "nonpayable",
            "type": "function"
        }
    ],
    "bytecode": "60806040526000805461ffff60a01b191681556005819055600b5534801561002657600080fd5b50600080546001600160a01b03191633179055611d47806100486000396000f3fe6080604052600436106100a75760003560e01c806359a1d1a31161006457806359a1d1a3146101725780635eb78b8c14610192578063719fae32146101b2578063b9ac42b2146101d2578063d49376ca146101e5578063dc441ba81461020557600080fd5b806302ca78f2146100ac57806303f8027a146100ce57806317cf2c15146100fa5780631aeb4ec71461011a5780632d7e2e8b1461013d578063412a5a6d1461015d575b600080fd5b3480156100b857600080fd5b506100cc6100c7366004611724565b610225565b005b3480156100da57600080fd5b506100e361037f565b6040516100f19291906117fe565b60405180910390f35b34801561010657600080fd5b506100cc610115366004611882565b6104fc565b34801561012657600080fd5b5061012f61061b565b6040516100f19291906118ef565b34801561014957600080fd5b506100cc61015836600461198f565b6107b1565b34801561016957600080fd5b506100cc610894565b34801561017e57600080fd5b506100cc61018d366004611882565b610960565b34801561019e57600080fd5b506100cc6101ad366004611882565b610b54565b3480156101be57600080fd5b506100cc6101cd3660046119cc565b610d5c565b6100cc6101e0366004611724565b610e49565b3480156101f157600080fd5b506100cc610200366004611a40565b6112c7565b34801561021157600080fd5b506100cc610220366004611882565b6113d4565b3360008181526007602052604090205460ff1661025d5760405162461bcd60e51b815260040161025490611aa4565b60405180910390fd5b3360009081526007602052604090205460ff166102bc5760405162461bcd60e51b815260206004820152601a60248201527f5365656420436f6d70616e7920446f65736e27742045786973740000000000006044820152606401610254565b600054600160a01b900460ff161515600103610318577f0abb2b17e070b031d143b94e96bb7894984f9776f01493cbcc2f4191d803a1b685338686864260405161030b96959493929190611adb565b60405180910390a1610378565b60405162461bcd60e51b815260206004820152602f60248201527f4661726d657220646f65736e2774206578697374206f72206865206469646e2760448201526e7420706179207468652062696c6c7360881b6064820152608401610254565b5050505050565b60008054606091906001600160a01b031633146103ef5760405162461bcd60e51b815260206004820152602860248201527f536f7272792c205468697320696e666f726d6174696f6e20697320636f6e66696044820152673232b73a34b0b61760c11b6064820152608401610254565b600260055481805480602002602001604051908101604052809291908181526020016000905b828210156104ee576000848152602090819020604080518082019091526002850290910180546001600160a01b03168252600181018054929391929184019161045d90611b2f565b80601f016020809104026020016040519081016040528092919081815260200182805461048990611b2f565b80156104d65780601f106104ab576101008083540402835291602001916104d6565b820191906000526020600020905b8154815290600101906020018083116104b957829003601f168201915b50505050508152505081526020019060010190610415565b505050509150915091509091565b60408051608081018252338152602080820185815292820186905260608201849052600c805460018101825560009190915282517fdf6966c971051c3d54ec59162606531493a51404a002842f56009d7e5cf4a8c7600490920291820180546001600160a01b0319166001600160a01b03909216919091178155935180519394936105b0937fdf6966c971051c3d54ec59162606531493a51404a002842f56009d7e5cf4a8c89093019291909101906115d0565b50604082015180516105cc9160028401916020909101906115d0565b5060609190910151600390910155336000908152600d60209081526040808320805460ff19166001179055600f8054600e909352908320829055909161061183611b7f565b9190505550505050565b606060006006600b5481805480602002602001604051908101604052809291908181526020016000905b828210156104ee57600084815260209081902060408051606081019091526003850290910180546001600160a01b03168252600181018054929391929184019161068e90611b2f565b80601f01602080910402602001604051908101604052809291908181526020018280546106ba90611b2f565b80156107075780601f106106dc57610100808354040283529160200191610707565b820191906000526020600020905b8154815290600101906020018083116106ea57829003601f168201915b5050505050815260200160028201805461072090611b2f565b80601f016020809104026020016040519081016040528092919081815260200182805461074c90611b2f565b80156107995780601f1061076e57610100808354040283529160200191610799565b820191906000526020600020905b81548152906001019060200180831161077c57829003601f168201915b50505050508152505081526020019060010190610645565b604080518082019091523381526020808201838152600280546001810182556000829052845191027f405787fa12a823e0f2b7631cc41b3ba8828b3321ca811111fa75cd3aa3bb5ace810180546001600160a01b03939093166001600160a01b0319909316929092178255915180519193610851937f405787fa12a823e0f2b7631cc41b3ba8828b3321ca811111fa75cd3aa3bb5acf01929101906115d0565b5050336000908152600360209081526040808320805460ff191660011790556005805460049093529083208290559092509061088c83611b7f565b919050555050565b3360008181526003602052604090205460ff166108eb5760405162461bcd60e51b81526020600482015260156024820152744661726d657220646f65736e27742065787369732160581b6044820152606401610254565b3360009081526003602052604090205460ff166109435760405162461bcd60e51b81526020600482015260166024820152754661726d657220646f65736e2774206578736973742160501b6044820152606401610254565b50336000908152600160205260409020805460ff19166002179055565b3360008181526007602052604090205460ff1661098f5760405162461bcd60e51b815260040161025490611aa4565b6000805b600a54811015610b3057336001600160a01b0316600a82815481106109ba576109ba611b98565b6000918252602090912001546001600160a01b031603610b1e57856040516020016109e59190611bae565b6040516020818303038152906040528051906020012060096000600a8481548110610a1257610a12611b98565b60009182526020808320909101546001600160a01b0316835282810193909352604091820190209051610a459201611bca565b6040516020818303038152906040528051906020012003610b1e5784604051602001610a719190611bae565b6040516020818303038152906040528051906020012060096000600a8481548110610a9e57610a9e611b98565b60009182526020808320909101546001600160a01b0316835282810193909352604091820190209051610ad8926001929092019101611bca565b6040516020818303038152906040528051906020012003610b1e57600a8181548110610b0657610b06611b98565b6000918252602090912001546001600160a01b031691505b80610b2881611b7f565b915050610993565b506001600160a01b0316600090815260096020526040902060030191909155505050565b3360008181526007602052604090205460ff16610b835760405162461bcd60e51b815260040161025490611aa4565b6000805b600a54811015610d2457336001600160a01b0316600a8281548110610bae57610bae611b98565b6000918252602090912001546001600160a01b031603610d125785604051602001610bd99190611bae565b6040516020818303038152906040528051906020012060096000600a8481548110610c0657610c06611b98565b60009182526020808320909101546001600160a01b0316835282810193909352604091820190209051610c399201611bca565b6040516020818303038152906040528051906020012003610d125784604051602001610c659190611bae565b6040516020818303038152906040528051906020012060096000600a8481548110610c9257610c92611b98565b60009182526020808320909101546001600160a01b0316835282810193909352604091820190209051610ccc926001929092019101611bca565b6040516020818303038152906040528051906020012003610d1257600a8181548110610cfa57610cfa611b98565b6000918252602090912001546001600160a01b031691505b80610d1c81611b7f565b915050610b87565b506001600160a01b03811660009081526009602052604081206002018054859290610d50908490611c65565b90915550505050505050565b3360008181526007602052604090205460ff16610d8b5760405162461bcd60e51b815260040161025490611aa4565b6040805160808101825286815260208082018790528183018690526060820185905233600090815260098252929092208151805192939192610dd092849201906115d0565b506020828101518051610de992600185019201906115d0565b50604082015160028201556060909101516003909101555050600a80546001810182556000919091527fc65a7bb8d6351c1cf70c95a316cc6a92839c986682d98bc35f958f4883f9d2a80180546001600160a01b03191633179055505050565b3360008181526003602052604090205460ff16610ea05760405162461bcd60e51b81526020600482015260156024820152744661726d657220646f65736e27742065787369732160581b6044820152606401610254565b3360009081526003602052604090205460ff16610ef65760405162461bcd60e51b815260206004820152601460248201527311985c9b595c88191bd95cdb89dd08115e1a5cdd60621b6044820152606401610254565b6000805b600a5481101561109757866001600160a01b0316600a8281548110610f2157610f21611b98565b6000918252602090912001546001600160a01b0316036110855785604051602001610f4c9190611bae565b6040516020818303038152906040528051906020012060096000600a8481548110610f7957610f79611b98565b60009182526020808320909101546001600160a01b0316835282810193909352604091820190209051610fac9201611bca565b60405160208183030381529060405280519060200120036110855784604051602001610fd89190611bae565b6040516020818303038152906040528051906020012060096000600a848154811061100557611005611b98565b60009182526020808320909101546001600160a01b031683528281019390935260409182019020905161103f926001929092019101611bca565b604051602081830303815290604052805190602001200361108557600a818154811061106d5761106d611b98565b6000918252602090912001546001600160a01b031691505b8061108f81611b7f565b915050610efa565b506001600160a01b03811660009081526009602052604090206002015483116111165760405162461bcd60e51b815260206004820152602b60248201527f54686973206d7563682071756e6174697479206f662073656564206973206e6f60448201526a7420617661696c61626c6560a81b6064820152608401610254565b6001600160a01b03811660009081526009602052604090206002015483116112bf576000341161117d5760405162461bcd60e51b81526020600482015260126024820152710796f75206861766520656e746572656420360741b6044820152606401610254565b6001600160a01b0381166000908152600960205260409020600301546111a39084611c7d565b34146111ff5760405162461bcd60e51b815260206004820152602560248201527f596f7520686176656e277420656e74657264207468652065787065637465642060448201526476616c756560d81b6064820152608401610254565b60405186906001600160a01b038216903480156108fc02916000818181858888f19350505050158015611236573d6000803e3d6000fd5b507fd735da5468732106f2c599326a1c6bb78802934f456a8737a5b0a5e3b0c28d6e338888888834426040516112729796959493929190611c9c565b60405180910390a16001600160a01b038216600090815260096020526040812060020180548692906112a5908490611cfa565b90915550506000805460ff60a01b1916600160a01b179055505b505050505050565b6040805160608101825233815260208082018581529282018490526006805460018101825560009190915282517ff652222313e28459528d920b65115c16c04f3efc82aaedc97be59f3f377c0d3f600390920291820180546001600160a01b0319166001600160a01b0390921691909117815593518051939493611374937ff652222313e28459528d920b65115c16c04f3efc82aaedc97be59f3f377c0d409093019291909101906115d0565b50604082015180516113909160028401916020909101906115d0565b5050336000908152600760209081526040808320805460ff19166001179055600b80546008909352908320829055909250906113cb83611b7f565b91905055505050565b3360008181526007602052604090205460ff166114035760405162461bcd60e51b815260040161025490611aa4565b6000805b600a548110156115a457336001600160a01b0316600a828154811061142e5761142e611b98565b6000918252602090912001546001600160a01b03160361159257856040516020016114599190611bae565b6040516020818303038152906040528051906020012060096000600a848154811061148657611486611b98565b60009182526020808320909101546001600160a01b03168352828101939093526040918201902090516114b99201611bca565b604051602081830303815290604052805190602001200361159257846040516020016114e59190611bae565b6040516020818303038152906040528051906020012060096000600a848154811061151257611512611b98565b60009182526020808320909101546001600160a01b031683528281019390935260409182019020905161154c926001929092019101611bca565b604051602081830303815290604052805190602001200361159257600a818154811061157a5761157a611b98565b6000918252602090912001546001600160a01b031691505b8061159c81611b7f565b915050611407565b506001600160a01b03811660009081526009602052604081206002018054859290610d50908490611cfa565b8280546115dc90611b2f565b90600052602060002090601f0160209004810192826115fe5760008555611644565b82601f1061161757805160ff1916838001178555611644565b82800160010185558215611644579182015b82811115611644578251825591602001919060010190611629565b50611650929150611654565b5090565b5b808211156116505760008155600101611655565b6001600160a01b038116811461167e57600080fd5b50565b634e487b7160e01b600052604160045260246000fd5b600082601f8301126116a857600080fd5b813567ffffffffffffffff808211156116c3576116c3611681565b604051601f8301601f19908116603f011681019082821181831017156116eb576116eb611681565b8160405283815286602085880101111561170457600080fd5b836020870160208301376000602085830101528094505050505092915050565b6000806000806080858703121561173a57600080fd5b843561174581611669565b9350602085013567ffffffffffffffff8082111561176257600080fd5b61176e88838901611697565b9450604087013591508082111561178457600080fd5b5061179187828801611697565b949793965093946060013593505050565b60005b838110156117bd5781810151838201526020016117a5565b838111156117cc576000848401525b50505050565b600081518084526117ea8160208601602086016117a2565b601f01601f19169290920160200192915050565b6000604080830181845280865180835260608601915060608160051b8701019250602080890160005b8381101561186f57888603605f19018552815180516001600160a01b0316875283015183870188905261185c888801826117d2565b9650509382019390820190600101611827565b5050959095019590955295945050505050565b60008060006060848603121561189757600080fd5b833567ffffffffffffffff808211156118af57600080fd5b6118bb87838801611697565b945060208601359150808211156118d157600080fd5b506118de86828701611697565b925050604084013590509250925092565b60006040808301818452808651808352606092508286019150828160051b8701016020808a0160005b8481101561197a57898403605f19018652815180516001600160a01b031685528381015184860189905261194e898701826117d2565b918a0151868303878c015291905061196681836117d2565b978501979550505090820190600101611918565b50509690960196909652509295945050505050565b6000602082840312156119a157600080fd5b813567ffffffffffffffff8111156119b857600080fd5b6119c484828501611697565b949350505050565b600080600080608085870312156119e257600080fd5b843567ffffffffffffffff808211156119fa57600080fd5b611a0688838901611697565b95506020870135915080821115611a1c57600080fd5b50611a2987828801611697565b949794965050505060408301359260600135919050565b60008060408385031215611a5357600080fd5b823567ffffffffffffffff80821115611a6b57600080fd5b611a7786838701611697565b93506020850135915080821115611a8d57600080fd5b50611a9a85828601611697565b9150509250929050565b6020808252601b908201527f5365656420636f6d70616e7920646f65736e2774206578697374210000000000604082015260600190565b6001600160a01b0387811682528616602082015260c060408201819052600090611b07908301876117d2565b8281036060840152611b1981876117d2565b6080840195909552505060a00152949350505050565b600181811c90821680611b4357607f821691505b602082108103611b6357634e487b7160e01b600052602260045260246000fd5b50919050565b634e487b7160e01b600052601160045260246000fd5b600060018201611b9157611b91611b69565b5060010190565b634e487b7160e01b600052603260045260246000fd5b60008251611bc08184602087016117a2565b9190910192915050565b600080835481600182811c915080831680611be657607f831692505b60208084108203611c0557634e487b7160e01b86526022600452602486fd5b818015611c195760018114611c2a57611c57565b60ff19861689528489019650611c57565b60008a81526020902060005b86811015611c4f5781548b820152908501908301611c36565b505084890196505b509498975050505050505050565b60008219821115611c7857611c78611b69565b500190565b6000816000190483118215151615611c9757611c97611b69565b500290565b6001600160a01b0388811682528716602082015260e060408201819052600090611cc8908301886117d2565b8281036060840152611cda81886117d2565b6080840196909652505060a081019290925260c090910152949350505050565b600082821015611d0c57611d0c611b69565b50039056fea2646970667358221220b37acc898e39ae1186ce5d02990bbaeda2919680368949272024c76839c10aa464736f6c634300080e0033",
    "sourcePath": "e:/JSS Mysore/6th Semester/EC67L D&I/Project/project.sol",
    "compiler": {
        "name": "solc",
        "version": "0.8.14+commit.80d49f37"
    },
    "functionHashes": {
        "addElevator(string,string,uint256)": "17cf2c15",
        "addFarmer(string)": "2d7e2e8b",
        "addSeedCompany(string,string)": "d49376ca",
        "addSeedQuantity(string,string,uint256)": "5eb78b8c",
        "buySeeds(address,string,string,uint256)": "b9ac42b2",
        "createContract()": "412a5a6d",
        "getListOfFarmer()": "03f8027a",
        "getListOfseedCompany()": "1aeb4ec7",
        "removeSeedQuantity(string,string,uint256)": "dc441ba8",
        "sellSeeds(address,string,string,uint256)": "02ca78f2",
        "updateSeedDetails(string,string,uint256,uint256)": "719fae32",
        "updateSeedPrice(string,string,uint256)": "59a1d1a3"
    },
    "gasEstimates": {
        "creation": {
            "codeDepositCost": "1499000",
            "executionCost": "60039",
            "totalCost": "1559039"
        },
        "external": {
            "addElevator(string,string,uint256)": "infinite",
            "addFarmer(string)": "infinite",
            "addSeedCompany(string,string)": "infinite",
            "addSeedQuantity(string,string,uint256)": "infinite",
            "buySeeds(address,string,string,uint256)": "infinite",
            "createContract()": "28931",
            "getListOfFarmer()": "infinite",
            "getListOfseedCompany()": "infinite",
            "removeSeedQuantity(string,string,uint256)": "infinite",
            "sellSeeds(address,string,string,uint256)": "infinite",
            "updateSeedDetails(string,string,uint256,uint256)": "infinite",
            "updateSeedPrice(string,string,uint256)": "infinite"
        }
    }
}