{
    "contractName": "supplyChainAgriculture",
    "abi": [
        {
            "inputs": [],
            "stateMutability": "nonpayable",
            "type": "constructor"
        },
        {
            "anonymous": false,
            "inputs": [
                {
                    "indexed": false,
                    "internalType": "address",
                    "name": "farmer",
                    "type": "address"
                },
                {
                    "indexed": false,
                    "internalType": "address",
                    "name": "elevator",
                    "type": "address"
                },
                {
                    "indexed": false,
                    "internalType": "string",
                    "name": "grainType",
                    "type": "string"
                },
                {
                    "indexed": false,
                    "internalType": "string",
                    "name": "variety",
                    "type": "string"
                },
                {
                    "indexed": false,
                    "internalType": "uint256",
                    "name": "quantity",
                    "type": "uint256"
                },
                {
                    "indexed": false,
                    "internalType": "uint256",
                    "name": "pricePer1q",
                    "type": "uint256"
                },
                {
                    "indexed": false,
                    "internalType": "uint256",
                    "name": "purchaseDate",
                    "type": "uint256"
                }
            ],
            "name": "sellGrainsToElevator",
            "type": "event"
        },
        {
            "anonymous": false,
            "inputs": [
                {
                    "indexed": false,
                    "internalType": "address",
                    "name": "Elevator",
                    "type": "address"
                },
                {
                    "indexed": false,
                    "internalType": "address",
                    "name": "Processor",
                    "type": "address"
                },
                {
                    "indexed": false,
                    "internalType": "string",
                    "name": "grainType",
                    "type": "string"
                },
                {
                    "indexed": false,
                    "internalType": "string",
                    "name": "variety",
                    "type": "string"
                },
                {
                    "indexed": false,
                    "internalType": "uint256",
                    "name": "quantity",
                    "type": "uint256"
                },
                {
                    "indexed": false,
                    "internalType": "uint256",
                    "name": "pricePer1q",
                    "type": "uint256"
                },
                {
                    "indexed": false,
                    "internalType": "uint256",
                    "name": "purchaseDate",
                    "type": "uint256"
                }
            ],
            "name": "sellGrainsToProcessorFromElevator",
            "type": "event"
        },
        {
            "anonymous": false,
            "inputs": [
                {
                    "indexed": false,
                    "internalType": "address",
                    "name": "farmer",
                    "type": "address"
                },
                {
                    "indexed": false,
                    "internalType": "address",
                    "name": "seedCompany",
                    "type": "address"
                },
                {
                    "indexed": false,
                    "internalType": "string",
                    "name": "seedType",
                    "type": "string"
                },
                {
                    "indexed": false,
                    "internalType": "string",
                    "name": "variety",
                    "type": "string"
                },
                {
                    "indexed": false,
                    "internalType": "uint256",
                    "name": "quantity",
                    "type": "uint256"
                },
                {
                    "indexed": false,
                    "internalType": "uint256",
                    "name": "time",
                    "type": "uint256"
                }
            ],
            "name": "sellOfSeeds",
            "type": "event"
        },
        {
            "anonymous": false,
            "inputs": [
                {
                    "indexed": false,
                    "internalType": "address",
                    "name": "Processor",
                    "type": "address"
                },
                {
                    "indexed": false,
                    "internalType": "address",
                    "name": "elevator",
                    "type": "address"
                },
                {
                    "indexed": false,
                    "internalType": "string",
                    "name": "grainType",
                    "type": "string"
                },
                {
                    "indexed": false,
                    "internalType": "string",
                    "name": "variety",
                    "type": "string"
                },
                {
                    "indexed": false,
                    "internalType": "uint256",
                    "name": "quantity",
                    "type": "uint256"
                },
                {
                    "indexed": false,
                    "internalType": "uint256",
                    "name": "Price",
                    "type": "uint256"
                },
                {
                    "indexed": false,
                    "internalType": "uint256",
                    "name": "time",
                    "type": "uint256"
                }
            ],
            "name": "transferCompleteFromProcessorToElevator",
            "type": "event"
        },
        {
            "anonymous": false,
            "inputs": [
                {
                    "indexed": false,
                    "internalType": "address",
                    "name": "farmer",
                    "type": "address"
                },
                {
                    "indexed": false,
                    "internalType": "address",
                    "name": "Seedcompany",
                    "type": "address"
                },
                {
                    "indexed": false,
                    "internalType": "string",
                    "name": "seedType",
                    "type": "string"
                },
                {
                    "indexed": false,
                    "internalType": "string",
                    "name": "variety",
                    "type": "string"
                },
                {
                    "indexed": false,
                    "internalType": "uint256",
                    "name": "quantity",
                    "type": "uint256"
                },
                {
                    "indexed": false,
                    "internalType": "uint256",
                    "name": "Price",
                    "type": "uint256"
                },
                {
                    "indexed": false,
                    "internalType": "uint256",
                    "name": "time",
                    "type": "uint256"
                }
            ],
            "name": "transferCompleteSeed",
            "type": "event"
        },
        {
            "anonymous": false,
            "inputs": [
                {
                    "indexed": false,
                    "internalType": "address",
                    "name": "elevator",
                    "type": "address"
                },
                {
                    "indexed": false,
                    "internalType": "address",
                    "name": "farmer",
                    "type": "address"
                },
                {
                    "indexed": false,
                    "internalType": "string",
                    "name": "grownGrainType",
                    "type": "string"
                },
                {
                    "indexed": false,
                    "internalType": "string",
                    "name": "variety",
                    "type": "string"
                },
                {
                    "indexed": false,
                    "internalType": "uint256",
                    "name": "quantity",
                    "type": "uint256"
                },
                {
                    "indexed": false,
                    "internalType": "uint256",
                    "name": "Price",
                    "type": "uint256"
                },
                {
                    "indexed": false,
                    "internalType": "uint256",
                    "name": "time",
                    "type": "uint256"
                }
            ],
            "name": "transferCompletegrownGrain",
            "type": "event"
        },
        {
            "inputs": [
                {
                    "internalType": "string",
                    "name": "_hash",
                    "type": "string"
                },
                {
                    "internalType": "string",
                    "name": "_name",
                    "type": "string"
                },
                {
                    "internalType": "uint256",
                    "name": "_storageQuantity",
                    "type": "uint256"
                }
            ],
            "name": "addElevator",
            "outputs": [],
            "stateMutability": "nonpayable",
            "type": "function"
        },
        {
            "inputs": [
                {
                    "internalType": "string",
                    "name": "_hash",
                    "type": "string"
                }
            ],
            "name": "addFarmer",
            "outputs": [],
            "stateMutability": "nonpayable",
            "type": "function"
        },
        {
            "inputs": [
                {
                    "internalType": "string",
                    "name": "_grainType",
                    "type": "string"
                },
                {
                    "internalType": "string",
                    "name": "_variety",
                    "type": "string"
                },
                {
                    "internalType": "uint256",
                    "name": "_quantity",
                    "type": "uint256"
                }
            ],
            "name": "addGrainQuantityFromElevator",
            "outputs": [],
            "stateMutability": "nonpayable",
            "type": "function"
        },
        {
            "inputs": [
                {
                    "internalType": "string",
                    "name": "_hash",
                    "type": "string"
                },
                {
                    "internalType": "string",
                    "name": "_name",
                    "type": "string"
                }
            ],
            "name": "addProcessor",
            "outputs": [],
            "stateMutability": "nonpayable",
            "type": "function"
        },
        {
            "inputs": [
                {
                    "internalType": "string",
                    "name": "_name",
                    "type": "string"
                },
                {
                    "internalType": "string",
                    "name": "_hash",
                    "type": "string"
                }
            ],
            "name": "addSeedCompany",
            "outputs": [],
            "stateMutability": "nonpayable",
            "type": "function"
        },
        {
            "inputs": [
                {
                    "internalType": "string",
                    "name": "_seedType",
                    "type": "string"
                },
                {
                    "internalType": "string",
                    "name": "_variety",
                    "type": "string"
                },
                {
                    "internalType": "uint256",
                    "name": "_addQuantity",
                    "type": "uint256"
                }
            ],
            "name": "addSeedQuantity",
            "outputs": [],
            "stateMutability": "nonpayable",
            "type": "function"
        },
        {
            "inputs": [
                {
                    "internalType": "address payable",
                    "name": "_elevator",
                    "type": "address"
                },
                {
                    "internalType": "string",
                    "name": "_grainType",
                    "type": "string"
                },
                {
                    "internalType": "string",
                    "name": "_variety",
                    "type": "string"
                },
                {
                    "internalType": "uint256",
                    "name": "_quantity",
                    "type": "uint256"
                }
            ],
            "name": "buyGrainFromElevator",
            "outputs": [],
            "stateMutability": "payable",
            "type": "function"
        },
        {
            "inputs": [
                {
                    "internalType": "address payable",
                    "name": "_farmer",
                    "type": "address"
                },
                {
                    "internalType": "string",
                    "name": "_grainTypeGrown",
                    "type": "string"
                },
                {
                    "internalType": "string",
                    "name": "_variety",
                    "type": "string"
                },
                {
                    "internalType": "uint256",
                    "name": "_quantity",
                    "type": "uint256"
                }
            ],
            "name": "buyGrainFromFarmer",
            "outputs": [],
            "stateMutability": "payable",
            "type": "function"
        },
        {
            "inputs": [
                {
                    "internalType": "address payable",
                    "name": "_seedCompany",
                    "type": "address"
                },
                {
                    "internalType": "string",
                    "name": "_seedType",
                    "type": "string"
                },
                {
                    "internalType": "string",
                    "name": "_variety",
                    "type": "string"
                },
                {
                    "internalType": "uint256",
                    "name": "_quantity",
                    "type": "uint256"
                }
            ],
            "name": "buySeeds",
            "outputs": [],
            "stateMutability": "payable",
            "type": "function"
        },
        {
            "inputs": [],
            "name": "createContract",
            "outputs": [],
            "stateMutability": "nonpayable",
            "type": "function"
        },
        {
            "inputs": [],
            "name": "getListOfFarmer",
            "outputs": [
                {
                    "components": [
                        {
                            "internalType": "address payable",
                            "name": "farmerAddress",
                            "type": "address"
                        },
                        {
                            "internalType": "string",
                            "name": "hash",
                            "type": "string"
                        }
                    ],
                    "internalType": "struct supplyChainAgriculture.Farmer[]",
                    "name": "",
                    "type": "tuple[]"
                },
                {
                    "internalType": "uint256",
                    "name": "",
                    "type": "uint256"
                }
            ],
            "stateMutability": "view",
            "type": "function"
        },
        {
            "inputs": [],
            "name": "getListOfseedCompany",
            "outputs": [
                {
                    "components": [
                        {
                            "internalType": "address payable",
                            "name": "companyAddress",
                            "type": "address"
                        },
                        {
                            "internalType": "string",
                            "name": "CompanyName",
                            "type": "string"
                        },
                        {
                            "internalType": "string",
                            "name": "hash",
                            "type": "string"
                        }
                    ],
                    "internalType": "struct supplyChainAgriculture.SeedCompany[]",
                    "name": "",
                    "type": "tuple[]"
                },
                {
                    "internalType": "uint256",
                    "name": "",
                    "type": "uint256"
                }
            ],
            "stateMutability": "view",
            "type": "function"
        },
        {
            "inputs": [
                {
                    "internalType": "string",
                    "name": "_grainType",
                    "type": "string"
                },
                {
                    "internalType": "string",
                    "name": "_variety",
                    "type": "string"
                },
                {
                    "internalType": "uint256",
                    "name": "_quantity",
                    "type": "uint256"
                }
            ],
            "name": "removeGrainQuantityFromElevator",
            "outputs": [],
            "stateMutability": "nonpayable",
            "type": "function"
        },
        {
            "inputs": [
                {
                    "internalType": "string",
                    "name": "_seedType",
                    "type": "string"
                },
                {
                    "internalType": "string",
                    "name": "_variety",
                    "type": "string"
                },
                {
                    "internalType": "uint256",
                    "name": "_addQuantity",
                    "type": "uint256"
                }
            ],
            "name": "removeSeedQuantity",
            "outputs": [],
            "stateMutability": "nonpayable",
            "type": "function"
        },
        {
            "inputs": [
                {
                    "internalType": "address",
                    "name": "_elevator",
                    "type": "address"
                },
                {
                    "internalType": "string",
                    "name": "_grainType",
                    "type": "string"
                },
                {
                    "internalType": "string",
                    "name": "_variety",
                    "type": "string"
                },
                {
                    "internalType": "uint256",
                    "name": "_quantity",
                    "type": "uint256"
                },
                {
                    "internalType": "uint256",
                    "name": "_moisture",
                    "type": "uint256"
                },
                {
                    "internalType": "uint256",
                    "name": "_temperature",
                    "type": "uint256"
                },
                {
                    "internalType": "uint256",
                    "name": "_pricePer1q",
                    "type": "uint256"
                },
                {
                    "internalType": "uint256",
                    "name": "_purchaseDate",
                    "type": "uint256"
                }
            ],
            "name": "sellGrainToElevator",
            "outputs": [],
            "stateMutability": "nonpayable",
            "type": "function"
        },
        {
            "inputs": [
                {
                    "internalType": "address",
                    "name": "_processor",
                    "type": "address"
                },
                {
                    "internalType": "string",
                    "name": "_grainType",
                    "type": "string"
                },
                {
                    "internalType": "string",
                    "name": "_grainVariety",
                    "type": "string"
                },
                {
                    "internalType": "uint256",
                    "name": "_quantity",
                    "type": "uint256"
                },
                {
                    "internalType": "uint256",
                    "name": "_pricePer1q",
                    "type": "uint256"
                },
                {
                    "internalType": "uint256",
                    "name": "_purchaseDate",
                    "type": "uint256"
                }
            ],
            "name": "sellGrainToProcessor",
            "outputs": [],
            "stateMutability": "nonpayable",
            "type": "function"
        },
        {
            "inputs": [
                {
                    "internalType": "address",
                    "name": "_farmer",
                    "type": "address"
                },
                {
                    "internalType": "string",
                    "name": "_seedType",
                    "type": "string"
                },
                {
                    "internalType": "string",
                    "name": "_variety",
                    "type": "string"
                },
                {
                    "internalType": "uint256",
                    "name": "_quantity",
                    "type": "uint256"
                }
            ],
            "name": "sellSeeds",
            "outputs": [],
            "stateMutability": "nonpayable",
            "type": "function"
        },
        {
            "inputs": [
                {
                    "internalType": "string",
                    "name": "_seedType",
                    "type": "string"
                },
                {
                    "internalType": "string",
                    "name": "_variety",
                    "type": "string"
                },
                {
                    "internalType": "uint256",
                    "name": "_quantity",
                    "type": "uint256"
                },
                {
                    "internalType": "uint256",
                    "name": "_pricePer1q",
                    "type": "uint256"
                }
            ],
            "name": "updateGrainFarmerQuantity",
            "outputs": [],
            "stateMutability": "nonpayable",
            "type": "function"
        },
        {
            "inputs": [
                {
                    "internalType": "string",
                    "name": "_grainTypeGrown",
                    "type": "string"
                },
                {
                    "internalType": "string",
                    "name": "_variety",
                    "type": "string"
                },
                {
                    "internalType": "uint256",
                    "name": "_pricePer1q",
                    "type": "uint256"
                }
            ],
            "name": "updateGrainPriceByFarmer",
            "outputs": [],
            "stateMutability": "nonpayable",
            "type": "function"
        },
        {
            "inputs": [
                {
                    "internalType": "string",
                    "name": "_grainType",
                    "type": "string"
                },
                {
                    "internalType": "string",
                    "name": "_variety",
                    "type": "string"
                },
                {
                    "internalType": "uint256",
                    "name": "_pricePer1q",
                    "type": "uint256"
                }
            ],
            "name": "updateGrainPriceFromElevator",
            "outputs": [],
            "stateMutability": "nonpayable",
            "type": "function"
        },
        {
            "inputs": [
                {
                    "internalType": "string",
                    "name": "_processedGrainType",
                    "type": "string"
                },
                {
                    "internalType": "string",
                    "name": "_processedGrainVariety",
                    "type": "string"
                },
                {
                    "internalType": "uint256",
                    "name": "_quantity",
                    "type": "uint256"
                },
                {
                    "internalType": "uint256",
                    "name": "_pricePerLot",
                    "type": "uint256"
                },
                {
                    "internalType": "uint256",
                    "name": "_manufactureDate",
                    "type": "uint256"
                },
                {
                    "internalType": "uint256",
                    "name": "_expDate",
                    "type": "uint256"
                }
            ],
            "name": "updateProcessedGrainDetails",
            "outputs": [],
            "stateMutability": "nonpayable",
            "type": "function"
        },
        {
            "inputs": [
                {
                    "internalType": "string",
                    "name": "_processedGrainType",
                    "type": "string"
                },
                {
                    "internalType": "string",
                    "name": "_processedGrainVariety",
                    "type": "string"
                },
                {
                    "internalType": "uint256",
                    "name": "_pricePerLot",
                    "type": "uint256"
                }
            ],
            "name": "updateProcessedGrainPrice",
            "outputs": [],
            "stateMutability": "nonpayable",
            "type": "function"
        },
        {
            "inputs": [
                {
                    "internalType": "string",
                    "name": "_seedType",
                    "type": "string"
                },
                {
                    "internalType": "string",
                    "name": "_variety",
                    "type": "string"
                },
                {
                    "internalType": "uint256",
                    "name": "_quantity",
                    "type": "uint256"
                },
                {
                    "internalType": "uint256",
                    "name": "_pricePer10g",
                    "type": "uint256"
                }
            ],
            "name": "updateSeedDetails",
            "outputs": [],
            "stateMutability": "nonpayable",
            "type": "function"
        },
        {
            "inputs": [
                {
                    "internalType": "string",
                    "name": "_seedType",
                    "type": "string"
                },
                {
                    "internalType": "string",
                    "name": "_variety",
                    "type": "string"
                },
                {
                    "internalType": "uint256",
                    "name": "_pricePer10g",
                    "type": "uint256"
                }
            ],
            "name": "updateSeedPrice",
            "outputs": [],
            "stateMutability": "nonpayable",
            "type": "function"
        },
        {
            "inputs": [
                {
                    "internalType": "uint256",
                    "name": "_storageQuantity",
                    "type": "uint256"
                }
            ],
            "name": "updateStorageQuantity",
            "outputs": [],
            "stateMutability": "nonpayable",
            "type": "function"
        },
        {
            "inputs": [
                {
                    "internalType": "string",
                    "name": "_grainType",
                    "type": "string"
                },
                {
                    "internalType": "string",
                    "name": "_variety",
                    "type": "string"
                },
                {
                    "internalType": "uint256",
                    "name": "_quantity",
                    "type": "uint256"
                },
                {
                    "internalType": "uint256",
                    "name": "_pricePer1q",
                    "type": "uint256"
                }
            ],
            "name": "updategrainDetailsFromElevator",
            "outputs": [],
            "stateMutability": "nonpayable",
            "type": "function"
        }
    ],
    "bytecode": "60806040526000805462ffffff60a01b19168155600381905560058190556007819055600b81905560138190556017819055601f5534801561004057600080fd5b50600080546001600160a01b03191633179055613e9b806100626000396000f3fe6080604052600436106101815760003560e01c80639375946d116100d1578063cb8f510b1161008a578063d49376ca11610064578063d49376ca14610432578063dc441ba814610452578063dcdd5bce14610472578063f66959ee1461048557600080fd5b8063cb8f510b146103d2578063cc746e45146103f2578063ccc7cada1461041257600080fd5b80639375946d1461032c578063b5d765de1461033f578063b9ac42b21461035f578063c10e857914610372578063c16634b714610392578063c7d5c332146103b257600080fd5b80632d7e2e8b1161013e57806353b2d0fd1161011857806353b2d0fd146102ac57806359a1d1a3146102cc5780635eb78b8c146102ec578063719fae321461030c57600080fd5b80632d7e2e8b14610257578063412a5a6d1461027757806347f15ddf1461028c57600080fd5b806302ca78f21461018657806303f8027a146101a8578063166d9eaa146101d457806317cf2c15146101f45780631aeb4ec7146102145780631b5e33ac14610237575b600080fd5b34801561019257600080fd5b506101a66101a1366004613550565b6104a5565b005b3480156101b457600080fd5b506101bd61066e565b6040516101cb92919061362a565b60405180910390f35b3480156101e057600080fd5b506101a66101ef3660046136ae565b6107eb565b34801561020057600080fd5b506101a661020f3660046136c7565b6108a0565b34801561022057600080fd5b506102296109bf565b6040516101cb929190613734565b34801561024357600080fd5b506101a66102523660046136c7565b610b55565b34801561026357600080fd5b506101a66102723660046137d4565b610d5d565b34801561028357600080fd5b506101a6610e44565b34801561029857600080fd5b506101a66102a7366004613811565b610ee8565b3480156102b857600080fd5b506101a66102c73660046138a3565b6111b9565b3480156102d857600080fd5b506101a66102e73660046136c7565b6112d5565b3480156102f857600080fd5b506101a66103073660046136c7565b6114c9565b34801561031857600080fd5b506101a66103273660046138a3565b6116c5565b6101a661033a366004613550565b6117b2565b34801561034b57600080fd5b506101a661035a3660046136c7565b611b3b565b6101a661036d366004613550565b611d85565b34801561037e57600080fd5b506101a661038d366004613917565b612134565b34801561039e57600080fd5b506101a66103ad3660046138a3565b6123d1565b3480156103be57600080fd5b506101a66103cd3660046139bb565b612514565b3480156103de57600080fd5b506101a66103ed3660046136c7565b612621565b3480156103fe57600080fd5b506101a661040d3660046136c7565b61281d565b34801561041e57600080fd5b506101a661042d366004613a1f565b612a40565b34801561043e57600080fd5b506101a661044d3660046139bb565b612b80565b34801561045e57600080fd5b506101a661046d3660046136c7565b612c84565b6101a6610480366004613550565b612e80565b34801561049157600080fd5b506101a66104a03660046136c7565b613208565b336000818152600f602052604090205460ff166104dd5760405162461bcd60e51b81526004016104d490613aa6565b60405180910390fd5b336000908152600f602052604090205460ff1661053c5760405162461bcd60e51b815260206004820152601a60248201527f5365656420436f6d70616e7920446f65736e277420457869737400000000000060448201526064016104d4565b600054600160a01b900460ff161515600103610607576040805180820182523381526001600160a01b0387811660208084019182526003805460009081526002909252948120935184549084166001600160a01b03199182161785559151600190940180549490931693909116929092179055815491906105bc83613af3565b91905055507f0abb2b17e070b031d143b94e96bb7894984f9776f01493cbcc2f4191d803a1b68533868686426040516105fa96959493929190613b0c565b60405180910390a1610667565b60405162461bcd60e51b815260206004820152602f60248201527f4661726d657220646f65736e2774206578697374206f72206865206469646e2760448201526e7420706179207468652062696c6c7360881b60648201526084016104d4565b5050505050565b60008054606091906001600160a01b031633146106de5760405162461bcd60e51b815260206004820152602860248201527f536f7272792c205468697320696e666f726d6174696f6e20697320636f6e66696044820152673232b73a34b0b61760c11b60648201526084016104d4565b6008600b5481805480602002602001604051908101604052809291908181526020016000905b828210156107dd576000848152602090819020604080518082019091526002850290910180546001600160a01b03168252600181018054929391929184019161074c90613b60565b80601f016020809104026020016040519081016040528092919081815260200182805461077890613b60565b80156107c55780601f1061079a576101008083540402835291602001916107c5565b820191906000526020600020905b8154815290600101906020018083116107a857829003601f168201915b50505050508152505081526020019060010190610704565b505050509150915091509091565b3360008181526015602052604090205460ff1661081a5760405162461bcd60e51b81526004016104d490613b9a565b6000805b601454811015610871576014818154811061083b5761083b613bca565b60009182526020909120600490910201546001600160a01b0316330361085f578091505b8061086981613af3565b91505061081e565b50826014828154811061088657610886613bca565b906000526020600020906004020160030181905550505050565b604080516080810182523381526020808201858152928201869052606082018490526014805460018101825560009190915282517fce6d7b5282bd9a3661ae061feed1dbda4e52ab073b1f9285be6e155d9c38d4ec600490920291820180546001600160a01b0319166001600160a01b0390921691909117815593518051939493610954937fce6d7b5282bd9a3661ae061feed1dbda4e52ab073b1f9285be6e155d9c38d4ed9093019291909101906133fc565b50604082015180516109709160028401916020909101906133fc565b5060609190910151600390910155336000908152601560209081526040808320805460ff1916600117905560178054601690935290832082905590916109b583613af3565b9190505550505050565b60606000600e60135481805480602002602001604051908101604052809291908181526020016000905b828210156107dd57600084815260209081902060408051606081019091526003850290910180546001600160a01b031682526001810180549293919291840191610a3290613b60565b80601f0160208091040260200160405190810160405280929190818152602001828054610a5e90613b60565b8015610aab5780601f10610a8057610100808354040283529160200191610aab565b820191906000526020600020905b815481529060010190602001808311610a8e57829003601f168201915b50505050508152602001600282018054610ac490613b60565b80601f0160208091040260200160405190810160405280929190818152602001828054610af090613b60565b8015610b3d5780601f10610b1257610100808354040283529160200191610b3d565b820191906000526020600020905b815481529060010190602001808311610b2057829003601f168201915b505050505081525050815260200190600101906109e9565b3360008181526015602052604090205460ff16610b845760405162461bcd60e51b81526004016104d490613b9a565b6000805b601b54811015610d2557336001600160a01b0316601b8281548110610baf57610baf613bca565b6000918252602090912001546001600160a01b031603610d135785604051602001610bda9190613be0565b60405160208183030381529060405280519060200120601a6000601b8481548110610c0757610c07613bca565b60009182526020808320909101546001600160a01b0316835282810193909352604091820190209051610c3a9201613bfc565b6040516020818303038152906040528051906020012003610d135784604051602001610c669190613be0565b60405160208183030381529060405280519060200120601a6000601b8481548110610c9357610c93613bca565b60009182526020808320909101546001600160a01b0316835282810193909352604091820190209051610ccd926001929092019101613bfc565b6040516020818303038152906040528051906020012003610d1357601b8181548110610cfb57610cfb613bca565b6000918252602090912001546001600160a01b031691505b80610d1d81613af3565b915050610b88565b506001600160a01b0381166000908152601a602052604081206002018054859290610d51908490613c97565b90915550505050505050565b60408051808201909152338152602080820183815260088054600181018255600091909152835160029091027ff3f7a9fe364faab93b216da50a3214154f22a0a2b415b23a84c8169e8b636ee3810180546001600160a01b03939093166001600160a01b0319909316929092178255915180519193610e01937ff3f7a9fe364faab93b216da50a3214154f22a0a2b415b23a84c8169e8b636ee401929101906133fc565b5050336000908152600960209081526040808320805460ff19166001179055600b8054600a90935290832082905590925090610e3c83613af3565b919050555050565b3360008181526009602052604090205460ff16610e735760405162461bcd60e51b81526004016104d490613cae565b3360009081526009602052604090205460ff16610ecb5760405162461bcd60e51b81526020600482015260166024820152754661726d657220646f65736e2774206578736973742160501b60448201526064016104d4565b50336000908152600160205260409020805460ff19166002179055565b3360008181526015602052604090205460ff16610f175760405162461bcd60e51b81526004016104d490613b9a565b3360009081526015602052604090205460ff16610f6f5760405162461bcd60e51b8152602060048201526016602482015275195b195d985d1bdc88191bd95cdb89dd08195e1a5cdd60521b60448201526064016104d4565b6001600160a01b0387166000908152601d602052604090205460ff16610fa75760405162461bcd60e51b81526004016104d490613cdd565b6040805160a081018252878152602080820188905281830187905260608201869052608082018590526001600160a01b038a166000908152818052929092208151805192939192610ffb92849201906133fc565b50602082810151805161101492600185019201906133fc565b506040820151600282015560608201516003820155608090910151600490910155602180546001808201835560009283527f3a6357012c1a3ae0a17d304c9920310382d968ebcc4b1771f41c6b304205b57090910180546001600160a01b0319166001600160a01b038b161790559054600160b01b900460ff161515900361114d576040805180820182526001600160a01b03808a1682523360208084019182526007805460009081526006909252948120935184549084166001600160a01b031991821617855591516001909401805494909316939091169290921790558154919061110083613af3565b91905055507f1a7fbb4c0e73e5682e67378b1f56e4ce2b0b08405c53e3fb728f130d7a09b0d1338888888888886040516111409796959493929190613d14565b60405180910390a16111b0565b60405162461bcd60e51b815260206004820152603260248201527f50726f636573736f7220646f65736e2774206578697374206f72206865206469604482015271646e277420706179207468652062696c6c7360701b60648201526084016104d4565b50505050505050565b3360008181526015602052604090205460ff166111e85760405162461bcd60e51b81526004016104d490613b9a565b3360009081526015602052604090205460ff166112175760405162461bcd60e51b81526004016104d490613b9a565b60408051608081018252868152602080820187905281830186905260608201859052336000908152601a825292909220815180519293919261125c92849201906133fc565b50602082810151805161127592600185019201906133fc565b50604082015160028201556060909101516003909101555050601b80546001810182556000919091527f3ad8aa4f87544323a9d1e5dd902f40c356527a7955687113db5f9a85ad579dc10180546001600160a01b03191633179055505050565b336000818152600f602052604090205460ff166113045760405162461bcd60e51b81526004016104d490613aa6565b6000805b6012548110156114a557336001600160a01b03166012828154811061132f5761132f613bca565b6000918252602090912001546001600160a01b031603611493578560405160200161135a9190613be0565b60405160208183030381529060405280519060200120601160006012848154811061138757611387613bca565b60009182526020808320909101546001600160a01b03168352828101939093526040918201902090516113ba9201613bfc565b604051602081830303815290604052805190602001200361149357846040516020016113e69190613be0565b60405160208183030381529060405280519060200120601160006012848154811061141357611413613bca565b60009182526020808320909101546001600160a01b031683528281019390935260409182019020905161144d926001929092019101613bfc565b6040516020818303038152906040528051906020012003611493576012818154811061147b5761147b613bca565b6000918252602090912001546001600160a01b031691505b8061149d81613af3565b915050611308565b506001600160a01b0316600090815260116020526040902060030191909155505050565b336000818152600f602052604090205460ff166114f85760405162461bcd60e51b81526004016104d490613aa6565b6000805b60125481101561169957336001600160a01b03166012828154811061152357611523613bca565b6000918252602090912001546001600160a01b031603611687578560405160200161154e9190613be0565b60405160208183030381529060405280519060200120601160006012848154811061157b5761157b613bca565b60009182526020808320909101546001600160a01b03168352828101939093526040918201902090516115ae9201613bfc565b604051602081830303815290604052805190602001200361168757846040516020016115da9190613be0565b60405160208183030381529060405280519060200120601160006012848154811061160757611607613bca565b60009182526020808320909101546001600160a01b0316835282810193909352604091820190209051611641926001929092019101613bfc565b6040516020818303038152906040528051906020012003611687576012818154811061166f5761166f613bca565b6000918252602090912001546001600160a01b031691505b8061169181613af3565b9150506114fc565b506001600160a01b03811660009081526011602052604081206002018054859290610d51908490613d72565b336000818152600f602052604090205460ff166116f45760405162461bcd60e51b81526004016104d490613aa6565b604080516080810182528681526020808201879052818301869052606082018590523360009081526011825292909220815180519293919261173992849201906133fc565b50602082810151805161175292600185019201906133fc565b50604082015160028201556060909101516003909101555050601280546001810182556000919091527fbb8a6a4669ba250d26cd7a459eca9d215f8307e33aebe50379bc5a3617ec34440180546001600160a01b03191633179055505050565b336000818152601d602052604090205460ff166117e15760405162461bcd60e51b81526004016104d490613cdd565b336000908152601d602052604090205460ff166118105760405162461bcd60e51b81526004016104d490613b9a565b6000805b601b548110156119b157866001600160a01b0316601b828154811061183b5761183b613bca565b6000918252602090912001546001600160a01b03160361199f57856040516020016118669190613be0565b60405160208183030381529060405280519060200120601a6000601b848154811061189357611893613bca565b60009182526020808320909101546001600160a01b03168352828101939093526040918201902090516118c69201613bfc565b604051602081830303815290604052805190602001200361199f57846040516020016118f29190613be0565b60405160208183030381529060405280519060200120601a6000601b848154811061191f5761191f613bca565b60009182526020808320909101546001600160a01b0316835282810193909352604091820190209051611959926001929092019101613bfc565b604051602081830303815290604052805190602001200361199f57601b818154811061198757611987613bca565b6000918252602090912001546001600160a01b031691505b806119a981613af3565b915050611814565b506001600160a01b0381166000908152601a60205260409020600201548311156119ed5760405162461bcd60e51b81526004016104d490613d8a565b6001600160a01b0381166000908152601a60205260409020600201548311611b335760003411611a2f5760405162461bcd60e51b81526004016104d490613dd5565b6001600160a01b0381166000908152601a6020526040902060030154611a559084613e01565b3414611a735760405162461bcd60e51b81526004016104d490613e20565b60405186906001600160a01b038216903480156108fc02916000818181858888f19350505050158015611aaa573d6000803e3d6000fd5b507fb72b373712565083b236fdc23e6f7ba444a9665b3d1da4d9b2408d64c53e122d33888888883442604051611ae69796959493929190613d14565b60405180910390a16001600160a01b0382166000908152601a602052604081206002018054869290611b19908490613c97565b90915550506000805460ff60b01b1916600160b01b179055505b505050505050565b3360008181526009602052604090205460ff16611b6a5760405162461bcd60e51b81526004016104d490613cae565b3360009081526009602052604090205460ff16611bc05760405162461bcd60e51b815260206004820152601460248201527311985c9b595c88191bd95cdb89dd08195e1a5cdd60621b60448201526064016104d4565b6000805b600d54811015611d6157336001600160a01b0316600d8281548110611beb57611beb613bca565b6000918252602090912001546001600160a01b031603611d4f5785604051602001611c169190613be0565b60405160208183030381529060405280519060200120600c6000600d8481548110611c4357611c43613bca565b60009182526020808320909101546001600160a01b0316835282810193909352604091820190209051611c769201613bfc565b6040516020818303038152906040528051906020012003611d4f5784604051602001611ca29190613be0565b60405160208183030381529060405280519060200120600c6000600d8481548110611ccf57611ccf613bca565b60009182526020808320909101546001600160a01b0316835282810193909352604091820190209051611d09926001929092019101613bfc565b6040516020818303038152906040528051906020012003611d4f57600d8181548110611d3757611d37613bca565b6000918252602090912001546001600160a01b031691505b80611d5981613af3565b915050611bc4565b506001600160a01b03166000908152600c6020526040902060030191909155505050565b3360008181526009602052604090205460ff16611db45760405162461bcd60e51b81526004016104d490613cae565b3360009081526009602052604090205460ff16611e0a5760405162461bcd60e51b815260206004820152601460248201527311985c9b595c88191bd95cdb89dd08115e1a5cdd60621b60448201526064016104d4565b6000805b601254811015611fab57866001600160a01b031660128281548110611e3557611e35613bca565b6000918252602090912001546001600160a01b031603611f995785604051602001611e609190613be0565b604051602081830303815290604052805190602001206011600060128481548110611e8d57611e8d613bca565b60009182526020808320909101546001600160a01b0316835282810193909352604091820190209051611ec09201613bfc565b6040516020818303038152906040528051906020012003611f995784604051602001611eec9190613be0565b604051602081830303815290604052805190602001206011600060128481548110611f1957611f19613bca565b60009182526020808320909101546001600160a01b0316835282810193909352604091820190209051611f53926001929092019101613bfc565b6040516020818303038152906040528051906020012003611f995760128181548110611f8157611f81613bca565b6000918252602090912001546001600160a01b031691505b80611fa381613af3565b915050611e0e565b506001600160a01b038116600090815260116020526040902060020154831115611fe75760405162461bcd60e51b81526004016104d490613d8a565b6001600160a01b0381166000908152601160205260409020600201548311611b3357600034116120295760405162461bcd60e51b81526004016104d490613dd5565b6001600160a01b03811660009081526011602052604090206003015461204f9084613e01565b341461206d5760405162461bcd60e51b81526004016104d490613e20565b60405186906001600160a01b038216903480156108fc02916000818181858888f193505050501580156120a4573d6000803e3d6000fd5b507f763a09a3907aa5142f5d1531400d72f0d62b4bb2d7af6cd649ebeff279b24427338888888834426040516120e09796959493929190613d14565b60405180910390a16001600160a01b03821660009081526011602052604081206002018054869290612113908490613c97565b90915550506000805460ff60a01b1916600160a01b17905550505050505050565b3360008181526009602052604090205460ff166121635760405162461bcd60e51b81526004016104d490613cae565b6001600160a01b03891660009081526015602052604090205460ff1661219b5760405162461bcd60e51b81526004016104d490613b9a565b6040805160e08101825289815260208082018a9052818301899052606082018890526080820187905260a0820186905260c082018590526001600160a01b038c166000908152601882529290922081518051929391926121fe92849201906133fc565b50602082810151805161221792600185019201906133fc565b5060408201516002820155606082015160038201556080820151600482015560a0820151600582015560c090910151600690910155601980546001808201835560009283527f944998273e477b495144fb8794c914197f3ccb46be2900f4698fd0ef743c969590910180546001600160a01b0319166001600160a01b038d161790559054600160a81b900460ff1615159003612364576040805180820182523381526001600160a01b038b811660208084019182526005805460009081526004909252948120935184549084166001600160a01b031991821617855591516001909401805494909316939091169290921790558154919061231783613af3565b91905055507f82838b23da12c1aa4f25e2e7cba2e96cc80b9047022d1596608ff789d465f4ee338a8a8a8a88886040516123579796959493929190613d14565b60405180910390a16123c6565b60405162461bcd60e51b815260206004820152603160248201527f656c657661746f7220646f65736e2774206578697374206f72206865206469646044820152706e277420706179207468652062696c6c7360781b60648201526084016104d4565b505050505050505050565b3360008181526009602052604090205460ff166124005760405162461bcd60e51b81526004016104d490613cae565b3360009081526009602052604090205460ff166124565760405162461bcd60e51b815260206004820152601460248201527311985c9b595c88191bd95cdb89dd08195e1a5cdd60621b60448201526064016104d4565b60408051608081018252868152602080820187905281830186905260608201859052336000908152600c825292909220815180519293919261249b92849201906133fc565b5060208281015180516124b492600185019201906133fc565b50604082015160028201556060909101516003909101555050600d80546001810182556000919091527fd7b6990105719101dabeb77144f2a3385c8033acd3af97e9423a695e81ad1eb50180546001600160a01b03191633179055505050565b604080516060810182523381526020808201848152928201859052601c805460018101825560009190915282517f0e4562a10381dec21b205ed72637e6b1b523bdd0e4d4d50af5cd23dd4500a211600390920291820180546001600160a01b0319166001600160a01b03909216919091178155935180519394936125c1937f0e4562a10381dec21b205ed72637e6b1b523bdd0e4d4d50af5cd23dd4500a2129093019291909101906133fc565b50604082015180516125dd9160028401916020909101906133fc565b5050336000908152601d60209081526040808320805460ff19166001179055601f8054601e9093529083208290559092509061261883613af3565b91905055505050565b3360008181526015602052604090205460ff166126505760405162461bcd60e51b81526004016104d490613b9a565b6000805b601b548110156127f157336001600160a01b0316601b828154811061267b5761267b613bca565b6000918252602090912001546001600160a01b0316036127df57856040516020016126a69190613be0565b60405160208183030381529060405280519060200120601a6000601b84815481106126d3576126d3613bca565b60009182526020808320909101546001600160a01b03168352828101939093526040918201902090516127069201613bfc565b60405160208183030381529060405280519060200120036127df57846040516020016127329190613be0565b60405160208183030381529060405280519060200120601a6000601b848154811061275f5761275f613bca565b60009182526020808320909101546001600160a01b0316835282810193909352604091820190209051612799926001929092019101613bfc565b60405160208183030381529060405280519060200120036127df57601b81815481106127c7576127c7613bca565b6000918252602090912001546001600160a01b031691505b806127e981613af3565b915050612654565b506001600160a01b0381166000908152601a602052604081206002018054859290610d51908490613d72565b336000818152601d602052604090205460ff1661284c5760405162461bcd60e51b81526004016104d490613cdd565b336000908152601d602052604090205460ff1661287b5760405162461bcd60e51b81526004016104d490613cdd565b6000805b602354811015612a1c57336001600160a01b0316602382815481106128a6576128a6613bca565b6000918252602090912001546001600160a01b031603612a0a57856040516020016128d19190613be0565b6040516020818303038152906040528051906020012060226000602384815481106128fe576128fe613bca565b60009182526020808320909101546001600160a01b03168352828101939093526040918201902090516129319201613bfc565b6040516020818303038152906040528051906020012003612a0a578460405160200161295d9190613be0565b60405160208183030381529060405280519060200120602260006023848154811061298a5761298a613bca565b60009182526020808320909101546001600160a01b03168352828101939093526040918201902090516129c4926001929092019101613bfc565b6040516020818303038152906040528051906020012003612a0a57602381815481106129f2576129f2613bca565b6000918252602090912001546001600160a01b031691505b80612a1481613af3565b91505061287f565b506001600160a01b0316600090815260226020526040902060030191909155505050565b336000818152601d602052604090205460ff16612a6f5760405162461bcd60e51b81526004016104d490613cdd565b336000908152601d602052604090205460ff16612a9e5760405162461bcd60e51b81526004016104d490613cdd565b6040805160c0810182528881526020808201899052818301889052606082018790526080820186905260a0820185905233600090815260228252929092208151805192939192612af192849201906133fc565b506020828101518051612b0a92600185019201906133fc565b5060408201516002820155606082015160038201556080820151600482015560a0909101516005909101555050602380546001810182556000919091527fd57b2b5166478fd4318d2acc6cc2c704584312bdd8781b32d5d06abda57f42300180546001600160a01b031916331790555050505050565b604080516060810182523381526020808201858152928201849052600e805460018101825560009190915282517fbb7b4a454dc3493923482f07822329ed19e8244eff582cc204f8554c3620c3fd600390920291820180546001600160a01b0319166001600160a01b0390921691909117815593518051939493612c2d937fbb7b4a454dc3493923482f07822329ed19e8244eff582cc204f8554c3620c3fe9093019291909101906133fc565b5060408201518051612c499160028401916020909101906133fc565b5050336000908152600f60209081526040808320805460ff191660011790556013805460109093529083208290559092509061261883613af3565b336000818152600f602052604090205460ff16612cb35760405162461bcd60e51b81526004016104d490613aa6565b6000805b601254811015612e5457336001600160a01b031660128281548110612cde57612cde613bca565b6000918252602090912001546001600160a01b031603612e425785604051602001612d099190613be0565b604051602081830303815290604052805190602001206011600060128481548110612d3657612d36613bca565b60009182526020808320909101546001600160a01b0316835282810193909352604091820190209051612d699201613bfc565b6040516020818303038152906040528051906020012003612e425784604051602001612d959190613be0565b604051602081830303815290604052805190602001206011600060128481548110612dc257612dc2613bca565b60009182526020808320909101546001600160a01b0316835282810193909352604091820190209051612dfc926001929092019101613bfc565b6040516020818303038152906040528051906020012003612e425760128181548110612e2a57612e2a613bca565b6000918252602090912001546001600160a01b031691505b80612e4c81613af3565b915050612cb7565b506001600160a01b03811660009081526011602052604081206002018054859290610d51908490613c97565b3360008181526015602052604090205460ff16612eaf5760405162461bcd60e51b81526004016104d490613b9a565b3360009081526015602052604090205460ff16612ede5760405162461bcd60e51b81526004016104d490613b9a565b6000805b600d5481101561307f57866001600160a01b0316600d8281548110612f0957612f09613bca565b6000918252602090912001546001600160a01b03160361306d5785604051602001612f349190613be0565b60405160208183030381529060405280519060200120600c6000600d8481548110612f6157612f61613bca565b60009182526020808320909101546001600160a01b0316835282810193909352604091820190209051612f949201613bfc565b604051602081830303815290604052805190602001200361306d5784604051602001612fc09190613be0565b60405160208183030381529060405280519060200120600c6000600d8481548110612fed57612fed613bca565b60009182526020808320909101546001600160a01b0316835282810193909352604091820190209051613027926001929092019101613bfc565b604051602081830303815290604052805190602001200361306d57600d818154811061305557613055613bca565b6000918252602090912001546001600160a01b031691505b8061307781613af3565b915050612ee2565b506001600160a01b0381166000908152600c60205260409020600201548311156130bb5760405162461bcd60e51b81526004016104d490613d8a565b6001600160a01b0381166000908152600c60205260409020600201548311611b3357600034116130fd5760405162461bcd60e51b81526004016104d490613dd5565b6001600160a01b0381166000908152600c60205260409020600301546131239084613e01565b34146131415760405162461bcd60e51b81526004016104d490613e20565b60405186906001600160a01b038216903480156108fc02916000818181858888f19350505050158015613178573d6000803e3d6000fd5b507f6bf88a54d8df9cdac5ae0ecd59d55dd04ef597b60c83331cc9e3943775f9c19f338888888834426040516131b49796959493929190613d14565b60405180910390a16001600160a01b0382166000908152600c6020526040812060020180548692906131e7908490613c97565b90915550506000805460ff60a81b1916600160a81b17905550505050505050565b3360008181526015602052604090205460ff166132375760405162461bcd60e51b81526004016104d490613b9a565b6000805b601b548110156133d857336001600160a01b0316601b828154811061326257613262613bca565b6000918252602090912001546001600160a01b0316036133c6578560405160200161328d9190613be0565b60405160208183030381529060405280519060200120601a6000601b84815481106132ba576132ba613bca565b60009182526020808320909101546001600160a01b03168352828101939093526040918201902090516132ed9201613bfc565b60405160208183030381529060405280519060200120036133c657846040516020016133199190613be0565b60405160208183030381529060405280519060200120601a6000601b848154811061334657613346613bca565b60009182526020808320909101546001600160a01b0316835282810193909352604091820190209051613380926001929092019101613bfc565b60405160208183030381529060405280519060200120036133c657601b81815481106133ae576133ae613bca565b6000918252602090912001546001600160a01b031691505b806133d081613af3565b91505061323b565b506001600160a01b03166000908152601a6020526040902060030191909155505050565b82805461340890613b60565b90600052602060002090601f01602090048101928261342a5760008555613470565b82601f1061344357805160ff1916838001178555613470565b82800160010185558215613470579182015b82811115613470578251825591602001919060010190613455565b5061347c929150613480565b5090565b5b8082111561347c5760008155600101613481565b6001600160a01b03811681146134aa57600080fd5b50565b634e487b7160e01b600052604160045260246000fd5b600082601f8301126134d457600080fd5b813567ffffffffffffffff808211156134ef576134ef6134ad565b604051601f8301601f19908116603f01168101908282118183101715613517576135176134ad565b8160405283815286602085880101111561353057600080fd5b836020870160208301376000602085830101528094505050505092915050565b6000806000806080858703121561356657600080fd5b843561357181613495565b9350602085013567ffffffffffffffff8082111561358e57600080fd5b61359a888389016134c3565b945060408701359150808211156135b057600080fd5b506135bd878288016134c3565b949793965093946060013593505050565b60005b838110156135e95781810151838201526020016135d1565b838111156135f8576000848401525b50505050565b600081518084526136168160208601602086016135ce565b601f01601f19169290920160200192915050565b6000604080830181845280865180835260608601915060608160051b8701019250602080890160005b8381101561369b57888603605f19018552815180516001600160a01b03168752830151838701889052613688888801826135fe565b9650509382019390820190600101613653565b5050959095019590955295945050505050565b6000602082840312156136c057600080fd5b5035919050565b6000806000606084860312156136dc57600080fd5b833567ffffffffffffffff808211156136f457600080fd5b613700878388016134c3565b9450602086013591508082111561371657600080fd5b50613723868287016134c3565b925050604084013590509250925092565b60006040808301818452808651808352606092508286019150828160051b8701016020808a0160005b848110156137bf57898403605f19018652815180516001600160a01b0316855283810151848601899052613793898701826135fe565b918a0151868303878c01529190506137ab81836135fe565b97850197955050509082019060010161375d565b50509690960196909652509295945050505050565b6000602082840312156137e657600080fd5b813567ffffffffffffffff8111156137fd57600080fd5b613809848285016134c3565b949350505050565b60008060008060008060c0878903121561382a57600080fd5b863561383581613495565b9550602087013567ffffffffffffffff8082111561385257600080fd5b61385e8a838b016134c3565b9650604089013591508082111561387457600080fd5b5061388189828a016134c3565b945050606087013592506080870135915060a087013590509295509295509295565b600080600080608085870312156138b957600080fd5b843567ffffffffffffffff808211156138d157600080fd5b6138dd888389016134c3565b955060208701359150808211156138f357600080fd5b50613900878288016134c3565b949794965050505060408301359260600135919050565b600080600080600080600080610100898b03121561393457600080fd5b883561393f81613495565b9750602089013567ffffffffffffffff8082111561395c57600080fd5b6139688c838d016134c3565b985060408b013591508082111561397e57600080fd5b5061398b8b828c016134c3565b989b979a5097986060810135985060808101359760a0820135975060c0820135965060e090910135945092505050565b600080604083850312156139ce57600080fd5b823567ffffffffffffffff808211156139e657600080fd5b6139f2868387016134c3565b93506020850135915080821115613a0857600080fd5b50613a15858286016134c3565b9150509250929050565b60008060008060008060c08789031215613a3857600080fd5b863567ffffffffffffffff80821115613a5057600080fd5b613a5c8a838b016134c3565b97506020890135915080821115613a7257600080fd5b50613a7f89828a016134c3565b96999698505050506040850135946060810135946080820135945060a09091013592509050565b6020808252601b908201527f5365656420636f6d70616e7920646f65736e2774206578697374210000000000604082015260600190565b634e487b7160e01b600052601160045260246000fd5b600060018201613b0557613b05613add565b5060010190565b6001600160a01b0387811682528616602082015260c060408201819052600090613b38908301876135fe565b8281036060840152613b4a81876135fe565b6080840195909552505060a00152949350505050565b600181811c90821680613b7457607f821691505b602082108103613b9457634e487b7160e01b600052602260045260246000fd5b50919050565b602080825260169082015275115b195d985d1bdc88191bd95cdb89dd08195e1a5cdd60521b604082015260600190565b634e487b7160e01b600052603260045260246000fd5b60008251613bf28184602087016135ce565b9190910192915050565b600080835481600182811c915080831680613c1857607f831692505b60208084108203613c3757634e487b7160e01b86526022600452602486fd5b818015613c4b5760018114613c5c57613c89565b60ff19861689528489019650613c89565b60008a81526020902060005b86811015613c815781548b820152908501908301613c68565b505084890196505b509498975050505050505050565b600082821015613ca957613ca9613add565b500390565b6020808252601590820152744661726d657220646f65736e27742065787369732160581b604082015260600190565b60208082526017908201527f50726f636573736f7220646f65736e2774206578697374000000000000000000604082015260600190565b6001600160a01b0388811682528716602082015260e060408201819052600090613d40908301886135fe565b8281036060840152613d5281886135fe565b6080840196909652505060a081019290925260c090910152949350505050565b60008219821115613d8557613d85613add565b500190565b6020808252602b908201527f54686973206d7563682071756e6174697479206f662073656564206973206e6f60408201526a7420617661696c61626c6560a81b606082015260800190565b6020808252601290820152710796f75206861766520656e746572656420360741b604082015260600190565b6000816000190483118215151615613e1b57613e1b613add565b500290565b60208082526025908201527f596f7520686176656e277420656e74657264207468652065787065637465642060408201526476616c756560d81b60608201526080019056fea264697066735822122071471118d6912904ca5e2737de875d6d92f1286aa6d3dc3b895b77724f1f2e7464736f6c634300080e0033",
    "sourcePath": "e:/JSS Mysore/6th Semester/EC67L D&I/Project/project.sol",
    "compiler": {
        "name": "solc",
        "version": "0.8.14+commit.80d49f37"
    },
    "functionHashes": {
        "addElevator(string,string,uint256)": "17cf2c15",
        "addFarmer(string)": "2d7e2e8b",
        "addGrainQuantityFromElevator(string,string,uint256)": "cb8f510b",
        "addProcessor(string,string)": "c7d5c332",
        "addSeedCompany(string,string)": "d49376ca",
        "addSeedQuantity(string,string,uint256)": "5eb78b8c",
        "buyGrainFromElevator(address,string,string,uint256)": "9375946d",
        "buyGrainFromFarmer(address,string,string,uint256)": "dcdd5bce",
        "buySeeds(address,string,string,uint256)": "b9ac42b2",
        "createContract()": "412a5a6d",
        "getListOfFarmer()": "03f8027a",
        "getListOfseedCompany()": "1aeb4ec7",
        "removeGrainQuantityFromElevator(string,string,uint256)": "1b5e33ac",
        "removeSeedQuantity(string,string,uint256)": "dc441ba8",
        "sellGrainToElevator(address,string,string,uint256,uint256,uint256,uint256,uint256)": "c10e8579",
        "sellGrainToProcessor(address,string,string,uint256,uint256,uint256)": "47f15ddf",
        "sellSeeds(address,string,string,uint256)": "02ca78f2",
        "updateGrainFarmerQuantity(string,string,uint256,uint256)": "c16634b7",
        "updateGrainPriceByFarmer(string,string,uint256)": "b5d765de",
        "updateGrainPriceFromElevator(string,string,uint256)": "f66959ee",
        "updateProcessedGrainDetails(string,string,uint256,uint256,uint256,uint256)": "ccc7cada",
        "updateProcessedGrainPrice(string,string,uint256)": "cc746e45",
        "updateSeedDetails(string,string,uint256,uint256)": "719fae32",
        "updateSeedPrice(string,string,uint256)": "59a1d1a3",
        "updateStorageQuantity(uint256)": "166d9eaa",
        "updategrainDetailsFromElevator(string,string,uint256,uint256)": "53b2d0fd"
    },
    "gasEstimates": {
        "creation": {
            "codeDepositCost": "3205400",
            "executionCost": "87063",
            "totalCost": "3292463"
        },
        "external": {
            "addElevator(string,string,uint256)": "infinite",
            "addFarmer(string)": "infinite",
            "addGrainQuantityFromElevator(string,string,uint256)": "infinite",
            "addProcessor(string,string)": "infinite",
            "addSeedCompany(string,string)": "infinite",
            "addSeedQuantity(string,string,uint256)": "infinite",
            "buyGrainFromElevator(address,string,string,uint256)": "infinite",
            "buyGrainFromFarmer(address,string,string,uint256)": "infinite",
            "buySeeds(address,string,string,uint256)": "infinite",
            "createContract()": "28888",
            "getListOfFarmer()": "infinite",
            "getListOfseedCompany()": "infinite",
            "removeGrainQuantityFromElevator(string,string,uint256)": "infinite",
            "removeSeedQuantity(string,string,uint256)": "infinite",
            "sellGrainToElevator(address,string,string,uint256,uint256,uint256,uint256,uint256)": "infinite",
            "sellGrainToProcessor(address,string,string,uint256,uint256,uint256)": "infinite",
            "sellSeeds(address,string,string,uint256)": "infinite",
            "updateGrainFarmerQuantity(string,string,uint256,uint256)": "infinite",
            "updateGrainPriceByFarmer(string,string,uint256)": "infinite",
            "updateGrainPriceFromElevator(string,string,uint256)": "infinite",
            "updateProcessedGrainDetails(string,string,uint256,uint256,uint256,uint256)": "infinite",
            "updateProcessedGrainPrice(string,string,uint256)": "infinite",
            "updateSeedDetails(string,string,uint256,uint256)": "infinite",
            "updateSeedPrice(string,string,uint256)": "infinite",
            "updateStorageQuantity(uint256)": "infinite",
            "updategrainDetailsFromElevator(string,string,uint256,uint256)": "infinite"
        }
    }
}