{
    "contractName": "supplyChainAgriculture",
    "abi": [
        {
            "inputs": [],
            "stateMutability": "nonpayable",
            "type": "constructor"
        },
        {
            "anonymous": false,
            "inputs": [
                {
                    "indexed": false,
                    "internalType": "address",
                    "name": "Processor",
                    "type": "address"
                },
                {
                    "indexed": false,
                    "internalType": "address",
                    "name": "Distributor",
                    "type": "address"
                },
                {
                    "indexed": false,
                    "internalType": "string",
                    "name": "grainType",
                    "type": "string"
                },
                {
                    "indexed": false,
                    "internalType": "string",
                    "name": "variety",
                    "type": "string"
                },
                {
                    "indexed": false,
                    "internalType": "uint256",
                    "name": "quantity",
                    "type": "uint256"
                },
                {
                    "indexed": false,
                    "internalType": "uint256",
                    "name": "pricePer1q",
                    "type": "uint256"
                },
                {
                    "indexed": false,
                    "internalType": "uint256",
                    "name": "purchaseDate",
                    "type": "uint256"
                }
            ],
            "name": "sellGrainsToDsitributorFromProcessor",
            "type": "event"
        },
        {
            "anonymous": false,
            "inputs": [
                {
                    "indexed": false,
                    "internalType": "address",
                    "name": "farmer",
                    "type": "address"
                },
                {
                    "indexed": false,
                    "internalType": "address",
                    "name": "elevator",
                    "type": "address"
                },
                {
                    "indexed": false,
                    "internalType": "string",
                    "name": "grainType",
                    "type": "string"
                },
                {
                    "indexed": false,
                    "internalType": "string",
                    "name": "variety",
                    "type": "string"
                },
                {
                    "indexed": false,
                    "internalType": "uint256",
                    "name": "quantity",
                    "type": "uint256"
                },
                {
                    "indexed": false,
                    "internalType": "uint256",
                    "name": "pricePer1q",
                    "type": "uint256"
                },
                {
                    "indexed": false,
                    "internalType": "uint256",
                    "name": "purchaseDate",
                    "type": "uint256"
                }
            ],
            "name": "sellGrainsToElevator",
            "type": "event"
        },
        {
            "anonymous": false,
            "inputs": [
                {
                    "indexed": false,
                    "internalType": "address",
                    "name": "Elevator",
                    "type": "address"
                },
                {
                    "indexed": false,
                    "internalType": "address",
                    "name": "Processor",
                    "type": "address"
                },
                {
                    "indexed": false,
                    "internalType": "string",
                    "name": "grainType",
                    "type": "string"
                },
                {
                    "indexed": false,
                    "internalType": "string",
                    "name": "variety",
                    "type": "string"
                },
                {
                    "indexed": false,
                    "internalType": "uint256",
                    "name": "quantity",
                    "type": "uint256"
                },
                {
                    "indexed": false,
                    "internalType": "uint256",
                    "name": "pricePer1q",
                    "type": "uint256"
                },
                {
                    "indexed": false,
                    "internalType": "uint256",
                    "name": "purchaseDate",
                    "type": "uint256"
                }
            ],
            "name": "sellGrainsToProcessorFromElevator",
            "type": "event"
        },
        {
            "anonymous": false,
            "inputs": [
                {
                    "indexed": false,
                    "internalType": "address",
                    "name": "farmer",
                    "type": "address"
                },
                {
                    "indexed": false,
                    "internalType": "address",
                    "name": "seedCompany",
                    "type": "address"
                },
                {
                    "indexed": false,
                    "internalType": "string",
                    "name": "seedType",
                    "type": "string"
                },
                {
                    "indexed": false,
                    "internalType": "string",
                    "name": "variety",
                    "type": "string"
                },
                {
                    "indexed": false,
                    "internalType": "uint256",
                    "name": "quantity",
                    "type": "uint256"
                },
                {
                    "indexed": false,
                    "internalType": "uint256",
                    "name": "time",
                    "type": "uint256"
                }
            ],
            "name": "sellOfSeeds",
            "type": "event"
        },
        {
            "anonymous": false,
            "inputs": [
                {
                    "indexed": false,
                    "internalType": "address",
                    "name": "Distributor",
                    "type": "address"
                },
                {
                    "indexed": false,
                    "internalType": "address",
                    "name": "Processor",
                    "type": "address"
                },
                {
                    "indexed": false,
                    "internalType": "string",
                    "name": "grainType",
                    "type": "string"
                },
                {
                    "indexed": false,
                    "internalType": "string",
                    "name": "variety",
                    "type": "string"
                },
                {
                    "indexed": false,
                    "internalType": "uint256",
                    "name": "quantity",
                    "type": "uint256"
                },
                {
                    "indexed": false,
                    "internalType": "uint256",
                    "name": "Price",
                    "type": "uint256"
                },
                {
                    "indexed": false,
                    "internalType": "uint256",
                    "name": "time",
                    "type": "uint256"
                }
            ],
            "name": "transferCompleteFromDistributorToProcessor",
            "type": "event"
        },
        {
            "anonymous": false,
            "inputs": [
                {
                    "indexed": false,
                    "internalType": "address",
                    "name": "Processor",
                    "type": "address"
                },
                {
                    "indexed": false,
                    "internalType": "address",
                    "name": "elevator",
                    "type": "address"
                },
                {
                    "indexed": false,
                    "internalType": "string",
                    "name": "grainType",
                    "type": "string"
                },
                {
                    "indexed": false,
                    "internalType": "string",
                    "name": "variety",
                    "type": "string"
                },
                {
                    "indexed": false,
                    "internalType": "uint256",
                    "name": "quantity",
                    "type": "uint256"
                },
                {
                    "indexed": false,
                    "internalType": "uint256",
                    "name": "Price",
                    "type": "uint256"
                },
                {
                    "indexed": false,
                    "internalType": "uint256",
                    "name": "time",
                    "type": "uint256"
                }
            ],
            "name": "transferCompleteFromProcessorToElevator",
            "type": "event"
        },
        {
            "anonymous": false,
            "inputs": [
                {
                    "indexed": false,
                    "internalType": "address",
                    "name": "farmer",
                    "type": "address"
                },
                {
                    "indexed": false,
                    "internalType": "address",
                    "name": "Seedcompany",
                    "type": "address"
                },
                {
                    "indexed": false,
                    "internalType": "string",
                    "name": "seedType",
                    "type": "string"
                },
                {
                    "indexed": false,
                    "internalType": "string",
                    "name": "variety",
                    "type": "string"
                },
                {
                    "indexed": false,
                    "internalType": "uint256",
                    "name": "quantity",
                    "type": "uint256"
                },
                {
                    "indexed": false,
                    "internalType": "uint256",
                    "name": "Price",
                    "type": "uint256"
                },
                {
                    "indexed": false,
                    "internalType": "uint256",
                    "name": "time",
                    "type": "uint256"
                }
            ],
            "name": "transferCompleteSeed",
            "type": "event"
        },
        {
            "anonymous": false,
            "inputs": [
                {
                    "indexed": false,
                    "internalType": "address",
                    "name": "elevator",
                    "type": "address"
                },
                {
                    "indexed": false,
                    "internalType": "address",
                    "name": "farmer",
                    "type": "address"
                },
                {
                    "indexed": false,
                    "internalType": "string",
                    "name": "grownGrainType",
                    "type": "string"
                },
                {
                    "indexed": false,
                    "internalType": "string",
                    "name": "variety",
                    "type": "string"
                },
                {
                    "indexed": false,
                    "internalType": "uint256",
                    "name": "quantity",
                    "type": "uint256"
                },
                {
                    "indexed": false,
                    "internalType": "uint256",
                    "name": "Price",
                    "type": "uint256"
                },
                {
                    "indexed": false,
                    "internalType": "uint256",
                    "name": "time",
                    "type": "uint256"
                }
            ],
            "name": "transferCompletegrownGrain",
            "type": "event"
        },
        {
            "inputs": [
                {
                    "internalType": "string",
                    "name": "_hash",
                    "type": "string"
                },
                {
                    "internalType": "string",
                    "name": "_distributorName",
                    "type": "string"
                }
            ],
            "name": "addDistributor",
            "outputs": [],
            "stateMutability": "nonpayable",
            "type": "function"
        },
        {
            "inputs": [
                {
                    "internalType": "string",
                    "name": "_hash",
                    "type": "string"
                },
                {
                    "internalType": "string",
                    "name": "_name",
                    "type": "string"
                },
                {
                    "internalType": "uint256",
                    "name": "_storageQuantity",
                    "type": "uint256"
                }
            ],
            "name": "addElevator",
            "outputs": [],
            "stateMutability": "nonpayable",
            "type": "function"
        },
        {
            "inputs": [
                {
                    "internalType": "string",
                    "name": "_hash",
                    "type": "string"
                }
            ],
            "name": "addFarmer",
            "outputs": [],
            "stateMutability": "nonpayable",
            "type": "function"
        },
        {
            "inputs": [
                {
                    "internalType": "string",
                    "name": "_grainType",
                    "type": "string"
                },
                {
                    "internalType": "string",
                    "name": "_variety",
                    "type": "string"
                },
                {
                    "internalType": "uint256",
                    "name": "_quantity",
                    "type": "uint256"
                }
            ],
            "name": "addGrainQuantityFromElevator",
            "outputs": [],
            "stateMutability": "nonpayable",
            "type": "function"
        },
        {
            "inputs": [
                {
                    "internalType": "string",
                    "name": "_hash",
                    "type": "string"
                },
                {
                    "internalType": "string",
                    "name": "_name",
                    "type": "string"
                }
            ],
            "name": "addProcessor",
            "outputs": [],
            "stateMutability": "nonpayable",
            "type": "function"
        },
        {
            "inputs": [
                {
                    "internalType": "string",
                    "name": "_name",
                    "type": "string"
                },
                {
                    "internalType": "string",
                    "name": "_hash",
                    "type": "string"
                }
            ],
            "name": "addSeedCompany",
            "outputs": [],
            "stateMutability": "nonpayable",
            "type": "function"
        },
        {
            "inputs": [
                {
                    "internalType": "string",
                    "name": "_seedType",
                    "type": "string"
                },
                {
                    "internalType": "string",
                    "name": "_variety",
                    "type": "string"
                },
                {
                    "internalType": "uint256",
                    "name": "_addQuantity",
                    "type": "uint256"
                }
            ],
            "name": "addSeedQuantity",
            "outputs": [],
            "stateMutability": "nonpayable",
            "type": "function"
        },
        {
            "inputs": [
                {
                    "internalType": "address payable",
                    "name": "_elevator",
                    "type": "address"
                },
                {
                    "internalType": "string",
                    "name": "_grainType",
                    "type": "string"
                },
                {
                    "internalType": "string",
                    "name": "_variety",
                    "type": "string"
                },
                {
                    "internalType": "uint256",
                    "name": "_quantity",
                    "type": "uint256"
                }
            ],
            "name": "buyGrainFromElevator",
            "outputs": [],
            "stateMutability": "payable",
            "type": "function"
        },
        {
            "inputs": [
                {
                    "internalType": "address payable",
                    "name": "_farmer",
                    "type": "address"
                },
                {
                    "internalType": "string",
                    "name": "_grainTypeGrown",
                    "type": "string"
                },
                {
                    "internalType": "string",
                    "name": "_variety",
                    "type": "string"
                },
                {
                    "internalType": "uint256",
                    "name": "_quantity",
                    "type": "uint256"
                }
            ],
            "name": "buyGrainFromFarmer",
            "outputs": [],
            "stateMutability": "payable",
            "type": "function"
        },
        {
            "inputs": [
                {
                    "internalType": "address",
                    "name": "_processor",
                    "type": "address"
                },
                {
                    "internalType": "string",
                    "name": "_grainType",
                    "type": "string"
                },
                {
                    "internalType": "string",
                    "name": "_grainVariety",
                    "type": "string"
                },
                {
                    "internalType": "uint256",
                    "name": "_quantity",
                    "type": "uint256"
                },
                {
                    "internalType": "uint256",
                    "name": "_manufactureDate",
                    "type": "uint256"
                }
            ],
            "name": "buyGrainFromProcessor",
            "outputs": [],
            "stateMutability": "payable",
            "type": "function"
        },
        {
            "inputs": [
                {
                    "internalType": "address payable",
                    "name": "_seedCompany",
                    "type": "address"
                },
                {
                    "internalType": "string",
                    "name": "_seedType",
                    "type": "string"
                },
                {
                    "internalType": "string",
                    "name": "_variety",
                    "type": "string"
                },
                {
                    "internalType": "uint256",
                    "name": "_quantity",
                    "type": "uint256"
                }
            ],
            "name": "buySeeds",
            "outputs": [],
            "stateMutability": "payable",
            "type": "function"
        },
        {
            "inputs": [],
            "name": "createContract",
            "outputs": [],
            "stateMutability": "nonpayable",
            "type": "function"
        },
        {
            "inputs": [],
            "name": "getListOfFarmer",
            "outputs": [
                {
                    "components": [
                        {
                            "internalType": "address payable",
                            "name": "farmerAddress",
                            "type": "address"
                        },
                        {
                            "internalType": "string",
                            "name": "hash",
                            "type": "string"
                        }
                    ],
                    "internalType": "struct supplyChainAgriculture.Farmer[]",
                    "name": "",
                    "type": "tuple[]"
                },
                {
                    "internalType": "uint256",
                    "name": "",
                    "type": "uint256"
                }
            ],
            "stateMutability": "view",
            "type": "function"
        },
        {
            "inputs": [],
            "name": "getListOfseedCompany",
            "outputs": [
                {
                    "components": [
                        {
                            "internalType": "address payable",
                            "name": "companyAddress",
                            "type": "address"
                        },
                        {
                            "internalType": "string",
                            "name": "CompanyName",
                            "type": "string"
                        },
                        {
                            "internalType": "string",
                            "name": "hash",
                            "type": "string"
                        }
                    ],
                    "internalType": "struct supplyChainAgriculture.SeedCompany[]",
                    "name": "",
                    "type": "tuple[]"
                },
                {
                    "internalType": "uint256",
                    "name": "",
                    "type": "uint256"
                }
            ],
            "stateMutability": "view",
            "type": "function"
        },
        {
            "inputs": [
                {
                    "internalType": "string",
                    "name": "_grainType",
                    "type": "string"
                },
                {
                    "internalType": "string",
                    "name": "_variety",
                    "type": "string"
                },
                {
                    "internalType": "uint256",
                    "name": "_quantity",
                    "type": "uint256"
                }
            ],
            "name": "removeGrainQuantityFromElevator",
            "outputs": [],
            "stateMutability": "nonpayable",
            "type": "function"
        },
        {
            "inputs": [
                {
                    "internalType": "string",
                    "name": "_processedGrainType",
                    "type": "string"
                },
                {
                    "internalType": "string",
                    "name": "_processedGrainVariety",
                    "type": "string"
                },
                {
                    "internalType": "uint256",
                    "name": "_quantity",
                    "type": "uint256"
                },
                {
                    "internalType": "uint256",
                    "name": "_manufactureDate",
                    "type": "uint256"
                }
            ],
            "name": "removeProcessedGrainQuantity",
            "outputs": [],
            "stateMutability": "nonpayable",
            "type": "function"
        },
        {
            "inputs": [
                {
                    "internalType": "string",
                    "name": "_seedType",
                    "type": "string"
                },
                {
                    "internalType": "string",
                    "name": "_variety",
                    "type": "string"
                },
                {
                    "internalType": "uint256",
                    "name": "_addQuantity",
                    "type": "uint256"
                }
            ],
            "name": "removeSeedQuantity",
            "outputs": [],
            "stateMutability": "nonpayable",
            "type": "function"
        },
        {
            "inputs": [
                {
                    "internalType": "address",
                    "name": "_distributor",
                    "type": "address"
                },
                {
                    "internalType": "string",
                    "name": "_grainType",
                    "type": "string"
                },
                {
                    "internalType": "string",
                    "name": "_variety",
                    "type": "string"
                },
                {
                    "internalType": "uint256",
                    "name": "_quantity",
                    "type": "uint256"
                },
                {
                    "internalType": "uint256",
                    "name": "_pricePerLot",
                    "type": "uint256"
                },
                {
                    "internalType": "uint256",
                    "name": "_soldDate",
                    "type": "uint256"
                },
                {
                    "internalType": "uint256",
                    "name": "_manufactureDate",
                    "type": "uint256"
                }
            ],
            "name": "sellGrainToDistributorFromProcessor",
            "outputs": [],
            "stateMutability": "nonpayable",
            "type": "function"
        },
        {
            "inputs": [
                {
                    "internalType": "address",
                    "name": "_elevator",
                    "type": "address"
                },
                {
                    "internalType": "string",
                    "name": "_grainType",
                    "type": "string"
                },
                {
                    "internalType": "string",
                    "name": "_variety",
                    "type": "string"
                },
                {
                    "internalType": "uint256",
                    "name": "_quantity",
                    "type": "uint256"
                },
                {
                    "internalType": "uint256",
                    "name": "_moisture",
                    "type": "uint256"
                },
                {
                    "internalType": "uint256",
                    "name": "_temperature",
                    "type": "uint256"
                },
                {
                    "internalType": "uint256",
                    "name": "_pricePer1q",
                    "type": "uint256"
                },
                {
                    "internalType": "uint256",
                    "name": "_purchaseDate",
                    "type": "uint256"
                }
            ],
            "name": "sellGrainToElevator",
            "outputs": [],
            "stateMutability": "nonpayable",
            "type": "function"
        },
        {
            "inputs": [
                {
                    "internalType": "address",
                    "name": "_processor",
                    "type": "address"
                },
                {
                    "internalType": "string",
                    "name": "_grainType",
                    "type": "string"
                },
                {
                    "internalType": "string",
                    "name": "_grainVariety",
                    "type": "string"
                },
                {
                    "internalType": "uint256",
                    "name": "_quantity",
                    "type": "uint256"
                },
                {
                    "internalType": "uint256",
                    "name": "_pricePer1q",
                    "type": "uint256"
                },
                {
                    "internalType": "uint256",
                    "name": "_purchaseDate",
                    "type": "uint256"
                }
            ],
            "name": "sellGrainToProcessor",
            "outputs": [],
            "stateMutability": "nonpayable",
            "type": "function"
        },
        {
            "inputs": [
                {
                    "internalType": "address",
                    "name": "_farmer",
                    "type": "address"
                },
                {
                    "internalType": "string",
                    "name": "_seedType",
                    "type": "string"
                },
                {
                    "internalType": "string",
                    "name": "_variety",
                    "type": "string"
                },
                {
                    "internalType": "uint256",
                    "name": "_quantity",
                    "type": "uint256"
                }
            ],
            "name": "sellSeeds",
            "outputs": [],
            "stateMutability": "nonpayable",
            "type": "function"
        },
        {
            "inputs": [
                {
                    "internalType": "string",
                    "name": "_grainType",
                    "type": "string"
                },
                {
                    "internalType": "string",
                    "name": "_variety",
                    "type": "string"
                },
                {
                    "internalType": "uint256",
                    "name": "_quantity",
                    "type": "uint256"
                },
                {
                    "internalType": "uint256",
                    "name": "_pricePer10kg",
                    "type": "uint256"
                }
            ],
            "name": "updateDistributerGrain",
            "outputs": [],
            "stateMutability": "nonpayable",
            "type": "function"
        },
        {
            "inputs": [
                {
                    "internalType": "string",
                    "name": "_seedType",
                    "type": "string"
                },
                {
                    "internalType": "string",
                    "name": "_variety",
                    "type": "string"
                },
                {
                    "internalType": "uint256",
                    "name": "_quantity",
                    "type": "uint256"
                },
                {
                    "internalType": "uint256",
                    "name": "_pricePer1q",
                    "type": "uint256"
                }
            ],
            "name": "updateGrainFarmerQuantity",
            "outputs": [],
            "stateMutability": "nonpayable",
            "type": "function"
        },
        {
            "inputs": [
                {
                    "internalType": "string",
                    "name": "_grainTypeGrown",
                    "type": "string"
                },
                {
                    "internalType": "string",
                    "name": "_variety",
                    "type": "string"
                },
                {
                    "internalType": "uint256",
                    "name": "_pricePer1q",
                    "type": "uint256"
                }
            ],
            "name": "updateGrainPriceByFarmer",
            "outputs": [],
            "stateMutability": "nonpayable",
            "type": "function"
        },
        {
            "inputs": [
                {
                    "internalType": "string",
                    "name": "_grainType",
                    "type": "string"
                },
                {
                    "internalType": "string",
                    "name": "_variety",
                    "type": "string"
                },
                {
                    "internalType": "uint256",
                    "name": "_pricePer1q",
                    "type": "uint256"
                }
            ],
            "name": "updateGrainPriceFromElevator",
            "outputs": [],
            "stateMutability": "nonpayable",
            "type": "function"
        },
        {
            "inputs": [
                {
                    "internalType": "string",
                    "name": "_processedGrainType",
                    "type": "string"
                },
                {
                    "internalType": "string",
                    "name": "_processedGrainVariety",
                    "type": "string"
                },
                {
                    "internalType": "uint256",
                    "name": "_quantity",
                    "type": "uint256"
                },
                {
                    "internalType": "uint256",
                    "name": "_pricePerLot",
                    "type": "uint256"
                },
                {
                    "internalType": "uint256",
                    "name": "_manufactureDate",
                    "type": "uint256"
                },
                {
                    "internalType": "uint256",
                    "name": "_expDate",
                    "type": "uint256"
                }
            ],
            "name": "updateProcessedGrainDetails",
            "outputs": [],
            "stateMutability": "nonpayable",
            "type": "function"
        },
        {
            "inputs": [
                {
                    "internalType": "string",
                    "name": "_processedGrainType",
                    "type": "string"
                },
                {
                    "internalType": "string",
                    "name": "_processedGrainVariety",
                    "type": "string"
                },
                {
                    "internalType": "uint256",
                    "name": "_pricePerLot",
                    "type": "uint256"
                },
                {
                    "internalType": "uint256",
                    "name": "_manufactureDate",
                    "type": "uint256"
                }
            ],
            "name": "updateProcessedGrainPrice",
            "outputs": [],
            "stateMutability": "nonpayable",
            "type": "function"
        },
        {
            "inputs": [
                {
                    "internalType": "string",
                    "name": "_seedType",
                    "type": "string"
                },
                {
                    "internalType": "string",
                    "name": "_variety",
                    "type": "string"
                },
                {
                    "internalType": "uint256",
                    "name": "_quantity",
                    "type": "uint256"
                },
                {
                    "internalType": "uint256",
                    "name": "_pricePer10g",
                    "type": "uint256"
                }
            ],
            "name": "updateSeedDetails",
            "outputs": [],
            "stateMutability": "nonpayable",
            "type": "function"
        },
        {
            "inputs": [
                {
                    "internalType": "string",
                    "name": "_seedType",
                    "type": "string"
                },
                {
                    "internalType": "string",
                    "name": "_variety",
                    "type": "string"
                },
                {
                    "internalType": "uint256",
                    "name": "_pricePer10g",
                    "type": "uint256"
                }
            ],
            "name": "updateSeedPrice",
            "outputs": [],
            "stateMutability": "nonpayable",
            "type": "function"
        },
        {
            "inputs": [
                {
                    "internalType": "uint256",
                    "name": "_storageQuantity",
                    "type": "uint256"
                }
            ],
            "name": "updateStorageQuantity",
            "outputs": [],
            "stateMutability": "nonpayable",
            "type": "function"
        },
        {
            "inputs": [
                {
                    "internalType": "string",
                    "name": "_grainType",
                    "type": "string"
                },
                {
                    "internalType": "string",
                    "name": "_variety",
                    "type": "string"
                },
                {
                    "internalType": "uint256",
                    "name": "_quantity",
                    "type": "uint256"
                },
                {
                    "internalType": "uint256",
                    "name": "_pricePer1q",
                    "type": "uint256"
                }
            ],
            "name": "updategrainDetailsFromElevator",
            "outputs": [],
            "stateMutability": "nonpayable",
            "type": "function"
        }
    ],
    "bytecode": "60806040526000805463ffffffff60a01b19168155600381905560058190556007819055600d8190556015819055601981905560215534801561004157600080fd5b50600080546001600160a01b0319163317905561502e806100636000396000f3fe6080604052600436106101d85760003560e01c8063719fae3211610102578063cb8f510b11610095578063dc441ba811610064578063dc441ba814610529578063dcdd5bce14610549578063f66959ee1461055c578063f8135d551461057c57600080fd5b8063cb8f510b146104a9578063ccc7cada146104c9578063d49376ca146104e9578063dc2fdb141461050957600080fd5b8063b9ac42b2116100d1578063b9ac42b214610436578063c10e857914610449578063c16634b714610469578063c7d5c3321461048957600080fd5b8063719fae32146103c35780638c4a68bd146103e35780639375946d14610403578063b5d765de1461041657600080fd5b8063412a5a6d1161017a57806353b2d0fd1161014957806353b2d0fd1461034357806359a1d1a3146103635780635eb78b8c14610383578063701838a1146103a357600080fd5b8063412a5a6d146102ce578063427449ec146102e357806347f15ddf14610303578063513d9b941461032357600080fd5b806317cf2c15116101b657806317cf2c151461024b5780631aeb4ec71461026b5780631b5e33ac1461028e5780632d7e2e8b146102ae57600080fd5b806302ca78f2146101dd57806303f8027a146101ff578063166d9eaa1461022b575b600080fd5b3480156101e957600080fd5b506101fd6101f8366004614589565b61058f565b005b34801561020b57600080fd5b50610214610758565b604051610222929190614663565b60405180910390f35b34801561023757600080fd5b506101fd6102463660046146e7565b6108d5565b34801561025757600080fd5b506101fd610266366004614700565b61098a565b34801561027757600080fd5b50610280610aa9565b60405161022292919061476d565b34801561029a57600080fd5b506101fd6102a9366004614700565b610c3f565b3480156102ba57600080fd5b506101fd6102c936600461480d565b610e47565b3480156102da57600080fd5b506101fd610f2e565b3480156102ef57600080fd5b506101fd6102fe36600461484a565b610fd2565b34801561030f57600080fd5b506101fd61031e3660046148be565b61128c565b34801561032f57600080fd5b506101fd61033e36600461484a565b611547565b34801561034f57600080fd5b506101fd61035e36600461484a565b6115d5565b34801561036f57600080fd5b506101fd61037e366004614700565b6118ce565b34801561038f57600080fd5b506101fd61039e366004614700565b611ac2565b3480156103af57600080fd5b506101fd6103be36600461484a565b611cbe565b3480156103cf57600080fd5b506101fd6103de36600461484a565b611f7c565b3480156103ef57600080fd5b506101fd6103fe366004614950565b612069565b6101fd610411366004614589565b612517565b34801561042257600080fd5b506101fd610431366004614700565b61289f565b6101fd610444366004614589565b612ae9565b34801561045557600080fd5b506101fd6104643660046149eb565b612e98565b34801561047557600080fd5b506101fd61048436600461484a565b61315e565b34801561049557600080fd5b506101fd6104a4366004614a8f565b6132a1565b3480156104b557600080fd5b506101fd6104c4366004614700565b6133ac565b3480156104d557600080fd5b506101fd6104e4366004614af3565b6135a8565b3480156104f557600080fd5b506101fd610504366004614a8f565b6136e8565b34801561051557600080fd5b506101fd610524366004614a8f565b6137ec565b34801561053557600080fd5b506101fd610544366004614700565b6138ef565b6101fd610557366004614589565b613aeb565b34801561056857600080fd5b506101fd610577366004614700565b613e73565b6101fd61058a366004614b7a565b614067565b3360008181526011602052604090205460ff166105c75760405162461bcd60e51b81526004016105be90614c02565b60405180910390fd5b3360009081526011602052604090205460ff166106265760405162461bcd60e51b815260206004820152601a60248201527f5365656420436f6d70616e7920446f65736e277420457869737400000000000060448201526064016105be565b600054600160a01b900460ff1615156001036106f1576040805180820182523381526001600160a01b0387811660208084019182526003805460009081526002909252948120935184549084166001600160a01b03199182161785559151600190940180549490931693909116929092179055815491906106a683614c4f565b91905055507f0abb2b17e070b031d143b94e96bb7894984f9776f01493cbcc2f4191d803a1b68533868686426040516106e496959493929190614c68565b60405180910390a1610751565b60405162461bcd60e51b815260206004820152602f60248201527f4661726d657220646f65736e2774206578697374206f72206865206469646e2760448201526e7420706179207468652062696c6c7360881b60648201526084016105be565b5050505050565b60008054606091906001600160a01b031633146107c85760405162461bcd60e51b815260206004820152602860248201527f536f7272792c205468697320696e666f726d6174696f6e20697320636f6e66696044820152673232b73a34b0b61760c11b60648201526084016105be565b600a600d5481805480602002602001604051908101604052809291908181526020016000905b828210156108c7576000848152602090819020604080518082019091526002850290910180546001600160a01b03168252600181018054929391929184019161083690614cbc565b80601f016020809104026020016040519081016040528092919081815260200182805461086290614cbc565b80156108af5780601f10610884576101008083540402835291602001916108af565b820191906000526020600020905b81548152906001019060200180831161089257829003601f168201915b505050505081525050815260200190600101906107ee565b505050509150915091509091565b3360008181526017602052604090205460ff166109045760405162461bcd60e51b81526004016105be90614cf6565b6000805b60165481101561095b576016818154811061092557610925614d26565b60009182526020909120600490910201546001600160a01b03163303610949578091505b8061095381614c4f565b915050610908565b50826016828154811061097057610970614d26565b906000526020600020906004020160030181905550505050565b604080516080810182523381526020808201858152928201869052606082018490526016805460018101825560009190915282517fd833147d7dc355ba459fc788f669e58cfaf9dc25ddcd0702e87d69c7b5124289600490920291820180546001600160a01b0319166001600160a01b0390921691909117815593518051939493610a3e937fd833147d7dc355ba459fc788f669e58cfaf9dc25ddcd0702e87d69c7b512428a909301929190910190614435565b5060408201518051610a5a916002840191602090910190614435565b5060609190910151600390910155336000908152601760209081526040808320805460ff191660011790556019805460189093529083208290559091610a9f83614c4f565b9190505550505050565b60606000601060155481805480602002602001604051908101604052809291908181526020016000905b828210156108c757600084815260209081902060408051606081019091526003850290910180546001600160a01b031682526001810180549293919291840191610b1c90614cbc565b80601f0160208091040260200160405190810160405280929190818152602001828054610b4890614cbc565b8015610b955780601f10610b6a57610100808354040283529160200191610b95565b820191906000526020600020905b815481529060010190602001808311610b7857829003601f168201915b50505050508152602001600282018054610bae90614cbc565b80601f0160208091040260200160405190810160405280929190818152602001828054610bda90614cbc565b8015610c275780601f10610bfc57610100808354040283529160200191610c27565b820191906000526020600020905b815481529060010190602001808311610c0a57829003601f168201915b50505050508152505081526020019060010190610ad3565b3360008181526017602052604090205460ff16610c6e5760405162461bcd60e51b81526004016105be90614cf6565b6000805b601d54811015610e0f57336001600160a01b0316601d8281548110610c9957610c99614d26565b6000918252602090912001546001600160a01b031603610dfd5785604051602001610cc49190614d3c565b60405160208183030381529060405280519060200120601c6000601d8481548110610cf157610cf1614d26565b60009182526020808320909101546001600160a01b0316835282810193909352604091820190209051610d249201614d58565b6040516020818303038152906040528051906020012003610dfd5784604051602001610d509190614d3c565b60405160208183030381529060405280519060200120601c6000601d8481548110610d7d57610d7d614d26565b60009182526020808320909101546001600160a01b0316835282810193909352604091820190209051610db7926001929092019101614d58565b6040516020818303038152906040528051906020012003610dfd57601d8181548110610de557610de5614d26565b6000918252602090912001546001600160a01b031691505b80610e0781614c4f565b915050610c72565b506001600160a01b0381166000908152601c602052604081206002018054859290610e3b908490614df3565b90915550505050505050565b604080518082019091523381526020808201838152600a8054600181018255600091909152835160029091027fc65a7bb8d6351c1cf70c95a316cc6a92839c986682d98bc35f958f4883f9d2a8810180546001600160a01b03939093166001600160a01b0319909316929092178255915180519193610eeb937fc65a7bb8d6351c1cf70c95a316cc6a92839c986682d98bc35f958f4883f9d2a90192910190614435565b5050336000908152600b60209081526040808320805460ff19166001179055600d8054600c90935290832082905590925090610f2683614c4f565b919050555050565b336000818152600b602052604090205460ff16610f5d5760405162461bcd60e51b81526004016105be90614e0a565b336000908152600b602052604090205460ff16610fb55760405162461bcd60e51b81526020600482015260166024820152754661726d657220646f65736e2774206578736973742160501b60448201526064016105be565b50336000908152600160205260409020805460ff19166002179055565b336000818152601f602052604090205460ff166110015760405162461bcd60e51b81526004016105be90614e39565b336000908152601f602052604090205460ff166110305760405162461bcd60e51b81526004016105be90614e39565b6000805b60255481101561121657336001600160a01b03166025828154811061105b5761105b614d26565b6000918252602090912001546001600160a01b03160361120457866040516020016110869190614d3c565b6040516020818303038152906040528051906020012060246000602584815481106110b3576110b3614d26565b60009182526020808320909101546001600160a01b03168352828101939093526040918201902090516110e69201614d58565b604051602081830303815290604052805190602001200361120457856040516020016111129190614d3c565b60405160208183030381529060405280519060200120602460006025848154811061113f5761113f614d26565b60009182526020808320909101546001600160a01b0316835282810193909352604091820190209051611179926001929092019101614d58565b6040516020818303038152906040528051906020012003611204578360246000602584815481106111ac576111ac614d26565b60009182526020808320909101546001600160a01b031683528201929092526040019020600401540361120457602581815481106111ec576111ec614d26565b6000918252602090912001546001600160a01b031691505b8061120e81614c4f565b915050611034565b506001600160a01b0381166112655760405162461bcd60e51b815260206004820152601560248201527411195d185a5b1cc8185c99481b9bdd08199bdd5b99605a1b60448201526064016105be565b6001600160a01b03811660009081526024602052604090206003018490555b505050505050565b3360008181526017602052604090205460ff166112bb5760405162461bcd60e51b81526004016105be90614cf6565b3360009081526017602052604090205460ff166113135760405162461bcd60e51b8152602060048201526016602482015275195b195d985d1bdc88191bd95cdb89dd08195e1a5cdd60521b60448201526064016105be565b6001600160a01b0387166000908152601f602052604090205460ff1661134b5760405162461bcd60e51b81526004016105be90614e39565b600054600160b01b900460ff1615156001036114db576040805160a081018252878152602080820188905281830187905260608201869052608082018590526001600160a01b038a166000908152602282529290922081518051929391926113b69284920190614435565b5060208281015180516113cf9260018501920190614435565b506040828101516002830155606083015160038301556080909201516004909101556023805460018082019092557fd57b2b5166478fd4318d2acc6cc2c704584312bdd8781b32d5d06abda57f42300180546001600160a01b03199081166001600160a01b038c8116918217909355845180860186523381526020808201928352600780546000908152600690925296812091518254851690861617825591519401805490921693909216929092179091558154919061148e83614c4f565b91905055507f1a7fbb4c0e73e5682e67378b1f56e4ce2b0b08405c53e3fb728f130d7a09b0d1338888888888886040516114ce9796959493929190614e70565b60405180910390a161153e565b60405162461bcd60e51b815260206004820152603260248201527f50726f636573736f7220646f65736e2774206578697374206f72206865206469604482015271646e277420706179207468652062696c6c7360701b60648201526084016105be565b50505050505050565b3360008181526027602052604090205460ff166115765760405162461bcd60e51b81526004016105be90614ece565b3360009081526027602052604090205460ff166107515760405162461bcd60e51b815260206004820152601960248201527f4469737472696275746f7220646f65736e27742045786973740000000000000060448201526064016105be565b3360008181526017602052604090205460ff166116045760405162461bcd60e51b81526004016105be90614cf6565b3360009081526017602052604090205460ff166116335760405162461bcd60e51b81526004016105be90614cf6565b6000805b601d548110156117d457336001600160a01b0316601d828154811061165e5761165e614d26565b6000918252602090912001546001600160a01b0316036117c257866040516020016116899190614d3c565b60405160208183030381529060405280519060200120601c6000601d84815481106116b6576116b6614d26565b60009182526020808320909101546001600160a01b03168352828101939093526040918201902090516116e99201614d58565b60405160208183030381529060405280519060200120036117c257856040516020016117159190614d3c565b60405160208183030381529060405280519060200120601c6000601d848154811061174257611742614d26565b60009182526020808320909101546001600160a01b031683528281019390935260409182019020905161177c926001929092019101614d58565b60405160208183030381529060405280519060200120036117c257601d81815481106117aa576117aa614d26565b6000918252602090912001546001600160a01b031691505b806117cc81614c4f565b915050611637565b506001600160a01b03811661189f5760408051608081018252878152602080820188905281830187905260608201869052336000908152601c82529290922081518051929391926118289284920190614435565b5060208281015180516118419260018501920190614435565b5060408201516002820155606090910151600390910155601d80546001810182556000919091527f6d4407e7be21f808e6509aa9fa9143369579dd7d760fe20a2c09680fc146134f0180546001600160a01b03191633179055611284565b336000908152601c6020526040812060020180548692906118c1908490614f05565b9091555050505050505050565b3360008181526011602052604090205460ff166118fd5760405162461bcd60e51b81526004016105be90614c02565b6000805b601454811015611a9e57336001600160a01b03166014828154811061192857611928614d26565b6000918252602090912001546001600160a01b031603611a8c57856040516020016119539190614d3c565b60405160208183030381529060405280519060200120601360006014848154811061198057611980614d26565b60009182526020808320909101546001600160a01b03168352828101939093526040918201902090516119b39201614d58565b6040516020818303038152906040528051906020012003611a8c57846040516020016119df9190614d3c565b604051602081830303815290604052805190602001206013600060148481548110611a0c57611a0c614d26565b60009182526020808320909101546001600160a01b0316835282810193909352604091820190209051611a46926001929092019101614d58565b6040516020818303038152906040528051906020012003611a8c5760148181548110611a7457611a74614d26565b6000918252602090912001546001600160a01b031691505b80611a9681614c4f565b915050611901565b506001600160a01b0316600090815260136020526040902060030191909155505050565b3360008181526011602052604090205460ff16611af15760405162461bcd60e51b81526004016105be90614c02565b6000805b601454811015611c9257336001600160a01b031660148281548110611b1c57611b1c614d26565b6000918252602090912001546001600160a01b031603611c805785604051602001611b479190614d3c565b604051602081830303815290604052805190602001206013600060148481548110611b7457611b74614d26565b60009182526020808320909101546001600160a01b0316835282810193909352604091820190209051611ba79201614d58565b6040516020818303038152906040528051906020012003611c805784604051602001611bd39190614d3c565b604051602081830303815290604052805190602001206013600060148481548110611c0057611c00614d26565b60009182526020808320909101546001600160a01b0316835282810193909352604091820190209051611c3a926001929092019101614d58565b6040516020818303038152906040528051906020012003611c805760148181548110611c6857611c68614d26565b6000918252602090912001546001600160a01b031691505b80611c8a81614c4f565b915050611af5565b506001600160a01b03811660009081526013602052604081206002018054859290610e3b908490614f05565b336000818152601f602052604090205460ff16611ced5760405162461bcd60e51b81526004016105be90614e39565b336000908152601f602052604090205460ff16611d1c5760405162461bcd60e51b81526004016105be90614e39565b6000805b602554811015611f0257336001600160a01b031660258281548110611d4757611d47614d26565b6000918252602090912001546001600160a01b031603611ef05786604051602001611d729190614d3c565b604051602081830303815290604052805190602001206024600060258481548110611d9f57611d9f614d26565b60009182526020808320909101546001600160a01b0316835282810193909352604091820190209051611dd29201614d58565b6040516020818303038152906040528051906020012003611ef05785604051602001611dfe9190614d3c565b604051602081830303815290604052805190602001206024600060258481548110611e2b57611e2b614d26565b60009182526020808320909101546001600160a01b0316835282810193909352604091820190209051611e65926001929092019101614d58565b6040516020818303038152906040528051906020012003611ef057836024600060258481548110611e9857611e98614d26565b60009182526020808320909101546001600160a01b0316835282019290925260400190206004015403611ef05760258181548110611ed857611ed8614d26565b6000918252602090912001546001600160a01b031691505b80611efa81614c4f565b915050611d20565b506001600160a01b038116611f515760405162461bcd60e51b815260206004820152601560248201527411195d185a5b1cc8185c99481b9bdd08199bdd5b99605a1b60448201526064016105be565b6001600160a01b038116600090815260246020526040812060020180548692906118c1908490614df3565b3360008181526011602052604090205460ff16611fab5760405162461bcd60e51b81526004016105be90614c02565b6040805160808101825286815260208082018790528183018690526060820185905233600090815260138252929092208151805192939192611ff09284920190614435565b5060208281015180516120099260018501920190614435565b50604082015160028201556060909101516003909101555050601480546001810182556000919091527fce6d7b5282bd9a3661ae061feed1dbda4e52ab073b1f9285be6e155d9c38d4ec0180546001600160a01b03191633179055505050565b336000818152601f602052604090205460ff166120985760405162461bcd60e51b81526004016105be90614e39565b336000908152601f602052604090205460ff166120c75760405162461bcd60e51b81526004016105be90614e39565b6001600160a01b03881660009081526027602052604090205460ff166120ff5760405162461bcd60e51b81526004016105be90614ece565b6000805b6025548110156122e557336001600160a01b03166025828154811061212a5761212a614d26565b6000918252602090912001546001600160a01b0316036122d357886040516020016121559190614d3c565b60405160208183030381529060405280519060200120602460006025848154811061218257612182614d26565b60009182526020808320909101546001600160a01b03168352828101939093526040918201902090516121b59201614d58565b60405160208183030381529060405280519060200120036122d357876040516020016121e19190614d3c565b60405160208183030381529060405280519060200120602460006025848154811061220e5761220e614d26565b60009182526020808320909101546001600160a01b0316835282810193909352604091820190209051612248926001929092019101614d58565b60405160208183030381529060405280519060200120036122d35783602460006025848154811061227b5761227b614d26565b60009182526020808320909101546001600160a01b03168352820192909252604001902060040154036122d357602581815481106122bb576122bb614d26565b6000918252602090912001546001600160a01b031691505b806122dd81614c4f565b915050612103565b50600054600160b81b900460ff1615156001036124a7576040805160e08101825289815260208082018a9052818301899052606082018890526080820187905260a082018690526001600160a01b038085166000908152602483528481206005015460c0850152908d168152602a825292909220815180519293919261236e9284920190614435565b5060208281015180516123879260018501920190614435565b506040828101516002830155606083015160038301556080830151600483015560a0830151600583015560c090920151600690910155602b805460018082019092557f11c44e4875b74d31ff9fd779bf2566af7bd15b87fc985d01f5094b89e3669e4f0180546001600160a01b03199081166001600160a01b038e8116918217909355845180860186523381526020808201928352600980546000908152600890925296812091518254851690861617825591519401805490921693909216929092179091558154919061245a83614c4f565b91905055507f5a90dbce70a764bdabc9ecf63fddd7a756bdc5826013653e8c730279beb45b0e338a8a8a8a8a8a60405161249a9796959493929190614e70565b60405180910390a161250c565b60405162461bcd60e51b815260206004820152603460248201527f4469737472696275746f7220646f65736e2774206578697374206f72206865206044820152736469646e277420706179207468652062696c6c7360601b60648201526084016105be565b505050505050505050565b336000818152601f602052604090205460ff166125465760405162461bcd60e51b81526004016105be90614e39565b336000908152601f602052604090205460ff166125755760405162461bcd60e51b81526004016105be90614cf6565b6000805b601d5481101561271657866001600160a01b0316601d82815481106125a0576125a0614d26565b6000918252602090912001546001600160a01b03160361270457856040516020016125cb9190614d3c565b60405160208183030381529060405280519060200120601c6000601d84815481106125f8576125f8614d26565b60009182526020808320909101546001600160a01b031683528281019390935260409182019020905161262b9201614d58565b604051602081830303815290604052805190602001200361270457846040516020016126579190614d3c565b60405160208183030381529060405280519060200120601c6000601d848154811061268457612684614d26565b60009182526020808320909101546001600160a01b03168352828101939093526040918201902090516126be926001929092019101614d58565b604051602081830303815290604052805190602001200361270457601d81815481106126ec576126ec614d26565b6000918252602090912001546001600160a01b031691505b8061270e81614c4f565b915050612579565b506001600160a01b0381166000908152601c60205260409020600201548311156127525760405162461bcd60e51b81526004016105be90614f1d565b6001600160a01b0381166000908152601c6020526040902060020154831161128457600034116127945760405162461bcd60e51b81526004016105be90614f68565b6001600160a01b0381166000908152601c60205260409020600301546127ba9084614f94565b34146127d85760405162461bcd60e51b81526004016105be90614fb3565b60405186906001600160a01b038216903480156108fc02916000818181858888f1935050505015801561280f573d6000803e3d6000fd5b507fb72b373712565083b236fdc23e6f7ba444a9665b3d1da4d9b2408d64c53e122d3388888888344260405161284b9796959493929190614e70565b60405180910390a16001600160a01b0382166000908152601c60205260408120600201805486929061287e908490614df3565b90915550506000805460ff60b01b1916600160b01b17905550505050505050565b336000818152600b602052604090205460ff166128ce5760405162461bcd60e51b81526004016105be90614e0a565b336000908152600b602052604090205460ff166129245760405162461bcd60e51b815260206004820152601460248201527311985c9b595c88191bd95cdb89dd08195e1a5cdd60621b60448201526064016105be565b6000805b600f54811015612ac557336001600160a01b0316600f828154811061294f5761294f614d26565b6000918252602090912001546001600160a01b031603612ab3578560405160200161297a9190614d3c565b60405160208183030381529060405280519060200120600e6000600f84815481106129a7576129a7614d26565b60009182526020808320909101546001600160a01b03168352828101939093526040918201902090516129da9201614d58565b6040516020818303038152906040528051906020012003612ab35784604051602001612a069190614d3c565b60405160208183030381529060405280519060200120600e6000600f8481548110612a3357612a33614d26565b60009182526020808320909101546001600160a01b0316835282810193909352604091820190209051612a6d926001929092019101614d58565b6040516020818303038152906040528051906020012003612ab357600f8181548110612a9b57612a9b614d26565b6000918252602090912001546001600160a01b031691505b80612abd81614c4f565b915050612928565b506001600160a01b03166000908152600e6020526040902060030191909155505050565b336000818152600b602052604090205460ff16612b185760405162461bcd60e51b81526004016105be90614e0a565b336000908152600b602052604090205460ff16612b6e5760405162461bcd60e51b815260206004820152601460248201527311985c9b595c88191bd95cdb89dd08115e1a5cdd60621b60448201526064016105be565b6000805b601454811015612d0f57866001600160a01b031660148281548110612b9957612b99614d26565b6000918252602090912001546001600160a01b031603612cfd5785604051602001612bc49190614d3c565b604051602081830303815290604052805190602001206013600060148481548110612bf157612bf1614d26565b60009182526020808320909101546001600160a01b0316835282810193909352604091820190209051612c249201614d58565b6040516020818303038152906040528051906020012003612cfd5784604051602001612c509190614d3c565b604051602081830303815290604052805190602001206013600060148481548110612c7d57612c7d614d26565b60009182526020808320909101546001600160a01b0316835282810193909352604091820190209051612cb7926001929092019101614d58565b6040516020818303038152906040528051906020012003612cfd5760148181548110612ce557612ce5614d26565b6000918252602090912001546001600160a01b031691505b80612d0781614c4f565b915050612b72565b506001600160a01b038116600090815260136020526040902060020154831115612d4b5760405162461bcd60e51b81526004016105be90614f1d565b6001600160a01b03811660009081526013602052604090206002015483116112845760003411612d8d5760405162461bcd60e51b81526004016105be90614f68565b6001600160a01b038116600090815260136020526040902060030154612db39084614f94565b3414612dd15760405162461bcd60e51b81526004016105be90614fb3565b60405186906001600160a01b038216903480156108fc02916000818181858888f19350505050158015612e08573d6000803e3d6000fd5b507f763a09a3907aa5142f5d1531400d72f0d62b4bb2d7af6cd649ebeff279b2442733888888883442604051612e449796959493929190614e70565b60405180910390a16001600160a01b03821660009081526013602052604081206002018054869290612e77908490614df3565b90915550506000805460ff60a01b1916600160a01b17905550505050505050565b336000818152600b602052604090205460ff16612ec75760405162461bcd60e51b81526004016105be90614e0a565b6001600160a01b03891660009081526017602052604090205460ff16612eff5760405162461bcd60e51b81526004016105be90614cf6565b600054600160a81b900460ff1615156001036130fc576040805160e08101825289815260208082018a9052818301899052606082018890526080820187905260a0820186905260c082018590526001600160a01b038c166000908152601a8252929092208151805192939192612f789284920190614435565b506020828101518051612f919260018501920190614435565b5060408201518160020155606082015181600301556080820151816004015560a0820151816005015560c08201518160060155905050601b899080600181540180825580915050600190039060005260206000200160009091909190916101000a8154816001600160a01b0302191690836001600160a01b031602179055506040518060400160405280336001600160a01b031681526020018a6001600160a01b031681525060046000600554815260200190815260200160002060008201518160000160006101000a8154816001600160a01b0302191690836001600160a01b0316021790555060208201518160010160006101000a8154816001600160a01b0302191690836001600160a01b03160217905550905050600560008154809291906130bc90614c4f565b91905055507f82838b23da12c1aa4f25e2e7cba2e96cc80b9047022d1596608ff789d465f4ee338a8a8a8a888860405161249a9796959493929190614e70565b60405162461bcd60e51b815260206004820152603160248201527f656c657661746f7220646f65736e2774206578697374206f72206865206469646044820152706e277420706179207468652062696c6c7360781b60648201526084016105be565b336000818152600b602052604090205460ff1661318d5760405162461bcd60e51b81526004016105be90614e0a565b336000908152600b602052604090205460ff166131e35760405162461bcd60e51b815260206004820152601460248201527311985c9b595c88191bd95cdb89dd08195e1a5cdd60621b60448201526064016105be565b60408051608081018252868152602080820187905281830186905260608201859052336000908152600e82529290922081518051929391926132289284920190614435565b5060208281015180516132419260018501920190614435565b50604082015160028201556060909101516003909101555050600f80546001810182556000919091527f8d1108e10bcb7c27dddfc02ed9d693a074039d026cf4ea4240b40f7d581ac8020180546001600160a01b03191633179055505050565b604080516060810182523381526020808201848152928201859052601e805460018101825560009190915282517f50bb669a95c7b50b7e8a6f09454034b2b14cf2b85c730dca9a539ca82cb6e350600390920291820180546001600160a01b0319166001600160a01b039092169190911781559351805193949361334e937f50bb669a95c7b50b7e8a6f09454034b2b14cf2b85c730dca9a539ca82cb6e351909301929190910190614435565b506040820151805161336a916002840191602090910190614435565b5050336000908152601f60209081526040808320805460ff1916600117905560218054928052908320829055909250906133a383614c4f565b91905055505050565b3360008181526017602052604090205460ff166133db5760405162461bcd60e51b81526004016105be90614cf6565b6000805b601d5481101561357c57336001600160a01b0316601d828154811061340657613406614d26565b6000918252602090912001546001600160a01b03160361356a57856040516020016134319190614d3c565b60405160208183030381529060405280519060200120601c6000601d848154811061345e5761345e614d26565b60009182526020808320909101546001600160a01b03168352828101939093526040918201902090516134919201614d58565b604051602081830303815290604052805190602001200361356a57846040516020016134bd9190614d3c565b60405160208183030381529060405280519060200120601c6000601d84815481106134ea576134ea614d26565b60009182526020808320909101546001600160a01b0316835282810193909352604091820190209051613524926001929092019101614d58565b604051602081830303815290604052805190602001200361356a57601d818154811061355257613552614d26565b6000918252602090912001546001600160a01b031691505b8061357481614c4f565b9150506133df565b506001600160a01b0381166000908152601c602052604081206002018054859290610e3b908490614f05565b336000818152601f602052604090205460ff166135d75760405162461bcd60e51b81526004016105be90614e39565b336000908152601f602052604090205460ff166136065760405162461bcd60e51b81526004016105be90614e39565b6040805160c0810182528881526020808201899052818301889052606082018790526080820186905260a08201859052336000908152602482529290922081518051929391926136599284920190614435565b5060208281015180516136729260018501920190614435565b5060408201516002820155606082015160038201556080820151600482015560a0909101516005909101555050602580546001810182556000919091527f401968ff42a154441da5f6c4c935ac46b8671f0e062baaa62a7545ba53bb6e4c0180546001600160a01b031916331790555050505050565b6040805160608101825233815260208082018581529282018490526010805460018101825560009190915282517f1b6847dc741a1b0cd08d278845f9d819d87b734759afb55fe2de5cb82a9ae672600390920291820180546001600160a01b0319166001600160a01b0390921691909117815593518051939493613795937f1b6847dc741a1b0cd08d278845f9d819d87b734759afb55fe2de5cb82a9ae673909301929190910190614435565b50604082015180516137b1916002840191602090910190614435565b5050336000908152601160209081526040808320805460ff19166001179055601580546012909352908320829055909250906133a383614c4f565b6040805160608101825233815260208082018481529282018590526026805460018101825560009190915282517f744a2cf8fd7008e3d53b67916e73460df9fa5214e3ef23dd4259ca09493a3594600390920291820180546001600160a01b0319166001600160a01b0390921691909117815593518051939493613899937f744a2cf8fd7008e3d53b67916e73460df9fa5214e3ef23dd4259ca09493a3595909301929190910190614435565b50604082015180516138b5916002840191602090910190614435565b5050336000908152602760209081526040808320805460ff191660011790556021546028909252822055602980549250906133a383614c4f565b3360008181526011602052604090205460ff1661391e5760405162461bcd60e51b81526004016105be90614c02565b6000805b601454811015613abf57336001600160a01b03166014828154811061394957613949614d26565b6000918252602090912001546001600160a01b031603613aad57856040516020016139749190614d3c565b6040516020818303038152906040528051906020012060136000601484815481106139a1576139a1614d26565b60009182526020808320909101546001600160a01b03168352828101939093526040918201902090516139d49201614d58565b6040516020818303038152906040528051906020012003613aad5784604051602001613a009190614d3c565b604051602081830303815290604052805190602001206013600060148481548110613a2d57613a2d614d26565b60009182526020808320909101546001600160a01b0316835282810193909352604091820190209051613a67926001929092019101614d58565b6040516020818303038152906040528051906020012003613aad5760148181548110613a9557613a95614d26565b6000918252602090912001546001600160a01b031691505b80613ab781614c4f565b915050613922565b506001600160a01b03811660009081526013602052604081206002018054859290610e3b908490614df3565b3360008181526017602052604090205460ff16613b1a5760405162461bcd60e51b81526004016105be90614cf6565b3360009081526017602052604090205460ff16613b495760405162461bcd60e51b81526004016105be90614cf6565b6000805b600f54811015613cea57866001600160a01b0316600f8281548110613b7457613b74614d26565b6000918252602090912001546001600160a01b031603613cd85785604051602001613b9f9190614d3c565b60405160208183030381529060405280519060200120600e6000600f8481548110613bcc57613bcc614d26565b60009182526020808320909101546001600160a01b0316835282810193909352604091820190209051613bff9201614d58565b6040516020818303038152906040528051906020012003613cd85784604051602001613c2b9190614d3c565b60405160208183030381529060405280519060200120600e6000600f8481548110613c5857613c58614d26565b60009182526020808320909101546001600160a01b0316835282810193909352604091820190209051613c92926001929092019101614d58565b6040516020818303038152906040528051906020012003613cd857600f8181548110613cc057613cc0614d26565b6000918252602090912001546001600160a01b031691505b80613ce281614c4f565b915050613b4d565b506001600160a01b0381166000908152600e6020526040902060020154831115613d265760405162461bcd60e51b81526004016105be90614f1d565b6001600160a01b0381166000908152600e602052604090206002015483116112845760003411613d685760405162461bcd60e51b81526004016105be90614f68565b6001600160a01b0381166000908152600e6020526040902060030154613d8e9084614f94565b3414613dac5760405162461bcd60e51b81526004016105be90614fb3565b60405186906001600160a01b038216903480156108fc02916000818181858888f19350505050158015613de3573d6000803e3d6000fd5b507f6bf88a54d8df9cdac5ae0ecd59d55dd04ef597b60c83331cc9e3943775f9c19f33888888883442604051613e1f9796959493929190614e70565b60405180910390a16001600160a01b0382166000908152600e602052604081206002018054869290613e52908490614df3565b90915550506000805460ff60a81b1916600160a81b17905550505050505050565b3360008181526017602052604090205460ff16613ea25760405162461bcd60e51b81526004016105be90614cf6565b6000805b601d5481101561404357336001600160a01b0316601d8281548110613ecd57613ecd614d26565b6000918252602090912001546001600160a01b0316036140315785604051602001613ef89190614d3c565b60405160208183030381529060405280519060200120601c6000601d8481548110613f2557613f25614d26565b60009182526020808320909101546001600160a01b0316835282810193909352604091820190209051613f589201614d58565b60405160208183030381529060405280519060200120036140315784604051602001613f849190614d3c565b60405160208183030381529060405280519060200120601c6000601d8481548110613fb157613fb1614d26565b60009182526020808320909101546001600160a01b0316835282810193909352604091820190209051613feb926001929092019101614d58565b604051602081830303815290604052805190602001200361403157601d818154811061401957614019614d26565b6000918252602090912001546001600160a01b031691505b8061403b81614c4f565b915050613ea6565b506001600160a01b03166000908152601c6020526040902060030191909155505050565b3360008181526027602052604090205460ff166140965760405162461bcd60e51b81526004016105be90614ece565b3360009081526027602052604090205460ff166140c55760405162461bcd60e51b81526004016105be90614ece565b6000805b6025548110156142ab57336001600160a01b0316602582815481106140f0576140f0614d26565b6000918252602090912001546001600160a01b031603614299578660405160200161411b9190614d3c565b60405160208183030381529060405280519060200120602460006025848154811061414857614148614d26565b60009182526020808320909101546001600160a01b031683528281019390935260409182019020905161417b9201614d58565b604051602081830303815290604052805190602001200361429957856040516020016141a79190614d3c565b6040516020818303038152906040528051906020012060246000602584815481106141d4576141d4614d26565b60009182526020808320909101546001600160a01b031683528281019390935260409182019020905161420e926001929092019101614d58565b60405160208183030381529060405280519060200120036142995783602460006025848154811061424157614241614d26565b60009182526020808320909101546001600160a01b0316835282019290925260400190206004015403614299576025818154811061428157614281614d26565b6000918252602090912001546001600160a01b031691505b806142a381614c4f565b9150506140c9565b506001600160a01b0381166000908152602460205260409020600201548411156142e75760405162461bcd60e51b81526004016105be90614f1d565b6001600160a01b038116600090815260246020526040902060020154841161153e57600034116143295760405162461bcd60e51b81526004016105be90614f68565b6001600160a01b03811660009081526024602052604090206003015461434f9085614f94565b341461436d5760405162461bcd60e51b81526004016105be90614fb3565b60405187906001600160a01b038216903480156108fc02916000818181858888f193505050501580156143a4573d6000803e3d6000fd5b507fa0b005cf2484a60b0ffe244d2c1f2b027247d0131f91bcc01e1717db97be3132338989898934426040516143e09796959493929190614e70565b60405180910390a16001600160a01b03821660009081526024602052604081206002018054879290614413908490614df3565b90915550506000805460ff60b81b1916600160b81b1790555050505050505050565b82805461444190614cbc565b90600052602060002090601f01602090048101928261446357600085556144a9565b82601f1061447c57805160ff19168380011785556144a9565b828001600101855582156144a9579182015b828111156144a957825182559160200191906001019061448e565b506144b59291506144b9565b5090565b5b808211156144b557600081556001016144ba565b6001600160a01b03811681146144e357600080fd5b50565b634e487b7160e01b600052604160045260246000fd5b600082601f83011261450d57600080fd5b813567ffffffffffffffff80821115614528576145286144e6565b604051601f8301601f19908116603f01168101908282118183101715614550576145506144e6565b8160405283815286602085880101111561456957600080fd5b836020870160208301376000602085830101528094505050505092915050565b6000806000806080858703121561459f57600080fd5b84356145aa816144ce565b9350602085013567ffffffffffffffff808211156145c757600080fd5b6145d3888389016144fc565b945060408701359150808211156145e957600080fd5b506145f6878288016144fc565b949793965093946060013593505050565b60005b8381101561462257818101518382015260200161460a565b83811115614631576000848401525b50505050565b6000815180845261464f816020860160208601614607565b601f01601f19169290920160200192915050565b6000604080830181845280865180835260608601915060608160051b8701019250602080890160005b838110156146d457888603605f19018552815180516001600160a01b031687528301518387018890526146c188880182614637565b965050938201939082019060010161468c565b5050959095019590955295945050505050565b6000602082840312156146f957600080fd5b5035919050565b60008060006060848603121561471557600080fd5b833567ffffffffffffffff8082111561472d57600080fd5b614739878388016144fc565b9450602086013591508082111561474f57600080fd5b5061475c868287016144fc565b925050604084013590509250925092565b60006040808301818452808651808352606092508286019150828160051b8701016020808a0160005b848110156147f857898403605f19018652815180516001600160a01b03168552838101518486018990526147cc89870182614637565b918a0151868303878c01529190506147e48183614637565b978501979550505090820190600101614796565b50509690960196909652509295945050505050565b60006020828403121561481f57600080fd5b813567ffffffffffffffff81111561483657600080fd5b614842848285016144fc565b949350505050565b6000806000806080858703121561486057600080fd5b843567ffffffffffffffff8082111561487857600080fd5b614884888389016144fc565b9550602087013591508082111561489a57600080fd5b506148a7878288016144fc565b949794965050505060408301359260600135919050565b60008060008060008060c087890312156148d757600080fd5b86356148e2816144ce565b9550602087013567ffffffffffffffff808211156148ff57600080fd5b61490b8a838b016144fc565b9650604089013591508082111561492157600080fd5b5061492e89828a016144fc565b945050606087013592506080870135915060a087013590509295509295509295565b600080600080600080600060e0888a03121561496b57600080fd5b8735614976816144ce565b9650602088013567ffffffffffffffff8082111561499357600080fd5b61499f8b838c016144fc565b975060408a01359150808211156149b557600080fd5b506149c28a828b016144fc565b979a96995096976060810135975060808101359660a0820135965060c090910135945092505050565b600080600080600080600080610100898b031215614a0857600080fd5b8835614a13816144ce565b9750602089013567ffffffffffffffff80821115614a3057600080fd5b614a3c8c838d016144fc565b985060408b0135915080821115614a5257600080fd5b50614a5f8b828c016144fc565b989b979a5097986060810135985060808101359760a0820135975060c0820135965060e090910135945092505050565b60008060408385031215614aa257600080fd5b823567ffffffffffffffff80821115614aba57600080fd5b614ac6868387016144fc565b93506020850135915080821115614adc57600080fd5b50614ae9858286016144fc565b9150509250929050565b60008060008060008060c08789031215614b0c57600080fd5b863567ffffffffffffffff80821115614b2457600080fd5b614b308a838b016144fc565b97506020890135915080821115614b4657600080fd5b50614b5389828a016144fc565b96999698505050506040850135946060810135946080820135945060a09091013592509050565b600080600080600060a08688031215614b9257600080fd5b8535614b9d816144ce565b9450602086013567ffffffffffffffff80821115614bba57600080fd5b614bc689838a016144fc565b95506040880135915080821115614bdc57600080fd5b50614be9888289016144fc565b9598949750949560608101359550608001359392505050565b6020808252601b908201527f5365656420636f6d70616e7920646f65736e2774206578697374210000000000604082015260600190565b634e487b7160e01b600052601160045260246000fd5b600060018201614c6157614c61614c39565b5060010190565b6001600160a01b0387811682528616602082015260c060408201819052600090614c9490830187614637565b8281036060840152614ca68187614637565b6080840195909552505060a00152949350505050565b600181811c90821680614cd057607f821691505b602082108103614cf057634e487b7160e01b600052602260045260246000fd5b50919050565b602080825260169082015275115b195d985d1bdc88191bd95cdb89dd08195e1a5cdd60521b604082015260600190565b634e487b7160e01b600052603260045260246000fd5b60008251614d4e818460208701614607565b9190910192915050565b600080835481600182811c915080831680614d7457607f831692505b60208084108203614d9357634e487b7160e01b86526022600452602486fd5b818015614da75760018114614db857614de5565b60ff19861689528489019650614de5565b60008a81526020902060005b86811015614ddd5781548b820152908501908301614dc4565b505084890196505b509498975050505050505050565b600082821015614e0557614e05614c39565b500390565b6020808252601590820152744661726d657220646f65736e27742065787369732160581b604082015260600190565b60208082526017908201527f50726f636573736f7220646f65736e2774206578697374000000000000000000604082015260600190565b6001600160a01b0388811682528716602082015260e060408201819052600090614e9c90830188614637565b8281036060840152614eae8188614637565b6080840196909652505060a081019290925260c090910152949350505050565b60208082526019908201527f4469737472696275746f7220646f65736e277420657869737400000000000000604082015260600190565b60008219821115614f1857614f18614c39565b500190565b6020808252602b908201527f54686973206d7563682071756e6174697479206f662073656564206973206e6f60408201526a7420617661696c61626c6560a81b606082015260800190565b6020808252601290820152710796f75206861766520656e746572656420360741b604082015260600190565b6000816000190483118215151615614fae57614fae614c39565b500290565b60208082526025908201527f596f7520686176656e277420656e74657264207468652065787065637465642060408201526476616c756560d81b60608201526080019056fea264697066735822122082a21bb2eeace2f4a44d2c0dd12955ba855479bee1b7a3decc109091f3cc5f8964736f6c634300080e0033",
    "sourcePath": "e:/JSS Mysore/6th Semester/EC67L D&I/Project/project.sol",
    "compiler": {
        "name": "solc",
        "version": "0.8.14+commit.80d49f37"
    },
    "functionHashes": {
        "addDistributor(string,string)": "dc2fdb14",
        "addElevator(string,string,uint256)": "17cf2c15",
        "addFarmer(string)": "2d7e2e8b",
        "addGrainQuantityFromElevator(string,string,uint256)": "cb8f510b",
        "addProcessor(string,string)": "c7d5c332",
        "addSeedCompany(string,string)": "d49376ca",
        "addSeedQuantity(string,string,uint256)": "5eb78b8c",
        "buyGrainFromElevator(address,string,string,uint256)": "9375946d",
        "buyGrainFromFarmer(address,string,string,uint256)": "dcdd5bce",
        "buyGrainFromProcessor(address,string,string,uint256,uint256)": "f8135d55",
        "buySeeds(address,string,string,uint256)": "b9ac42b2",
        "createContract()": "412a5a6d",
        "getListOfFarmer()": "03f8027a",
        "getListOfseedCompany()": "1aeb4ec7",
        "removeGrainQuantityFromElevator(string,string,uint256)": "1b5e33ac",
        "removeProcessedGrainQuantity(string,string,uint256,uint256)": "701838a1",
        "removeSeedQuantity(string,string,uint256)": "dc441ba8",
        "sellGrainToDistributorFromProcessor(address,string,string,uint256,uint256,uint256,uint256)": "8c4a68bd",
        "sellGrainToElevator(address,string,string,uint256,uint256,uint256,uint256,uint256)": "c10e8579",
        "sellGrainToProcessor(address,string,string,uint256,uint256,uint256)": "47f15ddf",
        "sellSeeds(address,string,string,uint256)": "02ca78f2",
        "updateDistributerGrain(string,string,uint256,uint256)": "513d9b94",
        "updateGrainFarmerQuantity(string,string,uint256,uint256)": "c16634b7",
        "updateGrainPriceByFarmer(string,string,uint256)": "b5d765de",
        "updateGrainPriceFromElevator(string,string,uint256)": "f66959ee",
        "updateProcessedGrainDetails(string,string,uint256,uint256,uint256,uint256)": "ccc7cada",
        "updateProcessedGrainPrice(string,string,uint256,uint256)": "427449ec",
        "updateSeedDetails(string,string,uint256,uint256)": "719fae32",
        "updateSeedPrice(string,string,uint256)": "59a1d1a3",
        "updateStorageQuantity(uint256)": "166d9eaa",
        "updategrainDetailsFromElevator(string,string,uint256,uint256)": "53b2d0fd"
    },
    "gasEstimates": {
        "creation": {
            "codeDepositCost": "4105200",
            "executionCost": "88224",
            "totalCost": "4193424"
        },
        "external": {
            "addDistributor(string,string)": "infinite",
            "addElevator(string,string,uint256)": "infinite",
            "addFarmer(string)": "infinite",
            "addGrainQuantityFromElevator(string,string,uint256)": "infinite",
            "addProcessor(string,string)": "infinite",
            "addSeedCompany(string,string)": "infinite",
            "addSeedQuantity(string,string,uint256)": "infinite",
            "buyGrainFromElevator(address,string,string,uint256)": "infinite",
            "buyGrainFromFarmer(address,string,string,uint256)": "infinite",
            "buyGrainFromProcessor(address,string,string,uint256,uint256)": "infinite",
            "buySeeds(address,string,string,uint256)": "infinite",
            "createContract()": "28866",
            "getListOfFarmer()": "infinite",
            "getListOfseedCompany()": "infinite",
            "removeGrainQuantityFromElevator(string,string,uint256)": "infinite",
            "removeProcessedGrainQuantity(string,string,uint256,uint256)": "infinite",
            "removeSeedQuantity(string,string,uint256)": "infinite",
            "sellGrainToDistributorFromProcessor(address,string,string,uint256,uint256,uint256,uint256)": "infinite",
            "sellGrainToElevator(address,string,string,uint256,uint256,uint256,uint256,uint256)": "infinite",
            "sellGrainToProcessor(address,string,string,uint256,uint256,uint256)": "infinite",
            "sellSeeds(address,string,string,uint256)": "infinite",
            "updateDistributerGrain(string,string,uint256,uint256)": "infinite",
            "updateGrainFarmerQuantity(string,string,uint256,uint256)": "infinite",
            "updateGrainPriceByFarmer(string,string,uint256)": "infinite",
            "updateGrainPriceFromElevator(string,string,uint256)": "infinite",
            "updateProcessedGrainDetails(string,string,uint256,uint256,uint256,uint256)": "infinite",
            "updateProcessedGrainPrice(string,string,uint256,uint256)": "infinite",
            "updateSeedDetails(string,string,uint256,uint256)": "infinite",
            "updateSeedPrice(string,string,uint256)": "infinite",
            "updateStorageQuantity(uint256)": "infinite",
            "updategrainDetailsFromElevator(string,string,uint256,uint256)": "infinite"
        }
    }
}